{
	"contracts/6_advanced_functions.sol": {
		"Hamburger": {
			"abi": [
				{
					"inputs": [],
					"stateMutability": "nonpayable",
					"type": "constructor"
				},
				{
					"inputs": [
						{
							"internalType": "string",
							"name": "_ingredients",
							"type": "string"
						},
						{
							"internalType": "uint256",
							"name": "_uints",
							"type": "uint256"
						}
					],
					"name": "doHamburger",
					"outputs": [],
					"stateMutability": "nonpayable",
					"type": "function"
				},
				{
					"inputs": [
						{
							"internalType": "uint256",
							"name": "_number",
							"type": "uint256"
						}
					],
					"name": "hashPrivateNumber",
					"outputs": [
						{
							"internalType": "bytes32",
							"name": "",
							"type": "bytes32"
						}
					],
					"stateMutability": "view",
					"type": "function"
				},
				{
					"inputs": [],
					"name": "owner",
					"outputs": [
						{
							"internalType": "address",
							"name": "",
							"type": "address"
						}
					],
					"stateMutability": "view",
					"type": "function"
				}
			],
			"devdoc": {
				"kind": "dev",
				"methods": {},
				"version": 1
			},
			"evm": {
				"assembly": "    /* \"contracts/6_advanced_functions.sol\":405:1206  contract Hamburger is food {\r... */\n  mstore(0x40, 0x80)\n    /* \"contracts/6_advanced_functions.sol\":468:520  constructor () {\r... */\n  callvalue\n  dup1\n  iszero\n  tag_1\n  jumpi\n  0x00\n  dup1\n  revert\ntag_1:\n  pop\n    /* \"contracts/6_advanced_functions.sol\":502:512  msg.sender */\n  caller\n    /* \"contracts/6_advanced_functions.sol\":494:499  owner */\n  0x01\n  0x00\n    /* \"contracts/6_advanced_functions.sol\":494:512  owner = msg.sender */\n  0x0100\n  exp\n  dup2\n  sload\n  dup2\n  0xffffffffffffffffffffffffffffffffffffffff\n  mul\n  not\n  and\n  swap1\n  dup4\n  0xffffffffffffffffffffffffffffffffffffffff\n  and\n  mul\n  or\n  swap1\n  sstore\n  pop\n    /* \"contracts/6_advanced_functions.sol\":405:1206  contract Hamburger is food {\r... */\n  dataSize(sub_0)\n  dup1\n  dataOffset(sub_0)\n  0x00\n  codecopy\n  0x00\n  return\nstop\n\nsub_0: assembly {\n        /* \"contracts/6_advanced_functions.sol\":405:1206  contract Hamburger is food {\r... */\n      mstore(0x40, 0x80)\n      callvalue\n      dup1\n      iszero\n      tag_1\n      jumpi\n      0x00\n      dup1\n      revert\n    tag_1:\n      pop\n      jumpi(tag_2, lt(calldatasize, 0x04))\n      shr(0xe0, calldataload(0x00))\n      dup1\n      0x8da5cb5b\n      eq\n      tag_3\n      jumpi\n      dup1\n      0xa22641bc\n      eq\n      tag_4\n      jumpi\n      dup1\n      0xbda02842\n      eq\n      tag_5\n      jumpi\n    tag_2:\n      0x00\n      dup1\n      revert\n        /* \"contracts/6_advanced_functions.sol\":439:459  address public owner */\n    tag_3:\n      tag_6\n      tag_7\n      jump\t// in\n    tag_6:\n      mload(0x40)\n      tag_8\n      swap2\n      swap1\n      tag_9\n      jump\t// in\n    tag_8:\n      mload(0x40)\n      dup1\n      swap2\n      sub\n      swap1\n      return\n        /* \"contracts/6_advanced_functions.sol\":577:782  function doHamburger(string memory _ingredients, uint256 _uints) external {\r... */\n    tag_4:\n      tag_10\n      0x04\n      dup1\n      calldatasize\n      sub\n      dup2\n      add\n      swap1\n      tag_11\n      swap2\n      swap1\n      tag_12\n      jump\t// in\n    tag_11:\n      tag_13\n      jump\t// in\n    tag_10:\n      stop\n        /* \"contracts/6_advanced_functions.sol\":841:990  function hashPrivateNumber (uint256 _number) public view onlyOwner returns (bytes32) {\r... */\n    tag_5:\n      tag_14\n      0x04\n      dup1\n      calldatasize\n      sub\n      dup2\n      add\n      swap1\n      tag_15\n      swap2\n      swap1\n      tag_16\n      jump\t// in\n    tag_15:\n      tag_17\n      jump\t// in\n    tag_14:\n      mload(0x40)\n      tag_18\n      swap2\n      swap1\n      tag_19\n      jump\t// in\n    tag_18:\n      mload(0x40)\n      dup1\n      swap2\n      sub\n      swap1\n      return\n        /* \"contracts/6_advanced_functions.sol\":439:459  address public owner */\n    tag_7:\n      0x01\n      0x00\n      swap1\n      sload\n      swap1\n      0x0100\n      exp\n      swap1\n      div\n      0xffffffffffffffffffffffffffffffffffffffff\n      and\n      dup2\n      jump\t// out\n        /* \"contracts/6_advanced_functions.sol\":577:782  function doHamburger(string memory _ingredients, uint256 _uints) external {\r... */\n    tag_13:\n        /* \"contracts/6_advanced_functions.sol\":680:681  5 */\n      0x05\n        /* \"contracts/6_advanced_functions.sol\":670:676  _uints */\n      dup2\n        /* \"contracts/6_advanced_functions.sol\":670:681  _uints <= 5 */\n      gt\n      iszero\n        /* \"contracts/6_advanced_functions.sol\":662:728  require(_uints <= 5, \"Ups, please check the uints of hamburgers!\") */\n      tag_21\n      jumpi\n      mload(0x40)\n      0x08c379a000000000000000000000000000000000000000000000000000000000\n      dup2\n      mstore\n      0x04\n      add\n      tag_22\n      swap1\n      tag_23\n      jump\t// in\n    tag_22:\n      mload(0x40)\n      dup1\n      swap2\n      sub\n      swap1\n      revert\n    tag_21:\n        /* \"contracts/6_advanced_functions.sol\":739:774  newPlate(\"Hamburger\", _ingredients) */\n      tag_24\n      mload(0x40)\n      dup1\n      0x40\n      add\n      0x40\n      mstore\n      dup1\n      0x09\n      dup2\n      mstore\n      0x20\n      add\n      0x48616d6275726765720000000000000000000000000000000000000000000000\n      dup2\n      mstore\n      pop\n        /* \"contracts/6_advanced_functions.sol\":761:773  _ingredients */\n      dup4\n        /* \"contracts/6_advanced_functions.sol\":739:747  newPlate */\n      tag_25\n        /* \"contracts/6_advanced_functions.sol\":739:774  newPlate(\"Hamburger\", _ingredients) */\n      jump\t// in\n    tag_24:\n        /* \"contracts/6_advanced_functions.sol\":577:782  function doHamburger(string memory _ingredients, uint256 _uints) external {\r... */\n      pop\n      pop\n      jump\t// out\n        /* \"contracts/6_advanced_functions.sol\":841:990  function hashPrivateNumber (uint256 _number) public view onlyOwner returns (bytes32) {\r... */\n    tag_17:\n        /* \"contracts/6_advanced_functions.sol\":917:924  bytes32 */\n      0x00\n        /* \"contracts/6_advanced_functions.sol\":1116:1126  msg.sender */\n      caller\n        /* \"contracts/6_advanced_functions.sol\":1107:1126  owner == msg.sender */\n      0xffffffffffffffffffffffffffffffffffffffff\n      and\n        /* \"contracts/6_advanced_functions.sol\":1107:1112  owner */\n      0x01\n      0x00\n      swap1\n      sload\n      swap1\n      0x0100\n      exp\n      swap1\n      div\n      0xffffffffffffffffffffffffffffffffffffffff\n      and\n        /* \"contracts/6_advanced_functions.sol\":1107:1126  owner == msg.sender */\n      0xffffffffffffffffffffffffffffffffffffffff\n      and\n      eq\n        /* \"contracts/6_advanced_functions.sol\":1098:1179  require (owner == msg.sender, \"You do not permissions to excecute this function\") */\n      tag_27\n      jumpi\n      mload(0x40)\n      0x08c379a000000000000000000000000000000000000000000000000000000000\n      dup2\n      mstore\n      0x04\n      add\n      tag_28\n      swap1\n      tag_29\n      jump\t// in\n    tag_28:\n      mload(0x40)\n      dup1\n      swap2\n      sub\n      swap1\n      revert\n    tag_27:\n        /* \"contracts/6_advanced_functions.sol\":971:978  _number */\n      dup2\n        /* \"contracts/6_advanced_functions.sol\":954:979  abi.encodePacked(_number) */\n      add(0x20, mload(0x40))\n      tag_31\n      swap2\n      swap1\n      tag_32\n      jump\t// in\n    tag_31:\n      mload(0x40)\n      0x20\n      dup2\n      dup4\n      sub\n      sub\n      dup2\n      mstore\n      swap1\n      0x40\n      mstore\n        /* \"contracts/6_advanced_functions.sol\":944:980  keccak256(abi.encodePacked(_number)) */\n      dup1\n      mload\n      swap1\n      0x20\n      add\n      keccak256\n        /* \"contracts/6_advanced_functions.sol\":937:980  return keccak256(abi.encodePacked(_number)) */\n      swap1\n      pop\n        /* \"contracts/6_advanced_functions.sol\":841:990  function hashPrivateNumber (uint256 _number) public view onlyOwner returns (bytes32) {\r... */\n      swap2\n      swap1\n      pop\n      jump\t// out\n        /* \"contracts/6_advanced_functions.sol\":258:398  function newPlate (string memory _name, string memory _ingredients) internal {\r... */\n    tag_25:\n        /* \"contracts/6_advanced_functions.sol\":346:350  menu */\n      0x00\n        /* \"contracts/6_advanced_functions.sol\":356:389  dinnertPlate(_name, _ingredients) */\n      mload(0x40)\n      dup1\n      0x40\n      add\n      0x40\n      mstore\n      dup1\n        /* \"contracts/6_advanced_functions.sol\":369:374  _name */\n      dup5\n        /* \"contracts/6_advanced_functions.sol\":356:389  dinnertPlate(_name, _ingredients) */\n      dup2\n      mstore\n      0x20\n      add\n        /* \"contracts/6_advanced_functions.sol\":376:388  _ingredients */\n      dup4\n        /* \"contracts/6_advanced_functions.sol\":356:389  dinnertPlate(_name, _ingredients) */\n      dup2\n      mstore\n      pop\n        /* \"contracts/6_advanced_functions.sol\":346:390  menu.push(dinnertPlate(_name, _ingredients)) */\n      swap1\n      dup1\n      0x01\n      dup2\n      sload\n      add\n      dup1\n      dup3\n      sstore\n      dup1\n      swap2\n      pop\n      pop\n      0x01\n      swap1\n      sub\n      swap1\n      0x00\n      mstore\n      keccak256(0x00, 0x20)\n      swap1\n      0x02\n      mul\n      add\n      0x00\n      swap1\n      swap2\n      swap1\n      swap2\n      swap1\n      swap2\n      pop\n      0x00\n      dup3\n      add\n      mload\n      dup2\n      0x00\n      add\n      swap1\n      dup1\n      mload\n      swap1\n      0x20\n      add\n      swap1\n      tag_35\n      swap3\n      swap2\n      swap1\n      tag_36\n      jump\t// in\n    tag_35:\n      pop\n      0x20\n      dup3\n      add\n      mload\n      dup2\n      0x01\n      add\n      swap1\n      dup1\n      mload\n      swap1\n      0x20\n      add\n      swap1\n      tag_37\n      swap3\n      swap2\n      swap1\n      tag_36\n      jump\t// in\n    tag_37:\n      pop\n      pop\n      pop\n        /* \"contracts/6_advanced_functions.sol\":258:398  function newPlate (string memory _name, string memory _ingredients) internal {\r... */\n      pop\n      pop\n      jump\t// out\n    tag_36:\n      dup3\n      dup1\n      sload\n      tag_38\n      swap1\n      tag_39\n      jump\t// in\n    tag_38:\n      swap1\n      0x00\n      mstore\n      keccak256(0x00, 0x20)\n      swap1\n      0x1f\n      add\n      0x20\n      swap1\n      div\n      dup2\n      add\n      swap3\n      dup3\n      tag_41\n      jumpi\n      0x00\n      dup6\n      sstore\n      jump(tag_40)\n    tag_41:\n      dup3\n      0x1f\n      lt\n      tag_42\n      jumpi\n      dup1\n      mload\n      not(0xff)\n      and\n      dup4\n      dup1\n      add\n      or\n      dup6\n      sstore\n      jump(tag_40)\n    tag_42:\n      dup3\n      dup1\n      add\n      0x01\n      add\n      dup6\n      sstore\n      dup3\n      iszero\n      tag_40\n      jumpi\n      swap2\n      dup3\n      add\n    tag_43:\n      dup3\n      dup2\n      gt\n      iszero\n      tag_44\n      jumpi\n      dup3\n      mload\n      dup3\n      sstore\n      swap2\n      0x20\n      add\n      swap2\n      swap1\n      0x01\n      add\n      swap1\n      jump(tag_43)\n    tag_44:\n    tag_40:\n      pop\n      swap1\n      pop\n      tag_45\n      swap2\n      swap1\n      tag_46\n      jump\t// in\n    tag_45:\n      pop\n      swap1\n      jump\t// out\n    tag_46:\n    tag_47:\n      dup1\n      dup3\n      gt\n      iszero\n      tag_48\n      jumpi\n      0x00\n      dup2\n      0x00\n      swap1\n      sstore\n      pop\n      0x01\n      add\n      jump(tag_47)\n    tag_48:\n      pop\n      swap1\n      jump\t// out\n        /* \"#utility.yul\":7:352   */\n    tag_50:\n      0x00\n        /* \"#utility.yul\":110:176   */\n      tag_52\n        /* \"#utility.yul\":126:175   */\n      tag_53\n        /* \"#utility.yul\":168:174   */\n      dup5\n        /* \"#utility.yul\":126:175   */\n      tag_54\n      jump\t// in\n    tag_53:\n        /* \"#utility.yul\":110:176   */\n      tag_55\n      jump\t// in\n    tag_52:\n        /* \"#utility.yul\":101:176   */\n      swap1\n      pop\n        /* \"#utility.yul\":199:205   */\n      dup3\n        /* \"#utility.yul\":192:197   */\n      dup2\n        /* \"#utility.yul\":185:206   */\n      mstore\n        /* \"#utility.yul\":237:241   */\n      0x20\n        /* \"#utility.yul\":230:235   */\n      dup2\n        /* \"#utility.yul\":226:242   */\n      add\n        /* \"#utility.yul\":275:278   */\n      dup5\n        /* \"#utility.yul\":266:272   */\n      dup5\n        /* \"#utility.yul\":261:264   */\n      dup5\n        /* \"#utility.yul\":257:273   */\n      add\n        /* \"#utility.yul\":254:279   */\n      gt\n        /* \"#utility.yul\":251:253   */\n      iszero\n      tag_56\n      jumpi\n        /* \"#utility.yul\":292:293   */\n      0x00\n        /* \"#utility.yul\":289:290   */\n      dup1\n        /* \"#utility.yul\":282:294   */\n      revert\n        /* \"#utility.yul\":251:253   */\n    tag_56:\n        /* \"#utility.yul\":305:346   */\n      tag_57\n        /* \"#utility.yul\":339:345   */\n      dup5\n        /* \"#utility.yul\":334:337   */\n      dup3\n        /* \"#utility.yul\":329:332   */\n      dup6\n        /* \"#utility.yul\":305:346   */\n      tag_58\n      jump\t// in\n    tag_57:\n        /* \"#utility.yul\":91:352   */\n      pop\n      swap4\n      swap3\n      pop\n      pop\n      pop\n      jump\t// out\n        /* \"#utility.yul\":372:645   */\n    tag_59:\n      0x00\n        /* \"#utility.yul\":477:480   */\n      dup3\n        /* \"#utility.yul\":470:474   */\n      0x1f\n        /* \"#utility.yul\":462:468   */\n      dup4\n        /* \"#utility.yul\":458:475   */\n      add\n        /* \"#utility.yul\":454:481   */\n      slt\n        /* \"#utility.yul\":444:446   */\n      tag_61\n      jumpi\n        /* \"#utility.yul\":495:496   */\n      0x00\n        /* \"#utility.yul\":492:493   */\n      dup1\n        /* \"#utility.yul\":485:497   */\n      revert\n        /* \"#utility.yul\":444:446   */\n    tag_61:\n        /* \"#utility.yul\":535:541   */\n      dup2\n        /* \"#utility.yul\":522:542   */\n      calldataload\n        /* \"#utility.yul\":560:639   */\n      tag_62\n        /* \"#utility.yul\":635:638   */\n      dup5\n        /* \"#utility.yul\":627:633   */\n      dup3\n        /* \"#utility.yul\":620:624   */\n      0x20\n        /* \"#utility.yul\":612:618   */\n      dup7\n        /* \"#utility.yul\":608:625   */\n      add\n        /* \"#utility.yul\":560:639   */\n      tag_50\n      jump\t// in\n    tag_62:\n        /* \"#utility.yul\":551:639   */\n      swap2\n      pop\n        /* \"#utility.yul\":434:645   */\n      pop\n      swap3\n      swap2\n      pop\n      pop\n      jump\t// out\n        /* \"#utility.yul\":651:790   */\n    tag_63:\n      0x00\n        /* \"#utility.yul\":735:741   */\n      dup2\n        /* \"#utility.yul\":722:742   */\n      calldataload\n        /* \"#utility.yul\":713:742   */\n      swap1\n      pop\n        /* \"#utility.yul\":751:784   */\n      tag_65\n        /* \"#utility.yul\":778:783   */\n      dup2\n        /* \"#utility.yul\":751:784   */\n      tag_66\n      jump\t// in\n    tag_65:\n        /* \"#utility.yul\":703:790   */\n      swap3\n      swap2\n      pop\n      pop\n      jump\t// out\n        /* \"#utility.yul\":796:1316   */\n    tag_12:\n      0x00\n      dup1\n        /* \"#utility.yul\":931:933   */\n      0x40\n        /* \"#utility.yul\":919:928   */\n      dup4\n        /* \"#utility.yul\":910:917   */\n      dup6\n        /* \"#utility.yul\":906:929   */\n      sub\n        /* \"#utility.yul\":902:934   */\n      slt\n        /* \"#utility.yul\":899:901   */\n      iszero\n      tag_68\n      jumpi\n        /* \"#utility.yul\":947:948   */\n      0x00\n        /* \"#utility.yul\":944:945   */\n      dup1\n        /* \"#utility.yul\":937:949   */\n      revert\n        /* \"#utility.yul\":899:901   */\n    tag_68:\n        /* \"#utility.yul\":1018:1019   */\n      0x00\n        /* \"#utility.yul\":1007:1016   */\n      dup4\n        /* \"#utility.yul\":1003:1020   */\n      add\n        /* \"#utility.yul\":990:1021   */\n      calldataload\n        /* \"#utility.yul\":1048:1066   */\n      0xffffffffffffffff\n        /* \"#utility.yul\":1040:1046   */\n      dup2\n        /* \"#utility.yul\":1037:1067   */\n      gt\n        /* \"#utility.yul\":1034:1036   */\n      iszero\n      tag_69\n      jumpi\n        /* \"#utility.yul\":1080:1081   */\n      0x00\n        /* \"#utility.yul\":1077:1078   */\n      dup1\n        /* \"#utility.yul\":1070:1082   */\n      revert\n        /* \"#utility.yul\":1034:1036   */\n    tag_69:\n        /* \"#utility.yul\":1108:1171   */\n      tag_70\n        /* \"#utility.yul\":1163:1170   */\n      dup6\n        /* \"#utility.yul\":1154:1160   */\n      dup3\n        /* \"#utility.yul\":1143:1152   */\n      dup7\n        /* \"#utility.yul\":1139:1161   */\n      add\n        /* \"#utility.yul\":1108:1171   */\n      tag_59\n      jump\t// in\n    tag_70:\n        /* \"#utility.yul\":1098:1171   */\n      swap3\n      pop\n        /* \"#utility.yul\":961:1181   */\n      pop\n        /* \"#utility.yul\":1220:1222   */\n      0x20\n        /* \"#utility.yul\":1246:1299   */\n      tag_71\n        /* \"#utility.yul\":1291:1298   */\n      dup6\n        /* \"#utility.yul\":1282:1288   */\n      dup3\n        /* \"#utility.yul\":1271:1280   */\n      dup7\n        /* \"#utility.yul\":1267:1289   */\n      add\n        /* \"#utility.yul\":1246:1299   */\n      tag_63\n      jump\t// in\n    tag_71:\n        /* \"#utility.yul\":1236:1299   */\n      swap2\n      pop\n        /* \"#utility.yul\":1191:1309   */\n      pop\n        /* \"#utility.yul\":889:1316   */\n      swap3\n      pop\n      swap3\n      swap1\n      pop\n      jump\t// out\n        /* \"#utility.yul\":1322:1584   */\n    tag_16:\n      0x00\n        /* \"#utility.yul\":1430:1432   */\n      0x20\n        /* \"#utility.yul\":1418:1427   */\n      dup3\n        /* \"#utility.yul\":1409:1416   */\n      dup5\n        /* \"#utility.yul\":1405:1428   */\n      sub\n        /* \"#utility.yul\":1401:1433   */\n      slt\n        /* \"#utility.yul\":1398:1400   */\n      iszero\n      tag_73\n      jumpi\n        /* \"#utility.yul\":1446:1447   */\n      0x00\n        /* \"#utility.yul\":1443:1444   */\n      dup1\n        /* \"#utility.yul\":1436:1448   */\n      revert\n        /* \"#utility.yul\":1398:1400   */\n    tag_73:\n        /* \"#utility.yul\":1489:1490   */\n      0x00\n        /* \"#utility.yul\":1514:1567   */\n      tag_74\n        /* \"#utility.yul\":1559:1566   */\n      dup5\n        /* \"#utility.yul\":1550:1556   */\n      dup3\n        /* \"#utility.yul\":1539:1548   */\n      dup6\n        /* \"#utility.yul\":1535:1557   */\n      add\n        /* \"#utility.yul\":1514:1567   */\n      tag_63\n      jump\t// in\n    tag_74:\n        /* \"#utility.yul\":1504:1567   */\n      swap2\n      pop\n        /* \"#utility.yul\":1460:1577   */\n      pop\n        /* \"#utility.yul\":1388:1584   */\n      swap3\n      swap2\n      pop\n      pop\n      jump\t// out\n        /* \"#utility.yul\":1590:1708   */\n    tag_75:\n        /* \"#utility.yul\":1677:1701   */\n      tag_77\n        /* \"#utility.yul\":1695:1700   */\n      dup2\n        /* \"#utility.yul\":1677:1701   */\n      tag_78\n      jump\t// in\n    tag_77:\n        /* \"#utility.yul\":1672:1675   */\n      dup3\n        /* \"#utility.yul\":1665:1702   */\n      mstore\n        /* \"#utility.yul\":1655:1708   */\n      pop\n      pop\n      jump\t// out\n        /* \"#utility.yul\":1714:1832   */\n    tag_79:\n        /* \"#utility.yul\":1801:1825   */\n      tag_81\n        /* \"#utility.yul\":1819:1824   */\n      dup2\n        /* \"#utility.yul\":1801:1825   */\n      tag_82\n      jump\t// in\n    tag_81:\n        /* \"#utility.yul\":1796:1799   */\n      dup3\n        /* \"#utility.yul\":1789:1826   */\n      mstore\n        /* \"#utility.yul\":1779:1832   */\n      pop\n      pop\n      jump\t// out\n        /* \"#utility.yul\":1838:2204   */\n    tag_83:\n      0x00\n        /* \"#utility.yul\":2001:2068   */\n      tag_85\n        /* \"#utility.yul\":2065:2067   */\n      0x30\n        /* \"#utility.yul\":2060:2063   */\n      dup4\n        /* \"#utility.yul\":2001:2068   */\n      tag_86\n      jump\t// in\n    tag_85:\n        /* \"#utility.yul\":1994:2068   */\n      swap2\n      pop\n        /* \"#utility.yul\":2077:2170   */\n      tag_87\n        /* \"#utility.yul\":2166:2169   */\n      dup3\n        /* \"#utility.yul\":2077:2170   */\n      tag_88\n      jump\t// in\n    tag_87:\n        /* \"#utility.yul\":2195:2197   */\n      0x40\n        /* \"#utility.yul\":2190:2193   */\n      dup3\n        /* \"#utility.yul\":2186:2198   */\n      add\n        /* \"#utility.yul\":2179:2198   */\n      swap1\n      pop\n        /* \"#utility.yul\":1984:2204   */\n      swap2\n      swap1\n      pop\n      jump\t// out\n        /* \"#utility.yul\":2210:2576   */\n    tag_89:\n      0x00\n        /* \"#utility.yul\":2373:2440   */\n      tag_91\n        /* \"#utility.yul\":2437:2439   */\n      0x2a\n        /* \"#utility.yul\":2432:2435   */\n      dup4\n        /* \"#utility.yul\":2373:2440   */\n      tag_86\n      jump\t// in\n    tag_91:\n        /* \"#utility.yul\":2366:2440   */\n      swap2\n      pop\n        /* \"#utility.yul\":2449:2542   */\n      tag_92\n        /* \"#utility.yul\":2538:2541   */\n      dup3\n        /* \"#utility.yul\":2449:2542   */\n      tag_93\n      jump\t// in\n    tag_92:\n        /* \"#utility.yul\":2567:2569   */\n      0x40\n        /* \"#utility.yul\":2562:2565   */\n      dup3\n        /* \"#utility.yul\":2558:2570   */\n      add\n        /* \"#utility.yul\":2551:2570   */\n      swap1\n      pop\n        /* \"#utility.yul\":2356:2576   */\n      swap2\n      swap1\n      pop\n      jump\t// out\n        /* \"#utility.yul\":2582:2739   */\n    tag_94:\n        /* \"#utility.yul\":2687:2732   */\n      tag_96\n        /* \"#utility.yul\":2707:2731   */\n      tag_97\n        /* \"#utility.yul\":2725:2730   */\n      dup3\n        /* \"#utility.yul\":2707:2731   */\n      tag_98\n      jump\t// in\n    tag_97:\n        /* \"#utility.yul\":2687:2732   */\n      tag_99\n      jump\t// in\n    tag_96:\n        /* \"#utility.yul\":2682:2685   */\n      dup3\n        /* \"#utility.yul\":2675:2733   */\n      mstore\n        /* \"#utility.yul\":2665:2739   */\n      pop\n      pop\n      jump\t// out\n        /* \"#utility.yul\":2745:3001   */\n    tag_32:\n      0x00\n        /* \"#utility.yul\":2872:2947   */\n      tag_101\n        /* \"#utility.yul\":2943:2946   */\n      dup3\n        /* \"#utility.yul\":2934:2940   */\n      dup5\n        /* \"#utility.yul\":2872:2947   */\n      tag_94\n      jump\t// in\n    tag_101:\n        /* \"#utility.yul\":2972:2974   */\n      0x20\n        /* \"#utility.yul\":2967:2970   */\n      dup3\n        /* \"#utility.yul\":2963:2975   */\n      add\n        /* \"#utility.yul\":2956:2975   */\n      swap2\n      pop\n        /* \"#utility.yul\":2992:2995   */\n      dup2\n        /* \"#utility.yul\":2985:2995   */\n      swap1\n      pop\n        /* \"#utility.yul\":2861:3001   */\n      swap3\n      swap2\n      pop\n      pop\n      jump\t// out\n        /* \"#utility.yul\":3007:3229   */\n    tag_9:\n      0x00\n        /* \"#utility.yul\":3138:3140   */\n      0x20\n        /* \"#utility.yul\":3127:3136   */\n      dup3\n        /* \"#utility.yul\":3123:3141   */\n      add\n        /* \"#utility.yul\":3115:3141   */\n      swap1\n      pop\n        /* \"#utility.yul\":3151:3222   */\n      tag_103\n        /* \"#utility.yul\":3219:3220   */\n      0x00\n        /* \"#utility.yul\":3208:3217   */\n      dup4\n        /* \"#utility.yul\":3204:3221   */\n      add\n        /* \"#utility.yul\":3195:3201   */\n      dup5\n        /* \"#utility.yul\":3151:3222   */\n      tag_75\n      jump\t// in\n    tag_103:\n        /* \"#utility.yul\":3105:3229   */\n      swap3\n      swap2\n      pop\n      pop\n      jump\t// out\n        /* \"#utility.yul\":3235:3457   */\n    tag_19:\n      0x00\n        /* \"#utility.yul\":3366:3368   */\n      0x20\n        /* \"#utility.yul\":3355:3364   */\n      dup3\n        /* \"#utility.yul\":3351:3369   */\n      add\n        /* \"#utility.yul\":3343:3369   */\n      swap1\n      pop\n        /* \"#utility.yul\":3379:3450   */\n      tag_105\n        /* \"#utility.yul\":3447:3448   */\n      0x00\n        /* \"#utility.yul\":3436:3445   */\n      dup4\n        /* \"#utility.yul\":3432:3449   */\n      add\n        /* \"#utility.yul\":3423:3429   */\n      dup5\n        /* \"#utility.yul\":3379:3450   */\n      tag_79\n      jump\t// in\n    tag_105:\n        /* \"#utility.yul\":3333:3457   */\n      swap3\n      swap2\n      pop\n      pop\n      jump\t// out\n        /* \"#utility.yul\":3463:3882   */\n    tag_29:\n      0x00\n        /* \"#utility.yul\":3667:3669   */\n      0x20\n        /* \"#utility.yul\":3656:3665   */\n      dup3\n        /* \"#utility.yul\":3652:3670   */\n      add\n        /* \"#utility.yul\":3644:3670   */\n      swap1\n      pop\n        /* \"#utility.yul\":3716:3725   */\n      dup2\n        /* \"#utility.yul\":3710:3714   */\n      dup2\n        /* \"#utility.yul\":3706:3726   */\n      sub\n        /* \"#utility.yul\":3702:3703   */\n      0x00\n        /* \"#utility.yul\":3691:3700   */\n      dup4\n        /* \"#utility.yul\":3687:3704   */\n      add\n        /* \"#utility.yul\":3680:3727   */\n      mstore\n        /* \"#utility.yul\":3744:3875   */\n      tag_107\n        /* \"#utility.yul\":3870:3874   */\n      dup2\n        /* \"#utility.yul\":3744:3875   */\n      tag_83\n      jump\t// in\n    tag_107:\n        /* \"#utility.yul\":3736:3875   */\n      swap1\n      pop\n        /* \"#utility.yul\":3634:3882   */\n      swap2\n      swap1\n      pop\n      jump\t// out\n        /* \"#utility.yul\":3888:4307   */\n    tag_23:\n      0x00\n        /* \"#utility.yul\":4092:4094   */\n      0x20\n        /* \"#utility.yul\":4081:4090   */\n      dup3\n        /* \"#utility.yul\":4077:4095   */\n      add\n        /* \"#utility.yul\":4069:4095   */\n      swap1\n      pop\n        /* \"#utility.yul\":4141:4150   */\n      dup2\n        /* \"#utility.yul\":4135:4139   */\n      dup2\n        /* \"#utility.yul\":4131:4151   */\n      sub\n        /* \"#utility.yul\":4127:4128   */\n      0x00\n        /* \"#utility.yul\":4116:4125   */\n      dup4\n        /* \"#utility.yul\":4112:4129   */\n      add\n        /* \"#utility.yul\":4105:4152   */\n      mstore\n        /* \"#utility.yul\":4169:4300   */\n      tag_109\n        /* \"#utility.yul\":4295:4299   */\n      dup2\n        /* \"#utility.yul\":4169:4300   */\n      tag_89\n      jump\t// in\n    tag_109:\n        /* \"#utility.yul\":4161:4300   */\n      swap1\n      pop\n        /* \"#utility.yul\":4059:4307   */\n      swap2\n      swap1\n      pop\n      jump\t// out\n        /* \"#utility.yul\":4313:4442   */\n    tag_55:\n      0x00\n        /* \"#utility.yul\":4374:4394   */\n      tag_111\n      tag_112\n      jump\t// in\n    tag_111:\n        /* \"#utility.yul\":4364:4394   */\n      swap1\n      pop\n        /* \"#utility.yul\":4403:4436   */\n      tag_113\n        /* \"#utility.yul\":4431:4435   */\n      dup3\n        /* \"#utility.yul\":4423:4429   */\n      dup3\n        /* \"#utility.yul\":4403:4436   */\n      tag_114\n      jump\t// in\n    tag_113:\n        /* \"#utility.yul\":4354:4442   */\n      swap2\n      swap1\n      pop\n      jump\t// out\n        /* \"#utility.yul\":4448:4523   */\n    tag_112:\n      0x00\n        /* \"#utility.yul\":4514:4516   */\n      0x40\n        /* \"#utility.yul\":4508:4517   */\n      mload\n        /* \"#utility.yul\":4498:4517   */\n      swap1\n      pop\n        /* \"#utility.yul\":4488:4523   */\n      swap1\n      jump\t// out\n        /* \"#utility.yul\":4529:4837   */\n    tag_54:\n      0x00\n        /* \"#utility.yul\":4681:4699   */\n      0xffffffffffffffff\n        /* \"#utility.yul\":4673:4679   */\n      dup3\n        /* \"#utility.yul\":4670:4700   */\n      gt\n        /* \"#utility.yul\":4667:4669   */\n      iszero\n      tag_117\n      jumpi\n        /* \"#utility.yul\":4703:4721   */\n      tag_118\n      tag_119\n      jump\t// in\n    tag_118:\n        /* \"#utility.yul\":4667:4669   */\n    tag_117:\n        /* \"#utility.yul\":4741:4770   */\n      tag_120\n        /* \"#utility.yul\":4763:4769   */\n      dup3\n        /* \"#utility.yul\":4741:4770   */\n      tag_121\n      jump\t// in\n    tag_120:\n        /* \"#utility.yul\":4733:4770   */\n      swap1\n      pop\n        /* \"#utility.yul\":4825:4829   */\n      0x20\n        /* \"#utility.yul\":4819:4823   */\n      dup2\n        /* \"#utility.yul\":4815:4830   */\n      add\n        /* \"#utility.yul\":4807:4830   */\n      swap1\n      pop\n        /* \"#utility.yul\":4596:4837   */\n      swap2\n      swap1\n      pop\n      jump\t// out\n        /* \"#utility.yul\":4843:5012   */\n    tag_86:\n      0x00\n        /* \"#utility.yul\":4961:4967   */\n      dup3\n        /* \"#utility.yul\":4956:4959   */\n      dup3\n        /* \"#utility.yul\":4949:4968   */\n      mstore\n        /* \"#utility.yul\":5001:5005   */\n      0x20\n        /* \"#utility.yul\":4996:4999   */\n      dup3\n        /* \"#utility.yul\":4992:5006   */\n      add\n        /* \"#utility.yul\":4977:5006   */\n      swap1\n      pop\n        /* \"#utility.yul\":4939:5012   */\n      swap3\n      swap2\n      pop\n      pop\n      jump\t// out\n        /* \"#utility.yul\":5018:5114   */\n    tag_78:\n      0x00\n        /* \"#utility.yul\":5084:5108   */\n      tag_124\n        /* \"#utility.yul\":5102:5107   */\n      dup3\n        /* \"#utility.yul\":5084:5108   */\n      tag_125\n      jump\t// in\n    tag_124:\n        /* \"#utility.yul\":5073:5108   */\n      swap1\n      pop\n        /* \"#utility.yul\":5063:5114   */\n      swap2\n      swap1\n      pop\n      jump\t// out\n        /* \"#utility.yul\":5120:5197   */\n    tag_82:\n      0x00\n        /* \"#utility.yul\":5186:5191   */\n      dup2\n        /* \"#utility.yul\":5175:5191   */\n      swap1\n      pop\n        /* \"#utility.yul\":5165:5197   */\n      swap2\n      swap1\n      pop\n      jump\t// out\n        /* \"#utility.yul\":5203:5329   */\n    tag_125:\n      0x00\n        /* \"#utility.yul\":5280:5322   */\n      0xffffffffffffffffffffffffffffffffffffffff\n        /* \"#utility.yul\":5273:5278   */\n      dup3\n        /* \"#utility.yul\":5269:5323   */\n      and\n        /* \"#utility.yul\":5258:5323   */\n      swap1\n      pop\n        /* \"#utility.yul\":5248:5329   */\n      swap2\n      swap1\n      pop\n      jump\t// out\n        /* \"#utility.yul\":5335:5412   */\n    tag_98:\n      0x00\n        /* \"#utility.yul\":5401:5406   */\n      dup2\n        /* \"#utility.yul\":5390:5406   */\n      swap1\n      pop\n        /* \"#utility.yul\":5380:5412   */\n      swap2\n      swap1\n      pop\n      jump\t// out\n        /* \"#utility.yul\":5418:5572   */\n    tag_58:\n        /* \"#utility.yul\":5502:5508   */\n      dup3\n        /* \"#utility.yul\":5497:5500   */\n      dup2\n        /* \"#utility.yul\":5492:5495   */\n      dup4\n        /* \"#utility.yul\":5479:5509   */\n      calldatacopy\n        /* \"#utility.yul\":5564:5565   */\n      0x00\n        /* \"#utility.yul\":5555:5561   */\n      dup4\n        /* \"#utility.yul\":5550:5553   */\n      dup4\n        /* \"#utility.yul\":5546:5562   */\n      add\n        /* \"#utility.yul\":5539:5566   */\n      mstore\n        /* \"#utility.yul\":5469:5572   */\n      pop\n      pop\n      pop\n      jump\t// out\n        /* \"#utility.yul\":5578:5898   */\n    tag_39:\n      0x00\n        /* \"#utility.yul\":5659:5660   */\n      0x02\n        /* \"#utility.yul\":5653:5657   */\n      dup3\n        /* \"#utility.yul\":5649:5661   */\n      div\n        /* \"#utility.yul\":5639:5661   */\n      swap1\n      pop\n        /* \"#utility.yul\":5706:5707   */\n      0x01\n        /* \"#utility.yul\":5700:5704   */\n      dup3\n        /* \"#utility.yul\":5696:5708   */\n      and\n        /* \"#utility.yul\":5727:5745   */\n      dup1\n        /* \"#utility.yul\":5717:5719   */\n      tag_131\n      jumpi\n        /* \"#utility.yul\":5783:5787   */\n      0x7f\n        /* \"#utility.yul\":5775:5781   */\n      dup3\n        /* \"#utility.yul\":5771:5788   */\n      and\n        /* \"#utility.yul\":5761:5788   */\n      swap2\n      pop\n        /* \"#utility.yul\":5717:5719   */\n    tag_131:\n        /* \"#utility.yul\":5845:5847   */\n      0x20\n        /* \"#utility.yul\":5837:5843   */\n      dup3\n        /* \"#utility.yul\":5834:5848   */\n      lt\n        /* \"#utility.yul\":5814:5832   */\n      dup2\n        /* \"#utility.yul\":5811:5849   */\n      eq\n        /* \"#utility.yul\":5808:5810   */\n      iszero\n      tag_132\n      jumpi\n        /* \"#utility.yul\":5864:5882   */\n      tag_133\n      tag_134\n      jump\t// in\n    tag_133:\n        /* \"#utility.yul\":5808:5810   */\n    tag_132:\n        /* \"#utility.yul\":5629:5898   */\n      pop\n      swap2\n      swap1\n      pop\n      jump\t// out\n        /* \"#utility.yul\":5904:6185   */\n    tag_114:\n        /* \"#utility.yul\":5987:6014   */\n      tag_136\n        /* \"#utility.yul\":6009:6013   */\n      dup3\n        /* \"#utility.yul\":5987:6014   */\n      tag_121\n      jump\t// in\n    tag_136:\n        /* \"#utility.yul\":5979:5985   */\n      dup2\n        /* \"#utility.yul\":5975:6015   */\n      add\n        /* \"#utility.yul\":6117:6123   */\n      dup2\n        /* \"#utility.yul\":6105:6115   */\n      dup2\n        /* \"#utility.yul\":6102:6124   */\n      lt\n        /* \"#utility.yul\":6081:6099   */\n      0xffffffffffffffff\n        /* \"#utility.yul\":6069:6079   */\n      dup3\n        /* \"#utility.yul\":6066:6100   */\n      gt\n        /* \"#utility.yul\":6063:6125   */\n      or\n        /* \"#utility.yul\":6060:6062   */\n      iszero\n      tag_137\n      jumpi\n        /* \"#utility.yul\":6128:6146   */\n      tag_138\n      tag_119\n      jump\t// in\n    tag_138:\n        /* \"#utility.yul\":6060:6062   */\n    tag_137:\n        /* \"#utility.yul\":6168:6178   */\n      dup1\n        /* \"#utility.yul\":6164:6166   */\n      0x40\n        /* \"#utility.yul\":6157:6179   */\n      mstore\n        /* \"#utility.yul\":5947:6185   */\n      pop\n      pop\n      pop\n      jump\t// out\n        /* \"#utility.yul\":6191:6270   */\n    tag_99:\n      0x00\n        /* \"#utility.yul\":6259:6264   */\n      dup2\n        /* \"#utility.yul\":6248:6264   */\n      swap1\n      pop\n        /* \"#utility.yul\":6238:6270   */\n      swap2\n      swap1\n      pop\n      jump\t// out\n        /* \"#utility.yul\":6276:6456   */\n    tag_134:\n        /* \"#utility.yul\":6324:6401   */\n      0x4e487b7100000000000000000000000000000000000000000000000000000000\n        /* \"#utility.yul\":6321:6322   */\n      0x00\n        /* \"#utility.yul\":6314:6402   */\n      mstore\n        /* \"#utility.yul\":6421:6425   */\n      0x22\n        /* \"#utility.yul\":6418:6419   */\n      0x04\n        /* \"#utility.yul\":6411:6426   */\n      mstore\n        /* \"#utility.yul\":6445:6449   */\n      0x24\n        /* \"#utility.yul\":6442:6443   */\n      0x00\n        /* \"#utility.yul\":6435:6450   */\n      revert\n        /* \"#utility.yul\":6462:6642   */\n    tag_119:\n        /* \"#utility.yul\":6510:6587   */\n      0x4e487b7100000000000000000000000000000000000000000000000000000000\n        /* \"#utility.yul\":6507:6508   */\n      0x00\n        /* \"#utility.yul\":6500:6588   */\n      mstore\n        /* \"#utility.yul\":6607:6611   */\n      0x41\n        /* \"#utility.yul\":6604:6605   */\n      0x04\n        /* \"#utility.yul\":6597:6612   */\n      mstore\n        /* \"#utility.yul\":6631:6635   */\n      0x24\n        /* \"#utility.yul\":6628:6629   */\n      0x00\n        /* \"#utility.yul\":6621:6636   */\n      revert\n        /* \"#utility.yul\":6648:6750   */\n    tag_121:\n      0x00\n        /* \"#utility.yul\":6740:6742   */\n      0x1f\n        /* \"#utility.yul\":6736:6743   */\n      not\n        /* \"#utility.yul\":6731:6733   */\n      0x1f\n        /* \"#utility.yul\":6724:6729   */\n      dup4\n        /* \"#utility.yul\":6720:6734   */\n      add\n        /* \"#utility.yul\":6716:6744   */\n      and\n        /* \"#utility.yul\":6706:6744   */\n      swap1\n      pop\n        /* \"#utility.yul\":6696:6750   */\n      swap2\n      swap1\n      pop\n      jump\t// out\n        /* \"#utility.yul\":6756:6991   */\n    tag_88:\n        /* \"#utility.yul\":6896:6930   */\n      0x596f7520646f206e6f74207065726d697373696f6e7320746f20657863656375\n        /* \"#utility.yul\":6892:6893   */\n      0x00\n        /* \"#utility.yul\":6884:6890   */\n      dup3\n        /* \"#utility.yul\":6880:6894   */\n      add\n        /* \"#utility.yul\":6873:6931   */\n      mstore\n        /* \"#utility.yul\":6965:6983   */\n      0x746520746869732066756e6374696f6e00000000000000000000000000000000\n        /* \"#utility.yul\":6960:6962   */\n      0x20\n        /* \"#utility.yul\":6952:6958   */\n      dup3\n        /* \"#utility.yul\":6948:6963   */\n      add\n        /* \"#utility.yul\":6941:6984   */\n      mstore\n        /* \"#utility.yul\":6862:6991   */\n      pop\n      jump\t// out\n        /* \"#utility.yul\":6997:7226   */\n    tag_93:\n        /* \"#utility.yul\":7137:7171   */\n      0x5570732c20706c6561736520636865636b207468652075696e7473206f662068\n        /* \"#utility.yul\":7133:7134   */\n      0x00\n        /* \"#utility.yul\":7125:7131   */\n      dup3\n        /* \"#utility.yul\":7121:7135   */\n      add\n        /* \"#utility.yul\":7114:7172   */\n      mstore\n        /* \"#utility.yul\":7206:7218   */\n      0x616d627572676572732100000000000000000000000000000000000000000000\n        /* \"#utility.yul\":7201:7203   */\n      0x20\n        /* \"#utility.yul\":7193:7199   */\n      dup3\n        /* \"#utility.yul\":7189:7204   */\n      add\n        /* \"#utility.yul\":7182:7219   */\n      mstore\n        /* \"#utility.yul\":7103:7226   */\n      pop\n      jump\t// out\n        /* \"#utility.yul\":7232:7354   */\n    tag_66:\n        /* \"#utility.yul\":7305:7329   */\n      tag_146\n        /* \"#utility.yul\":7323:7328   */\n      dup2\n        /* \"#utility.yul\":7305:7329   */\n      tag_98\n      jump\t// in\n    tag_146:\n        /* \"#utility.yul\":7298:7303   */\n      dup2\n        /* \"#utility.yul\":7295:7330   */\n      eq\n        /* \"#utility.yul\":7285:7287   */\n      tag_147\n      jumpi\n        /* \"#utility.yul\":7344:7345   */\n      0x00\n        /* \"#utility.yul\":7341:7342   */\n      dup1\n        /* \"#utility.yul\":7334:7346   */\n      revert\n        /* \"#utility.yul\":7285:7287   */\n    tag_147:\n        /* \"#utility.yul\":7275:7354   */\n      pop\n      jump\t// out\n\n    auxdata: 0xa2646970667358221220e8c9574752f6a8b2c1a55eacf6e40c9f46c6c60464ec2160372ed5874c2192f764736f6c63430008010033\n}\n",
				"bytecode": {
					"linkReferences": {},
					"object": "608060405234801561001057600080fd5b5033600160006101000a81548173ffffffffffffffffffffffffffffffffffffffff021916908373ffffffffffffffffffffffffffffffffffffffff1602179055506107c9806100616000396000f3fe608060405234801561001057600080fd5b50600436106100415760003560e01c80638da5cb5b14610046578063a22641bc14610064578063bda0284214610080575b600080fd5b61004e6100b0565b60405161005b91906104d0565b60405180910390f35b61007e600480360381019061007991906103bd565b6100d6565b005b61009a60048036038101906100959190610411565b61015d565b6040516100a791906104eb565b60405180910390f35b600160009054906101000a900473ffffffffffffffffffffffffffffffffffffffff1681565b600581111561011a576040517f08c379a000000000000000000000000000000000000000000000000000000000815260040161011190610526565b60405180910390fd5b6101596040518060400160405280600981526020017f48616d62757267657200000000000000000000000000000000000000000000008152508361021d565b5050565b60003373ffffffffffffffffffffffffffffffffffffffff16600160009054906101000a900473ffffffffffffffffffffffffffffffffffffffff1673ffffffffffffffffffffffffffffffffffffffff16146101ef576040517f08c379a00000000000000000000000000000000000000000000000000000000081526004016101e690610506565b60405180910390fd5b8160405160200161020091906104b5565b604051602081830303815290604052805190602001209050919050565b60006040518060400160405280848152602001838152509080600181540180825580915050600190039060005260206000209060020201600090919091909150600082015181600001908051906020019061027992919061029d565b50602082015181600101908051906020019061029692919061029d565b5050505050565b8280546102a990610602565b90600052602060002090601f0160209004810192826102cb5760008555610312565b82601f106102e457805160ff1916838001178555610312565b82800160010185558215610312579182015b828111156103115782518255916020019190600101906102f6565b5b50905061031f9190610323565b5090565b5b8082111561033c576000816000905550600101610324565b5090565b600061035361034e8461056b565b610546565b90508281526020810184848401111561036b57600080fd5b6103768482856105f3565b509392505050565b600082601f83011261038f57600080fd5b813561039f848260208601610340565b91505092915050565b6000813590506103b78161077c565b92915050565b600080604083850312156103d057600080fd5b600083013567ffffffffffffffff8111156103ea57600080fd5b6103f68582860161037e565b9250506020610407858286016103a8565b9150509250929050565b60006020828403121561042357600080fd5b6000610431848285016103a8565b91505092915050565b610443816105ad565b82525050565b610452816105bf565b82525050565b600061046560308361059c565b9150610470826106de565b604082019050919050565b6000610488602a8361059c565b91506104938261072d565b604082019050919050565b6104af6104aa826105e9565b610665565b82525050565b60006104c1828461049e565b60208201915081905092915050565b60006020820190506104e5600083018461043a565b92915050565b60006020820190506105006000830184610449565b92915050565b6000602082019050818103600083015261051f81610458565b9050919050565b6000602082019050818103600083015261053f8161047b565b9050919050565b6000610550610561565b905061055c8282610634565b919050565b6000604051905090565b600067ffffffffffffffff8211156105865761058561069e565b5b61058f826106cd565b9050602081019050919050565b600082825260208201905092915050565b60006105b8826105c9565b9050919050565b6000819050919050565b600073ffffffffffffffffffffffffffffffffffffffff82169050919050565b6000819050919050565b82818337600083830152505050565b6000600282049050600182168061061a57607f821691505b6020821081141561062e5761062d61066f565b5b50919050565b61063d826106cd565b810181811067ffffffffffffffff8211171561065c5761065b61069e565b5b80604052505050565b6000819050919050565b7f4e487b7100000000000000000000000000000000000000000000000000000000600052602260045260246000fd5b7f4e487b7100000000000000000000000000000000000000000000000000000000600052604160045260246000fd5b6000601f19601f8301169050919050565b7f596f7520646f206e6f74207065726d697373696f6e7320746f2065786365637560008201527f746520746869732066756e6374696f6e00000000000000000000000000000000602082015250565b7f5570732c20706c6561736520636865636b207468652075696e7473206f66206860008201527f616d627572676572732100000000000000000000000000000000000000000000602082015250565b610785816105e9565b811461079057600080fd5b5056fea2646970667358221220e8c9574752f6a8b2c1a55eacf6e40c9f46c6c60464ec2160372ed5874c2192f764736f6c63430008010033",
					"opcodes": "PUSH1 0x80 PUSH1 0x40 MSTORE CALLVALUE DUP1 ISZERO PUSH2 0x10 JUMPI PUSH1 0x0 DUP1 REVERT JUMPDEST POP CALLER PUSH1 0x1 PUSH1 0x0 PUSH2 0x100 EXP DUP2 SLOAD DUP2 PUSH20 0xFFFFFFFFFFFFFFFFFFFFFFFFFFFFFFFFFFFFFFFF MUL NOT AND SWAP1 DUP4 PUSH20 0xFFFFFFFFFFFFFFFFFFFFFFFFFFFFFFFFFFFFFFFF AND MUL OR SWAP1 SSTORE POP PUSH2 0x7C9 DUP1 PUSH2 0x61 PUSH1 0x0 CODECOPY PUSH1 0x0 RETURN INVALID PUSH1 0x80 PUSH1 0x40 MSTORE CALLVALUE DUP1 ISZERO PUSH2 0x10 JUMPI PUSH1 0x0 DUP1 REVERT JUMPDEST POP PUSH1 0x4 CALLDATASIZE LT PUSH2 0x41 JUMPI PUSH1 0x0 CALLDATALOAD PUSH1 0xE0 SHR DUP1 PUSH4 0x8DA5CB5B EQ PUSH2 0x46 JUMPI DUP1 PUSH4 0xA22641BC EQ PUSH2 0x64 JUMPI DUP1 PUSH4 0xBDA02842 EQ PUSH2 0x80 JUMPI JUMPDEST PUSH1 0x0 DUP1 REVERT JUMPDEST PUSH2 0x4E PUSH2 0xB0 JUMP JUMPDEST PUSH1 0x40 MLOAD PUSH2 0x5B SWAP2 SWAP1 PUSH2 0x4D0 JUMP JUMPDEST PUSH1 0x40 MLOAD DUP1 SWAP2 SUB SWAP1 RETURN JUMPDEST PUSH2 0x7E PUSH1 0x4 DUP1 CALLDATASIZE SUB DUP2 ADD SWAP1 PUSH2 0x79 SWAP2 SWAP1 PUSH2 0x3BD JUMP JUMPDEST PUSH2 0xD6 JUMP JUMPDEST STOP JUMPDEST PUSH2 0x9A PUSH1 0x4 DUP1 CALLDATASIZE SUB DUP2 ADD SWAP1 PUSH2 0x95 SWAP2 SWAP1 PUSH2 0x411 JUMP JUMPDEST PUSH2 0x15D JUMP JUMPDEST PUSH1 0x40 MLOAD PUSH2 0xA7 SWAP2 SWAP1 PUSH2 0x4EB JUMP JUMPDEST PUSH1 0x40 MLOAD DUP1 SWAP2 SUB SWAP1 RETURN JUMPDEST PUSH1 0x1 PUSH1 0x0 SWAP1 SLOAD SWAP1 PUSH2 0x100 EXP SWAP1 DIV PUSH20 0xFFFFFFFFFFFFFFFFFFFFFFFFFFFFFFFFFFFFFFFF AND DUP2 JUMP JUMPDEST PUSH1 0x5 DUP2 GT ISZERO PUSH2 0x11A JUMPI PUSH1 0x40 MLOAD PUSH32 0x8C379A000000000000000000000000000000000000000000000000000000000 DUP2 MSTORE PUSH1 0x4 ADD PUSH2 0x111 SWAP1 PUSH2 0x526 JUMP JUMPDEST PUSH1 0x40 MLOAD DUP1 SWAP2 SUB SWAP1 REVERT JUMPDEST PUSH2 0x159 PUSH1 0x40 MLOAD DUP1 PUSH1 0x40 ADD PUSH1 0x40 MSTORE DUP1 PUSH1 0x9 DUP2 MSTORE PUSH1 0x20 ADD PUSH32 0x48616D6275726765720000000000000000000000000000000000000000000000 DUP2 MSTORE POP DUP4 PUSH2 0x21D JUMP JUMPDEST POP POP JUMP JUMPDEST PUSH1 0x0 CALLER PUSH20 0xFFFFFFFFFFFFFFFFFFFFFFFFFFFFFFFFFFFFFFFF AND PUSH1 0x1 PUSH1 0x0 SWAP1 SLOAD SWAP1 PUSH2 0x100 EXP SWAP1 DIV PUSH20 0xFFFFFFFFFFFFFFFFFFFFFFFFFFFFFFFFFFFFFFFF AND PUSH20 0xFFFFFFFFFFFFFFFFFFFFFFFFFFFFFFFFFFFFFFFF AND EQ PUSH2 0x1EF JUMPI PUSH1 0x40 MLOAD PUSH32 0x8C379A000000000000000000000000000000000000000000000000000000000 DUP2 MSTORE PUSH1 0x4 ADD PUSH2 0x1E6 SWAP1 PUSH2 0x506 JUMP JUMPDEST PUSH1 0x40 MLOAD DUP1 SWAP2 SUB SWAP1 REVERT JUMPDEST DUP2 PUSH1 0x40 MLOAD PUSH1 0x20 ADD PUSH2 0x200 SWAP2 SWAP1 PUSH2 0x4B5 JUMP JUMPDEST PUSH1 0x40 MLOAD PUSH1 0x20 DUP2 DUP4 SUB SUB DUP2 MSTORE SWAP1 PUSH1 0x40 MSTORE DUP1 MLOAD SWAP1 PUSH1 0x20 ADD KECCAK256 SWAP1 POP SWAP2 SWAP1 POP JUMP JUMPDEST PUSH1 0x0 PUSH1 0x40 MLOAD DUP1 PUSH1 0x40 ADD PUSH1 0x40 MSTORE DUP1 DUP5 DUP2 MSTORE PUSH1 0x20 ADD DUP4 DUP2 MSTORE POP SWAP1 DUP1 PUSH1 0x1 DUP2 SLOAD ADD DUP1 DUP3 SSTORE DUP1 SWAP2 POP POP PUSH1 0x1 SWAP1 SUB SWAP1 PUSH1 0x0 MSTORE PUSH1 0x20 PUSH1 0x0 KECCAK256 SWAP1 PUSH1 0x2 MUL ADD PUSH1 0x0 SWAP1 SWAP2 SWAP1 SWAP2 SWAP1 SWAP2 POP PUSH1 0x0 DUP3 ADD MLOAD DUP2 PUSH1 0x0 ADD SWAP1 DUP1 MLOAD SWAP1 PUSH1 0x20 ADD SWAP1 PUSH2 0x279 SWAP3 SWAP2 SWAP1 PUSH2 0x29D JUMP JUMPDEST POP PUSH1 0x20 DUP3 ADD MLOAD DUP2 PUSH1 0x1 ADD SWAP1 DUP1 MLOAD SWAP1 PUSH1 0x20 ADD SWAP1 PUSH2 0x296 SWAP3 SWAP2 SWAP1 PUSH2 0x29D JUMP JUMPDEST POP POP POP POP POP JUMP JUMPDEST DUP3 DUP1 SLOAD PUSH2 0x2A9 SWAP1 PUSH2 0x602 JUMP JUMPDEST SWAP1 PUSH1 0x0 MSTORE PUSH1 0x20 PUSH1 0x0 KECCAK256 SWAP1 PUSH1 0x1F ADD PUSH1 0x20 SWAP1 DIV DUP2 ADD SWAP3 DUP3 PUSH2 0x2CB JUMPI PUSH1 0x0 DUP6 SSTORE PUSH2 0x312 JUMP JUMPDEST DUP3 PUSH1 0x1F LT PUSH2 0x2E4 JUMPI DUP1 MLOAD PUSH1 0xFF NOT AND DUP4 DUP1 ADD OR DUP6 SSTORE PUSH2 0x312 JUMP JUMPDEST DUP3 DUP1 ADD PUSH1 0x1 ADD DUP6 SSTORE DUP3 ISZERO PUSH2 0x312 JUMPI SWAP2 DUP3 ADD JUMPDEST DUP3 DUP2 GT ISZERO PUSH2 0x311 JUMPI DUP3 MLOAD DUP3 SSTORE SWAP2 PUSH1 0x20 ADD SWAP2 SWAP1 PUSH1 0x1 ADD SWAP1 PUSH2 0x2F6 JUMP JUMPDEST JUMPDEST POP SWAP1 POP PUSH2 0x31F SWAP2 SWAP1 PUSH2 0x323 JUMP JUMPDEST POP SWAP1 JUMP JUMPDEST JUMPDEST DUP1 DUP3 GT ISZERO PUSH2 0x33C JUMPI PUSH1 0x0 DUP2 PUSH1 0x0 SWAP1 SSTORE POP PUSH1 0x1 ADD PUSH2 0x324 JUMP JUMPDEST POP SWAP1 JUMP JUMPDEST PUSH1 0x0 PUSH2 0x353 PUSH2 0x34E DUP5 PUSH2 0x56B JUMP JUMPDEST PUSH2 0x546 JUMP JUMPDEST SWAP1 POP DUP3 DUP2 MSTORE PUSH1 0x20 DUP2 ADD DUP5 DUP5 DUP5 ADD GT ISZERO PUSH2 0x36B JUMPI PUSH1 0x0 DUP1 REVERT JUMPDEST PUSH2 0x376 DUP5 DUP3 DUP6 PUSH2 0x5F3 JUMP JUMPDEST POP SWAP4 SWAP3 POP POP POP JUMP JUMPDEST PUSH1 0x0 DUP3 PUSH1 0x1F DUP4 ADD SLT PUSH2 0x38F JUMPI PUSH1 0x0 DUP1 REVERT JUMPDEST DUP2 CALLDATALOAD PUSH2 0x39F DUP5 DUP3 PUSH1 0x20 DUP7 ADD PUSH2 0x340 JUMP JUMPDEST SWAP2 POP POP SWAP3 SWAP2 POP POP JUMP JUMPDEST PUSH1 0x0 DUP2 CALLDATALOAD SWAP1 POP PUSH2 0x3B7 DUP2 PUSH2 0x77C JUMP JUMPDEST SWAP3 SWAP2 POP POP JUMP JUMPDEST PUSH1 0x0 DUP1 PUSH1 0x40 DUP4 DUP6 SUB SLT ISZERO PUSH2 0x3D0 JUMPI PUSH1 0x0 DUP1 REVERT JUMPDEST PUSH1 0x0 DUP4 ADD CALLDATALOAD PUSH8 0xFFFFFFFFFFFFFFFF DUP2 GT ISZERO PUSH2 0x3EA JUMPI PUSH1 0x0 DUP1 REVERT JUMPDEST PUSH2 0x3F6 DUP6 DUP3 DUP7 ADD PUSH2 0x37E JUMP JUMPDEST SWAP3 POP POP PUSH1 0x20 PUSH2 0x407 DUP6 DUP3 DUP7 ADD PUSH2 0x3A8 JUMP JUMPDEST SWAP2 POP POP SWAP3 POP SWAP3 SWAP1 POP JUMP JUMPDEST PUSH1 0x0 PUSH1 0x20 DUP3 DUP5 SUB SLT ISZERO PUSH2 0x423 JUMPI PUSH1 0x0 DUP1 REVERT JUMPDEST PUSH1 0x0 PUSH2 0x431 DUP5 DUP3 DUP6 ADD PUSH2 0x3A8 JUMP JUMPDEST SWAP2 POP POP SWAP3 SWAP2 POP POP JUMP JUMPDEST PUSH2 0x443 DUP2 PUSH2 0x5AD JUMP JUMPDEST DUP3 MSTORE POP POP JUMP JUMPDEST PUSH2 0x452 DUP2 PUSH2 0x5BF JUMP JUMPDEST DUP3 MSTORE POP POP JUMP JUMPDEST PUSH1 0x0 PUSH2 0x465 PUSH1 0x30 DUP4 PUSH2 0x59C JUMP JUMPDEST SWAP2 POP PUSH2 0x470 DUP3 PUSH2 0x6DE JUMP JUMPDEST PUSH1 0x40 DUP3 ADD SWAP1 POP SWAP2 SWAP1 POP JUMP JUMPDEST PUSH1 0x0 PUSH2 0x488 PUSH1 0x2A DUP4 PUSH2 0x59C JUMP JUMPDEST SWAP2 POP PUSH2 0x493 DUP3 PUSH2 0x72D JUMP JUMPDEST PUSH1 0x40 DUP3 ADD SWAP1 POP SWAP2 SWAP1 POP JUMP JUMPDEST PUSH2 0x4AF PUSH2 0x4AA DUP3 PUSH2 0x5E9 JUMP JUMPDEST PUSH2 0x665 JUMP JUMPDEST DUP3 MSTORE POP POP JUMP JUMPDEST PUSH1 0x0 PUSH2 0x4C1 DUP3 DUP5 PUSH2 0x49E JUMP JUMPDEST PUSH1 0x20 DUP3 ADD SWAP2 POP DUP2 SWAP1 POP SWAP3 SWAP2 POP POP JUMP JUMPDEST PUSH1 0x0 PUSH1 0x20 DUP3 ADD SWAP1 POP PUSH2 0x4E5 PUSH1 0x0 DUP4 ADD DUP5 PUSH2 0x43A JUMP JUMPDEST SWAP3 SWAP2 POP POP JUMP JUMPDEST PUSH1 0x0 PUSH1 0x20 DUP3 ADD SWAP1 POP PUSH2 0x500 PUSH1 0x0 DUP4 ADD DUP5 PUSH2 0x449 JUMP JUMPDEST SWAP3 SWAP2 POP POP JUMP JUMPDEST PUSH1 0x0 PUSH1 0x20 DUP3 ADD SWAP1 POP DUP2 DUP2 SUB PUSH1 0x0 DUP4 ADD MSTORE PUSH2 0x51F DUP2 PUSH2 0x458 JUMP JUMPDEST SWAP1 POP SWAP2 SWAP1 POP JUMP JUMPDEST PUSH1 0x0 PUSH1 0x20 DUP3 ADD SWAP1 POP DUP2 DUP2 SUB PUSH1 0x0 DUP4 ADD MSTORE PUSH2 0x53F DUP2 PUSH2 0x47B JUMP JUMPDEST SWAP1 POP SWAP2 SWAP1 POP JUMP JUMPDEST PUSH1 0x0 PUSH2 0x550 PUSH2 0x561 JUMP JUMPDEST SWAP1 POP PUSH2 0x55C DUP3 DUP3 PUSH2 0x634 JUMP JUMPDEST SWAP2 SWAP1 POP JUMP JUMPDEST PUSH1 0x0 PUSH1 0x40 MLOAD SWAP1 POP SWAP1 JUMP JUMPDEST PUSH1 0x0 PUSH8 0xFFFFFFFFFFFFFFFF DUP3 GT ISZERO PUSH2 0x586 JUMPI PUSH2 0x585 PUSH2 0x69E JUMP JUMPDEST JUMPDEST PUSH2 0x58F DUP3 PUSH2 0x6CD JUMP JUMPDEST SWAP1 POP PUSH1 0x20 DUP2 ADD SWAP1 POP SWAP2 SWAP1 POP JUMP JUMPDEST PUSH1 0x0 DUP3 DUP3 MSTORE PUSH1 0x20 DUP3 ADD SWAP1 POP SWAP3 SWAP2 POP POP JUMP JUMPDEST PUSH1 0x0 PUSH2 0x5B8 DUP3 PUSH2 0x5C9 JUMP JUMPDEST SWAP1 POP SWAP2 SWAP1 POP JUMP JUMPDEST PUSH1 0x0 DUP2 SWAP1 POP SWAP2 SWAP1 POP JUMP JUMPDEST PUSH1 0x0 PUSH20 0xFFFFFFFFFFFFFFFFFFFFFFFFFFFFFFFFFFFFFFFF DUP3 AND SWAP1 POP SWAP2 SWAP1 POP JUMP JUMPDEST PUSH1 0x0 DUP2 SWAP1 POP SWAP2 SWAP1 POP JUMP JUMPDEST DUP3 DUP2 DUP4 CALLDATACOPY PUSH1 0x0 DUP4 DUP4 ADD MSTORE POP POP POP JUMP JUMPDEST PUSH1 0x0 PUSH1 0x2 DUP3 DIV SWAP1 POP PUSH1 0x1 DUP3 AND DUP1 PUSH2 0x61A JUMPI PUSH1 0x7F DUP3 AND SWAP2 POP JUMPDEST PUSH1 0x20 DUP3 LT DUP2 EQ ISZERO PUSH2 0x62E JUMPI PUSH2 0x62D PUSH2 0x66F JUMP JUMPDEST JUMPDEST POP SWAP2 SWAP1 POP JUMP JUMPDEST PUSH2 0x63D DUP3 PUSH2 0x6CD JUMP JUMPDEST DUP2 ADD DUP2 DUP2 LT PUSH8 0xFFFFFFFFFFFFFFFF DUP3 GT OR ISZERO PUSH2 0x65C JUMPI PUSH2 0x65B PUSH2 0x69E JUMP JUMPDEST JUMPDEST DUP1 PUSH1 0x40 MSTORE POP POP POP JUMP JUMPDEST PUSH1 0x0 DUP2 SWAP1 POP SWAP2 SWAP1 POP JUMP JUMPDEST PUSH32 0x4E487B7100000000000000000000000000000000000000000000000000000000 PUSH1 0x0 MSTORE PUSH1 0x22 PUSH1 0x4 MSTORE PUSH1 0x24 PUSH1 0x0 REVERT JUMPDEST PUSH32 0x4E487B7100000000000000000000000000000000000000000000000000000000 PUSH1 0x0 MSTORE PUSH1 0x41 PUSH1 0x4 MSTORE PUSH1 0x24 PUSH1 0x0 REVERT JUMPDEST PUSH1 0x0 PUSH1 0x1F NOT PUSH1 0x1F DUP4 ADD AND SWAP1 POP SWAP2 SWAP1 POP JUMP JUMPDEST PUSH32 0x596F7520646F206E6F74207065726D697373696F6E7320746F20657863656375 PUSH1 0x0 DUP3 ADD MSTORE PUSH32 0x746520746869732066756E6374696F6E00000000000000000000000000000000 PUSH1 0x20 DUP3 ADD MSTORE POP JUMP JUMPDEST PUSH32 0x5570732C20706C6561736520636865636B207468652075696E7473206F662068 PUSH1 0x0 DUP3 ADD MSTORE PUSH32 0x616D627572676572732100000000000000000000000000000000000000000000 PUSH1 0x20 DUP3 ADD MSTORE POP JUMP JUMPDEST PUSH2 0x785 DUP2 PUSH2 0x5E9 JUMP JUMPDEST DUP2 EQ PUSH2 0x790 JUMPI PUSH1 0x0 DUP1 REVERT JUMPDEST POP JUMP INVALID LOG2 PUSH5 0x6970667358 0x22 SLT KECCAK256 0xE8 0xC9 JUMPI SELFBALANCE MSTORE 0xF6 0xA8 0xB2 0xC1 0xA5 0x5E 0xAC 0xF6 0xE4 0xC SWAP16 CHAINID 0xC6 0xC6 DIV PUSH5 0xEC2160372E 0xD5 DUP8 0x4C 0x21 SWAP3 0xF7 PUSH5 0x736F6C6343 STOP ADDMOD ADD STOP CALLER "
				},
				"gasEstimates": {
					"creation": {
						"codeDepositCost": "398600",
						"executionCost": "21302",
						"totalCost": "419902"
					},
					"external": {
						"doHamburger(string,uint256)": "infinite",
						"hashPrivateNumber(uint256)": "infinite",
						"owner()": "1192"
					}
				},
				"methodIdentifiers": {
					"doHamburger(string,uint256)": "a22641bc",
					"hashPrivateNumber(uint256)": "bda02842",
					"owner()": "8da5cb5b"
				}
			},
			"storageLayout": {
				"storage": [
					{
						"astId": 10,
						"contract": "contracts/6_advanced_functions.sol:Hamburger",
						"label": "menu",
						"offset": 0,
						"slot": "0",
						"type": "t_array(t_struct(dinnertPlate)6_storage)dyn_storage"
					},
					{
						"astId": 32,
						"contract": "contracts/6_advanced_functions.sol:Hamburger",
						"label": "owner",
						"offset": 0,
						"slot": "1",
						"type": "t_address"
					}
				],
				"types": {
					"t_address": {
						"encoding": "inplace",
						"label": "address",
						"numberOfBytes": "20"
					},
					"t_array(t_struct(dinnertPlate)6_storage)dyn_storage": {
						"base": "t_struct(dinnertPlate)6_storage",
						"encoding": "dynamic_array",
						"label": "struct food.dinnertPlate[]",
						"numberOfBytes": "32"
					},
					"t_string_storage": {
						"encoding": "bytes",
						"label": "string",
						"numberOfBytes": "32"
					},
					"t_struct(dinnertPlate)6_storage": {
						"encoding": "inplace",
						"label": "struct food.dinnertPlate",
						"members": [
							{
								"astId": 3,
								"contract": "contracts/6_advanced_functions.sol:Hamburger",
								"label": "name",
								"offset": 0,
								"slot": "0",
								"type": "t_string_storage"
							},
							{
								"astId": 5,
								"contract": "contracts/6_advanced_functions.sol:Hamburger",
								"label": "ingredients",
								"offset": 0,
								"slot": "1",
								"type": "t_string_storage"
							}
						],
						"numberOfBytes": "64"
					}
				}
			},
			"userdoc": {
				"kind": "user",
				"methods": {},
				"version": 1
			}
		}
	}
}