{
	"contracts/cinema.sol": {
		"Cinema": {
			"abi": [
				{
					"inputs": [],
					"stateMutability": "nonpayable",
					"type": "constructor"
				},
				{
					"anonymous": false,
					"inputs": [
						{
							"indexed": true,
							"internalType": "address",
							"name": "owner",
							"type": "address"
						},
						{
							"indexed": true,
							"internalType": "address",
							"name": "spender",
							"type": "address"
						},
						{
							"indexed": false,
							"internalType": "uint256",
							"name": "value",
							"type": "uint256"
						}
					],
					"name": "Approval",
					"type": "event"
				},
				{
					"anonymous": false,
					"inputs": [
						{
							"indexed": true,
							"internalType": "address",
							"name": "previousOwner",
							"type": "address"
						},
						{
							"indexed": true,
							"internalType": "address",
							"name": "newOwner",
							"type": "address"
						}
					],
					"name": "OwnershipTransferred",
					"type": "event"
				},
				{
					"anonymous": false,
					"inputs": [
						{
							"indexed": true,
							"internalType": "address",
							"name": "from",
							"type": "address"
						},
						{
							"indexed": true,
							"internalType": "address",
							"name": "to",
							"type": "address"
						},
						{
							"indexed": false,
							"internalType": "uint256",
							"name": "value",
							"type": "uint256"
						}
					],
					"name": "Transfer",
					"type": "event"
				},
				{
					"inputs": [
						{
							"internalType": "address",
							"name": "",
							"type": "address"
						}
					],
					"name": "Customers",
					"outputs": [
						{
							"internalType": "uint256",
							"name": "tokens_purchased",
							"type": "uint256"
						}
					],
					"stateMutability": "view",
					"type": "function"
				},
				{
					"inputs": [
						{
							"internalType": "address",
							"name": "owner",
							"type": "address"
						},
						{
							"internalType": "address",
							"name": "spender",
							"type": "address"
						}
					],
					"name": "allowance",
					"outputs": [
						{
							"internalType": "uint256",
							"name": "",
							"type": "uint256"
						}
					],
					"stateMutability": "view",
					"type": "function"
				},
				{
					"inputs": [
						{
							"internalType": "address",
							"name": "spender",
							"type": "address"
						},
						{
							"internalType": "uint256",
							"name": "amount",
							"type": "uint256"
						}
					],
					"name": "approve",
					"outputs": [
						{
							"internalType": "bool",
							"name": "",
							"type": "bool"
						}
					],
					"stateMutability": "nonpayable",
					"type": "function"
				},
				{
					"inputs": [
						{
							"internalType": "address",
							"name": "account",
							"type": "address"
						}
					],
					"name": "balanceOf",
					"outputs": [
						{
							"internalType": "uint256",
							"name": "",
							"type": "uint256"
						}
					],
					"stateMutability": "view",
					"type": "function"
				},
				{
					"inputs": [
						{
							"internalType": "address",
							"name": "_acount",
							"type": "address"
						}
					],
					"name": "balanceTokens",
					"outputs": [
						{
							"internalType": "uint256",
							"name": "",
							"type": "uint256"
						}
					],
					"stateMutability": "view",
					"type": "function"
				},
				{
					"inputs": [],
					"name": "decimals",
					"outputs": [
						{
							"internalType": "uint8",
							"name": "",
							"type": "uint8"
						}
					],
					"stateMutability": "view",
					"type": "function"
				},
				{
					"inputs": [
						{
							"internalType": "address",
							"name": "spender",
							"type": "address"
						},
						{
							"internalType": "uint256",
							"name": "subtractedValue",
							"type": "uint256"
						}
					],
					"name": "decreaseAllowance",
					"outputs": [
						{
							"internalType": "bool",
							"name": "",
							"type": "bool"
						}
					],
					"stateMutability": "nonpayable",
					"type": "function"
				},
				{
					"inputs": [
						{
							"internalType": "address",
							"name": "spender",
							"type": "address"
						},
						{
							"internalType": "uint256",
							"name": "addedValue",
							"type": "uint256"
						}
					],
					"name": "increaseAllowance",
					"outputs": [
						{
							"internalType": "bool",
							"name": "",
							"type": "bool"
						}
					],
					"stateMutability": "nonpayable",
					"type": "function"
				},
				{
					"inputs": [
						{
							"internalType": "uint256",
							"name": "_amount",
							"type": "uint256"
						}
					],
					"name": "mint",
					"outputs": [],
					"stateMutability": "nonpayable",
					"type": "function"
				},
				{
					"inputs": [],
					"name": "name",
					"outputs": [
						{
							"internalType": "string",
							"name": "",
							"type": "string"
						}
					],
					"stateMutability": "view",
					"type": "function"
				},
				{
					"inputs": [],
					"name": "owner",
					"outputs": [
						{
							"internalType": "address",
							"name": "",
							"type": "address"
						}
					],
					"stateMutability": "view",
					"type": "function"
				},
				{
					"inputs": [
						{
							"internalType": "uint256",
							"name": "_numTokens",
							"type": "uint256"
						}
					],
					"name": "purchaseTokens",
					"outputs": [],
					"stateMutability": "payable",
					"type": "function"
				},
				{
					"inputs": [],
					"name": "renounceOwnership",
					"outputs": [],
					"stateMutability": "nonpayable",
					"type": "function"
				},
				{
					"inputs": [],
					"name": "symbol",
					"outputs": [
						{
							"internalType": "string",
							"name": "",
							"type": "string"
						}
					],
					"stateMutability": "view",
					"type": "function"
				},
				{
					"inputs": [
						{
							"internalType": "uint256",
							"name": "_numTokens",
							"type": "uint256"
						}
					],
					"name": "tokensEthers",
					"outputs": [],
					"stateMutability": "payable",
					"type": "function"
				},
				{
					"inputs": [],
					"name": "totalSupply",
					"outputs": [
						{
							"internalType": "uint256",
							"name": "",
							"type": "uint256"
						}
					],
					"stateMutability": "view",
					"type": "function"
				},
				{
					"inputs": [
						{
							"internalType": "address",
							"name": "recipient",
							"type": "address"
						},
						{
							"internalType": "uint256",
							"name": "amount",
							"type": "uint256"
						}
					],
					"name": "transfer",
					"outputs": [
						{
							"internalType": "bool",
							"name": "",
							"type": "bool"
						}
					],
					"stateMutability": "nonpayable",
					"type": "function"
				},
				{
					"inputs": [
						{
							"internalType": "address",
							"name": "sender",
							"type": "address"
						},
						{
							"internalType": "address",
							"name": "recipient",
							"type": "address"
						},
						{
							"internalType": "uint256",
							"name": "amount",
							"type": "uint256"
						}
					],
					"name": "transferFrom",
					"outputs": [
						{
							"internalType": "bool",
							"name": "",
							"type": "bool"
						}
					],
					"stateMutability": "nonpayable",
					"type": "function"
				},
				{
					"inputs": [
						{
							"internalType": "address",
							"name": "newOwner",
							"type": "address"
						}
					],
					"name": "transferOwnership",
					"outputs": [],
					"stateMutability": "nonpayable",
					"type": "function"
				}
			],
			"devdoc": {
				"kind": "dev",
				"methods": {
					"allowance(address,address)": {
						"details": "See {IERC20-allowance}."
					},
					"approve(address,uint256)": {
						"details": "See {IERC20-approve}. Requirements: - `spender` cannot be the zero address."
					},
					"balanceOf(address)": {
						"details": "See {IERC20-balanceOf}."
					},
					"decimals()": {
						"details": "Returns the number of decimals used to get its user representation. For example, if `decimals` equals `2`, a balance of `505` tokens should be displayed to a user as `5.05` (`505 / 10 ** 2`). Tokens usually opt for a value of 18, imitating the relationship between Ether and Wei. This is the value {ERC20} uses, unless this function is overridden; NOTE: This information is only used for _display_ purposes: it in no way affects any of the arithmetic of the contract, including {IERC20-balanceOf} and {IERC20-transfer}."
					},
					"decreaseAllowance(address,uint256)": {
						"details": "Atomically decreases the allowance granted to `spender` by the caller. This is an alternative to {approve} that can be used as a mitigation for problems described in {IERC20-approve}. Emits an {Approval} event indicating the updated allowance. Requirements: - `spender` cannot be the zero address. - `spender` must have allowance for the caller of at least `subtractedValue`."
					},
					"increaseAllowance(address,uint256)": {
						"details": "Atomically increases the allowance granted to `spender` by the caller. This is an alternative to {approve} that can be used as a mitigation for problems described in {IERC20-approve}. Emits an {Approval} event indicating the updated allowance. Requirements: - `spender` cannot be the zero address."
					},
					"name()": {
						"details": "Returns the name of the token."
					},
					"owner()": {
						"details": "Returns the address of the current owner."
					},
					"renounceOwnership()": {
						"details": "Leaves the contract without owner. It will not be possible to call `onlyOwner` functions anymore. Can only be called by the current owner. NOTE: Renouncing ownership will leave the contract without an owner, thereby removing any functionality that is only available to the owner."
					},
					"symbol()": {
						"details": "Returns the symbol of the token, usually a shorter version of the name."
					},
					"totalSupply()": {
						"details": "See {IERC20-totalSupply}."
					},
					"transfer(address,uint256)": {
						"details": "See {IERC20-transfer}. Requirements: - `recipient` cannot be the zero address. - the caller must have a balance of at least `amount`."
					},
					"transferFrom(address,address,uint256)": {
						"details": "See {IERC20-transferFrom}. Emits an {Approval} event indicating the updated allowance. This is not required by the EIP. See the note at the beginning of {ERC20}. Requirements: - `sender` and `recipient` cannot be the zero address. - `sender` must have a balance of at least `amount`. - the caller must have allowance for ``sender``'s tokens of at least `amount`."
					},
					"transferOwnership(address)": {
						"details": "Transfers ownership of the contract to a new account (`newOwner`). Can only be called by the current owner."
					}
				},
				"version": 1
			},
			"evm": {
				"assembly": "    /* \"contracts/cinema.sol\":199:2859  contract Cinema is ERC20, Ownable {\r... */\n  mstore(0x40, 0x80)\n    /* \"contracts/cinema.sol\":259:343  constructor () ERC20(\"Movies\", \"MC\") {\r... */\n  callvalue\n  dup1\n  iszero\n  tag_1\n  jumpi\n  0x00\n  dup1\n  revert\ntag_1:\n  pop\n    /* \"@openzeppelin/contracts@4.4.2/token/ERC20/ERC20.sol\":1963:2076  constructor(string memory name_, string memory symbol_) {... */\n  mload(0x40)\n  dup1\n  0x40\n  add\n  0x40\n  mstore\n  dup1\n  0x06\n  dup2\n  mstore\n  0x20\n  add\n  0x4d6f766965730000000000000000000000000000000000000000000000000000\n  dup2\n  mstore\n  pop\n  mload(0x40)\n  dup1\n  0x40\n  add\n  0x40\n  mstore\n  dup1\n  0x02\n  dup2\n  mstore\n  0x20\n  add\n  0x4d43000000000000000000000000000000000000000000000000000000000000\n  dup2\n  mstore\n  pop\n    /* \"@openzeppelin/contracts@4.4.2/token/ERC20/ERC20.sol\":2037:2042  name_ */\n  dup2\n    /* \"@openzeppelin/contracts@4.4.2/token/ERC20/ERC20.sol\":2029:2034  _name */\n  0x03\n    /* \"@openzeppelin/contracts@4.4.2/token/ERC20/ERC20.sol\":2029:2042  _name = name_ */\n  swap1\n  dup1\n  mload\n  swap1\n  0x20\n  add\n  swap1\n  tag_6\n  swap3\n  swap2\n  swap1\n  tag_7\n  jump\t// in\ntag_6:\n  pop\n    /* \"@openzeppelin/contracts@4.4.2/token/ERC20/ERC20.sol\":2062:2069  symbol_ */\n  dup1\n    /* \"@openzeppelin/contracts@4.4.2/token/ERC20/ERC20.sol\":2052:2059  _symbol */\n  0x04\n    /* \"@openzeppelin/contracts@4.4.2/token/ERC20/ERC20.sol\":2052:2069  _symbol = symbol_ */\n  swap1\n  dup1\n  mload\n  swap1\n  0x20\n  add\n  swap1\n  tag_8\n  swap3\n  swap2\n  swap1\n  tag_7\n  jump\t// in\ntag_8:\n  pop\n    /* \"@openzeppelin/contracts@4.4.2/token/ERC20/ERC20.sol\":1963:2076  constructor(string memory name_, string memory symbol_) {... */\n  pop\n  pop\n    /* \"@openzeppelin/contracts@4.4.2/access/Ownable.sol\":921:953  _transferOwnership(_msgSender()) */\n  tag_10\n    /* \"@openzeppelin/contracts@4.4.2/access/Ownable.sol\":940:952  _msgSender() */\n  tag_11\n    /* \"@openzeppelin/contracts@4.4.2/access/Ownable.sol\":940:950  _msgSender */\n  shl(0x20, tag_12)\n    /* \"@openzeppelin/contracts@4.4.2/access/Ownable.sol\":940:952  _msgSender() */\n  0x20\n  shr\n  jump\t// in\ntag_11:\n    /* \"@openzeppelin/contracts@4.4.2/access/Ownable.sol\":921:939  _transferOwnership */\n  shl(0x20, tag_13)\n    /* \"@openzeppelin/contracts@4.4.2/access/Ownable.sol\":921:953  _transferOwnership(_msgSender()) */\n  0x20\n  shr\n  jump\t// in\ntag_10:\n    /* \"contracts/cinema.sol\":307:333  _mint(address(this), 1000) */\n  tag_15\n    /* \"contracts/cinema.sol\":321:325  this */\n  address\n    /* \"contracts/cinema.sol\":328:332  1000 */\n  0x03e8\n    /* \"contracts/cinema.sol\":307:312  _mint */\n  shl(0x20, tag_16)\n    /* \"contracts/cinema.sol\":307:333  _mint(address(this), 1000) */\n  0x20\n  shr\n  jump\t// in\ntag_15:\n    /* \"contracts/cinema.sol\":199:2859  contract Cinema is ERC20, Ownable {\r... */\n  jump(tag_17)\n    /* \"@openzeppelin/contracts@4.4.2/utils/Context.sol\":640:736  function _msgSender() internal view virtual returns (address) {... */\ntag_12:\n    /* \"@openzeppelin/contracts@4.4.2/utils/Context.sol\":693:700  address */\n  0x00\n    /* \"@openzeppelin/contracts@4.4.2/utils/Context.sol\":719:729  msg.sender */\n  caller\n    /* \"@openzeppelin/contracts@4.4.2/utils/Context.sol\":712:729  return msg.sender */\n  swap1\n  pop\n    /* \"@openzeppelin/contracts@4.4.2/utils/Context.sol\":640:736  function _msgSender() internal view virtual returns (address) {... */\n  swap1\n  jump\t// out\n    /* \"@openzeppelin/contracts@4.4.2/access/Ownable.sol\":2270:2457  function _transferOwnership(address newOwner) internal virtual {... */\ntag_13:\n    /* \"@openzeppelin/contracts@4.4.2/access/Ownable.sol\":2343:2359  address oldOwner */\n  0x00\n    /* \"@openzeppelin/contracts@4.4.2/access/Ownable.sol\":2362:2368  _owner */\n  0x05\n  0x00\n  swap1\n  sload\n  swap1\n  0x0100\n  exp\n  swap1\n  div\n  0xffffffffffffffffffffffffffffffffffffffff\n  and\n    /* \"@openzeppelin/contracts@4.4.2/access/Ownable.sol\":2343:2368  address oldOwner = _owner */\n  swap1\n  pop\n    /* \"@openzeppelin/contracts@4.4.2/access/Ownable.sol\":2387:2395  newOwner */\n  dup2\n    /* \"@openzeppelin/contracts@4.4.2/access/Ownable.sol\":2378:2384  _owner */\n  0x05\n  0x00\n    /* \"@openzeppelin/contracts@4.4.2/access/Ownable.sol\":2378:2395  _owner = newOwner */\n  0x0100\n  exp\n  dup2\n  sload\n  dup2\n  0xffffffffffffffffffffffffffffffffffffffff\n  mul\n  not\n  and\n  swap1\n  dup4\n  0xffffffffffffffffffffffffffffffffffffffff\n  and\n  mul\n  or\n  swap1\n  sstore\n  pop\n    /* \"@openzeppelin/contracts@4.4.2/access/Ownable.sol\":2441:2449  newOwner */\n  dup2\n    /* \"@openzeppelin/contracts@4.4.2/access/Ownable.sol\":2410:2450  OwnershipTransferred(oldOwner, newOwner) */\n  0xffffffffffffffffffffffffffffffffffffffff\n  and\n    /* \"@openzeppelin/contracts@4.4.2/access/Ownable.sol\":2431:2439  oldOwner */\n  dup2\n    /* \"@openzeppelin/contracts@4.4.2/access/Ownable.sol\":2410:2450  OwnershipTransferred(oldOwner, newOwner) */\n  0xffffffffffffffffffffffffffffffffffffffff\n  and\n  0x8be0079c531659141344cd1fd0a4f28419497f9722a3daafe3b4186f6b6457e0\n  mload(0x40)\n  mload(0x40)\n  dup1\n  swap2\n  sub\n  swap1\n  log3\n    /* \"@openzeppelin/contracts@4.4.2/access/Ownable.sol\":2270:2457  function _transferOwnership(address newOwner) internal virtual {... */\n  pop\n  pop\n  jump\t// out\n    /* \"@openzeppelin/contracts@4.4.2/token/ERC20/ERC20.sol\":8311:8700  function _mint(address account, uint256 amount) internal virtual {... */\ntag_16:\n    /* \"@openzeppelin/contracts@4.4.2/token/ERC20/ERC20.sol\":8413:8414  0 */\n  0x00\n    /* \"@openzeppelin/contracts@4.4.2/token/ERC20/ERC20.sol\":8394:8415  account != address(0) */\n  0xffffffffffffffffffffffffffffffffffffffff\n  and\n    /* \"@openzeppelin/contracts@4.4.2/token/ERC20/ERC20.sol\":8394:8401  account */\n  dup3\n    /* \"@openzeppelin/contracts@4.4.2/token/ERC20/ERC20.sol\":8394:8415  account != address(0) */\n  0xffffffffffffffffffffffffffffffffffffffff\n  and\n  eq\n  iszero\n    /* \"@openzeppelin/contracts@4.4.2/token/ERC20/ERC20.sol\":8386:8451  require(account != address(0), \"ERC20: mint to the zero address\") */\n  tag_21\n  jumpi\n  mload(0x40)\n  0x08c379a000000000000000000000000000000000000000000000000000000000\n  dup2\n  mstore\n  0x04\n  add\n  tag_22\n  swap1\n  tag_23\n  jump\t// in\ntag_22:\n  mload(0x40)\n  dup1\n  swap2\n  sub\n  swap1\n  revert\ntag_21:\n    /* \"@openzeppelin/contracts@4.4.2/token/ERC20/ERC20.sol\":8462:8511  _beforeTokenTransfer(address(0), account, amount) */\n  tag_24\n    /* \"@openzeppelin/contracts@4.4.2/token/ERC20/ERC20.sol\":8491:8492  0 */\n  0x00\n    /* \"@openzeppelin/contracts@4.4.2/token/ERC20/ERC20.sol\":8495:8502  account */\n  dup4\n    /* \"@openzeppelin/contracts@4.4.2/token/ERC20/ERC20.sol\":8504:8510  amount */\n  dup4\n    /* \"@openzeppelin/contracts@4.4.2/token/ERC20/ERC20.sol\":8462:8482  _beforeTokenTransfer */\n  shl(0x20, tag_25)\n    /* \"@openzeppelin/contracts@4.4.2/token/ERC20/ERC20.sol\":8462:8511  _beforeTokenTransfer(address(0), account, amount) */\n  0x20\n  shr\n  jump\t// in\ntag_24:\n    /* \"@openzeppelin/contracts@4.4.2/token/ERC20/ERC20.sol\":8538:8544  amount */\n  dup1\n    /* \"@openzeppelin/contracts@4.4.2/token/ERC20/ERC20.sol\":8522:8534  _totalSupply */\n  0x02\n  0x00\n    /* \"@openzeppelin/contracts@4.4.2/token/ERC20/ERC20.sol\":8522:8544  _totalSupply += amount */\n  dup3\n  dup3\n  sload\n  tag_26\n  swap2\n  swap1\n  tag_27\n  jump\t// in\ntag_26:\n  swap3\n  pop\n  pop\n  dup2\n  swap1\n  sstore\n  pop\n    /* \"@openzeppelin/contracts@4.4.2/token/ERC20/ERC20.sol\":8576:8582  amount */\n  dup1\n    /* \"@openzeppelin/contracts@4.4.2/token/ERC20/ERC20.sol\":8554:8563  _balances */\n  0x00\n    /* \"@openzeppelin/contracts@4.4.2/token/ERC20/ERC20.sol\":8554:8572  _balances[account] */\n  dup1\n    /* \"@openzeppelin/contracts@4.4.2/token/ERC20/ERC20.sol\":8564:8571  account */\n  dup5\n    /* \"@openzeppelin/contracts@4.4.2/token/ERC20/ERC20.sol\":8554:8572  _balances[account] */\n  0xffffffffffffffffffffffffffffffffffffffff\n  and\n  0xffffffffffffffffffffffffffffffffffffffff\n  and\n  dup2\n  mstore\n  0x20\n  add\n  swap1\n  dup2\n  mstore\n  0x20\n  add\n  0x00\n  keccak256\n  0x00\n    /* \"@openzeppelin/contracts@4.4.2/token/ERC20/ERC20.sol\":8554:8582  _balances[account] += amount */\n  dup3\n  dup3\n  sload\n  tag_28\n  swap2\n  swap1\n  tag_27\n  jump\t// in\ntag_28:\n  swap3\n  pop\n  pop\n  dup2\n  swap1\n  sstore\n  pop\n    /* \"@openzeppelin/contracts@4.4.2/token/ERC20/ERC20.sol\":8618:8625  account */\n  dup2\n    /* \"@openzeppelin/contracts@4.4.2/token/ERC20/ERC20.sol\":8597:8634  Transfer(address(0), account, amount) */\n  0xffffffffffffffffffffffffffffffffffffffff\n  and\n    /* \"@openzeppelin/contracts@4.4.2/token/ERC20/ERC20.sol\":8614:8615  0 */\n  0x00\n    /* \"@openzeppelin/contracts@4.4.2/token/ERC20/ERC20.sol\":8597:8634  Transfer(address(0), account, amount) */\n  0xffffffffffffffffffffffffffffffffffffffff\n  and\n  0xddf252ad1be2c89b69c2b068fc378daa952ba7f163c4a11628f55a4df523b3ef\n    /* \"@openzeppelin/contracts@4.4.2/token/ERC20/ERC20.sol\":8627:8633  amount */\n  dup4\n    /* \"@openzeppelin/contracts@4.4.2/token/ERC20/ERC20.sol\":8597:8634  Transfer(address(0), account, amount) */\n  mload(0x40)\n  tag_29\n  swap2\n  swap1\n  tag_30\n  jump\t// in\ntag_29:\n  mload(0x40)\n  dup1\n  swap2\n  sub\n  swap1\n  log3\n    /* \"@openzeppelin/contracts@4.4.2/token/ERC20/ERC20.sol\":8645:8693  _afterTokenTransfer(address(0), account, amount) */\n  tag_31\n    /* \"@openzeppelin/contracts@4.4.2/token/ERC20/ERC20.sol\":8673:8674  0 */\n  0x00\n    /* \"@openzeppelin/contracts@4.4.2/token/ERC20/ERC20.sol\":8677:8684  account */\n  dup4\n    /* \"@openzeppelin/contracts@4.4.2/token/ERC20/ERC20.sol\":8686:8692  amount */\n  dup4\n    /* \"@openzeppelin/contracts@4.4.2/token/ERC20/ERC20.sol\":8645:8664  _afterTokenTransfer */\n  shl(0x20, tag_32)\n    /* \"@openzeppelin/contracts@4.4.2/token/ERC20/ERC20.sol\":8645:8693  _afterTokenTransfer(address(0), account, amount) */\n  0x20\n  shr\n  jump\t// in\ntag_31:\n    /* \"@openzeppelin/contracts@4.4.2/token/ERC20/ERC20.sol\":8311:8700  function _mint(address account, uint256 amount) internal virtual {... */\n  pop\n  pop\n  jump\t// out\n    /* \"@openzeppelin/contracts@4.4.2/token/ERC20/ERC20.sol\":10973:11094  function _beforeTokenTransfer(... */\ntag_25:\n  pop\n  pop\n  pop\n  jump\t// out\n    /* \"@openzeppelin/contracts@4.4.2/token/ERC20/ERC20.sol\":11682:11802  function _afterTokenTransfer(... */\ntag_32:\n  pop\n  pop\n  pop\n  jump\t// out\n    /* \"contracts/cinema.sol\":199:2859  contract Cinema is ERC20, Ownable {\r... */\ntag_7:\n  dup3\n  dup1\n  sload\n  tag_35\n  swap1\n  tag_36\n  jump\t// in\ntag_35:\n  swap1\n  0x00\n  mstore\n  keccak256(0x00, 0x20)\n  swap1\n  0x1f\n  add\n  0x20\n  swap1\n  div\n  dup2\n  add\n  swap3\n  dup3\n  tag_38\n  jumpi\n  0x00\n  dup6\n  sstore\n  jump(tag_37)\ntag_38:\n  dup3\n  0x1f\n  lt\n  tag_39\n  jumpi\n  dup1\n  mload\n  not(0xff)\n  and\n  dup4\n  dup1\n  add\n  or\n  dup6\n  sstore\n  jump(tag_37)\ntag_39:\n  dup3\n  dup1\n  add\n  0x01\n  add\n  dup6\n  sstore\n  dup3\n  iszero\n  tag_37\n  jumpi\n  swap2\n  dup3\n  add\ntag_40:\n  dup3\n  dup2\n  gt\n  iszero\n  tag_41\n  jumpi\n  dup3\n  mload\n  dup3\n  sstore\n  swap2\n  0x20\n  add\n  swap2\n  swap1\n  0x01\n  add\n  swap1\n  jump(tag_40)\ntag_41:\ntag_37:\n  pop\n  swap1\n  pop\n  tag_42\n  swap2\n  swap1\n  tag_43\n  jump\t// in\ntag_42:\n  pop\n  swap1\n  jump\t// out\ntag_43:\ntag_44:\n  dup1\n  dup3\n  gt\n  iszero\n  tag_45\n  jumpi\n  0x00\n  dup2\n  0x00\n  swap1\n  sstore\n  pop\n  0x01\n  add\n  jump(tag_44)\ntag_45:\n  pop\n  swap1\n  jump\t// out\n    /* \"#utility.yul\":7:373   */\ntag_47:\n  0x00\n    /* \"#utility.yul\":170:237   */\n  tag_49\n    /* \"#utility.yul\":234:236   */\n  0x1f\n    /* \"#utility.yul\":229:232   */\n  dup4\n    /* \"#utility.yul\":170:237   */\n  tag_50\n  jump\t// in\ntag_49:\n    /* \"#utility.yul\":163:237   */\n  swap2\n  pop\n    /* \"#utility.yul\":246:339   */\n  tag_51\n    /* \"#utility.yul\":335:338   */\n  dup3\n    /* \"#utility.yul\":246:339   */\n  tag_52\n  jump\t// in\ntag_51:\n    /* \"#utility.yul\":364:366   */\n  0x20\n    /* \"#utility.yul\":359:362   */\n  dup3\n    /* \"#utility.yul\":355:367   */\n  add\n    /* \"#utility.yul\":348:367   */\n  swap1\n  pop\n    /* \"#utility.yul\":153:373   */\n  swap2\n  swap1\n  pop\n  jump\t// out\n    /* \"#utility.yul\":379:497   */\ntag_53:\n    /* \"#utility.yul\":466:490   */\n  tag_55\n    /* \"#utility.yul\":484:489   */\n  dup2\n    /* \"#utility.yul\":466:490   */\n  tag_56\n  jump\t// in\ntag_55:\n    /* \"#utility.yul\":461:464   */\n  dup3\n    /* \"#utility.yul\":454:491   */\n  mstore\n    /* \"#utility.yul\":444:497   */\n  pop\n  pop\n  jump\t// out\n    /* \"#utility.yul\":503:922   */\ntag_23:\n  0x00\n    /* \"#utility.yul\":707:709   */\n  0x20\n    /* \"#utility.yul\":696:705   */\n  dup3\n    /* \"#utility.yul\":692:710   */\n  add\n    /* \"#utility.yul\":684:710   */\n  swap1\n  pop\n    /* \"#utility.yul\":756:765   */\n  dup2\n    /* \"#utility.yul\":750:754   */\n  dup2\n    /* \"#utility.yul\":746:766   */\n  sub\n    /* \"#utility.yul\":742:743   */\n  0x00\n    /* \"#utility.yul\":731:740   */\n  dup4\n    /* \"#utility.yul\":727:744   */\n  add\n    /* \"#utility.yul\":720:767   */\n  mstore\n    /* \"#utility.yul\":784:915   */\n  tag_58\n    /* \"#utility.yul\":910:914   */\n  dup2\n    /* \"#utility.yul\":784:915   */\n  tag_47\n  jump\t// in\ntag_58:\n    /* \"#utility.yul\":776:915   */\n  swap1\n  pop\n    /* \"#utility.yul\":674:922   */\n  swap2\n  swap1\n  pop\n  jump\t// out\n    /* \"#utility.yul\":928:1150   */\ntag_30:\n  0x00\n    /* \"#utility.yul\":1059:1061   */\n  0x20\n    /* \"#utility.yul\":1048:1057   */\n  dup3\n    /* \"#utility.yul\":1044:1062   */\n  add\n    /* \"#utility.yul\":1036:1062   */\n  swap1\n  pop\n    /* \"#utility.yul\":1072:1143   */\n  tag_60\n    /* \"#utility.yul\":1140:1141   */\n  0x00\n    /* \"#utility.yul\":1129:1138   */\n  dup4\n    /* \"#utility.yul\":1125:1142   */\n  add\n    /* \"#utility.yul\":1116:1122   */\n  dup5\n    /* \"#utility.yul\":1072:1143   */\n  tag_53\n  jump\t// in\ntag_60:\n    /* \"#utility.yul\":1026:1150   */\n  swap3\n  swap2\n  pop\n  pop\n  jump\t// out\n    /* \"#utility.yul\":1156:1325   */\ntag_50:\n  0x00\n    /* \"#utility.yul\":1274:1280   */\n  dup3\n    /* \"#utility.yul\":1269:1272   */\n  dup3\n    /* \"#utility.yul\":1262:1281   */\n  mstore\n    /* \"#utility.yul\":1314:1318   */\n  0x20\n    /* \"#utility.yul\":1309:1312   */\n  dup3\n    /* \"#utility.yul\":1305:1319   */\n  add\n    /* \"#utility.yul\":1290:1319   */\n  swap1\n  pop\n    /* \"#utility.yul\":1252:1325   */\n  swap3\n  swap2\n  pop\n  pop\n  jump\t// out\n    /* \"#utility.yul\":1331:1636   */\ntag_27:\n  0x00\n    /* \"#utility.yul\":1390:1410   */\n  tag_63\n    /* \"#utility.yul\":1408:1409   */\n  dup3\n    /* \"#utility.yul\":1390:1410   */\n  tag_56\n  jump\t// in\ntag_63:\n    /* \"#utility.yul\":1385:1410   */\n  swap2\n  pop\n    /* \"#utility.yul\":1424:1444   */\n  tag_64\n    /* \"#utility.yul\":1442:1443   */\n  dup4\n    /* \"#utility.yul\":1424:1444   */\n  tag_56\n  jump\t// in\ntag_64:\n    /* \"#utility.yul\":1419:1444   */\n  swap3\n  pop\n    /* \"#utility.yul\":1578:1579   */\n  dup3\n    /* \"#utility.yul\":1510:1576   */\n  0xffffffffffffffffffffffffffffffffffffffffffffffffffffffffffffffff\n    /* \"#utility.yul\":1506:1580   */\n  sub\n    /* \"#utility.yul\":1503:1504   */\n  dup3\n    /* \"#utility.yul\":1500:1581   */\n  gt\n    /* \"#utility.yul\":1497:1499   */\n  iszero\n  tag_65\n  jumpi\n    /* \"#utility.yul\":1584:1602   */\n  tag_66\n  tag_67\n  jump\t// in\ntag_66:\n    /* \"#utility.yul\":1497:1499   */\ntag_65:\n    /* \"#utility.yul\":1628:1629   */\n  dup3\n    /* \"#utility.yul\":1625:1626   */\n  dup3\n    /* \"#utility.yul\":1621:1630   */\n  add\n    /* \"#utility.yul\":1614:1630   */\n  swap1\n  pop\n    /* \"#utility.yul\":1375:1636   */\n  swap3\n  swap2\n  pop\n  pop\n  jump\t// out\n    /* \"#utility.yul\":1642:1719   */\ntag_56:\n  0x00\n    /* \"#utility.yul\":1708:1713   */\n  dup2\n    /* \"#utility.yul\":1697:1713   */\n  swap1\n  pop\n    /* \"#utility.yul\":1687:1719   */\n  swap2\n  swap1\n  pop\n  jump\t// out\n    /* \"#utility.yul\":1725:2045   */\ntag_36:\n  0x00\n    /* \"#utility.yul\":1806:1807   */\n  0x02\n    /* \"#utility.yul\":1800:1804   */\n  dup3\n    /* \"#utility.yul\":1796:1808   */\n  div\n    /* \"#utility.yul\":1786:1808   */\n  swap1\n  pop\n    /* \"#utility.yul\":1853:1854   */\n  0x01\n    /* \"#utility.yul\":1847:1851   */\n  dup3\n    /* \"#utility.yul\":1843:1855   */\n  and\n    /* \"#utility.yul\":1874:1892   */\n  dup1\n    /* \"#utility.yul\":1864:1866   */\n  tag_70\n  jumpi\n    /* \"#utility.yul\":1930:1934   */\n  0x7f\n    /* \"#utility.yul\":1922:1928   */\n  dup3\n    /* \"#utility.yul\":1918:1935   */\n  and\n    /* \"#utility.yul\":1908:1935   */\n  swap2\n  pop\n    /* \"#utility.yul\":1864:1866   */\ntag_70:\n    /* \"#utility.yul\":1992:1994   */\n  0x20\n    /* \"#utility.yul\":1984:1990   */\n  dup3\n    /* \"#utility.yul\":1981:1995   */\n  lt\n    /* \"#utility.yul\":1961:1979   */\n  dup2\n    /* \"#utility.yul\":1958:1996   */\n  eq\n    /* \"#utility.yul\":1955:1957   */\n  iszero\n  tag_71\n  jumpi\n    /* \"#utility.yul\":2011:2029   */\n  tag_72\n  tag_73\n  jump\t// in\ntag_72:\n    /* \"#utility.yul\":1955:1957   */\ntag_71:\n    /* \"#utility.yul\":1776:2045   */\n  pop\n  swap2\n  swap1\n  pop\n  jump\t// out\n    /* \"#utility.yul\":2051:2231   */\ntag_67:\n    /* \"#utility.yul\":2099:2176   */\n  0x4e487b7100000000000000000000000000000000000000000000000000000000\n    /* \"#utility.yul\":2096:2097   */\n  0x00\n    /* \"#utility.yul\":2089:2177   */\n  mstore\n    /* \"#utility.yul\":2196:2200   */\n  0x11\n    /* \"#utility.yul\":2193:2194   */\n  0x04\n    /* \"#utility.yul\":2186:2201   */\n  mstore\n    /* \"#utility.yul\":2220:2224   */\n  0x24\n    /* \"#utility.yul\":2217:2218   */\n  0x00\n    /* \"#utility.yul\":2210:2225   */\n  revert\n    /* \"#utility.yul\":2237:2417   */\ntag_73:\n    /* \"#utility.yul\":2285:2362   */\n  0x4e487b7100000000000000000000000000000000000000000000000000000000\n    /* \"#utility.yul\":2282:2283   */\n  0x00\n    /* \"#utility.yul\":2275:2363   */\n  mstore\n    /* \"#utility.yul\":2382:2386   */\n  0x22\n    /* \"#utility.yul\":2379:2380   */\n  0x04\n    /* \"#utility.yul\":2372:2387   */\n  mstore\n    /* \"#utility.yul\":2406:2410   */\n  0x24\n    /* \"#utility.yul\":2403:2404   */\n  0x00\n    /* \"#utility.yul\":2396:2411   */\n  revert\n    /* \"#utility.yul\":2423:2604   */\ntag_52:\n    /* \"#utility.yul\":2563:2596   */\n  0x45524332303a206d696e7420746f20746865207a65726f206164647265737300\n    /* \"#utility.yul\":2559:2560   */\n  0x00\n    /* \"#utility.yul\":2551:2557   */\n  dup3\n    /* \"#utility.yul\":2547:2561   */\n  add\n    /* \"#utility.yul\":2540:2597   */\n  mstore\n    /* \"#utility.yul\":2529:2604   */\n  pop\n  jump\t// out\n    /* \"contracts/cinema.sol\":199:2859  contract Cinema is ERC20, Ownable {\r... */\ntag_17:\n  dataSize(sub_0)\n  dup1\n  dataOffset(sub_0)\n  0x00\n  codecopy\n  0x00\n  return\nstop\n\nsub_0: assembly {\n        /* \"contracts/cinema.sol\":199:2859  contract Cinema is ERC20, Ownable {\r... */\n      mstore(0x40, 0x80)\n      jumpi(tag_1, lt(calldatasize, 0x04))\n      shr(0xe0, calldataload(0x00))\n      dup1\n      0x7b97008d\n      gt\n      tag_21\n      jumpi\n      dup1\n      0xa457c2d7\n      gt\n      tag_22\n      jumpi\n      dup1\n      0xa457c2d7\n      eq\n      tag_16\n      jumpi\n      dup1\n      0xa9059cbb\n      eq\n      tag_17\n      jumpi\n      dup1\n      0xdd62ed3e\n      eq\n      tag_18\n      jumpi\n      dup1\n      0xf2fde38b\n      eq\n      tag_19\n      jumpi\n      dup1\n      0xf9b4527a\n      eq\n      tag_20\n      jumpi\n      jump(tag_1)\n    tag_22:\n      dup1\n      0x7b97008d\n      eq\n      tag_11\n      jumpi\n      dup1\n      0x7dc04f01\n      eq\n      tag_12\n      jumpi\n      dup1\n      0x8da5cb5b\n      eq\n      tag_13\n      jumpi\n      dup1\n      0x95d89b41\n      eq\n      tag_14\n      jumpi\n      dup1\n      0xa0712d68\n      eq\n      tag_15\n      jumpi\n      jump(tag_1)\n    tag_21:\n      dup1\n      0x313ce567\n      gt\n      tag_23\n      jumpi\n      dup1\n      0x313ce567\n      eq\n      tag_6\n      jumpi\n      dup1\n      0x39509351\n      eq\n      tag_7\n      jumpi\n      dup1\n      0x6ac55e6a\n      eq\n      tag_8\n      jumpi\n      dup1\n      0x70a08231\n      eq\n      tag_9\n      jumpi\n      dup1\n      0x715018a6\n      eq\n      tag_10\n      jumpi\n      jump(tag_1)\n    tag_23:\n      dup1\n      0x06fdde03\n      eq\n      tag_2\n      jumpi\n      dup1\n      0x095ea7b3\n      eq\n      tag_3\n      jumpi\n      dup1\n      0x18160ddd\n      eq\n      tag_4\n      jumpi\n      dup1\n      0x23b872dd\n      eq\n      tag_5\n      jumpi\n    tag_1:\n      0x00\n      dup1\n      revert\n        /* \"@openzeppelin/contracts@4.4.2/token/ERC20/ERC20.sol\":2141:2239  function name() public view virtual override returns (string memory) {... */\n    tag_2:\n      callvalue\n      dup1\n      iszero\n      tag_24\n      jumpi\n      0x00\n      dup1\n      revert\n    tag_24:\n      pop\n      tag_25\n      tag_26\n      jump\t// in\n    tag_25:\n      mload(0x40)\n      tag_27\n      swap2\n      swap1\n      tag_28\n      jump\t// in\n    tag_27:\n      mload(0x40)\n      dup1\n      swap2\n      sub\n      swap1\n      return\n        /* \"@openzeppelin/contracts@4.4.2/token/ERC20/ERC20.sol\":4238:4404  function approve(address spender, uint256 amount) public virtual override returns (bool) {... */\n    tag_3:\n      callvalue\n      dup1\n      iszero\n      tag_29\n      jumpi\n      0x00\n      dup1\n      revert\n    tag_29:\n      pop\n      tag_30\n      0x04\n      dup1\n      calldatasize\n      sub\n      dup2\n      add\n      swap1\n      tag_31\n      swap2\n      swap1\n      tag_32\n      jump\t// in\n    tag_31:\n      tag_33\n      jump\t// in\n    tag_30:\n      mload(0x40)\n      tag_34\n      swap2\n      swap1\n      tag_35\n      jump\t// in\n    tag_34:\n      mload(0x40)\n      dup1\n      swap2\n      sub\n      swap1\n      return\n        /* \"@openzeppelin/contracts@4.4.2/token/ERC20/ERC20.sol\":3229:3335  function totalSupply() public view virtual override returns (uint256) {... */\n    tag_4:\n      callvalue\n      dup1\n      iszero\n      tag_36\n      jumpi\n      0x00\n      dup1\n      revert\n    tag_36:\n      pop\n      tag_37\n      tag_38\n      jump\t// in\n    tag_37:\n      mload(0x40)\n      tag_39\n      swap2\n      swap1\n      tag_40\n      jump\t// in\n    tag_39:\n      mload(0x40)\n      dup1\n      swap2\n      sub\n      swap1\n      return\n        /* \"@openzeppelin/contracts@4.4.2/token/ERC20/ERC20.sol\":4871:5349  function transferFrom(... */\n    tag_5:\n      callvalue\n      dup1\n      iszero\n      tag_41\n      jumpi\n      0x00\n      dup1\n      revert\n    tag_41:\n      pop\n      tag_42\n      0x04\n      dup1\n      calldatasize\n      sub\n      dup2\n      add\n      swap1\n      tag_43\n      swap2\n      swap1\n      tag_44\n      jump\t// in\n    tag_43:\n      tag_45\n      jump\t// in\n    tag_42:\n      mload(0x40)\n      tag_46\n      swap2\n      swap1\n      tag_35\n      jump\t// in\n    tag_46:\n      mload(0x40)\n      dup1\n      swap2\n      sub\n      swap1\n      return\n        /* \"@openzeppelin/contracts@4.4.2/token/ERC20/ERC20.sol\":3078:3169  function decimals() public view virtual override returns (uint8) {... */\n    tag_6:\n      callvalue\n      dup1\n      iszero\n      tag_47\n      jumpi\n      0x00\n      dup1\n      revert\n    tag_47:\n      pop\n      tag_48\n      tag_49\n      jump\t// in\n    tag_48:\n      mload(0x40)\n      tag_50\n      swap2\n      swap1\n      tag_51\n      jump\t// in\n    tag_50:\n      mload(0x40)\n      dup1\n      swap2\n      sub\n      swap1\n      return\n        /* \"@openzeppelin/contracts@4.4.2/token/ERC20/ERC20.sol\":5744:5956  function increaseAllowance(address spender, uint256 addedValue) public virtual returns (bool) {... */\n    tag_7:\n      callvalue\n      dup1\n      iszero\n      tag_52\n      jumpi\n      0x00\n      dup1\n      revert\n    tag_52:\n      pop\n      tag_53\n      0x04\n      dup1\n      calldatasize\n      sub\n      dup2\n      add\n      swap1\n      tag_54\n      swap2\n      swap1\n      tag_32\n      jump\t// in\n    tag_54:\n      tag_55\n      jump\t// in\n    tag_53:\n      mload(0x40)\n      tag_56\n      swap2\n      swap1\n      tag_35\n      jump\t// in\n    tag_56:\n      mload(0x40)\n      dup1\n      swap2\n      sub\n      swap1\n      return\n        /* \"contracts/cinema.sol\":541:587  mapping (address => customer) public Customers */\n    tag_8:\n      callvalue\n      dup1\n      iszero\n      tag_57\n      jumpi\n      0x00\n      dup1\n      revert\n    tag_57:\n      pop\n      tag_58\n      0x04\n      dup1\n      calldatasize\n      sub\n      dup2\n      add\n      swap1\n      tag_59\n      swap2\n      swap1\n      tag_60\n      jump\t// in\n    tag_59:\n      tag_61\n      jump\t// in\n    tag_58:\n      mload(0x40)\n      tag_62\n      swap2\n      swap1\n      tag_40\n      jump\t// in\n    tag_62:\n      mload(0x40)\n      dup1\n      swap2\n      sub\n      swap1\n      return\n        /* \"@openzeppelin/contracts@4.4.2/token/ERC20/ERC20.sol\":3393:3518  function balanceOf(address account) public view virtual override returns (uint256) {... */\n    tag_9:\n      callvalue\n      dup1\n      iszero\n      tag_63\n      jumpi\n      0x00\n      dup1\n      revert\n    tag_63:\n      pop\n      tag_64\n      0x04\n      dup1\n      calldatasize\n      sub\n      dup2\n      add\n      swap1\n      tag_65\n      swap2\n      swap1\n      tag_60\n      jump\t// in\n    tag_65:\n      tag_66\n      jump\t// in\n    tag_64:\n      mload(0x40)\n      tag_67\n      swap2\n      swap1\n      tag_40\n      jump\t// in\n    tag_67:\n      mload(0x40)\n      dup1\n      swap2\n      sub\n      swap1\n      return\n        /* \"@openzeppelin/contracts@4.4.2/access/Ownable.sol\":1668:1769  function renounceOwnership() public virtual onlyOwner {... */\n    tag_10:\n      callvalue\n      dup1\n      iszero\n      tag_68\n      jumpi\n      0x00\n      dup1\n      revert\n    tag_68:\n      pop\n      tag_69\n      tag_70\n      jump\t// in\n    tag_69:\n      stop\n        /* \"contracts/cinema.sol\":1136:2188  function purchaseTokens(uint256 _numTokens) public payable {\r... */\n    tag_11:\n      tag_71\n      0x04\n      dup1\n      calldatasize\n      sub\n      dup2\n      add\n      swap1\n      tag_72\n      swap2\n      swap1\n      tag_73\n      jump\t// in\n    tag_72:\n      tag_74\n      jump\t// in\n    tag_71:\n      stop\n        /* \"contracts/cinema.sol\":2266:2854  function tokensEthers(uint256 _numTokens) public payable {\r... */\n    tag_12:\n      tag_75\n      0x04\n      dup1\n      calldatasize\n      sub\n      dup2\n      add\n      swap1\n      tag_76\n      swap2\n      swap1\n      tag_73\n      jump\t// in\n    tag_76:\n      tag_77\n      jump\t// in\n    tag_75:\n      stop\n        /* \"@openzeppelin/contracts@4.4.2/access/Ownable.sol\":1036:1121  function owner() public view virtual returns (address) {... */\n    tag_13:\n      callvalue\n      dup1\n      iszero\n      tag_78\n      jumpi\n      0x00\n      dup1\n      revert\n    tag_78:\n      pop\n      tag_79\n      tag_80\n      jump\t// in\n    tag_79:\n      mload(0x40)\n      tag_81\n      swap2\n      swap1\n      tag_82\n      jump\t// in\n    tag_81:\n      mload(0x40)\n      dup1\n      swap2\n      sub\n      swap1\n      return\n        /* \"@openzeppelin/contracts@4.4.2/token/ERC20/ERC20.sol\":2352:2454  function symbol() public view virtual override returns (string memory) {... */\n    tag_14:\n      callvalue\n      dup1\n      iszero\n      tag_83\n      jumpi\n      0x00\n      dup1\n      revert\n    tag_83:\n      pop\n      tag_84\n      tag_85\n      jump\t// in\n    tag_84:\n      mload(0x40)\n      tag_86\n      swap2\n      swap1\n      tag_28\n      jump\t// in\n    tag_86:\n      mload(0x40)\n      dup1\n      swap2\n      sub\n      swap1\n      return\n        /* \"contracts/cinema.sol\":1002:1098  function mint(uint256 _amount) public onlyOwner {\r... */\n    tag_15:\n      callvalue\n      dup1\n      iszero\n      tag_87\n      jumpi\n      0x00\n      dup1\n      revert\n    tag_87:\n      pop\n      tag_88\n      0x04\n      dup1\n      calldatasize\n      sub\n      dup2\n      add\n      swap1\n      tag_89\n      swap2\n      swap1\n      tag_73\n      jump\t// in\n    tag_89:\n      tag_90\n      jump\t// in\n    tag_88:\n      stop\n        /* \"@openzeppelin/contracts@4.4.2/token/ERC20/ERC20.sol\":6443:6848  function decreaseAllowance(address spender, uint256 subtractedValue) public virtual returns (bool) {... */\n    tag_16:\n      callvalue\n      dup1\n      iszero\n      tag_91\n      jumpi\n      0x00\n      dup1\n      revert\n    tag_91:\n      pop\n      tag_92\n      0x04\n      dup1\n      calldatasize\n      sub\n      dup2\n      add\n      swap1\n      tag_93\n      swap2\n      swap1\n      tag_32\n      jump\t// in\n    tag_93:\n      tag_94\n      jump\t// in\n    tag_92:\n      mload(0x40)\n      tag_95\n      swap2\n      swap1\n      tag_35\n      jump\t// in\n    tag_95:\n      mload(0x40)\n      dup1\n      swap2\n      sub\n      swap1\n      return\n        /* \"@openzeppelin/contracts@4.4.2/token/ERC20/ERC20.sol\":3721:3893  function transfer(address recipient, uint256 amount) public virtual override returns (bool) {... */\n    tag_17:\n      callvalue\n      dup1\n      iszero\n      tag_96\n      jumpi\n      0x00\n      dup1\n      revert\n    tag_96:\n      pop\n      tag_97\n      0x04\n      dup1\n      calldatasize\n      sub\n      dup2\n      add\n      swap1\n      tag_98\n      swap2\n      swap1\n      tag_32\n      jump\t// in\n    tag_98:\n      tag_99\n      jump\t// in\n    tag_97:\n      mload(0x40)\n      tag_100\n      swap2\n      swap1\n      tag_35\n      jump\t// in\n    tag_100:\n      mload(0x40)\n      dup1\n      swap2\n      sub\n      swap1\n      return\n        /* \"@openzeppelin/contracts@4.4.2/token/ERC20/ERC20.sol\":3951:4100  function allowance(address owner, address spender) public view virtual override returns (uint256) {... */\n    tag_18:\n      callvalue\n      dup1\n      iszero\n      tag_101\n      jumpi\n      0x00\n      dup1\n      revert\n    tag_101:\n      pop\n      tag_102\n      0x04\n      dup1\n      calldatasize\n      sub\n      dup2\n      add\n      swap1\n      tag_103\n      swap2\n      swap1\n      tag_104\n      jump\t// in\n    tag_103:\n      tag_105\n      jump\t// in\n    tag_102:\n      mload(0x40)\n      tag_106\n      swap2\n      swap1\n      tag_40\n      jump\t// in\n    tag_106:\n      mload(0x40)\n      dup1\n      swap2\n      sub\n      swap1\n      return\n        /* \"@openzeppelin/contracts@4.4.2/access/Ownable.sol\":1918:2116  function transferOwnership(address newOwner) public virtual onlyOwner {... */\n    tag_19:\n      callvalue\n      dup1\n      iszero\n      tag_107\n      jumpi\n      0x00\n      dup1\n      revert\n    tag_107:\n      pop\n      tag_108\n      0x04\n      dup1\n      calldatasize\n      sub\n      dup2\n      add\n      swap1\n      tag_109\n      swap2\n      swap1\n      tag_60\n      jump\t// in\n    tag_109:\n      tag_110\n      jump\t// in\n    tag_108:\n      stop\n        /* \"contracts/cinema.sol\":846:959  function balanceTokens(address _acount) public view returns (uint256){\r... */\n    tag_20:\n      callvalue\n      dup1\n      iszero\n      tag_111\n      jumpi\n      0x00\n      dup1\n      revert\n    tag_111:\n      pop\n      tag_112\n      0x04\n      dup1\n      calldatasize\n      sub\n      dup2\n      add\n      swap1\n      tag_113\n      swap2\n      swap1\n      tag_60\n      jump\t// in\n    tag_113:\n      tag_114\n      jump\t// in\n    tag_112:\n      mload(0x40)\n      tag_115\n      swap2\n      swap1\n      tag_40\n      jump\t// in\n    tag_115:\n      mload(0x40)\n      dup1\n      swap2\n      sub\n      swap1\n      return\n        /* \"@openzeppelin/contracts@4.4.2/token/ERC20/ERC20.sol\":2141:2239  function name() public view virtual override returns (string memory) {... */\n    tag_26:\n        /* \"@openzeppelin/contracts@4.4.2/token/ERC20/ERC20.sol\":2195:2208  string memory */\n      0x60\n        /* \"@openzeppelin/contracts@4.4.2/token/ERC20/ERC20.sol\":2227:2232  _name */\n      0x03\n        /* \"@openzeppelin/contracts@4.4.2/token/ERC20/ERC20.sol\":2220:2232  return _name */\n      dup1\n      sload\n      tag_117\n      swap1\n      tag_118\n      jump\t// in\n    tag_117:\n      dup1\n      0x1f\n      add\n      0x20\n      dup1\n      swap2\n      div\n      mul\n      0x20\n      add\n      mload(0x40)\n      swap1\n      dup2\n      add\n      0x40\n      mstore\n      dup1\n      swap3\n      swap2\n      swap1\n      dup2\n      dup2\n      mstore\n      0x20\n      add\n      dup3\n      dup1\n      sload\n      tag_119\n      swap1\n      tag_118\n      jump\t// in\n    tag_119:\n      dup1\n      iszero\n      tag_120\n      jumpi\n      dup1\n      0x1f\n      lt\n      tag_121\n      jumpi\n      0x0100\n      dup1\n      dup4\n      sload\n      div\n      mul\n      dup4\n      mstore\n      swap2\n      0x20\n      add\n      swap2\n      jump(tag_120)\n    tag_121:\n      dup3\n      add\n      swap2\n      swap1\n      0x00\n      mstore\n      keccak256(0x00, 0x20)\n      swap1\n    tag_122:\n      dup2\n      sload\n      dup2\n      mstore\n      swap1\n      0x01\n      add\n      swap1\n      0x20\n      add\n      dup1\n      dup4\n      gt\n      tag_122\n      jumpi\n      dup3\n      swap1\n      sub\n      0x1f\n      and\n      dup3\n      add\n      swap2\n    tag_120:\n      pop\n      pop\n      pop\n      pop\n      pop\n      swap1\n      pop\n        /* \"@openzeppelin/contracts@4.4.2/token/ERC20/ERC20.sol\":2141:2239  function name() public view virtual override returns (string memory) {... */\n      swap1\n      jump\t// out\n        /* \"@openzeppelin/contracts@4.4.2/token/ERC20/ERC20.sol\":4238:4404  function approve(address spender, uint256 amount) public virtual override returns (bool) {... */\n    tag_33:\n        /* \"@openzeppelin/contracts@4.4.2/token/ERC20/ERC20.sol\":4321:4325  bool */\n      0x00\n        /* \"@openzeppelin/contracts@4.4.2/token/ERC20/ERC20.sol\":4337:4376  _approve(_msgSender(), spender, amount) */\n      tag_124\n        /* \"@openzeppelin/contracts@4.4.2/token/ERC20/ERC20.sol\":4346:4358  _msgSender() */\n      tag_125\n        /* \"@openzeppelin/contracts@4.4.2/token/ERC20/ERC20.sol\":4346:4356  _msgSender */\n      tag_126\n        /* \"@openzeppelin/contracts@4.4.2/token/ERC20/ERC20.sol\":4346:4358  _msgSender() */\n      jump\t// in\n    tag_125:\n        /* \"@openzeppelin/contracts@4.4.2/token/ERC20/ERC20.sol\":4360:4367  spender */\n      dup5\n        /* \"@openzeppelin/contracts@4.4.2/token/ERC20/ERC20.sol\":4369:4375  amount */\n      dup5\n        /* \"@openzeppelin/contracts@4.4.2/token/ERC20/ERC20.sol\":4337:4345  _approve */\n      tag_127\n        /* \"@openzeppelin/contracts@4.4.2/token/ERC20/ERC20.sol\":4337:4376  _approve(_msgSender(), spender, amount) */\n      jump\t// in\n    tag_124:\n        /* \"@openzeppelin/contracts@4.4.2/token/ERC20/ERC20.sol\":4393:4397  true */\n      0x01\n        /* \"@openzeppelin/contracts@4.4.2/token/ERC20/ERC20.sol\":4386:4397  return true */\n      swap1\n      pop\n        /* \"@openzeppelin/contracts@4.4.2/token/ERC20/ERC20.sol\":4238:4404  function approve(address spender, uint256 amount) public virtual override returns (bool) {... */\n      swap3\n      swap2\n      pop\n      pop\n      jump\t// out\n        /* \"@openzeppelin/contracts@4.4.2/token/ERC20/ERC20.sol\":3229:3335  function totalSupply() public view virtual override returns (uint256) {... */\n    tag_38:\n        /* \"@openzeppelin/contracts@4.4.2/token/ERC20/ERC20.sol\":3290:3297  uint256 */\n      0x00\n        /* \"@openzeppelin/contracts@4.4.2/token/ERC20/ERC20.sol\":3316:3328  _totalSupply */\n      sload(0x02)\n        /* \"@openzeppelin/contracts@4.4.2/token/ERC20/ERC20.sol\":3309:3328  return _totalSupply */\n      swap1\n      pop\n        /* \"@openzeppelin/contracts@4.4.2/token/ERC20/ERC20.sol\":3229:3335  function totalSupply() public view virtual override returns (uint256) {... */\n      swap1\n      jump\t// out\n        /* \"@openzeppelin/contracts@4.4.2/token/ERC20/ERC20.sol\":4871:5349  function transferFrom(... */\n    tag_45:\n        /* \"@openzeppelin/contracts@4.4.2/token/ERC20/ERC20.sol\":5007:5011  bool */\n      0x00\n        /* \"@openzeppelin/contracts@4.4.2/token/ERC20/ERC20.sol\":5023:5059  _transfer(sender, recipient, amount) */\n      tag_130\n        /* \"@openzeppelin/contracts@4.4.2/token/ERC20/ERC20.sol\":5033:5039  sender */\n      dup5\n        /* \"@openzeppelin/contracts@4.4.2/token/ERC20/ERC20.sol\":5041:5050  recipient */\n      dup5\n        /* \"@openzeppelin/contracts@4.4.2/token/ERC20/ERC20.sol\":5052:5058  amount */\n      dup5\n        /* \"@openzeppelin/contracts@4.4.2/token/ERC20/ERC20.sol\":5023:5032  _transfer */\n      tag_131\n        /* \"@openzeppelin/contracts@4.4.2/token/ERC20/ERC20.sol\":5023:5059  _transfer(sender, recipient, amount) */\n      jump\t// in\n    tag_130:\n        /* \"@openzeppelin/contracts@4.4.2/token/ERC20/ERC20.sol\":5070:5094  uint256 currentAllowance */\n      0x00\n        /* \"@openzeppelin/contracts@4.4.2/token/ERC20/ERC20.sol\":5097:5108  _allowances */\n      0x01\n        /* \"@openzeppelin/contracts@4.4.2/token/ERC20/ERC20.sol\":5097:5116  _allowances[sender] */\n      0x00\n        /* \"@openzeppelin/contracts@4.4.2/token/ERC20/ERC20.sol\":5109:5115  sender */\n      dup7\n        /* \"@openzeppelin/contracts@4.4.2/token/ERC20/ERC20.sol\":5097:5116  _allowances[sender] */\n      0xffffffffffffffffffffffffffffffffffffffff\n      and\n      0xffffffffffffffffffffffffffffffffffffffff\n      and\n      dup2\n      mstore\n      0x20\n      add\n      swap1\n      dup2\n      mstore\n      0x20\n      add\n      0x00\n      keccak256\n        /* \"@openzeppelin/contracts@4.4.2/token/ERC20/ERC20.sol\":5097:5130  _allowances[sender][_msgSender()] */\n      0x00\n        /* \"@openzeppelin/contracts@4.4.2/token/ERC20/ERC20.sol\":5117:5129  _msgSender() */\n      tag_132\n        /* \"@openzeppelin/contracts@4.4.2/token/ERC20/ERC20.sol\":5117:5127  _msgSender */\n      tag_126\n        /* \"@openzeppelin/contracts@4.4.2/token/ERC20/ERC20.sol\":5117:5129  _msgSender() */\n      jump\t// in\n    tag_132:\n        /* \"@openzeppelin/contracts@4.4.2/token/ERC20/ERC20.sol\":5097:5130  _allowances[sender][_msgSender()] */\n      0xffffffffffffffffffffffffffffffffffffffff\n      and\n      0xffffffffffffffffffffffffffffffffffffffff\n      and\n      dup2\n      mstore\n      0x20\n      add\n      swap1\n      dup2\n      mstore\n      0x20\n      add\n      0x00\n      keccak256\n      sload\n        /* \"@openzeppelin/contracts@4.4.2/token/ERC20/ERC20.sol\":5070:5130  uint256 currentAllowance = _allowances[sender][_msgSender()] */\n      swap1\n      pop\n        /* \"@openzeppelin/contracts@4.4.2/token/ERC20/ERC20.sol\":5168:5174  amount */\n      dup3\n        /* \"@openzeppelin/contracts@4.4.2/token/ERC20/ERC20.sol\":5148:5164  currentAllowance */\n      dup2\n        /* \"@openzeppelin/contracts@4.4.2/token/ERC20/ERC20.sol\":5148:5174  currentAllowance >= amount */\n      lt\n      iszero\n        /* \"@openzeppelin/contracts@4.4.2/token/ERC20/ERC20.sol\":5140:5219  require(currentAllowance >= amount, \"ERC20: transfer amount exceeds allowance\") */\n      tag_133\n      jumpi\n      mload(0x40)\n      0x08c379a000000000000000000000000000000000000000000000000000000000\n      dup2\n      mstore\n      0x04\n      add\n      tag_134\n      swap1\n      tag_135\n      jump\t// in\n    tag_134:\n      mload(0x40)\n      dup1\n      swap2\n      sub\n      swap1\n      revert\n    tag_133:\n        /* \"@openzeppelin/contracts@4.4.2/token/ERC20/ERC20.sol\":5253:5310  _approve(sender, _msgSender(), currentAllowance - amount) */\n      tag_136\n        /* \"@openzeppelin/contracts@4.4.2/token/ERC20/ERC20.sol\":5262:5268  sender */\n      dup6\n        /* \"@openzeppelin/contracts@4.4.2/token/ERC20/ERC20.sol\":5270:5282  _msgSender() */\n      tag_137\n        /* \"@openzeppelin/contracts@4.4.2/token/ERC20/ERC20.sol\":5270:5280  _msgSender */\n      tag_126\n        /* \"@openzeppelin/contracts@4.4.2/token/ERC20/ERC20.sol\":5270:5282  _msgSender() */\n      jump\t// in\n    tag_137:\n        /* \"@openzeppelin/contracts@4.4.2/token/ERC20/ERC20.sol\":5303:5309  amount */\n      dup6\n        /* \"@openzeppelin/contracts@4.4.2/token/ERC20/ERC20.sol\":5284:5300  currentAllowance */\n      dup5\n        /* \"@openzeppelin/contracts@4.4.2/token/ERC20/ERC20.sol\":5284:5309  currentAllowance - amount */\n      sub\n        /* \"@openzeppelin/contracts@4.4.2/token/ERC20/ERC20.sol\":5253:5261  _approve */\n      tag_127\n        /* \"@openzeppelin/contracts@4.4.2/token/ERC20/ERC20.sol\":5253:5310  _approve(sender, _msgSender(), currentAllowance - amount) */\n      jump\t// in\n    tag_136:\n        /* \"@openzeppelin/contracts@4.4.2/token/ERC20/ERC20.sol\":5338:5342  true */\n      0x01\n        /* \"@openzeppelin/contracts@4.4.2/token/ERC20/ERC20.sol\":5331:5342  return true */\n      swap2\n      pop\n      pop\n        /* \"@openzeppelin/contracts@4.4.2/token/ERC20/ERC20.sol\":4871:5349  function transferFrom(... */\n      swap4\n      swap3\n      pop\n      pop\n      pop\n      jump\t// out\n        /* \"@openzeppelin/contracts@4.4.2/token/ERC20/ERC20.sol\":3078:3169  function decimals() public view virtual override returns (uint8) {... */\n    tag_49:\n        /* \"@openzeppelin/contracts@4.4.2/token/ERC20/ERC20.sol\":3136:3141  uint8 */\n      0x00\n        /* \"@openzeppelin/contracts@4.4.2/token/ERC20/ERC20.sol\":3160:3162  18 */\n      0x12\n        /* \"@openzeppelin/contracts@4.4.2/token/ERC20/ERC20.sol\":3153:3162  return 18 */\n      swap1\n      pop\n        /* \"@openzeppelin/contracts@4.4.2/token/ERC20/ERC20.sol\":3078:3169  function decimals() public view virtual override returns (uint8) {... */\n      swap1\n      jump\t// out\n        /* \"@openzeppelin/contracts@4.4.2/token/ERC20/ERC20.sol\":5744:5956  function increaseAllowance(address spender, uint256 addedValue) public virtual returns (bool) {... */\n    tag_55:\n        /* \"@openzeppelin/contracts@4.4.2/token/ERC20/ERC20.sol\":5832:5836  bool */\n      0x00\n        /* \"@openzeppelin/contracts@4.4.2/token/ERC20/ERC20.sol\":5848:5928  _approve(_msgSender(), spender, _allowances[_msgSender()][spender] + addedValue) */\n      tag_140\n        /* \"@openzeppelin/contracts@4.4.2/token/ERC20/ERC20.sol\":5857:5869  _msgSender() */\n      tag_141\n        /* \"@openzeppelin/contracts@4.4.2/token/ERC20/ERC20.sol\":5857:5867  _msgSender */\n      tag_126\n        /* \"@openzeppelin/contracts@4.4.2/token/ERC20/ERC20.sol\":5857:5869  _msgSender() */\n      jump\t// in\n    tag_141:\n        /* \"@openzeppelin/contracts@4.4.2/token/ERC20/ERC20.sol\":5871:5878  spender */\n      dup5\n        /* \"@openzeppelin/contracts@4.4.2/token/ERC20/ERC20.sol\":5917:5927  addedValue */\n      dup5\n        /* \"@openzeppelin/contracts@4.4.2/token/ERC20/ERC20.sol\":5880:5891  _allowances */\n      0x01\n        /* \"@openzeppelin/contracts@4.4.2/token/ERC20/ERC20.sol\":5880:5905  _allowances[_msgSender()] */\n      0x00\n        /* \"@openzeppelin/contracts@4.4.2/token/ERC20/ERC20.sol\":5892:5904  _msgSender() */\n      tag_142\n        /* \"@openzeppelin/contracts@4.4.2/token/ERC20/ERC20.sol\":5892:5902  _msgSender */\n      tag_126\n        /* \"@openzeppelin/contracts@4.4.2/token/ERC20/ERC20.sol\":5892:5904  _msgSender() */\n      jump\t// in\n    tag_142:\n        /* \"@openzeppelin/contracts@4.4.2/token/ERC20/ERC20.sol\":5880:5905  _allowances[_msgSender()] */\n      0xffffffffffffffffffffffffffffffffffffffff\n      and\n      0xffffffffffffffffffffffffffffffffffffffff\n      and\n      dup2\n      mstore\n      0x20\n      add\n      swap1\n      dup2\n      mstore\n      0x20\n      add\n      0x00\n      keccak256\n        /* \"@openzeppelin/contracts@4.4.2/token/ERC20/ERC20.sol\":5880:5914  _allowances[_msgSender()][spender] */\n      0x00\n        /* \"@openzeppelin/contracts@4.4.2/token/ERC20/ERC20.sol\":5906:5913  spender */\n      dup9\n        /* \"@openzeppelin/contracts@4.4.2/token/ERC20/ERC20.sol\":5880:5914  _allowances[_msgSender()][spender] */\n      0xffffffffffffffffffffffffffffffffffffffff\n      and\n      0xffffffffffffffffffffffffffffffffffffffff\n      and\n      dup2\n      mstore\n      0x20\n      add\n      swap1\n      dup2\n      mstore\n      0x20\n      add\n      0x00\n      keccak256\n      sload\n        /* \"@openzeppelin/contracts@4.4.2/token/ERC20/ERC20.sol\":5880:5927  _allowances[_msgSender()][spender] + addedValue */\n      tag_143\n      swap2\n      swap1\n      tag_144\n      jump\t// in\n    tag_143:\n        /* \"@openzeppelin/contracts@4.4.2/token/ERC20/ERC20.sol\":5848:5856  _approve */\n      tag_127\n        /* \"@openzeppelin/contracts@4.4.2/token/ERC20/ERC20.sol\":5848:5928  _approve(_msgSender(), spender, _allowances[_msgSender()][spender] + addedValue) */\n      jump\t// in\n    tag_140:\n        /* \"@openzeppelin/contracts@4.4.2/token/ERC20/ERC20.sol\":5945:5949  true */\n      0x01\n        /* \"@openzeppelin/contracts@4.4.2/token/ERC20/ERC20.sol\":5938:5949  return true */\n      swap1\n      pop\n        /* \"@openzeppelin/contracts@4.4.2/token/ERC20/ERC20.sol\":5744:5956  function increaseAllowance(address spender, uint256 addedValue) public virtual returns (bool) {... */\n      swap3\n      swap2\n      pop\n      pop\n      jump\t// out\n        /* \"contracts/cinema.sol\":541:587  mapping (address => customer) public Customers */\n    tag_61:\n      mstore(0x20, 0x06)\n      dup1\n      0x00\n      mstore\n      keccak256(0x00, 0x40)\n      0x00\n      swap2\n      pop\n      swap1\n      pop\n      dup1\n      0x00\n      add\n      sload\n      swap1\n      pop\n      dup2\n      jump\t// out\n        /* \"@openzeppelin/contracts@4.4.2/token/ERC20/ERC20.sol\":3393:3518  function balanceOf(address account) public view virtual override returns (uint256) {... */\n    tag_66:\n        /* \"@openzeppelin/contracts@4.4.2/token/ERC20/ERC20.sol\":3467:3474  uint256 */\n      0x00\n        /* \"@openzeppelin/contracts@4.4.2/token/ERC20/ERC20.sol\":3493:3502  _balances */\n      dup1\n        /* \"@openzeppelin/contracts@4.4.2/token/ERC20/ERC20.sol\":3493:3511  _balances[account] */\n      0x00\n        /* \"@openzeppelin/contracts@4.4.2/token/ERC20/ERC20.sol\":3503:3510  account */\n      dup4\n        /* \"@openzeppelin/contracts@4.4.2/token/ERC20/ERC20.sol\":3493:3511  _balances[account] */\n      0xffffffffffffffffffffffffffffffffffffffff\n      and\n      0xffffffffffffffffffffffffffffffffffffffff\n      and\n      dup2\n      mstore\n      0x20\n      add\n      swap1\n      dup2\n      mstore\n      0x20\n      add\n      0x00\n      keccak256\n      sload\n        /* \"@openzeppelin/contracts@4.4.2/token/ERC20/ERC20.sol\":3486:3511  return _balances[account] */\n      swap1\n      pop\n        /* \"@openzeppelin/contracts@4.4.2/token/ERC20/ERC20.sol\":3393:3518  function balanceOf(address account) public view virtual override returns (uint256) {... */\n      swap2\n      swap1\n      pop\n      jump\t// out\n        /* \"@openzeppelin/contracts@4.4.2/access/Ownable.sol\":1668:1769  function renounceOwnership() public virtual onlyOwner {... */\n    tag_70:\n        /* \"@openzeppelin/contracts@4.4.2/access/Ownable.sol\":1259:1271  _msgSender() */\n      tag_147\n        /* \"@openzeppelin/contracts@4.4.2/access/Ownable.sol\":1259:1269  _msgSender */\n      tag_126\n        /* \"@openzeppelin/contracts@4.4.2/access/Ownable.sol\":1259:1271  _msgSender() */\n      jump\t// in\n    tag_147:\n        /* \"@openzeppelin/contracts@4.4.2/access/Ownable.sol\":1248:1271  owner() == _msgSender() */\n      0xffffffffffffffffffffffffffffffffffffffff\n      and\n        /* \"@openzeppelin/contracts@4.4.2/access/Ownable.sol\":1248:1255  owner() */\n      tag_148\n        /* \"@openzeppelin/contracts@4.4.2/access/Ownable.sol\":1248:1253  owner */\n      tag_80\n        /* \"@openzeppelin/contracts@4.4.2/access/Ownable.sol\":1248:1255  owner() */\n      jump\t// in\n    tag_148:\n        /* \"@openzeppelin/contracts@4.4.2/access/Ownable.sol\":1248:1271  owner() == _msgSender() */\n      0xffffffffffffffffffffffffffffffffffffffff\n      and\n      eq\n        /* \"@openzeppelin/contracts@4.4.2/access/Ownable.sol\":1240:1308  require(owner() == _msgSender(), \"Ownable: caller is not the owner\") */\n      tag_149\n      jumpi\n      mload(0x40)\n      0x08c379a000000000000000000000000000000000000000000000000000000000\n      dup2\n      mstore\n      0x04\n      add\n      tag_150\n      swap1\n      tag_151\n      jump\t// in\n    tag_150:\n      mload(0x40)\n      dup1\n      swap2\n      sub\n      swap1\n      revert\n    tag_149:\n        /* \"@openzeppelin/contracts@4.4.2/access/Ownable.sol\":1732:1762  _transferOwnership(address(0)) */\n      tag_153\n        /* \"@openzeppelin/contracts@4.4.2/access/Ownable.sol\":1759:1760  0 */\n      0x00\n        /* \"@openzeppelin/contracts@4.4.2/access/Ownable.sol\":1732:1750  _transferOwnership */\n      tag_154\n        /* \"@openzeppelin/contracts@4.4.2/access/Ownable.sol\":1732:1762  _transferOwnership(address(0)) */\n      jump\t// in\n    tag_153:\n        /* \"@openzeppelin/contracts@4.4.2/access/Ownable.sol\":1668:1769  function renounceOwnership() public virtual onlyOwner {... */\n      jump\t// out\n        /* \"contracts/cinema.sol\":1136:2188  function purchaseTokens(uint256 _numTokens) public payable {\r... */\n    tag_74:\n        /* \"contracts/cinema.sol\":1241:1253  uint256 cost */\n      0x00\n        /* \"contracts/cinema.sol\":1256:1279  priceTokens(_numTokens) */\n      tag_156\n        /* \"contracts/cinema.sol\":1268:1278  _numTokens */\n      dup3\n        /* \"contracts/cinema.sol\":1256:1267  priceTokens */\n      tag_157\n        /* \"contracts/cinema.sol\":1256:1279  priceTokens(_numTokens) */\n      jump\t// in\n    tag_156:\n        /* \"contracts/cinema.sol\":1241:1279  uint256 cost = priceTokens(_numTokens) */\n      swap1\n      pop\n        /* \"contracts/cinema.sol\":1385:1389  cost */\n      dup1\n        /* \"contracts/cinema.sol\":1372:1381  msg.value */\n      callvalue\n        /* \"contracts/cinema.sol\":1372:1389  msg.value >= cost */\n      lt\n      iszero\n        /* \"contracts/cinema.sol\":1364:1452  require(msg.value >= cost, \r... */\n      tag_158\n      jumpi\n      mload(0x40)\n      0x08c379a000000000000000000000000000000000000000000000000000000000\n      dup2\n      mstore\n      0x04\n      add\n      tag_159\n      swap1\n      tag_160\n      jump\t// in\n    tag_159:\n      mload(0x40)\n      dup1\n      swap2\n      sub\n      swap1\n      revert\n    tag_158:\n        /* \"contracts/cinema.sol\":1539:1554  uint256 balance */\n      0x00\n        /* \"contracts/cinema.sol\":1557:1585  balanceTokens(address(this)) */\n      tag_161\n        /* \"contracts/cinema.sol\":1579:1583  this */\n      address\n        /* \"contracts/cinema.sol\":1557:1570  balanceTokens */\n      tag_114\n        /* \"contracts/cinema.sol\":1557:1585  balanceTokens(address(this)) */\n      jump\t// in\n    tag_161:\n        /* \"contracts/cinema.sol\":1539:1585  uint256 balance = balanceTokens(address(this)) */\n      swap1\n      pop\n        /* \"contracts/cinema.sol\":1619:1626  balance */\n      dup1\n        /* \"contracts/cinema.sol\":1605:1615  _numTokens */\n      dup4\n        /* \"contracts/cinema.sol\":1605:1626  _numTokens <= balance */\n      gt\n      iszero\n        /* \"contracts/cinema.sol\":1596:1662  require (_numTokens <= balance, \"Buy a smaller number of tokens.\") */\n      tag_162\n      jumpi\n      mload(0x40)\n      0x08c379a000000000000000000000000000000000000000000000000000000000\n      dup2\n      mstore\n      0x04\n      add\n      tag_163\n      swap1\n      tag_164\n      jump\t// in\n    tag_163:\n      mload(0x40)\n      dup1\n      swap2\n      sub\n      swap1\n      revert\n    tag_162:\n        /* \"contracts/cinema.sol\":1772:1791  uint256 returnValue */\n      0x00\n        /* \"contracts/cinema.sol\":1806:1810  cost */\n      dup3\n        /* \"contracts/cinema.sol\":1794:1803  msg.value */\n      callvalue\n        /* \"contracts/cinema.sol\":1794:1810  msg.value - cost */\n      tag_165\n      swap2\n      swap1\n      tag_166\n      jump\t// in\n    tag_165:\n        /* \"contracts/cinema.sol\":1772:1810  uint256 returnValue = msg.value - cost */\n      swap1\n      pop\n        /* \"contracts/cinema.sol\":1896:1906  msg.sender */\n      caller\n        /* \"contracts/cinema.sol\":1888:1916  payable(msg.sender).transfer */\n      0xffffffffffffffffffffffffffffffffffffffff\n      and\n        /* \"contracts/cinema.sol\":1888:1929  payable(msg.sender).transfer(returnValue) */\n      0x08fc\n        /* \"contracts/cinema.sol\":1917:1928  returnValue */\n      dup3\n        /* \"contracts/cinema.sol\":1888:1929  payable(msg.sender).transfer(returnValue) */\n      swap1\n      dup2\n      iszero\n      mul\n      swap1\n      mload(0x40)\n      0x00\n      mload(0x40)\n      dup1\n      dup4\n      sub\n      dup2\n      dup6\n      dup9\n      dup9\n      call\n      swap4\n      pop\n      pop\n      pop\n      pop\n      iszero\n      dup1\n      iszero\n      tag_168\n      jumpi\n      returndatasize\n      0x00\n      dup1\n      returndatacopy\n      revert(0x00, returndatasize)\n    tag_168:\n      pop\n        /* \"contracts/cinema.sol\":2015:2063  _transfer(address(this), msg.sender, _numTokens) */\n      tag_169\n        /* \"contracts/cinema.sol\":2033:2037  this */\n      address\n        /* \"contracts/cinema.sol\":2040:2050  msg.sender */\n      caller\n        /* \"contracts/cinema.sol\":2052:2062  _numTokens */\n      dup7\n        /* \"contracts/cinema.sol\":2015:2024  _transfer */\n      tag_131\n        /* \"contracts/cinema.sol\":2015:2063  _transfer(address(this), msg.sender, _numTokens) */\n      jump\t// in\n    tag_169:\n        /* \"contracts/cinema.sol\":2170:2180  _numTokens */\n      dup4\n        /* \"contracts/cinema.sol\":2128:2137  Customers */\n      0x06\n        /* \"contracts/cinema.sol\":2128:2149  Customers[msg.sender] */\n      0x00\n        /* \"contracts/cinema.sol\":2138:2148  msg.sender */\n      caller\n        /* \"contracts/cinema.sol\":2128:2149  Customers[msg.sender] */\n      0xffffffffffffffffffffffffffffffffffffffff\n      and\n      0xffffffffffffffffffffffffffffffffffffffff\n      and\n      dup2\n      mstore\n      0x20\n      add\n      swap1\n      dup2\n      mstore\n      0x20\n      add\n      0x00\n      keccak256\n        /* \"contracts/cinema.sol\":2128:2166  Customers[msg.sender].tokens_purchased */\n      0x00\n      add\n      0x00\n        /* \"contracts/cinema.sol\":2128:2180  Customers[msg.sender].tokens_purchased += _numTokens */\n      dup3\n      dup3\n      sload\n      tag_170\n      swap2\n      swap1\n      tag_144\n      jump\t// in\n    tag_170:\n      swap3\n      pop\n      pop\n      dup2\n      swap1\n      sstore\n      pop\n        /* \"contracts/cinema.sol\":1136:2188  function purchaseTokens(uint256 _numTokens) public payable {\r... */\n      pop\n      pop\n      pop\n      pop\n      jump\t// out\n        /* \"contracts/cinema.sol\":2266:2854  function tokensEthers(uint256 _numTokens) public payable {\r... */\n    tag_77:\n        /* \"contracts/cinema.sol\":2412:2413  0 */\n      0x00\n        /* \"contracts/cinema.sol\":2399:2409  _numTokens */\n      dup2\n        /* \"contracts/cinema.sol\":2399:2413  _numTokens > 0 */\n      gt\n        /* \"contracts/cinema.sol\":2391:2483  require(_numTokens > 0, \r... */\n      tag_172\n      jumpi\n      mload(0x40)\n      0x08c379a000000000000000000000000000000000000000000000000000000000\n      dup2\n      mstore\n      0x04\n      add\n      tag_173\n      swap1\n      tag_174\n      jump\t// in\n    tag_173:\n      mload(0x40)\n      dup1\n      swap2\n      sub\n      swap1\n      revert\n    tag_172:\n        /* \"contracts/cinema.sol\":2520:2545  balanceTokens(msg.sender) */\n      tag_175\n        /* \"contracts/cinema.sol\":2534:2544  msg.sender */\n      caller\n        /* \"contracts/cinema.sol\":2520:2533  balanceTokens */\n      tag_114\n        /* \"contracts/cinema.sol\":2520:2545  balanceTokens(msg.sender) */\n      jump\t// in\n    tag_175:\n        /* \"contracts/cinema.sol\":2506:2516  _numTokens */\n      dup2\n        /* \"contracts/cinema.sol\":2506:2545  _numTokens <= balanceTokens(msg.sender) */\n      gt\n      iszero\n        /* \"contracts/cinema.sol\":2498:2614  require(_numTokens <= balanceTokens(msg.sender), \r... */\n      tag_176\n      jumpi\n      mload(0x40)\n      0x08c379a000000000000000000000000000000000000000000000000000000000\n      dup2\n      mstore\n      0x04\n      add\n      tag_177\n      swap1\n      tag_178\n      jump\t// in\n    tag_177:\n      mload(0x40)\n      dup1\n      swap2\n      sub\n      swap1\n      revert\n    tag_176:\n        /* \"contracts/cinema.sol\":2682:2730  _transfer(msg.sender, address(this), _numTokens) */\n      tag_179\n        /* \"contracts/cinema.sol\":2692:2702  msg.sender */\n      caller\n        /* \"contracts/cinema.sol\":2712:2716  this */\n      address\n        /* \"contracts/cinema.sol\":2719:2729  _numTokens */\n      dup4\n        /* \"contracts/cinema.sol\":2682:2691  _transfer */\n      tag_131\n        /* \"contracts/cinema.sol\":2682:2730  _transfer(msg.sender, address(this), _numTokens) */\n      jump\t// in\n    tag_179:\n        /* \"contracts/cinema.sol\":2801:2811  msg.sender */\n      caller\n        /* \"contracts/cinema.sol\":2793:2821  payable(msg.sender).transfer */\n      0xffffffffffffffffffffffffffffffffffffffff\n      and\n        /* \"contracts/cinema.sol\":2793:2846  payable(msg.sender).transfer(priceTokens(_numTokens)) */\n      0x08fc\n        /* \"contracts/cinema.sol\":2822:2845  priceTokens(_numTokens) */\n      tag_180\n        /* \"contracts/cinema.sol\":2834:2844  _numTokens */\n      dup4\n        /* \"contracts/cinema.sol\":2822:2833  priceTokens */\n      tag_157\n        /* \"contracts/cinema.sol\":2822:2845  priceTokens(_numTokens) */\n      jump\t// in\n    tag_180:\n        /* \"contracts/cinema.sol\":2793:2846  payable(msg.sender).transfer(priceTokens(_numTokens)) */\n      swap1\n      dup2\n      iszero\n      mul\n      swap1\n      mload(0x40)\n      0x00\n      mload(0x40)\n      dup1\n      dup4\n      sub\n      dup2\n      dup6\n      dup9\n      dup9\n      call\n      swap4\n      pop\n      pop\n      pop\n      pop\n      iszero\n      dup1\n      iszero\n      tag_182\n      jumpi\n      returndatasize\n      0x00\n      dup1\n      returndatacopy\n      revert(0x00, returndatasize)\n    tag_182:\n      pop\n        /* \"contracts/cinema.sol\":2266:2854  function tokensEthers(uint256 _numTokens) public payable {\r... */\n      pop\n      jump\t// out\n        /* \"@openzeppelin/contracts@4.4.2/access/Ownable.sol\":1036:1121  function owner() public view virtual returns (address) {... */\n    tag_80:\n        /* \"@openzeppelin/contracts@4.4.2/access/Ownable.sol\":1082:1089  address */\n      0x00\n        /* \"@openzeppelin/contracts@4.4.2/access/Ownable.sol\":1108:1114  _owner */\n      0x05\n      0x00\n      swap1\n      sload\n      swap1\n      0x0100\n      exp\n      swap1\n      div\n      0xffffffffffffffffffffffffffffffffffffffff\n      and\n        /* \"@openzeppelin/contracts@4.4.2/access/Ownable.sol\":1101:1114  return _owner */\n      swap1\n      pop\n        /* \"@openzeppelin/contracts@4.4.2/access/Ownable.sol\":1036:1121  function owner() public view virtual returns (address) {... */\n      swap1\n      jump\t// out\n        /* \"@openzeppelin/contracts@4.4.2/token/ERC20/ERC20.sol\":2352:2454  function symbol() public view virtual override returns (string memory) {... */\n    tag_85:\n        /* \"@openzeppelin/contracts@4.4.2/token/ERC20/ERC20.sol\":2408:2421  string memory */\n      0x60\n        /* \"@openzeppelin/contracts@4.4.2/token/ERC20/ERC20.sol\":2440:2447  _symbol */\n      0x04\n        /* \"@openzeppelin/contracts@4.4.2/token/ERC20/ERC20.sol\":2433:2447  return _symbol */\n      dup1\n      sload\n      tag_185\n      swap1\n      tag_118\n      jump\t// in\n    tag_185:\n      dup1\n      0x1f\n      add\n      0x20\n      dup1\n      swap2\n      div\n      mul\n      0x20\n      add\n      mload(0x40)\n      swap1\n      dup2\n      add\n      0x40\n      mstore\n      dup1\n      swap3\n      swap2\n      swap1\n      dup2\n      dup2\n      mstore\n      0x20\n      add\n      dup3\n      dup1\n      sload\n      tag_186\n      swap1\n      tag_118\n      jump\t// in\n    tag_186:\n      dup1\n      iszero\n      tag_187\n      jumpi\n      dup1\n      0x1f\n      lt\n      tag_188\n      jumpi\n      0x0100\n      dup1\n      dup4\n      sload\n      div\n      mul\n      dup4\n      mstore\n      swap2\n      0x20\n      add\n      swap2\n      jump(tag_187)\n    tag_188:\n      dup3\n      add\n      swap2\n      swap1\n      0x00\n      mstore\n      keccak256(0x00, 0x20)\n      swap1\n    tag_189:\n      dup2\n      sload\n      dup2\n      mstore\n      swap1\n      0x01\n      add\n      swap1\n      0x20\n      add\n      dup1\n      dup4\n      gt\n      tag_189\n      jumpi\n      dup3\n      swap1\n      sub\n      0x1f\n      and\n      dup3\n      add\n      swap2\n    tag_187:\n      pop\n      pop\n      pop\n      pop\n      pop\n      swap1\n      pop\n        /* \"@openzeppelin/contracts@4.4.2/token/ERC20/ERC20.sol\":2352:2454  function symbol() public view virtual override returns (string memory) {... */\n      swap1\n      jump\t// out\n        /* \"contracts/cinema.sol\":1002:1098  function mint(uint256 _amount) public onlyOwner {\r... */\n    tag_90:\n        /* \"@openzeppelin/contracts@4.4.2/access/Ownable.sol\":1259:1271  _msgSender() */\n      tag_191\n        /* \"@openzeppelin/contracts@4.4.2/access/Ownable.sol\":1259:1269  _msgSender */\n      tag_126\n        /* \"@openzeppelin/contracts@4.4.2/access/Ownable.sol\":1259:1271  _msgSender() */\n      jump\t// in\n    tag_191:\n        /* \"@openzeppelin/contracts@4.4.2/access/Ownable.sol\":1248:1271  owner() == _msgSender() */\n      0xffffffffffffffffffffffffffffffffffffffff\n      and\n        /* \"@openzeppelin/contracts@4.4.2/access/Ownable.sol\":1248:1255  owner() */\n      tag_192\n        /* \"@openzeppelin/contracts@4.4.2/access/Ownable.sol\":1248:1253  owner */\n      tag_80\n        /* \"@openzeppelin/contracts@4.4.2/access/Ownable.sol\":1248:1255  owner() */\n      jump\t// in\n    tag_192:\n        /* \"@openzeppelin/contracts@4.4.2/access/Ownable.sol\":1248:1271  owner() == _msgSender() */\n      0xffffffffffffffffffffffffffffffffffffffff\n      and\n      eq\n        /* \"@openzeppelin/contracts@4.4.2/access/Ownable.sol\":1240:1308  require(owner() == _msgSender(), \"Ownable: caller is not the owner\") */\n      tag_193\n      jumpi\n      mload(0x40)\n      0x08c379a000000000000000000000000000000000000000000000000000000000\n      dup2\n      mstore\n      0x04\n      add\n      tag_194\n      swap1\n      tag_151\n      jump\t// in\n    tag_194:\n      mload(0x40)\n      dup1\n      swap2\n      sub\n      swap1\n      revert\n    tag_193:\n        /* \"contracts/cinema.sol\":1061:1090  _mint(address(this), _amount) */\n      tag_196\n        /* \"contracts/cinema.sol\":1075:1079  this */\n      address\n        /* \"contracts/cinema.sol\":1082:1089  _amount */\n      dup3\n        /* \"contracts/cinema.sol\":1061:1066  _mint */\n      tag_197\n        /* \"contracts/cinema.sol\":1061:1090  _mint(address(this), _amount) */\n      jump\t// in\n    tag_196:\n        /* \"contracts/cinema.sol\":1002:1098  function mint(uint256 _amount) public onlyOwner {\r... */\n      pop\n      jump\t// out\n        /* \"@openzeppelin/contracts@4.4.2/token/ERC20/ERC20.sol\":6443:6848  function decreaseAllowance(address spender, uint256 subtractedValue) public virtual returns (bool) {... */\n    tag_94:\n        /* \"@openzeppelin/contracts@4.4.2/token/ERC20/ERC20.sol\":6536:6540  bool */\n      0x00\n        /* \"@openzeppelin/contracts@4.4.2/token/ERC20/ERC20.sol\":6552:6576  uint256 currentAllowance */\n      dup1\n        /* \"@openzeppelin/contracts@4.4.2/token/ERC20/ERC20.sol\":6579:6590  _allowances */\n      0x01\n        /* \"@openzeppelin/contracts@4.4.2/token/ERC20/ERC20.sol\":6579:6604  _allowances[_msgSender()] */\n      0x00\n        /* \"@openzeppelin/contracts@4.4.2/token/ERC20/ERC20.sol\":6591:6603  _msgSender() */\n      tag_199\n        /* \"@openzeppelin/contracts@4.4.2/token/ERC20/ERC20.sol\":6591:6601  _msgSender */\n      tag_126\n        /* \"@openzeppelin/contracts@4.4.2/token/ERC20/ERC20.sol\":6591:6603  _msgSender() */\n      jump\t// in\n    tag_199:\n        /* \"@openzeppelin/contracts@4.4.2/token/ERC20/ERC20.sol\":6579:6604  _allowances[_msgSender()] */\n      0xffffffffffffffffffffffffffffffffffffffff\n      and\n      0xffffffffffffffffffffffffffffffffffffffff\n      and\n      dup2\n      mstore\n      0x20\n      add\n      swap1\n      dup2\n      mstore\n      0x20\n      add\n      0x00\n      keccak256\n        /* \"@openzeppelin/contracts@4.4.2/token/ERC20/ERC20.sol\":6579:6613  _allowances[_msgSender()][spender] */\n      0x00\n        /* \"@openzeppelin/contracts@4.4.2/token/ERC20/ERC20.sol\":6605:6612  spender */\n      dup6\n        /* \"@openzeppelin/contracts@4.4.2/token/ERC20/ERC20.sol\":6579:6613  _allowances[_msgSender()][spender] */\n      0xffffffffffffffffffffffffffffffffffffffff\n      and\n      0xffffffffffffffffffffffffffffffffffffffff\n      and\n      dup2\n      mstore\n      0x20\n      add\n      swap1\n      dup2\n      mstore\n      0x20\n      add\n      0x00\n      keccak256\n      sload\n        /* \"@openzeppelin/contracts@4.4.2/token/ERC20/ERC20.sol\":6552:6613  uint256 currentAllowance = _allowances[_msgSender()][spender] */\n      swap1\n      pop\n        /* \"@openzeppelin/contracts@4.4.2/token/ERC20/ERC20.sol\":6651:6666  subtractedValue */\n      dup3\n        /* \"@openzeppelin/contracts@4.4.2/token/ERC20/ERC20.sol\":6631:6647  currentAllowance */\n      dup2\n        /* \"@openzeppelin/contracts@4.4.2/token/ERC20/ERC20.sol\":6631:6666  currentAllowance >= subtractedValue */\n      lt\n      iszero\n        /* \"@openzeppelin/contracts@4.4.2/token/ERC20/ERC20.sol\":6623:6708  require(currentAllowance >= subtractedValue, \"ERC20: decreased allowance below zero\") */\n      tag_200\n      jumpi\n      mload(0x40)\n      0x08c379a000000000000000000000000000000000000000000000000000000000\n      dup2\n      mstore\n      0x04\n      add\n      tag_201\n      swap1\n      tag_202\n      jump\t// in\n    tag_201:\n      mload(0x40)\n      dup1\n      swap2\n      sub\n      swap1\n      revert\n    tag_200:\n        /* \"@openzeppelin/contracts@4.4.2/token/ERC20/ERC20.sol\":6742:6809  _approve(_msgSender(), spender, currentAllowance - subtractedValue) */\n      tag_203\n        /* \"@openzeppelin/contracts@4.4.2/token/ERC20/ERC20.sol\":6751:6763  _msgSender() */\n      tag_204\n        /* \"@openzeppelin/contracts@4.4.2/token/ERC20/ERC20.sol\":6751:6761  _msgSender */\n      tag_126\n        /* \"@openzeppelin/contracts@4.4.2/token/ERC20/ERC20.sol\":6751:6763  _msgSender() */\n      jump\t// in\n    tag_204:\n        /* \"@openzeppelin/contracts@4.4.2/token/ERC20/ERC20.sol\":6765:6772  spender */\n      dup6\n        /* \"@openzeppelin/contracts@4.4.2/token/ERC20/ERC20.sol\":6793:6808  subtractedValue */\n      dup6\n        /* \"@openzeppelin/contracts@4.4.2/token/ERC20/ERC20.sol\":6774:6790  currentAllowance */\n      dup5\n        /* \"@openzeppelin/contracts@4.4.2/token/ERC20/ERC20.sol\":6774:6808  currentAllowance - subtractedValue */\n      sub\n        /* \"@openzeppelin/contracts@4.4.2/token/ERC20/ERC20.sol\":6742:6750  _approve */\n      tag_127\n        /* \"@openzeppelin/contracts@4.4.2/token/ERC20/ERC20.sol\":6742:6809  _approve(_msgSender(), spender, currentAllowance - subtractedValue) */\n      jump\t// in\n    tag_203:\n        /* \"@openzeppelin/contracts@4.4.2/token/ERC20/ERC20.sol\":6837:6841  true */\n      0x01\n        /* \"@openzeppelin/contracts@4.4.2/token/ERC20/ERC20.sol\":6830:6841  return true */\n      swap2\n      pop\n      pop\n        /* \"@openzeppelin/contracts@4.4.2/token/ERC20/ERC20.sol\":6443:6848  function decreaseAllowance(address spender, uint256 subtractedValue) public virtual returns (bool) {... */\n      swap3\n      swap2\n      pop\n      pop\n      jump\t// out\n        /* \"@openzeppelin/contracts@4.4.2/token/ERC20/ERC20.sol\":3721:3893  function transfer(address recipient, uint256 amount) public virtual override returns (bool) {... */\n    tag_99:\n        /* \"@openzeppelin/contracts@4.4.2/token/ERC20/ERC20.sol\":3807:3811  bool */\n      0x00\n        /* \"@openzeppelin/contracts@4.4.2/token/ERC20/ERC20.sol\":3823:3865  _transfer(_msgSender(), recipient, amount) */\n      tag_206\n        /* \"@openzeppelin/contracts@4.4.2/token/ERC20/ERC20.sol\":3833:3845  _msgSender() */\n      tag_207\n        /* \"@openzeppelin/contracts@4.4.2/token/ERC20/ERC20.sol\":3833:3843  _msgSender */\n      tag_126\n        /* \"@openzeppelin/contracts@4.4.2/token/ERC20/ERC20.sol\":3833:3845  _msgSender() */\n      jump\t// in\n    tag_207:\n        /* \"@openzeppelin/contracts@4.4.2/token/ERC20/ERC20.sol\":3847:3856  recipient */\n      dup5\n        /* \"@openzeppelin/contracts@4.4.2/token/ERC20/ERC20.sol\":3858:3864  amount */\n      dup5\n        /* \"@openzeppelin/contracts@4.4.2/token/ERC20/ERC20.sol\":3823:3832  _transfer */\n      tag_131\n        /* \"@openzeppelin/contracts@4.4.2/token/ERC20/ERC20.sol\":3823:3865  _transfer(_msgSender(), recipient, amount) */\n      jump\t// in\n    tag_206:\n        /* \"@openzeppelin/contracts@4.4.2/token/ERC20/ERC20.sol\":3882:3886  true */\n      0x01\n        /* \"@openzeppelin/contracts@4.4.2/token/ERC20/ERC20.sol\":3875:3886  return true */\n      swap1\n      pop\n        /* \"@openzeppelin/contracts@4.4.2/token/ERC20/ERC20.sol\":3721:3893  function transfer(address recipient, uint256 amount) public virtual override returns (bool) {... */\n      swap3\n      swap2\n      pop\n      pop\n      jump\t// out\n        /* \"@openzeppelin/contracts@4.4.2/token/ERC20/ERC20.sol\":3951:4100  function allowance(address owner, address spender) public view virtual override returns (uint256) {... */\n    tag_105:\n        /* \"@openzeppelin/contracts@4.4.2/token/ERC20/ERC20.sol\":4040:4047  uint256 */\n      0x00\n        /* \"@openzeppelin/contracts@4.4.2/token/ERC20/ERC20.sol\":4066:4077  _allowances */\n      0x01\n        /* \"@openzeppelin/contracts@4.4.2/token/ERC20/ERC20.sol\":4066:4084  _allowances[owner] */\n      0x00\n        /* \"@openzeppelin/contracts@4.4.2/token/ERC20/ERC20.sol\":4078:4083  owner */\n      dup5\n        /* \"@openzeppelin/contracts@4.4.2/token/ERC20/ERC20.sol\":4066:4084  _allowances[owner] */\n      0xffffffffffffffffffffffffffffffffffffffff\n      and\n      0xffffffffffffffffffffffffffffffffffffffff\n      and\n      dup2\n      mstore\n      0x20\n      add\n      swap1\n      dup2\n      mstore\n      0x20\n      add\n      0x00\n      keccak256\n        /* \"@openzeppelin/contracts@4.4.2/token/ERC20/ERC20.sol\":4066:4093  _allowances[owner][spender] */\n      0x00\n        /* \"@openzeppelin/contracts@4.4.2/token/ERC20/ERC20.sol\":4085:4092  spender */\n      dup4\n        /* \"@openzeppelin/contracts@4.4.2/token/ERC20/ERC20.sol\":4066:4093  _allowances[owner][spender] */\n      0xffffffffffffffffffffffffffffffffffffffff\n      and\n      0xffffffffffffffffffffffffffffffffffffffff\n      and\n      dup2\n      mstore\n      0x20\n      add\n      swap1\n      dup2\n      mstore\n      0x20\n      add\n      0x00\n      keccak256\n      sload\n        /* \"@openzeppelin/contracts@4.4.2/token/ERC20/ERC20.sol\":4059:4093  return _allowances[owner][spender] */\n      swap1\n      pop\n        /* \"@openzeppelin/contracts@4.4.2/token/ERC20/ERC20.sol\":3951:4100  function allowance(address owner, address spender) public view virtual override returns (uint256) {... */\n      swap3\n      swap2\n      pop\n      pop\n      jump\t// out\n        /* \"@openzeppelin/contracts@4.4.2/access/Ownable.sol\":1918:2116  function transferOwnership(address newOwner) public virtual onlyOwner {... */\n    tag_110:\n        /* \"@openzeppelin/contracts@4.4.2/access/Ownable.sol\":1259:1271  _msgSender() */\n      tag_210\n        /* \"@openzeppelin/contracts@4.4.2/access/Ownable.sol\":1259:1269  _msgSender */\n      tag_126\n        /* \"@openzeppelin/contracts@4.4.2/access/Ownable.sol\":1259:1271  _msgSender() */\n      jump\t// in\n    tag_210:\n        /* \"@openzeppelin/contracts@4.4.2/access/Ownable.sol\":1248:1271  owner() == _msgSender() */\n      0xffffffffffffffffffffffffffffffffffffffff\n      and\n        /* \"@openzeppelin/contracts@4.4.2/access/Ownable.sol\":1248:1255  owner() */\n      tag_211\n        /* \"@openzeppelin/contracts@4.4.2/access/Ownable.sol\":1248:1253  owner */\n      tag_80\n        /* \"@openzeppelin/contracts@4.4.2/access/Ownable.sol\":1248:1255  owner() */\n      jump\t// in\n    tag_211:\n        /* \"@openzeppelin/contracts@4.4.2/access/Ownable.sol\":1248:1271  owner() == _msgSender() */\n      0xffffffffffffffffffffffffffffffffffffffff\n      and\n      eq\n        /* \"@openzeppelin/contracts@4.4.2/access/Ownable.sol\":1240:1308  require(owner() == _msgSender(), \"Ownable: caller is not the owner\") */\n      tag_212\n      jumpi\n      mload(0x40)\n      0x08c379a000000000000000000000000000000000000000000000000000000000\n      dup2\n      mstore\n      0x04\n      add\n      tag_213\n      swap1\n      tag_151\n      jump\t// in\n    tag_213:\n      mload(0x40)\n      dup1\n      swap2\n      sub\n      swap1\n      revert\n    tag_212:\n        /* \"@openzeppelin/contracts@4.4.2/access/Ownable.sol\":2026:2027  0 */\n      0x00\n        /* \"@openzeppelin/contracts@4.4.2/access/Ownable.sol\":2006:2028  newOwner != address(0) */\n      0xffffffffffffffffffffffffffffffffffffffff\n      and\n        /* \"@openzeppelin/contracts@4.4.2/access/Ownable.sol\":2006:2014  newOwner */\n      dup2\n        /* \"@openzeppelin/contracts@4.4.2/access/Ownable.sol\":2006:2028  newOwner != address(0) */\n      0xffffffffffffffffffffffffffffffffffffffff\n      and\n      eq\n      iszero\n        /* \"@openzeppelin/contracts@4.4.2/access/Ownable.sol\":1998:2071  require(newOwner != address(0), \"Ownable: new owner is the zero address\") */\n      tag_215\n      jumpi\n      mload(0x40)\n      0x08c379a000000000000000000000000000000000000000000000000000000000\n      dup2\n      mstore\n      0x04\n      add\n      tag_216\n      swap1\n      tag_217\n      jump\t// in\n    tag_216:\n      mload(0x40)\n      dup1\n      swap2\n      sub\n      swap1\n      revert\n    tag_215:\n        /* \"@openzeppelin/contracts@4.4.2/access/Ownable.sol\":2081:2109  _transferOwnership(newOwner) */\n      tag_218\n        /* \"@openzeppelin/contracts@4.4.2/access/Ownable.sol\":2100:2108  newOwner */\n      dup2\n        /* \"@openzeppelin/contracts@4.4.2/access/Ownable.sol\":2081:2099  _transferOwnership */\n      tag_154\n        /* \"@openzeppelin/contracts@4.4.2/access/Ownable.sol\":2081:2109  _transferOwnership(newOwner) */\n      jump\t// in\n    tag_218:\n        /* \"@openzeppelin/contracts@4.4.2/access/Ownable.sol\":1918:2116  function transferOwnership(address newOwner) public virtual onlyOwner {... */\n      pop\n      jump\t// out\n        /* \"contracts/cinema.sol\":846:959  function balanceTokens(address _acount) public view returns (uint256){\r... */\n    tag_114:\n        /* \"contracts/cinema.sol\":907:914  uint256 */\n      0x00\n        /* \"contracts/cinema.sol\":933:951  balanceOf(_acount) */\n      tag_220\n        /* \"contracts/cinema.sol\":943:950  _acount */\n      dup3\n        /* \"contracts/cinema.sol\":933:942  balanceOf */\n      tag_66\n        /* \"contracts/cinema.sol\":933:951  balanceOf(_acount) */\n      jump\t// in\n    tag_220:\n        /* \"contracts/cinema.sol\":926:951  return balanceOf(_acount) */\n      swap1\n      pop\n        /* \"contracts/cinema.sol\":846:959  function balanceTokens(address _acount) public view returns (uint256){\r... */\n      swap2\n      swap1\n      pop\n      jump\t// out\n        /* \"@openzeppelin/contracts@4.4.2/utils/Context.sol\":640:736  function _msgSender() internal view virtual returns (address) {... */\n    tag_126:\n        /* \"@openzeppelin/contracts@4.4.2/utils/Context.sol\":693:700  address */\n      0x00\n        /* \"@openzeppelin/contracts@4.4.2/utils/Context.sol\":719:729  msg.sender */\n      caller\n        /* \"@openzeppelin/contracts@4.4.2/utils/Context.sol\":712:729  return msg.sender */\n      swap1\n      pop\n        /* \"@openzeppelin/contracts@4.4.2/utils/Context.sol\":640:736  function _msgSender() internal view virtual returns (address) {... */\n      swap1\n      jump\t// out\n        /* \"@openzeppelin/contracts@4.4.2/token/ERC20/ERC20.sol\":10019:10389  function _approve(... */\n    tag_127:\n        /* \"@openzeppelin/contracts@4.4.2/token/ERC20/ERC20.sol\":10167:10168  0 */\n      0x00\n        /* \"@openzeppelin/contracts@4.4.2/token/ERC20/ERC20.sol\":10150:10169  owner != address(0) */\n      0xffffffffffffffffffffffffffffffffffffffff\n      and\n        /* \"@openzeppelin/contracts@4.4.2/token/ERC20/ERC20.sol\":10150:10155  owner */\n      dup4\n        /* \"@openzeppelin/contracts@4.4.2/token/ERC20/ERC20.sol\":10150:10169  owner != address(0) */\n      0xffffffffffffffffffffffffffffffffffffffff\n      and\n      eq\n      iszero\n        /* \"@openzeppelin/contracts@4.4.2/token/ERC20/ERC20.sol\":10142:10210  require(owner != address(0), \"ERC20: approve from the zero address\") */\n      tag_223\n      jumpi\n      mload(0x40)\n      0x08c379a000000000000000000000000000000000000000000000000000000000\n      dup2\n      mstore\n      0x04\n      add\n      tag_224\n      swap1\n      tag_225\n      jump\t// in\n    tag_224:\n      mload(0x40)\n      dup1\n      swap2\n      sub\n      swap1\n      revert\n    tag_223:\n        /* \"@openzeppelin/contracts@4.4.2/token/ERC20/ERC20.sol\":10247:10248  0 */\n      0x00\n        /* \"@openzeppelin/contracts@4.4.2/token/ERC20/ERC20.sol\":10228:10249  spender != address(0) */\n      0xffffffffffffffffffffffffffffffffffffffff\n      and\n        /* \"@openzeppelin/contracts@4.4.2/token/ERC20/ERC20.sol\":10228:10235  spender */\n      dup3\n        /* \"@openzeppelin/contracts@4.4.2/token/ERC20/ERC20.sol\":10228:10249  spender != address(0) */\n      0xffffffffffffffffffffffffffffffffffffffff\n      and\n      eq\n      iszero\n        /* \"@openzeppelin/contracts@4.4.2/token/ERC20/ERC20.sol\":10220:10288  require(spender != address(0), \"ERC20: approve to the zero address\") */\n      tag_226\n      jumpi\n      mload(0x40)\n      0x08c379a000000000000000000000000000000000000000000000000000000000\n      dup2\n      mstore\n      0x04\n      add\n      tag_227\n      swap1\n      tag_228\n      jump\t// in\n    tag_227:\n      mload(0x40)\n      dup1\n      swap2\n      sub\n      swap1\n      revert\n    tag_226:\n        /* \"@openzeppelin/contracts@4.4.2/token/ERC20/ERC20.sol\":10329:10335  amount */\n      dup1\n        /* \"@openzeppelin/contracts@4.4.2/token/ERC20/ERC20.sol\":10299:10310  _allowances */\n      0x01\n        /* \"@openzeppelin/contracts@4.4.2/token/ERC20/ERC20.sol\":10299:10317  _allowances[owner] */\n      0x00\n        /* \"@openzeppelin/contracts@4.4.2/token/ERC20/ERC20.sol\":10311:10316  owner */\n      dup6\n        /* \"@openzeppelin/contracts@4.4.2/token/ERC20/ERC20.sol\":10299:10317  _allowances[owner] */\n      0xffffffffffffffffffffffffffffffffffffffff\n      and\n      0xffffffffffffffffffffffffffffffffffffffff\n      and\n      dup2\n      mstore\n      0x20\n      add\n      swap1\n      dup2\n      mstore\n      0x20\n      add\n      0x00\n      keccak256\n        /* \"@openzeppelin/contracts@4.4.2/token/ERC20/ERC20.sol\":10299:10326  _allowances[owner][spender] */\n      0x00\n        /* \"@openzeppelin/contracts@4.4.2/token/ERC20/ERC20.sol\":10318:10325  spender */\n      dup5\n        /* \"@openzeppelin/contracts@4.4.2/token/ERC20/ERC20.sol\":10299:10326  _allowances[owner][spender] */\n      0xffffffffffffffffffffffffffffffffffffffff\n      and\n      0xffffffffffffffffffffffffffffffffffffffff\n      and\n      dup2\n      mstore\n      0x20\n      add\n      swap1\n      dup2\n      mstore\n      0x20\n      add\n      0x00\n      keccak256\n        /* \"@openzeppelin/contracts@4.4.2/token/ERC20/ERC20.sol\":10299:10335  _allowances[owner][spender] = amount */\n      dup2\n      swap1\n      sstore\n      pop\n        /* \"@openzeppelin/contracts@4.4.2/token/ERC20/ERC20.sol\":10366:10373  spender */\n      dup2\n        /* \"@openzeppelin/contracts@4.4.2/token/ERC20/ERC20.sol\":10350:10382  Approval(owner, spender, amount) */\n      0xffffffffffffffffffffffffffffffffffffffff\n      and\n        /* \"@openzeppelin/contracts@4.4.2/token/ERC20/ERC20.sol\":10359:10364  owner */\n      dup4\n        /* \"@openzeppelin/contracts@4.4.2/token/ERC20/ERC20.sol\":10350:10382  Approval(owner, spender, amount) */\n      0xffffffffffffffffffffffffffffffffffffffff\n      and\n      0x8c5be1e5ebec7d5bd14f71427d1e84f3dd0314c0f7b2291e5b200ac8c7c3b925\n        /* \"@openzeppelin/contracts@4.4.2/token/ERC20/ERC20.sol\":10375:10381  amount */\n      dup4\n        /* \"@openzeppelin/contracts@4.4.2/token/ERC20/ERC20.sol\":10350:10382  Approval(owner, spender, amount) */\n      mload(0x40)\n      tag_229\n      swap2\n      swap1\n      tag_40\n      jump\t// in\n    tag_229:\n      mload(0x40)\n      dup1\n      swap2\n      sub\n      swap1\n      log3\n        /* \"@openzeppelin/contracts@4.4.2/token/ERC20/ERC20.sol\":10019:10389  function _approve(... */\n      pop\n      pop\n      pop\n      jump\t// out\n        /* \"@openzeppelin/contracts@4.4.2/token/ERC20/ERC20.sol\":7322:8035  function _transfer(... */\n    tag_131:\n        /* \"@openzeppelin/contracts@4.4.2/token/ERC20/ERC20.sol\":7475:7476  0 */\n      0x00\n        /* \"@openzeppelin/contracts@4.4.2/token/ERC20/ERC20.sol\":7457:7477  sender != address(0) */\n      0xffffffffffffffffffffffffffffffffffffffff\n      and\n        /* \"@openzeppelin/contracts@4.4.2/token/ERC20/ERC20.sol\":7457:7463  sender */\n      dup4\n        /* \"@openzeppelin/contracts@4.4.2/token/ERC20/ERC20.sol\":7457:7477  sender != address(0) */\n      0xffffffffffffffffffffffffffffffffffffffff\n      and\n      eq\n      iszero\n        /* \"@openzeppelin/contracts@4.4.2/token/ERC20/ERC20.sol\":7449:7519  require(sender != address(0), \"ERC20: transfer from the zero address\") */\n      tag_231\n      jumpi\n      mload(0x40)\n      0x08c379a000000000000000000000000000000000000000000000000000000000\n      dup2\n      mstore\n      0x04\n      add\n      tag_232\n      swap1\n      tag_233\n      jump\t// in\n    tag_232:\n      mload(0x40)\n      dup1\n      swap2\n      sub\n      swap1\n      revert\n    tag_231:\n        /* \"@openzeppelin/contracts@4.4.2/token/ERC20/ERC20.sol\":7558:7559  0 */\n      0x00\n        /* \"@openzeppelin/contracts@4.4.2/token/ERC20/ERC20.sol\":7537:7560  recipient != address(0) */\n      0xffffffffffffffffffffffffffffffffffffffff\n      and\n        /* \"@openzeppelin/contracts@4.4.2/token/ERC20/ERC20.sol\":7537:7546  recipient */\n      dup3\n        /* \"@openzeppelin/contracts@4.4.2/token/ERC20/ERC20.sol\":7537:7560  recipient != address(0) */\n      0xffffffffffffffffffffffffffffffffffffffff\n      and\n      eq\n      iszero\n        /* \"@openzeppelin/contracts@4.4.2/token/ERC20/ERC20.sol\":7529:7600  require(recipient != address(0), \"ERC20: transfer to the zero address\") */\n      tag_234\n      jumpi\n      mload(0x40)\n      0x08c379a000000000000000000000000000000000000000000000000000000000\n      dup2\n      mstore\n      0x04\n      add\n      tag_235\n      swap1\n      tag_236\n      jump\t// in\n    tag_235:\n      mload(0x40)\n      dup1\n      swap2\n      sub\n      swap1\n      revert\n    tag_234:\n        /* \"@openzeppelin/contracts@4.4.2/token/ERC20/ERC20.sol\":7611:7658  _beforeTokenTransfer(sender, recipient, amount) */\n      tag_237\n        /* \"@openzeppelin/contracts@4.4.2/token/ERC20/ERC20.sol\":7632:7638  sender */\n      dup4\n        /* \"@openzeppelin/contracts@4.4.2/token/ERC20/ERC20.sol\":7640:7649  recipient */\n      dup4\n        /* \"@openzeppelin/contracts@4.4.2/token/ERC20/ERC20.sol\":7651:7657  amount */\n      dup4\n        /* \"@openzeppelin/contracts@4.4.2/token/ERC20/ERC20.sol\":7611:7631  _beforeTokenTransfer */\n      tag_238\n        /* \"@openzeppelin/contracts@4.4.2/token/ERC20/ERC20.sol\":7611:7658  _beforeTokenTransfer(sender, recipient, amount) */\n      jump\t// in\n    tag_237:\n        /* \"@openzeppelin/contracts@4.4.2/token/ERC20/ERC20.sol\":7669:7690  uint256 senderBalance */\n      0x00\n        /* \"@openzeppelin/contracts@4.4.2/token/ERC20/ERC20.sol\":7693:7702  _balances */\n      dup1\n        /* \"@openzeppelin/contracts@4.4.2/token/ERC20/ERC20.sol\":7693:7710  _balances[sender] */\n      0x00\n        /* \"@openzeppelin/contracts@4.4.2/token/ERC20/ERC20.sol\":7703:7709  sender */\n      dup6\n        /* \"@openzeppelin/contracts@4.4.2/token/ERC20/ERC20.sol\":7693:7710  _balances[sender] */\n      0xffffffffffffffffffffffffffffffffffffffff\n      and\n      0xffffffffffffffffffffffffffffffffffffffff\n      and\n      dup2\n      mstore\n      0x20\n      add\n      swap1\n      dup2\n      mstore\n      0x20\n      add\n      0x00\n      keccak256\n      sload\n        /* \"@openzeppelin/contracts@4.4.2/token/ERC20/ERC20.sol\":7669:7710  uint256 senderBalance = _balances[sender] */\n      swap1\n      pop\n        /* \"@openzeppelin/contracts@4.4.2/token/ERC20/ERC20.sol\":7745:7751  amount */\n      dup2\n        /* \"@openzeppelin/contracts@4.4.2/token/ERC20/ERC20.sol\":7728:7741  senderBalance */\n      dup2\n        /* \"@openzeppelin/contracts@4.4.2/token/ERC20/ERC20.sol\":7728:7751  senderBalance >= amount */\n      lt\n      iszero\n        /* \"@openzeppelin/contracts@4.4.2/token/ERC20/ERC20.sol\":7720:7794  require(senderBalance >= amount, \"ERC20: transfer amount exceeds balance\") */\n      tag_239\n      jumpi\n      mload(0x40)\n      0x08c379a000000000000000000000000000000000000000000000000000000000\n      dup2\n      mstore\n      0x04\n      add\n      tag_240\n      swap1\n      tag_241\n      jump\t// in\n    tag_240:\n      mload(0x40)\n      dup1\n      swap2\n      sub\n      swap1\n      revert\n    tag_239:\n        /* \"@openzeppelin/contracts@4.4.2/token/ERC20/ERC20.sol\":7864:7870  amount */\n      dup2\n        /* \"@openzeppelin/contracts@4.4.2/token/ERC20/ERC20.sol\":7848:7861  senderBalance */\n      dup2\n        /* \"@openzeppelin/contracts@4.4.2/token/ERC20/ERC20.sol\":7848:7870  senderBalance - amount */\n      sub\n        /* \"@openzeppelin/contracts@4.4.2/token/ERC20/ERC20.sol\":7828:7837  _balances */\n      0x00\n        /* \"@openzeppelin/contracts@4.4.2/token/ERC20/ERC20.sol\":7828:7845  _balances[sender] */\n      dup1\n        /* \"@openzeppelin/contracts@4.4.2/token/ERC20/ERC20.sol\":7838:7844  sender */\n      dup7\n        /* \"@openzeppelin/contracts@4.4.2/token/ERC20/ERC20.sol\":7828:7845  _balances[sender] */\n      0xffffffffffffffffffffffffffffffffffffffff\n      and\n      0xffffffffffffffffffffffffffffffffffffffff\n      and\n      dup2\n      mstore\n      0x20\n      add\n      swap1\n      dup2\n      mstore\n      0x20\n      add\n      0x00\n      keccak256\n        /* \"@openzeppelin/contracts@4.4.2/token/ERC20/ERC20.sol\":7828:7870  _balances[sender] = senderBalance - amount */\n      dup2\n      swap1\n      sstore\n      pop\n        /* \"@openzeppelin/contracts@4.4.2/token/ERC20/ERC20.sol\":7914:7920  amount */\n      dup2\n        /* \"@openzeppelin/contracts@4.4.2/token/ERC20/ERC20.sol\":7890:7899  _balances */\n      0x00\n        /* \"@openzeppelin/contracts@4.4.2/token/ERC20/ERC20.sol\":7890:7910  _balances[recipient] */\n      dup1\n        /* \"@openzeppelin/contracts@4.4.2/token/ERC20/ERC20.sol\":7900:7909  recipient */\n      dup6\n        /* \"@openzeppelin/contracts@4.4.2/token/ERC20/ERC20.sol\":7890:7910  _balances[recipient] */\n      0xffffffffffffffffffffffffffffffffffffffff\n      and\n      0xffffffffffffffffffffffffffffffffffffffff\n      and\n      dup2\n      mstore\n      0x20\n      add\n      swap1\n      dup2\n      mstore\n      0x20\n      add\n      0x00\n      keccak256\n      0x00\n        /* \"@openzeppelin/contracts@4.4.2/token/ERC20/ERC20.sol\":7890:7920  _balances[recipient] += amount */\n      dup3\n      dup3\n      sload\n      tag_242\n      swap2\n      swap1\n      tag_144\n      jump\t// in\n    tag_242:\n      swap3\n      pop\n      pop\n      dup2\n      swap1\n      sstore\n      pop\n        /* \"@openzeppelin/contracts@4.4.2/token/ERC20/ERC20.sol\":7953:7962  recipient */\n      dup3\n        /* \"@openzeppelin/contracts@4.4.2/token/ERC20/ERC20.sol\":7936:7971  Transfer(sender, recipient, amount) */\n      0xffffffffffffffffffffffffffffffffffffffff\n      and\n        /* \"@openzeppelin/contracts@4.4.2/token/ERC20/ERC20.sol\":7945:7951  sender */\n      dup5\n        /* \"@openzeppelin/contracts@4.4.2/token/ERC20/ERC20.sol\":7936:7971  Transfer(sender, recipient, amount) */\n      0xffffffffffffffffffffffffffffffffffffffff\n      and\n      0xddf252ad1be2c89b69c2b068fc378daa952ba7f163c4a11628f55a4df523b3ef\n        /* \"@openzeppelin/contracts@4.4.2/token/ERC20/ERC20.sol\":7964:7970  amount */\n      dup5\n        /* \"@openzeppelin/contracts@4.4.2/token/ERC20/ERC20.sol\":7936:7971  Transfer(sender, recipient, amount) */\n      mload(0x40)\n      tag_243\n      swap2\n      swap1\n      tag_40\n      jump\t// in\n    tag_243:\n      mload(0x40)\n      dup1\n      swap2\n      sub\n      swap1\n      log3\n        /* \"@openzeppelin/contracts@4.4.2/token/ERC20/ERC20.sol\":7982:8028  _afterTokenTransfer(sender, recipient, amount) */\n      tag_244\n        /* \"@openzeppelin/contracts@4.4.2/token/ERC20/ERC20.sol\":8002:8008  sender */\n      dup5\n        /* \"@openzeppelin/contracts@4.4.2/token/ERC20/ERC20.sol\":8010:8019  recipient */\n      dup5\n        /* \"@openzeppelin/contracts@4.4.2/token/ERC20/ERC20.sol\":8021:8027  amount */\n      dup5\n        /* \"@openzeppelin/contracts@4.4.2/token/ERC20/ERC20.sol\":7982:8001  _afterTokenTransfer */\n      tag_245\n        /* \"@openzeppelin/contracts@4.4.2/token/ERC20/ERC20.sol\":7982:8028  _afterTokenTransfer(sender, recipient, amount) */\n      jump\t// in\n    tag_244:\n        /* \"@openzeppelin/contracts@4.4.2/token/ERC20/ERC20.sol\":7322:8035  function _transfer(... */\n      pop\n      pop\n      pop\n      pop\n      jump\t// out\n        /* \"@openzeppelin/contracts@4.4.2/access/Ownable.sol\":2270:2457  function _transferOwnership(address newOwner) internal virtual {... */\n    tag_154:\n        /* \"@openzeppelin/contracts@4.4.2/access/Ownable.sol\":2343:2359  address oldOwner */\n      0x00\n        /* \"@openzeppelin/contracts@4.4.2/access/Ownable.sol\":2362:2368  _owner */\n      0x05\n      0x00\n      swap1\n      sload\n      swap1\n      0x0100\n      exp\n      swap1\n      div\n      0xffffffffffffffffffffffffffffffffffffffff\n      and\n        /* \"@openzeppelin/contracts@4.4.2/access/Ownable.sol\":2343:2368  address oldOwner = _owner */\n      swap1\n      pop\n        /* \"@openzeppelin/contracts@4.4.2/access/Ownable.sol\":2387:2395  newOwner */\n      dup2\n        /* \"@openzeppelin/contracts@4.4.2/access/Ownable.sol\":2378:2384  _owner */\n      0x05\n      0x00\n        /* \"@openzeppelin/contracts@4.4.2/access/Ownable.sol\":2378:2395  _owner = newOwner */\n      0x0100\n      exp\n      dup2\n      sload\n      dup2\n      0xffffffffffffffffffffffffffffffffffffffff\n      mul\n      not\n      and\n      swap1\n      dup4\n      0xffffffffffffffffffffffffffffffffffffffff\n      and\n      mul\n      or\n      swap1\n      sstore\n      pop\n        /* \"@openzeppelin/contracts@4.4.2/access/Ownable.sol\":2441:2449  newOwner */\n      dup2\n        /* \"@openzeppelin/contracts@4.4.2/access/Ownable.sol\":2410:2450  OwnershipTransferred(oldOwner, newOwner) */\n      0xffffffffffffffffffffffffffffffffffffffff\n      and\n        /* \"@openzeppelin/contracts@4.4.2/access/Ownable.sol\":2431:2439  oldOwner */\n      dup2\n        /* \"@openzeppelin/contracts@4.4.2/access/Ownable.sol\":2410:2450  OwnershipTransferred(oldOwner, newOwner) */\n      0xffffffffffffffffffffffffffffffffffffffff\n      and\n      0x8be0079c531659141344cd1fd0a4f28419497f9722a3daafe3b4186f6b6457e0\n      mload(0x40)\n      mload(0x40)\n      dup1\n      swap2\n      sub\n      swap1\n      log3\n        /* \"@openzeppelin/contracts@4.4.2/access/Ownable.sol\":2270:2457  function _transferOwnership(address newOwner) internal virtual {... */\n      pop\n      pop\n      jump\t// out\n        /* \"contracts/cinema.sol\":666:788  function priceTokens(uint256 _numTokens) internal pure returns (uint256) {\r... */\n    tag_157:\n        /* \"contracts/cinema.sol\":730:737  uint256 */\n      0x00\n        /* \"contracts/cinema.sol\":771:778  1 ether */\n      0x0de0b6b3a7640000\n        /* \"contracts/cinema.sol\":757:767  _numTokens */\n      dup3\n        /* \"contracts/cinema.sol\":757:779  _numTokens * (1 ether) */\n      tag_248\n      swap2\n      swap1\n      tag_249\n      jump\t// in\n    tag_248:\n        /* \"contracts/cinema.sol\":750:779  return _numTokens * (1 ether) */\n      swap1\n      pop\n        /* \"contracts/cinema.sol\":666:788  function priceTokens(uint256 _numTokens) internal pure returns (uint256) {\r... */\n      swap2\n      swap1\n      pop\n      jump\t// out\n        /* \"@openzeppelin/contracts@4.4.2/token/ERC20/ERC20.sol\":8311:8700  function _mint(address account, uint256 amount) internal virtual {... */\n    tag_197:\n        /* \"@openzeppelin/contracts@4.4.2/token/ERC20/ERC20.sol\":8413:8414  0 */\n      0x00\n        /* \"@openzeppelin/contracts@4.4.2/token/ERC20/ERC20.sol\":8394:8415  account != address(0) */\n      0xffffffffffffffffffffffffffffffffffffffff\n      and\n        /* \"@openzeppelin/contracts@4.4.2/token/ERC20/ERC20.sol\":8394:8401  account */\n      dup3\n        /* \"@openzeppelin/contracts@4.4.2/token/ERC20/ERC20.sol\":8394:8415  account != address(0) */\n      0xffffffffffffffffffffffffffffffffffffffff\n      and\n      eq\n      iszero\n        /* \"@openzeppelin/contracts@4.4.2/token/ERC20/ERC20.sol\":8386:8451  require(account != address(0), \"ERC20: mint to the zero address\") */\n      tag_251\n      jumpi\n      mload(0x40)\n      0x08c379a000000000000000000000000000000000000000000000000000000000\n      dup2\n      mstore\n      0x04\n      add\n      tag_252\n      swap1\n      tag_253\n      jump\t// in\n    tag_252:\n      mload(0x40)\n      dup1\n      swap2\n      sub\n      swap1\n      revert\n    tag_251:\n        /* \"@openzeppelin/contracts@4.4.2/token/ERC20/ERC20.sol\":8462:8511  _beforeTokenTransfer(address(0), account, amount) */\n      tag_254\n        /* \"@openzeppelin/contracts@4.4.2/token/ERC20/ERC20.sol\":8491:8492  0 */\n      0x00\n        /* \"@openzeppelin/contracts@4.4.2/token/ERC20/ERC20.sol\":8495:8502  account */\n      dup4\n        /* \"@openzeppelin/contracts@4.4.2/token/ERC20/ERC20.sol\":8504:8510  amount */\n      dup4\n        /* \"@openzeppelin/contracts@4.4.2/token/ERC20/ERC20.sol\":8462:8482  _beforeTokenTransfer */\n      tag_238\n        /* \"@openzeppelin/contracts@4.4.2/token/ERC20/ERC20.sol\":8462:8511  _beforeTokenTransfer(address(0), account, amount) */\n      jump\t// in\n    tag_254:\n        /* \"@openzeppelin/contracts@4.4.2/token/ERC20/ERC20.sol\":8538:8544  amount */\n      dup1\n        /* \"@openzeppelin/contracts@4.4.2/token/ERC20/ERC20.sol\":8522:8534  _totalSupply */\n      0x02\n      0x00\n        /* \"@openzeppelin/contracts@4.4.2/token/ERC20/ERC20.sol\":8522:8544  _totalSupply += amount */\n      dup3\n      dup3\n      sload\n      tag_255\n      swap2\n      swap1\n      tag_144\n      jump\t// in\n    tag_255:\n      swap3\n      pop\n      pop\n      dup2\n      swap1\n      sstore\n      pop\n        /* \"@openzeppelin/contracts@4.4.2/token/ERC20/ERC20.sol\":8576:8582  amount */\n      dup1\n        /* \"@openzeppelin/contracts@4.4.2/token/ERC20/ERC20.sol\":8554:8563  _balances */\n      0x00\n        /* \"@openzeppelin/contracts@4.4.2/token/ERC20/ERC20.sol\":8554:8572  _balances[account] */\n      dup1\n        /* \"@openzeppelin/contracts@4.4.2/token/ERC20/ERC20.sol\":8564:8571  account */\n      dup5\n        /* \"@openzeppelin/contracts@4.4.2/token/ERC20/ERC20.sol\":8554:8572  _balances[account] */\n      0xffffffffffffffffffffffffffffffffffffffff\n      and\n      0xffffffffffffffffffffffffffffffffffffffff\n      and\n      dup2\n      mstore\n      0x20\n      add\n      swap1\n      dup2\n      mstore\n      0x20\n      add\n      0x00\n      keccak256\n      0x00\n        /* \"@openzeppelin/contracts@4.4.2/token/ERC20/ERC20.sol\":8554:8582  _balances[account] += amount */\n      dup3\n      dup3\n      sload\n      tag_256\n      swap2\n      swap1\n      tag_144\n      jump\t// in\n    tag_256:\n      swap3\n      pop\n      pop\n      dup2\n      swap1\n      sstore\n      pop\n        /* \"@openzeppelin/contracts@4.4.2/token/ERC20/ERC20.sol\":8618:8625  account */\n      dup2\n        /* \"@openzeppelin/contracts@4.4.2/token/ERC20/ERC20.sol\":8597:8634  Transfer(address(0), account, amount) */\n      0xffffffffffffffffffffffffffffffffffffffff\n      and\n        /* \"@openzeppelin/contracts@4.4.2/token/ERC20/ERC20.sol\":8614:8615  0 */\n      0x00\n        /* \"@openzeppelin/contracts@4.4.2/token/ERC20/ERC20.sol\":8597:8634  Transfer(address(0), account, amount) */\n      0xffffffffffffffffffffffffffffffffffffffff\n      and\n      0xddf252ad1be2c89b69c2b068fc378daa952ba7f163c4a11628f55a4df523b3ef\n        /* \"@openzeppelin/contracts@4.4.2/token/ERC20/ERC20.sol\":8627:8633  amount */\n      dup4\n        /* \"@openzeppelin/contracts@4.4.2/token/ERC20/ERC20.sol\":8597:8634  Transfer(address(0), account, amount) */\n      mload(0x40)\n      tag_257\n      swap2\n      swap1\n      tag_40\n      jump\t// in\n    tag_257:\n      mload(0x40)\n      dup1\n      swap2\n      sub\n      swap1\n      log3\n        /* \"@openzeppelin/contracts@4.4.2/token/ERC20/ERC20.sol\":8645:8693  _afterTokenTransfer(address(0), account, amount) */\n      tag_258\n        /* \"@openzeppelin/contracts@4.4.2/token/ERC20/ERC20.sol\":8673:8674  0 */\n      0x00\n        /* \"@openzeppelin/contracts@4.4.2/token/ERC20/ERC20.sol\":8677:8684  account */\n      dup4\n        /* \"@openzeppelin/contracts@4.4.2/token/ERC20/ERC20.sol\":8686:8692  amount */\n      dup4\n        /* \"@openzeppelin/contracts@4.4.2/token/ERC20/ERC20.sol\":8645:8664  _afterTokenTransfer */\n      tag_245\n        /* \"@openzeppelin/contracts@4.4.2/token/ERC20/ERC20.sol\":8645:8693  _afterTokenTransfer(address(0), account, amount) */\n      jump\t// in\n    tag_258:\n        /* \"@openzeppelin/contracts@4.4.2/token/ERC20/ERC20.sol\":8311:8700  function _mint(address account, uint256 amount) internal virtual {... */\n      pop\n      pop\n      jump\t// out\n        /* \"@openzeppelin/contracts@4.4.2/token/ERC20/ERC20.sol\":10973:11094  function _beforeTokenTransfer(... */\n    tag_238:\n      pop\n      pop\n      pop\n      jump\t// out\n        /* \"@openzeppelin/contracts@4.4.2/token/ERC20/ERC20.sol\":11682:11802  function _afterTokenTransfer(... */\n    tag_245:\n      pop\n      pop\n      pop\n      jump\t// out\n        /* \"#utility.yul\":7:146   */\n    tag_262:\n      0x00\n        /* \"#utility.yul\":91:97   */\n      dup2\n        /* \"#utility.yul\":78:98   */\n      calldataload\n        /* \"#utility.yul\":69:98   */\n      swap1\n      pop\n        /* \"#utility.yul\":107:140   */\n      tag_264\n        /* \"#utility.yul\":134:139   */\n      dup2\n        /* \"#utility.yul\":107:140   */\n      tag_265\n      jump\t// in\n    tag_264:\n        /* \"#utility.yul\":59:146   */\n      swap3\n      swap2\n      pop\n      pop\n      jump\t// out\n        /* \"#utility.yul\":152:291   */\n    tag_266:\n      0x00\n        /* \"#utility.yul\":236:242   */\n      dup2\n        /* \"#utility.yul\":223:243   */\n      calldataload\n        /* \"#utility.yul\":214:243   */\n      swap1\n      pop\n        /* \"#utility.yul\":252:285   */\n      tag_268\n        /* \"#utility.yul\":279:284   */\n      dup2\n        /* \"#utility.yul\":252:285   */\n      tag_269\n      jump\t// in\n    tag_268:\n        /* \"#utility.yul\":204:291   */\n      swap3\n      swap2\n      pop\n      pop\n      jump\t// out\n        /* \"#utility.yul\":297:559   */\n    tag_60:\n      0x00\n        /* \"#utility.yul\":405:407   */\n      0x20\n        /* \"#utility.yul\":393:402   */\n      dup3\n        /* \"#utility.yul\":384:391   */\n      dup5\n        /* \"#utility.yul\":380:403   */\n      sub\n        /* \"#utility.yul\":376:408   */\n      slt\n        /* \"#utility.yul\":373:375   */\n      iszero\n      tag_271\n      jumpi\n        /* \"#utility.yul\":421:422   */\n      0x00\n        /* \"#utility.yul\":418:419   */\n      dup1\n        /* \"#utility.yul\":411:423   */\n      revert\n        /* \"#utility.yul\":373:375   */\n    tag_271:\n        /* \"#utility.yul\":464:465   */\n      0x00\n        /* \"#utility.yul\":489:542   */\n      tag_272\n        /* \"#utility.yul\":534:541   */\n      dup5\n        /* \"#utility.yul\":525:531   */\n      dup3\n        /* \"#utility.yul\":514:523   */\n      dup6\n        /* \"#utility.yul\":510:532   */\n      add\n        /* \"#utility.yul\":489:542   */\n      tag_262\n      jump\t// in\n    tag_272:\n        /* \"#utility.yul\":479:542   */\n      swap2\n      pop\n        /* \"#utility.yul\":435:552   */\n      pop\n        /* \"#utility.yul\":363:559   */\n      swap3\n      swap2\n      pop\n      pop\n      jump\t// out\n        /* \"#utility.yul\":565:972   */\n    tag_104:\n      0x00\n      dup1\n        /* \"#utility.yul\":690:692   */\n      0x40\n        /* \"#utility.yul\":678:687   */\n      dup4\n        /* \"#utility.yul\":669:676   */\n      dup6\n        /* \"#utility.yul\":665:688   */\n      sub\n        /* \"#utility.yul\":661:693   */\n      slt\n        /* \"#utility.yul\":658:660   */\n      iszero\n      tag_274\n      jumpi\n        /* \"#utility.yul\":706:707   */\n      0x00\n        /* \"#utility.yul\":703:704   */\n      dup1\n        /* \"#utility.yul\":696:708   */\n      revert\n        /* \"#utility.yul\":658:660   */\n    tag_274:\n        /* \"#utility.yul\":749:750   */\n      0x00\n        /* \"#utility.yul\":774:827   */\n      tag_275\n        /* \"#utility.yul\":819:826   */\n      dup6\n        /* \"#utility.yul\":810:816   */\n      dup3\n        /* \"#utility.yul\":799:808   */\n      dup7\n        /* \"#utility.yul\":795:817   */\n      add\n        /* \"#utility.yul\":774:827   */\n      tag_262\n      jump\t// in\n    tag_275:\n        /* \"#utility.yul\":764:827   */\n      swap3\n      pop\n        /* \"#utility.yul\":720:837   */\n      pop\n        /* \"#utility.yul\":876:878   */\n      0x20\n        /* \"#utility.yul\":902:955   */\n      tag_276\n        /* \"#utility.yul\":947:954   */\n      dup6\n        /* \"#utility.yul\":938:944   */\n      dup3\n        /* \"#utility.yul\":927:936   */\n      dup7\n        /* \"#utility.yul\":923:945   */\n      add\n        /* \"#utility.yul\":902:955   */\n      tag_262\n      jump\t// in\n    tag_276:\n        /* \"#utility.yul\":892:955   */\n      swap2\n      pop\n        /* \"#utility.yul\":847:965   */\n      pop\n        /* \"#utility.yul\":648:972   */\n      swap3\n      pop\n      swap3\n      swap1\n      pop\n      jump\t// out\n        /* \"#utility.yul\":978:1530   */\n    tag_44:\n      0x00\n      dup1\n      0x00\n        /* \"#utility.yul\":1120:1122   */\n      0x60\n        /* \"#utility.yul\":1108:1117   */\n      dup5\n        /* \"#utility.yul\":1099:1106   */\n      dup7\n        /* \"#utility.yul\":1095:1118   */\n      sub\n        /* \"#utility.yul\":1091:1123   */\n      slt\n        /* \"#utility.yul\":1088:1090   */\n      iszero\n      tag_278\n      jumpi\n        /* \"#utility.yul\":1136:1137   */\n      0x00\n        /* \"#utility.yul\":1133:1134   */\n      dup1\n        /* \"#utility.yul\":1126:1138   */\n      revert\n        /* \"#utility.yul\":1088:1090   */\n    tag_278:\n        /* \"#utility.yul\":1179:1180   */\n      0x00\n        /* \"#utility.yul\":1204:1257   */\n      tag_279\n        /* \"#utility.yul\":1249:1256   */\n      dup7\n        /* \"#utility.yul\":1240:1246   */\n      dup3\n        /* \"#utility.yul\":1229:1238   */\n      dup8\n        /* \"#utility.yul\":1225:1247   */\n      add\n        /* \"#utility.yul\":1204:1257   */\n      tag_262\n      jump\t// in\n    tag_279:\n        /* \"#utility.yul\":1194:1257   */\n      swap4\n      pop\n        /* \"#utility.yul\":1150:1267   */\n      pop\n        /* \"#utility.yul\":1306:1308   */\n      0x20\n        /* \"#utility.yul\":1332:1385   */\n      tag_280\n        /* \"#utility.yul\":1377:1384   */\n      dup7\n        /* \"#utility.yul\":1368:1374   */\n      dup3\n        /* \"#utility.yul\":1357:1366   */\n      dup8\n        /* \"#utility.yul\":1353:1375   */\n      add\n        /* \"#utility.yul\":1332:1385   */\n      tag_262\n      jump\t// in\n    tag_280:\n        /* \"#utility.yul\":1322:1385   */\n      swap3\n      pop\n        /* \"#utility.yul\":1277:1395   */\n      pop\n        /* \"#utility.yul\":1434:1436   */\n      0x40\n        /* \"#utility.yul\":1460:1513   */\n      tag_281\n        /* \"#utility.yul\":1505:1512   */\n      dup7\n        /* \"#utility.yul\":1496:1502   */\n      dup3\n        /* \"#utility.yul\":1485:1494   */\n      dup8\n        /* \"#utility.yul\":1481:1503   */\n      add\n        /* \"#utility.yul\":1460:1513   */\n      tag_266\n      jump\t// in\n    tag_281:\n        /* \"#utility.yul\":1450:1513   */\n      swap2\n      pop\n        /* \"#utility.yul\":1405:1523   */\n      pop\n        /* \"#utility.yul\":1078:1530   */\n      swap3\n      pop\n      swap3\n      pop\n      swap3\n      jump\t// out\n        /* \"#utility.yul\":1536:1943   */\n    tag_32:\n      0x00\n      dup1\n        /* \"#utility.yul\":1661:1663   */\n      0x40\n        /* \"#utility.yul\":1649:1658   */\n      dup4\n        /* \"#utility.yul\":1640:1647   */\n      dup6\n        /* \"#utility.yul\":1636:1659   */\n      sub\n        /* \"#utility.yul\":1632:1664   */\n      slt\n        /* \"#utility.yul\":1629:1631   */\n      iszero\n      tag_283\n      jumpi\n        /* \"#utility.yul\":1677:1678   */\n      0x00\n        /* \"#utility.yul\":1674:1675   */\n      dup1\n        /* \"#utility.yul\":1667:1679   */\n      revert\n        /* \"#utility.yul\":1629:1631   */\n    tag_283:\n        /* \"#utility.yul\":1720:1721   */\n      0x00\n        /* \"#utility.yul\":1745:1798   */\n      tag_284\n        /* \"#utility.yul\":1790:1797   */\n      dup6\n        /* \"#utility.yul\":1781:1787   */\n      dup3\n        /* \"#utility.yul\":1770:1779   */\n      dup7\n        /* \"#utility.yul\":1766:1788   */\n      add\n        /* \"#utility.yul\":1745:1798   */\n      tag_262\n      jump\t// in\n    tag_284:\n        /* \"#utility.yul\":1735:1798   */\n      swap3\n      pop\n        /* \"#utility.yul\":1691:1808   */\n      pop\n        /* \"#utility.yul\":1847:1849   */\n      0x20\n        /* \"#utility.yul\":1873:1926   */\n      tag_285\n        /* \"#utility.yul\":1918:1925   */\n      dup6\n        /* \"#utility.yul\":1909:1915   */\n      dup3\n        /* \"#utility.yul\":1898:1907   */\n      dup7\n        /* \"#utility.yul\":1894:1916   */\n      add\n        /* \"#utility.yul\":1873:1926   */\n      tag_266\n      jump\t// in\n    tag_285:\n        /* \"#utility.yul\":1863:1926   */\n      swap2\n      pop\n        /* \"#utility.yul\":1818:1936   */\n      pop\n        /* \"#utility.yul\":1619:1943   */\n      swap3\n      pop\n      swap3\n      swap1\n      pop\n      jump\t// out\n        /* \"#utility.yul\":1949:2211   */\n    tag_73:\n      0x00\n        /* \"#utility.yul\":2057:2059   */\n      0x20\n        /* \"#utility.yul\":2045:2054   */\n      dup3\n        /* \"#utility.yul\":2036:2043   */\n      dup5\n        /* \"#utility.yul\":2032:2055   */\n      sub\n        /* \"#utility.yul\":2028:2060   */\n      slt\n        /* \"#utility.yul\":2025:2027   */\n      iszero\n      tag_287\n      jumpi\n        /* \"#utility.yul\":2073:2074   */\n      0x00\n        /* \"#utility.yul\":2070:2071   */\n      dup1\n        /* \"#utility.yul\":2063:2075   */\n      revert\n        /* \"#utility.yul\":2025:2027   */\n    tag_287:\n        /* \"#utility.yul\":2116:2117   */\n      0x00\n        /* \"#utility.yul\":2141:2194   */\n      tag_288\n        /* \"#utility.yul\":2186:2193   */\n      dup5\n        /* \"#utility.yul\":2177:2183   */\n      dup3\n        /* \"#utility.yul\":2166:2175   */\n      dup6\n        /* \"#utility.yul\":2162:2184   */\n      add\n        /* \"#utility.yul\":2141:2194   */\n      tag_266\n      jump\t// in\n    tag_288:\n        /* \"#utility.yul\":2131:2194   */\n      swap2\n      pop\n        /* \"#utility.yul\":2087:2204   */\n      pop\n        /* \"#utility.yul\":2015:2211   */\n      swap3\n      swap2\n      pop\n      pop\n      jump\t// out\n        /* \"#utility.yul\":2217:2335   */\n    tag_289:\n        /* \"#utility.yul\":2304:2328   */\n      tag_291\n        /* \"#utility.yul\":2322:2327   */\n      dup2\n        /* \"#utility.yul\":2304:2328   */\n      tag_292\n      jump\t// in\n    tag_291:\n        /* \"#utility.yul\":2299:2302   */\n      dup3\n        /* \"#utility.yul\":2292:2329   */\n      mstore\n        /* \"#utility.yul\":2282:2335   */\n      pop\n      pop\n      jump\t// out\n        /* \"#utility.yul\":2341:2450   */\n    tag_293:\n        /* \"#utility.yul\":2422:2443   */\n      tag_295\n        /* \"#utility.yul\":2437:2442   */\n      dup2\n        /* \"#utility.yul\":2422:2443   */\n      tag_296\n      jump\t// in\n    tag_295:\n        /* \"#utility.yul\":2417:2420   */\n      dup3\n        /* \"#utility.yul\":2410:2444   */\n      mstore\n        /* \"#utility.yul\":2400:2450   */\n      pop\n      pop\n      jump\t// out\n        /* \"#utility.yul\":2456:2820   */\n    tag_297:\n      0x00\n        /* \"#utility.yul\":2572:2611   */\n      tag_299\n        /* \"#utility.yul\":2605:2610   */\n      dup3\n        /* \"#utility.yul\":2572:2611   */\n      tag_300\n      jump\t// in\n    tag_299:\n        /* \"#utility.yul\":2627:2698   */\n      tag_301\n        /* \"#utility.yul\":2691:2697   */\n      dup2\n        /* \"#utility.yul\":2686:2689   */\n      dup6\n        /* \"#utility.yul\":2627:2698   */\n      tag_302\n      jump\t// in\n    tag_301:\n        /* \"#utility.yul\":2620:2698   */\n      swap4\n      pop\n        /* \"#utility.yul\":2707:2759   */\n      tag_303\n        /* \"#utility.yul\":2752:2758   */\n      dup2\n        /* \"#utility.yul\":2747:2750   */\n      dup6\n        /* \"#utility.yul\":2740:2744   */\n      0x20\n        /* \"#utility.yul\":2733:2738   */\n      dup7\n        /* \"#utility.yul\":2729:2745   */\n      add\n        /* \"#utility.yul\":2707:2759   */\n      tag_304\n      jump\t// in\n    tag_303:\n        /* \"#utility.yul\":2784:2813   */\n      tag_305\n        /* \"#utility.yul\":2806:2812   */\n      dup2\n        /* \"#utility.yul\":2784:2813   */\n      tag_306\n      jump\t// in\n    tag_305:\n        /* \"#utility.yul\":2779:2782   */\n      dup5\n        /* \"#utility.yul\":2775:2814   */\n      add\n        /* \"#utility.yul\":2768:2814   */\n      swap2\n      pop\n        /* \"#utility.yul\":2548:2820   */\n      pop\n      swap3\n      swap2\n      pop\n      pop\n      jump\t// out\n        /* \"#utility.yul\":2826:3192   */\n    tag_307:\n      0x00\n        /* \"#utility.yul\":2989:3056   */\n      tag_309\n        /* \"#utility.yul\":3053:3055   */\n      0x23\n        /* \"#utility.yul\":3048:3051   */\n      dup4\n        /* \"#utility.yul\":2989:3056   */\n      tag_302\n      jump\t// in\n    tag_309:\n        /* \"#utility.yul\":2982:3056   */\n      swap2\n      pop\n        /* \"#utility.yul\":3065:3158   */\n      tag_310\n        /* \"#utility.yul\":3154:3157   */\n      dup3\n        /* \"#utility.yul\":3065:3158   */\n      tag_311\n      jump\t// in\n    tag_310:\n        /* \"#utility.yul\":3183:3185   */\n      0x40\n        /* \"#utility.yul\":3178:3181   */\n      dup3\n        /* \"#utility.yul\":3174:3186   */\n      add\n        /* \"#utility.yul\":3167:3186   */\n      swap1\n      pop\n        /* \"#utility.yul\":2972:3192   */\n      swap2\n      swap1\n      pop\n      jump\t// out\n        /* \"#utility.yul\":3198:3564   */\n    tag_312:\n      0x00\n        /* \"#utility.yul\":3361:3428   */\n      tag_314\n        /* \"#utility.yul\":3425:3427   */\n      0x26\n        /* \"#utility.yul\":3420:3423   */\n      dup4\n        /* \"#utility.yul\":3361:3428   */\n      tag_302\n      jump\t// in\n    tag_314:\n        /* \"#utility.yul\":3354:3428   */\n      swap2\n      pop\n        /* \"#utility.yul\":3437:3530   */\n      tag_315\n        /* \"#utility.yul\":3526:3529   */\n      dup3\n        /* \"#utility.yul\":3437:3530   */\n      tag_316\n      jump\t// in\n    tag_315:\n        /* \"#utility.yul\":3555:3557   */\n      0x40\n        /* \"#utility.yul\":3550:3553   */\n      dup3\n        /* \"#utility.yul\":3546:3558   */\n      add\n        /* \"#utility.yul\":3539:3558   */\n      swap1\n      pop\n        /* \"#utility.yul\":3344:3564   */\n      swap2\n      swap1\n      pop\n      jump\t// out\n        /* \"#utility.yul\":3570:3936   */\n    tag_317:\n      0x00\n        /* \"#utility.yul\":3733:3800   */\n      tag_319\n        /* \"#utility.yul\":3797:3799   */\n      0x22\n        /* \"#utility.yul\":3792:3795   */\n      dup4\n        /* \"#utility.yul\":3733:3800   */\n      tag_302\n      jump\t// in\n    tag_319:\n        /* \"#utility.yul\":3726:3800   */\n      swap2\n      pop\n        /* \"#utility.yul\":3809:3902   */\n      tag_320\n        /* \"#utility.yul\":3898:3901   */\n      dup3\n        /* \"#utility.yul\":3809:3902   */\n      tag_321\n      jump\t// in\n    tag_320:\n        /* \"#utility.yul\":3927:3929   */\n      0x40\n        /* \"#utility.yul\":3922:3925   */\n      dup3\n        /* \"#utility.yul\":3918:3930   */\n      add\n        /* \"#utility.yul\":3911:3930   */\n      swap1\n      pop\n        /* \"#utility.yul\":3716:3936   */\n      swap2\n      swap1\n      pop\n      jump\t// out\n        /* \"#utility.yul\":3942:4308   */\n    tag_322:\n      0x00\n        /* \"#utility.yul\":4105:4172   */\n      tag_324\n        /* \"#utility.yul\":4169:4171   */\n      0x26\n        /* \"#utility.yul\":4164:4167   */\n      dup4\n        /* \"#utility.yul\":4105:4172   */\n      tag_302\n      jump\t// in\n    tag_324:\n        /* \"#utility.yul\":4098:4172   */\n      swap2\n      pop\n        /* \"#utility.yul\":4181:4274   */\n      tag_325\n        /* \"#utility.yul\":4270:4273   */\n      dup3\n        /* \"#utility.yul\":4181:4274   */\n      tag_326\n      jump\t// in\n    tag_325:\n        /* \"#utility.yul\":4299:4301   */\n      0x40\n        /* \"#utility.yul\":4294:4297   */\n      dup3\n        /* \"#utility.yul\":4290:4302   */\n      add\n        /* \"#utility.yul\":4283:4302   */\n      swap1\n      pop\n        /* \"#utility.yul\":4088:4308   */\n      swap2\n      swap1\n      pop\n      jump\t// out\n        /* \"#utility.yul\":4314:4680   */\n    tag_327:\n      0x00\n        /* \"#utility.yul\":4477:4544   */\n      tag_329\n        /* \"#utility.yul\":4541:4543   */\n      0x28\n        /* \"#utility.yul\":4536:4539   */\n      dup4\n        /* \"#utility.yul\":4477:4544   */\n      tag_302\n      jump\t// in\n    tag_329:\n        /* \"#utility.yul\":4470:4544   */\n      swap2\n      pop\n        /* \"#utility.yul\":4553:4646   */\n      tag_330\n        /* \"#utility.yul\":4642:4645   */\n      dup3\n        /* \"#utility.yul\":4553:4646   */\n      tag_331\n      jump\t// in\n    tag_330:\n        /* \"#utility.yul\":4671:4673   */\n      0x40\n        /* \"#utility.yul\":4666:4669   */\n      dup3\n        /* \"#utility.yul\":4662:4674   */\n      add\n        /* \"#utility.yul\":4655:4674   */\n      swap1\n      pop\n        /* \"#utility.yul\":4460:4680   */\n      swap2\n      swap1\n      pop\n      jump\t// out\n        /* \"#utility.yul\":4686:5052   */\n    tag_332:\n      0x00\n        /* \"#utility.yul\":4849:4916   */\n      tag_334\n        /* \"#utility.yul\":4913:4915   */\n      0x2f\n        /* \"#utility.yul\":4908:4911   */\n      dup4\n        /* \"#utility.yul\":4849:4916   */\n      tag_302\n      jump\t// in\n    tag_334:\n        /* \"#utility.yul\":4842:4916   */\n      swap2\n      pop\n        /* \"#utility.yul\":4925:5018   */\n      tag_335\n        /* \"#utility.yul\":5014:5017   */\n      dup3\n        /* \"#utility.yul\":4925:5018   */\n      tag_336\n      jump\t// in\n    tag_335:\n        /* \"#utility.yul\":5043:5045   */\n      0x40\n        /* \"#utility.yul\":5038:5041   */\n      dup3\n        /* \"#utility.yul\":5034:5046   */\n      add\n        /* \"#utility.yul\":5027:5046   */\n      swap1\n      pop\n        /* \"#utility.yul\":4832:5052   */\n      swap2\n      swap1\n      pop\n      jump\t// out\n        /* \"#utility.yul\":5058:5424   */\n    tag_337:\n      0x00\n        /* \"#utility.yul\":5221:5288   */\n      tag_339\n        /* \"#utility.yul\":5285:5287   */\n      0x28\n        /* \"#utility.yul\":5280:5283   */\n      dup4\n        /* \"#utility.yul\":5221:5288   */\n      tag_302\n      jump\t// in\n    tag_339:\n        /* \"#utility.yul\":5214:5288   */\n      swap2\n      pop\n        /* \"#utility.yul\":5297:5390   */\n      tag_340\n        /* \"#utility.yul\":5386:5389   */\n      dup3\n        /* \"#utility.yul\":5297:5390   */\n      tag_341\n      jump\t// in\n    tag_340:\n        /* \"#utility.yul\":5415:5417   */\n      0x40\n        /* \"#utility.yul\":5410:5413   */\n      dup3\n        /* \"#utility.yul\":5406:5418   */\n      add\n        /* \"#utility.yul\":5399:5418   */\n      swap1\n      pop\n        /* \"#utility.yul\":5204:5424   */\n      swap2\n      swap1\n      pop\n      jump\t// out\n        /* \"#utility.yul\":5430:5796   */\n    tag_342:\n      0x00\n        /* \"#utility.yul\":5593:5660   */\n      tag_344\n        /* \"#utility.yul\":5657:5659   */\n      0x20\n        /* \"#utility.yul\":5652:5655   */\n      dup4\n        /* \"#utility.yul\":5593:5660   */\n      tag_302\n      jump\t// in\n    tag_344:\n        /* \"#utility.yul\":5586:5660   */\n      swap2\n      pop\n        /* \"#utility.yul\":5669:5762   */\n      tag_345\n        /* \"#utility.yul\":5758:5761   */\n      dup3\n        /* \"#utility.yul\":5669:5762   */\n      tag_346\n      jump\t// in\n    tag_345:\n        /* \"#utility.yul\":5787:5789   */\n      0x20\n        /* \"#utility.yul\":5782:5785   */\n      dup3\n        /* \"#utility.yul\":5778:5790   */\n      add\n        /* \"#utility.yul\":5771:5790   */\n      swap1\n      pop\n        /* \"#utility.yul\":5576:5796   */\n      swap2\n      swap1\n      pop\n      jump\t// out\n        /* \"#utility.yul\":5802:6168   */\n    tag_347:\n      0x00\n        /* \"#utility.yul\":5965:6032   */\n      tag_349\n        /* \"#utility.yul\":6029:6031   */\n      0x25\n        /* \"#utility.yul\":6024:6027   */\n      dup4\n        /* \"#utility.yul\":5965:6032   */\n      tag_302\n      jump\t// in\n    tag_349:\n        /* \"#utility.yul\":5958:6032   */\n      swap2\n      pop\n        /* \"#utility.yul\":6041:6134   */\n      tag_350\n        /* \"#utility.yul\":6130:6133   */\n      dup3\n        /* \"#utility.yul\":6041:6134   */\n      tag_351\n      jump\t// in\n    tag_350:\n        /* \"#utility.yul\":6159:6161   */\n      0x40\n        /* \"#utility.yul\":6154:6157   */\n      dup3\n        /* \"#utility.yul\":6150:6162   */\n      add\n        /* \"#utility.yul\":6143:6162   */\n      swap1\n      pop\n        /* \"#utility.yul\":5948:6168   */\n      swap2\n      swap1\n      pop\n      jump\t// out\n        /* \"#utility.yul\":6174:6540   */\n    tag_352:\n      0x00\n        /* \"#utility.yul\":6337:6404   */\n      tag_354\n        /* \"#utility.yul\":6401:6403   */\n      0x1f\n        /* \"#utility.yul\":6396:6399   */\n      dup4\n        /* \"#utility.yul\":6337:6404   */\n      tag_302\n      jump\t// in\n    tag_354:\n        /* \"#utility.yul\":6330:6404   */\n      swap2\n      pop\n        /* \"#utility.yul\":6413:6506   */\n      tag_355\n        /* \"#utility.yul\":6502:6505   */\n      dup3\n        /* \"#utility.yul\":6413:6506   */\n      tag_356\n      jump\t// in\n    tag_355:\n        /* \"#utility.yul\":6531:6533   */\n      0x20\n        /* \"#utility.yul\":6526:6529   */\n      dup3\n        /* \"#utility.yul\":6522:6534   */\n      add\n        /* \"#utility.yul\":6515:6534   */\n      swap1\n      pop\n        /* \"#utility.yul\":6320:6540   */\n      swap2\n      swap1\n      pop\n      jump\t// out\n        /* \"#utility.yul\":6546:6912   */\n    tag_357:\n      0x00\n        /* \"#utility.yul\":6709:6776   */\n      tag_359\n        /* \"#utility.yul\":6773:6775   */\n      0x24\n        /* \"#utility.yul\":6768:6771   */\n      dup4\n        /* \"#utility.yul\":6709:6776   */\n      tag_302\n      jump\t// in\n    tag_359:\n        /* \"#utility.yul\":6702:6776   */\n      swap2\n      pop\n        /* \"#utility.yul\":6785:6878   */\n      tag_360\n        /* \"#utility.yul\":6874:6877   */\n      dup3\n        /* \"#utility.yul\":6785:6878   */\n      tag_361\n      jump\t// in\n    tag_360:\n        /* \"#utility.yul\":6903:6905   */\n      0x40\n        /* \"#utility.yul\":6898:6901   */\n      dup3\n        /* \"#utility.yul\":6894:6906   */\n      add\n        /* \"#utility.yul\":6887:6906   */\n      swap1\n      pop\n        /* \"#utility.yul\":6692:6912   */\n      swap2\n      swap1\n      pop\n      jump\t// out\n        /* \"#utility.yul\":6918:7284   */\n    tag_362:\n      0x00\n        /* \"#utility.yul\":7081:7148   */\n      tag_364\n        /* \"#utility.yul\":7145:7147   */\n      0x2e\n        /* \"#utility.yul\":7140:7143   */\n      dup4\n        /* \"#utility.yul\":7081:7148   */\n      tag_302\n      jump\t// in\n    tag_364:\n        /* \"#utility.yul\":7074:7148   */\n      swap2\n      pop\n        /* \"#utility.yul\":7157:7250   */\n      tag_365\n        /* \"#utility.yul\":7246:7249   */\n      dup3\n        /* \"#utility.yul\":7157:7250   */\n      tag_366\n      jump\t// in\n    tag_365:\n        /* \"#utility.yul\":7275:7277   */\n      0x40\n        /* \"#utility.yul\":7270:7273   */\n      dup3\n        /* \"#utility.yul\":7266:7278   */\n      add\n        /* \"#utility.yul\":7259:7278   */\n      swap1\n      pop\n        /* \"#utility.yul\":7064:7284   */\n      swap2\n      swap1\n      pop\n      jump\t// out\n        /* \"#utility.yul\":7290:7656   */\n    tag_367:\n      0x00\n        /* \"#utility.yul\":7453:7520   */\n      tag_369\n        /* \"#utility.yul\":7517:7519   */\n      0x25\n        /* \"#utility.yul\":7512:7515   */\n      dup4\n        /* \"#utility.yul\":7453:7520   */\n      tag_302\n      jump\t// in\n    tag_369:\n        /* \"#utility.yul\":7446:7520   */\n      swap2\n      pop\n        /* \"#utility.yul\":7529:7622   */\n      tag_370\n        /* \"#utility.yul\":7618:7621   */\n      dup3\n        /* \"#utility.yul\":7529:7622   */\n      tag_371\n      jump\t// in\n    tag_370:\n        /* \"#utility.yul\":7647:7649   */\n      0x40\n        /* \"#utility.yul\":7642:7645   */\n      dup3\n        /* \"#utility.yul\":7638:7650   */\n      add\n        /* \"#utility.yul\":7631:7650   */\n      swap1\n      pop\n        /* \"#utility.yul\":7436:7656   */\n      swap2\n      swap1\n      pop\n      jump\t// out\n        /* \"#utility.yul\":7662:8028   */\n    tag_372:\n      0x00\n        /* \"#utility.yul\":7825:7892   */\n      tag_374\n        /* \"#utility.yul\":7889:7891   */\n      0x1f\n        /* \"#utility.yul\":7884:7887   */\n      dup4\n        /* \"#utility.yul\":7825:7892   */\n      tag_302\n      jump\t// in\n    tag_374:\n        /* \"#utility.yul\":7818:7892   */\n      swap2\n      pop\n        /* \"#utility.yul\":7901:7994   */\n      tag_375\n        /* \"#utility.yul\":7990:7993   */\n      dup3\n        /* \"#utility.yul\":7901:7994   */\n      tag_376\n      jump\t// in\n    tag_375:\n        /* \"#utility.yul\":8019:8021   */\n      0x20\n        /* \"#utility.yul\":8014:8017   */\n      dup3\n        /* \"#utility.yul\":8010:8022   */\n      add\n        /* \"#utility.yul\":8003:8022   */\n      swap1\n      pop\n        /* \"#utility.yul\":7808:8028   */\n      swap2\n      swap1\n      pop\n      jump\t// out\n        /* \"#utility.yul\":8034:8152   */\n    tag_377:\n        /* \"#utility.yul\":8121:8145   */\n      tag_379\n        /* \"#utility.yul\":8139:8144   */\n      dup2\n        /* \"#utility.yul\":8121:8145   */\n      tag_380\n      jump\t// in\n    tag_379:\n        /* \"#utility.yul\":8116:8119   */\n      dup3\n        /* \"#utility.yul\":8109:8146   */\n      mstore\n        /* \"#utility.yul\":8099:8152   */\n      pop\n      pop\n      jump\t// out\n        /* \"#utility.yul\":8158:8270   */\n    tag_381:\n        /* \"#utility.yul\":8241:8263   */\n      tag_383\n        /* \"#utility.yul\":8257:8262   */\n      dup2\n        /* \"#utility.yul\":8241:8263   */\n      tag_384\n      jump\t// in\n    tag_383:\n        /* \"#utility.yul\":8236:8239   */\n      dup3\n        /* \"#utility.yul\":8229:8264   */\n      mstore\n        /* \"#utility.yul\":8219:8270   */\n      pop\n      pop\n      jump\t// out\n        /* \"#utility.yul\":8276:8498   */\n    tag_82:\n      0x00\n        /* \"#utility.yul\":8407:8409   */\n      0x20\n        /* \"#utility.yul\":8396:8405   */\n      dup3\n        /* \"#utility.yul\":8392:8410   */\n      add\n        /* \"#utility.yul\":8384:8410   */\n      swap1\n      pop\n        /* \"#utility.yul\":8420:8491   */\n      tag_386\n        /* \"#utility.yul\":8488:8489   */\n      0x00\n        /* \"#utility.yul\":8477:8486   */\n      dup4\n        /* \"#utility.yul\":8473:8490   */\n      add\n        /* \"#utility.yul\":8464:8470   */\n      dup5\n        /* \"#utility.yul\":8420:8491   */\n      tag_289\n      jump\t// in\n    tag_386:\n        /* \"#utility.yul\":8374:8498   */\n      swap3\n      swap2\n      pop\n      pop\n      jump\t// out\n        /* \"#utility.yul\":8504:8714   */\n    tag_35:\n      0x00\n        /* \"#utility.yul\":8629:8631   */\n      0x20\n        /* \"#utility.yul\":8618:8627   */\n      dup3\n        /* \"#utility.yul\":8614:8632   */\n      add\n        /* \"#utility.yul\":8606:8632   */\n      swap1\n      pop\n        /* \"#utility.yul\":8642:8707   */\n      tag_388\n        /* \"#utility.yul\":8704:8705   */\n      0x00\n        /* \"#utility.yul\":8693:8702   */\n      dup4\n        /* \"#utility.yul\":8689:8706   */\n      add\n        /* \"#utility.yul\":8680:8686   */\n      dup5\n        /* \"#utility.yul\":8642:8707   */\n      tag_293\n      jump\t// in\n    tag_388:\n        /* \"#utility.yul\":8596:8714   */\n      swap3\n      swap2\n      pop\n      pop\n      jump\t// out\n        /* \"#utility.yul\":8720:9033   */\n    tag_28:\n      0x00\n        /* \"#utility.yul\":8871:8873   */\n      0x20\n        /* \"#utility.yul\":8860:8869   */\n      dup3\n        /* \"#utility.yul\":8856:8874   */\n      add\n        /* \"#utility.yul\":8848:8874   */\n      swap1\n      pop\n        /* \"#utility.yul\":8920:8929   */\n      dup2\n        /* \"#utility.yul\":8914:8918   */\n      dup2\n        /* \"#utility.yul\":8910:8930   */\n      sub\n        /* \"#utility.yul\":8906:8907   */\n      0x00\n        /* \"#utility.yul\":8895:8904   */\n      dup4\n        /* \"#utility.yul\":8891:8908   */\n      add\n        /* \"#utility.yul\":8884:8931   */\n      mstore\n        /* \"#utility.yul\":8948:9026   */\n      tag_390\n        /* \"#utility.yul\":9021:9025   */\n      dup2\n        /* \"#utility.yul\":9012:9018   */\n      dup5\n        /* \"#utility.yul\":8948:9026   */\n      tag_297\n      jump\t// in\n    tag_390:\n        /* \"#utility.yul\":8940:9026   */\n      swap1\n      pop\n        /* \"#utility.yul\":8838:9033   */\n      swap3\n      swap2\n      pop\n      pop\n      jump\t// out\n        /* \"#utility.yul\":9039:9458   */\n    tag_236:\n      0x00\n        /* \"#utility.yul\":9243:9245   */\n      0x20\n        /* \"#utility.yul\":9232:9241   */\n      dup3\n        /* \"#utility.yul\":9228:9246   */\n      add\n        /* \"#utility.yul\":9220:9246   */\n      swap1\n      pop\n        /* \"#utility.yul\":9292:9301   */\n      dup2\n        /* \"#utility.yul\":9286:9290   */\n      dup2\n        /* \"#utility.yul\":9282:9302   */\n      sub\n        /* \"#utility.yul\":9278:9279   */\n      0x00\n        /* \"#utility.yul\":9267:9276   */\n      dup4\n        /* \"#utility.yul\":9263:9280   */\n      add\n        /* \"#utility.yul\":9256:9303   */\n      mstore\n        /* \"#utility.yul\":9320:9451   */\n      tag_392\n        /* \"#utility.yul\":9446:9450   */\n      dup2\n        /* \"#utility.yul\":9320:9451   */\n      tag_307\n      jump\t// in\n    tag_392:\n        /* \"#utility.yul\":9312:9451   */\n      swap1\n      pop\n        /* \"#utility.yul\":9210:9458   */\n      swap2\n      swap1\n      pop\n      jump\t// out\n        /* \"#utility.yul\":9464:9883   */\n    tag_217:\n      0x00\n        /* \"#utility.yul\":9668:9670   */\n      0x20\n        /* \"#utility.yul\":9657:9666   */\n      dup3\n        /* \"#utility.yul\":9653:9671   */\n      add\n        /* \"#utility.yul\":9645:9671   */\n      swap1\n      pop\n        /* \"#utility.yul\":9717:9726   */\n      dup2\n        /* \"#utility.yul\":9711:9715   */\n      dup2\n        /* \"#utility.yul\":9707:9727   */\n      sub\n        /* \"#utility.yul\":9703:9704   */\n      0x00\n        /* \"#utility.yul\":9692:9701   */\n      dup4\n        /* \"#utility.yul\":9688:9705   */\n      add\n        /* \"#utility.yul\":9681:9728   */\n      mstore\n        /* \"#utility.yul\":9745:9876   */\n      tag_394\n        /* \"#utility.yul\":9871:9875   */\n      dup2\n        /* \"#utility.yul\":9745:9876   */\n      tag_312\n      jump\t// in\n    tag_394:\n        /* \"#utility.yul\":9737:9876   */\n      swap1\n      pop\n        /* \"#utility.yul\":9635:9883   */\n      swap2\n      swap1\n      pop\n      jump\t// out\n        /* \"#utility.yul\":9889:10308   */\n    tag_228:\n      0x00\n        /* \"#utility.yul\":10093:10095   */\n      0x20\n        /* \"#utility.yul\":10082:10091   */\n      dup3\n        /* \"#utility.yul\":10078:10096   */\n      add\n        /* \"#utility.yul\":10070:10096   */\n      swap1\n      pop\n        /* \"#utility.yul\":10142:10151   */\n      dup2\n        /* \"#utility.yul\":10136:10140   */\n      dup2\n        /* \"#utility.yul\":10132:10152   */\n      sub\n        /* \"#utility.yul\":10128:10129   */\n      0x00\n        /* \"#utility.yul\":10117:10126   */\n      dup4\n        /* \"#utility.yul\":10113:10130   */\n      add\n        /* \"#utility.yul\":10106:10153   */\n      mstore\n        /* \"#utility.yul\":10170:10301   */\n      tag_396\n        /* \"#utility.yul\":10296:10300   */\n      dup2\n        /* \"#utility.yul\":10170:10301   */\n      tag_317\n      jump\t// in\n    tag_396:\n        /* \"#utility.yul\":10162:10301   */\n      swap1\n      pop\n        /* \"#utility.yul\":10060:10308   */\n      swap2\n      swap1\n      pop\n      jump\t// out\n        /* \"#utility.yul\":10314:10733   */\n    tag_241:\n      0x00\n        /* \"#utility.yul\":10518:10520   */\n      0x20\n        /* \"#utility.yul\":10507:10516   */\n      dup3\n        /* \"#utility.yul\":10503:10521   */\n      add\n        /* \"#utility.yul\":10495:10521   */\n      swap1\n      pop\n        /* \"#utility.yul\":10567:10576   */\n      dup2\n        /* \"#utility.yul\":10561:10565   */\n      dup2\n        /* \"#utility.yul\":10557:10577   */\n      sub\n        /* \"#utility.yul\":10553:10554   */\n      0x00\n        /* \"#utility.yul\":10542:10551   */\n      dup4\n        /* \"#utility.yul\":10538:10555   */\n      add\n        /* \"#utility.yul\":10531:10578   */\n      mstore\n        /* \"#utility.yul\":10595:10726   */\n      tag_398\n        /* \"#utility.yul\":10721:10725   */\n      dup2\n        /* \"#utility.yul\":10595:10726   */\n      tag_322\n      jump\t// in\n    tag_398:\n        /* \"#utility.yul\":10587:10726   */\n      swap1\n      pop\n        /* \"#utility.yul\":10485:10733   */\n      swap2\n      swap1\n      pop\n      jump\t// out\n        /* \"#utility.yul\":10739:11158   */\n    tag_160:\n      0x00\n        /* \"#utility.yul\":10943:10945   */\n      0x20\n        /* \"#utility.yul\":10932:10941   */\n      dup3\n        /* \"#utility.yul\":10928:10946   */\n      add\n        /* \"#utility.yul\":10920:10946   */\n      swap1\n      pop\n        /* \"#utility.yul\":10992:11001   */\n      dup2\n        /* \"#utility.yul\":10986:10990   */\n      dup2\n        /* \"#utility.yul\":10982:11002   */\n      sub\n        /* \"#utility.yul\":10978:10979   */\n      0x00\n        /* \"#utility.yul\":10967:10976   */\n      dup4\n        /* \"#utility.yul\":10963:10980   */\n      add\n        /* \"#utility.yul\":10956:11003   */\n      mstore\n        /* \"#utility.yul\":11020:11151   */\n      tag_400\n        /* \"#utility.yul\":11146:11150   */\n      dup2\n        /* \"#utility.yul\":11020:11151   */\n      tag_327\n      jump\t// in\n    tag_400:\n        /* \"#utility.yul\":11012:11151   */\n      swap1\n      pop\n        /* \"#utility.yul\":10910:11158   */\n      swap2\n      swap1\n      pop\n      jump\t// out\n        /* \"#utility.yul\":11164:11583   */\n    tag_174:\n      0x00\n        /* \"#utility.yul\":11368:11370   */\n      0x20\n        /* \"#utility.yul\":11357:11366   */\n      dup3\n        /* \"#utility.yul\":11353:11371   */\n      add\n        /* \"#utility.yul\":11345:11371   */\n      swap1\n      pop\n        /* \"#utility.yul\":11417:11426   */\n      dup2\n        /* \"#utility.yul\":11411:11415   */\n      dup2\n        /* \"#utility.yul\":11407:11427   */\n      sub\n        /* \"#utility.yul\":11403:11404   */\n      0x00\n        /* \"#utility.yul\":11392:11401   */\n      dup4\n        /* \"#utility.yul\":11388:11405   */\n      add\n        /* \"#utility.yul\":11381:11428   */\n      mstore\n        /* \"#utility.yul\":11445:11576   */\n      tag_402\n        /* \"#utility.yul\":11571:11575   */\n      dup2\n        /* \"#utility.yul\":11445:11576   */\n      tag_332\n      jump\t// in\n    tag_402:\n        /* \"#utility.yul\":11437:11576   */\n      swap1\n      pop\n        /* \"#utility.yul\":11335:11583   */\n      swap2\n      swap1\n      pop\n      jump\t// out\n        /* \"#utility.yul\":11589:12008   */\n    tag_135:\n      0x00\n        /* \"#utility.yul\":11793:11795   */\n      0x20\n        /* \"#utility.yul\":11782:11791   */\n      dup3\n        /* \"#utility.yul\":11778:11796   */\n      add\n        /* \"#utility.yul\":11770:11796   */\n      swap1\n      pop\n        /* \"#utility.yul\":11842:11851   */\n      dup2\n        /* \"#utility.yul\":11836:11840   */\n      dup2\n        /* \"#utility.yul\":11832:11852   */\n      sub\n        /* \"#utility.yul\":11828:11829   */\n      0x00\n        /* \"#utility.yul\":11817:11826   */\n      dup4\n        /* \"#utility.yul\":11813:11830   */\n      add\n        /* \"#utility.yul\":11806:11853   */\n      mstore\n        /* \"#utility.yul\":11870:12001   */\n      tag_404\n        /* \"#utility.yul\":11996:12000   */\n      dup2\n        /* \"#utility.yul\":11870:12001   */\n      tag_337\n      jump\t// in\n    tag_404:\n        /* \"#utility.yul\":11862:12001   */\n      swap1\n      pop\n        /* \"#utility.yul\":11760:12008   */\n      swap2\n      swap1\n      pop\n      jump\t// out\n        /* \"#utility.yul\":12014:12433   */\n    tag_151:\n      0x00\n        /* \"#utility.yul\":12218:12220   */\n      0x20\n        /* \"#utility.yul\":12207:12216   */\n      dup3\n        /* \"#utility.yul\":12203:12221   */\n      add\n        /* \"#utility.yul\":12195:12221   */\n      swap1\n      pop\n        /* \"#utility.yul\":12267:12276   */\n      dup2\n        /* \"#utility.yul\":12261:12265   */\n      dup2\n        /* \"#utility.yul\":12257:12277   */\n      sub\n        /* \"#utility.yul\":12253:12254   */\n      0x00\n        /* \"#utility.yul\":12242:12251   */\n      dup4\n        /* \"#utility.yul\":12238:12255   */\n      add\n        /* \"#utility.yul\":12231:12278   */\n      mstore\n        /* \"#utility.yul\":12295:12426   */\n      tag_406\n        /* \"#utility.yul\":12421:12425   */\n      dup2\n        /* \"#utility.yul\":12295:12426   */\n      tag_342\n      jump\t// in\n    tag_406:\n        /* \"#utility.yul\":12287:12426   */\n      swap1\n      pop\n        /* \"#utility.yul\":12185:12433   */\n      swap2\n      swap1\n      pop\n      jump\t// out\n        /* \"#utility.yul\":12439:12858   */\n    tag_233:\n      0x00\n        /* \"#utility.yul\":12643:12645   */\n      0x20\n        /* \"#utility.yul\":12632:12641   */\n      dup3\n        /* \"#utility.yul\":12628:12646   */\n      add\n        /* \"#utility.yul\":12620:12646   */\n      swap1\n      pop\n        /* \"#utility.yul\":12692:12701   */\n      dup2\n        /* \"#utility.yul\":12686:12690   */\n      dup2\n        /* \"#utility.yul\":12682:12702   */\n      sub\n        /* \"#utility.yul\":12678:12679   */\n      0x00\n        /* \"#utility.yul\":12667:12676   */\n      dup4\n        /* \"#utility.yul\":12663:12680   */\n      add\n        /* \"#utility.yul\":12656:12703   */\n      mstore\n        /* \"#utility.yul\":12720:12851   */\n      tag_408\n        /* \"#utility.yul\":12846:12850   */\n      dup2\n        /* \"#utility.yul\":12720:12851   */\n      tag_347\n      jump\t// in\n    tag_408:\n        /* \"#utility.yul\":12712:12851   */\n      swap1\n      pop\n        /* \"#utility.yul\":12610:12858   */\n      swap2\n      swap1\n      pop\n      jump\t// out\n        /* \"#utility.yul\":12864:13283   */\n    tag_164:\n      0x00\n        /* \"#utility.yul\":13068:13070   */\n      0x20\n        /* \"#utility.yul\":13057:13066   */\n      dup3\n        /* \"#utility.yul\":13053:13071   */\n      add\n        /* \"#utility.yul\":13045:13071   */\n      swap1\n      pop\n        /* \"#utility.yul\":13117:13126   */\n      dup2\n        /* \"#utility.yul\":13111:13115   */\n      dup2\n        /* \"#utility.yul\":13107:13127   */\n      sub\n        /* \"#utility.yul\":13103:13104   */\n      0x00\n        /* \"#utility.yul\":13092:13101   */\n      dup4\n        /* \"#utility.yul\":13088:13105   */\n      add\n        /* \"#utility.yul\":13081:13128   */\n      mstore\n        /* \"#utility.yul\":13145:13276   */\n      tag_410\n        /* \"#utility.yul\":13271:13275   */\n      dup2\n        /* \"#utility.yul\":13145:13276   */\n      tag_352\n      jump\t// in\n    tag_410:\n        /* \"#utility.yul\":13137:13276   */\n      swap1\n      pop\n        /* \"#utility.yul\":13035:13283   */\n      swap2\n      swap1\n      pop\n      jump\t// out\n        /* \"#utility.yul\":13289:13708   */\n    tag_225:\n      0x00\n        /* \"#utility.yul\":13493:13495   */\n      0x20\n        /* \"#utility.yul\":13482:13491   */\n      dup3\n        /* \"#utility.yul\":13478:13496   */\n      add\n        /* \"#utility.yul\":13470:13496   */\n      swap1\n      pop\n        /* \"#utility.yul\":13542:13551   */\n      dup2\n        /* \"#utility.yul\":13536:13540   */\n      dup2\n        /* \"#utility.yul\":13532:13552   */\n      sub\n        /* \"#utility.yul\":13528:13529   */\n      0x00\n        /* \"#utility.yul\":13517:13526   */\n      dup4\n        /* \"#utility.yul\":13513:13530   */\n      add\n        /* \"#utility.yul\":13506:13553   */\n      mstore\n        /* \"#utility.yul\":13570:13701   */\n      tag_412\n        /* \"#utility.yul\":13696:13700   */\n      dup2\n        /* \"#utility.yul\":13570:13701   */\n      tag_357\n      jump\t// in\n    tag_412:\n        /* \"#utility.yul\":13562:13701   */\n      swap1\n      pop\n        /* \"#utility.yul\":13460:13708   */\n      swap2\n      swap1\n      pop\n      jump\t// out\n        /* \"#utility.yul\":13714:14133   */\n    tag_178:\n      0x00\n        /* \"#utility.yul\":13918:13920   */\n      0x20\n        /* \"#utility.yul\":13907:13916   */\n      dup3\n        /* \"#utility.yul\":13903:13921   */\n      add\n        /* \"#utility.yul\":13895:13921   */\n      swap1\n      pop\n        /* \"#utility.yul\":13967:13976   */\n      dup2\n        /* \"#utility.yul\":13961:13965   */\n      dup2\n        /* \"#utility.yul\":13957:13977   */\n      sub\n        /* \"#utility.yul\":13953:13954   */\n      0x00\n        /* \"#utility.yul\":13942:13951   */\n      dup4\n        /* \"#utility.yul\":13938:13955   */\n      add\n        /* \"#utility.yul\":13931:13978   */\n      mstore\n        /* \"#utility.yul\":13995:14126   */\n      tag_414\n        /* \"#utility.yul\":14121:14125   */\n      dup2\n        /* \"#utility.yul\":13995:14126   */\n      tag_362\n      jump\t// in\n    tag_414:\n        /* \"#utility.yul\":13987:14126   */\n      swap1\n      pop\n        /* \"#utility.yul\":13885:14133   */\n      swap2\n      swap1\n      pop\n      jump\t// out\n        /* \"#utility.yul\":14139:14558   */\n    tag_202:\n      0x00\n        /* \"#utility.yul\":14343:14345   */\n      0x20\n        /* \"#utility.yul\":14332:14341   */\n      dup3\n        /* \"#utility.yul\":14328:14346   */\n      add\n        /* \"#utility.yul\":14320:14346   */\n      swap1\n      pop\n        /* \"#utility.yul\":14392:14401   */\n      dup2\n        /* \"#utility.yul\":14386:14390   */\n      dup2\n        /* \"#utility.yul\":14382:14402   */\n      sub\n        /* \"#utility.yul\":14378:14379   */\n      0x00\n        /* \"#utility.yul\":14367:14376   */\n      dup4\n        /* \"#utility.yul\":14363:14380   */\n      add\n        /* \"#utility.yul\":14356:14403   */\n      mstore\n        /* \"#utility.yul\":14420:14551   */\n      tag_416\n        /* \"#utility.yul\":14546:14550   */\n      dup2\n        /* \"#utility.yul\":14420:14551   */\n      tag_367\n      jump\t// in\n    tag_416:\n        /* \"#utility.yul\":14412:14551   */\n      swap1\n      pop\n        /* \"#utility.yul\":14310:14558   */\n      swap2\n      swap1\n      pop\n      jump\t// out\n        /* \"#utility.yul\":14564:14983   */\n    tag_253:\n      0x00\n        /* \"#utility.yul\":14768:14770   */\n      0x20\n        /* \"#utility.yul\":14757:14766   */\n      dup3\n        /* \"#utility.yul\":14753:14771   */\n      add\n        /* \"#utility.yul\":14745:14771   */\n      swap1\n      pop\n        /* \"#utility.yul\":14817:14826   */\n      dup2\n        /* \"#utility.yul\":14811:14815   */\n      dup2\n        /* \"#utility.yul\":14807:14827   */\n      sub\n        /* \"#utility.yul\":14803:14804   */\n      0x00\n        /* \"#utility.yul\":14792:14801   */\n      dup4\n        /* \"#utility.yul\":14788:14805   */\n      add\n        /* \"#utility.yul\":14781:14828   */\n      mstore\n        /* \"#utility.yul\":14845:14976   */\n      tag_418\n        /* \"#utility.yul\":14971:14975   */\n      dup2\n        /* \"#utility.yul\":14845:14976   */\n      tag_372\n      jump\t// in\n    tag_418:\n        /* \"#utility.yul\":14837:14976   */\n      swap1\n      pop\n        /* \"#utility.yul\":14735:14983   */\n      swap2\n      swap1\n      pop\n      jump\t// out\n        /* \"#utility.yul\":14989:15211   */\n    tag_40:\n      0x00\n        /* \"#utility.yul\":15120:15122   */\n      0x20\n        /* \"#utility.yul\":15109:15118   */\n      dup3\n        /* \"#utility.yul\":15105:15123   */\n      add\n        /* \"#utility.yul\":15097:15123   */\n      swap1\n      pop\n        /* \"#utility.yul\":15133:15204   */\n      tag_420\n        /* \"#utility.yul\":15201:15202   */\n      0x00\n        /* \"#utility.yul\":15190:15199   */\n      dup4\n        /* \"#utility.yul\":15186:15203   */\n      add\n        /* \"#utility.yul\":15177:15183   */\n      dup5\n        /* \"#utility.yul\":15133:15204   */\n      tag_377\n      jump\t// in\n    tag_420:\n        /* \"#utility.yul\":15087:15211   */\n      swap3\n      swap2\n      pop\n      pop\n      jump\t// out\n        /* \"#utility.yul\":15217:15431   */\n    tag_51:\n      0x00\n        /* \"#utility.yul\":15344:15346   */\n      0x20\n        /* \"#utility.yul\":15333:15342   */\n      dup3\n        /* \"#utility.yul\":15329:15347   */\n      add\n        /* \"#utility.yul\":15321:15347   */\n      swap1\n      pop\n        /* \"#utility.yul\":15357:15424   */\n      tag_422\n        /* \"#utility.yul\":15421:15422   */\n      0x00\n        /* \"#utility.yul\":15410:15419   */\n      dup4\n        /* \"#utility.yul\":15406:15423   */\n      add\n        /* \"#utility.yul\":15397:15403   */\n      dup5\n        /* \"#utility.yul\":15357:15424   */\n      tag_381\n      jump\t// in\n    tag_422:\n        /* \"#utility.yul\":15311:15431   */\n      swap3\n      swap2\n      pop\n      pop\n      jump\t// out\n        /* \"#utility.yul\":15437:15536   */\n    tag_300:\n      0x00\n        /* \"#utility.yul\":15523:15528   */\n      dup2\n        /* \"#utility.yul\":15517:15529   */\n      mload\n        /* \"#utility.yul\":15507:15529   */\n      swap1\n      pop\n        /* \"#utility.yul\":15496:15536   */\n      swap2\n      swap1\n      pop\n      jump\t// out\n        /* \"#utility.yul\":15542:15711   */\n    tag_302:\n      0x00\n        /* \"#utility.yul\":15660:15666   */\n      dup3\n        /* \"#utility.yul\":15655:15658   */\n      dup3\n        /* \"#utility.yul\":15648:15667   */\n      mstore\n        /* \"#utility.yul\":15700:15704   */\n      0x20\n        /* \"#utility.yul\":15695:15698   */\n      dup3\n        /* \"#utility.yul\":15691:15705   */\n      add\n        /* \"#utility.yul\":15676:15705   */\n      swap1\n      pop\n        /* \"#utility.yul\":15638:15711   */\n      swap3\n      swap2\n      pop\n      pop\n      jump\t// out\n        /* \"#utility.yul\":15717:16022   */\n    tag_144:\n      0x00\n        /* \"#utility.yul\":15776:15796   */\n      tag_426\n        /* \"#utility.yul\":15794:15795   */\n      dup3\n        /* \"#utility.yul\":15776:15796   */\n      tag_380\n      jump\t// in\n    tag_426:\n        /* \"#utility.yul\":15771:15796   */\n      swap2\n      pop\n        /* \"#utility.yul\":15810:15830   */\n      tag_427\n        /* \"#utility.yul\":15828:15829   */\n      dup4\n        /* \"#utility.yul\":15810:15830   */\n      tag_380\n      jump\t// in\n    tag_427:\n        /* \"#utility.yul\":15805:15830   */\n      swap3\n      pop\n        /* \"#utility.yul\":15964:15965   */\n      dup3\n        /* \"#utility.yul\":15896:15962   */\n      0xffffffffffffffffffffffffffffffffffffffffffffffffffffffffffffffff\n        /* \"#utility.yul\":15892:15966   */\n      sub\n        /* \"#utility.yul\":15889:15890   */\n      dup3\n        /* \"#utility.yul\":15886:15967   */\n      gt\n        /* \"#utility.yul\":15883:15885   */\n      iszero\n      tag_428\n      jumpi\n        /* \"#utility.yul\":15970:15988   */\n      tag_429\n      tag_430\n      jump\t// in\n    tag_429:\n        /* \"#utility.yul\":15883:15885   */\n    tag_428:\n        /* \"#utility.yul\":16014:16015   */\n      dup3\n        /* \"#utility.yul\":16011:16012   */\n      dup3\n        /* \"#utility.yul\":16007:16016   */\n      add\n        /* \"#utility.yul\":16000:16016   */\n      swap1\n      pop\n        /* \"#utility.yul\":15761:16022   */\n      swap3\n      swap2\n      pop\n      pop\n      jump\t// out\n        /* \"#utility.yul\":16028:16376   */\n    tag_249:\n      0x00\n        /* \"#utility.yul\":16091:16111   */\n      tag_432\n        /* \"#utility.yul\":16109:16110   */\n      dup3\n        /* \"#utility.yul\":16091:16111   */\n      tag_380\n      jump\t// in\n    tag_432:\n        /* \"#utility.yul\":16086:16111   */\n      swap2\n      pop\n        /* \"#utility.yul\":16125:16145   */\n      tag_433\n        /* \"#utility.yul\":16143:16144   */\n      dup4\n        /* \"#utility.yul\":16125:16145   */\n      tag_380\n      jump\t// in\n    tag_433:\n        /* \"#utility.yul\":16120:16145   */\n      swap3\n      pop\n        /* \"#utility.yul\":16313:16314   */\n      dup2\n        /* \"#utility.yul\":16245:16311   */\n      0xffffffffffffffffffffffffffffffffffffffffffffffffffffffffffffffff\n        /* \"#utility.yul\":16241:16315   */\n      div\n        /* \"#utility.yul\":16238:16239   */\n      dup4\n        /* \"#utility.yul\":16235:16316   */\n      gt\n        /* \"#utility.yul\":16230:16231   */\n      dup3\n        /* \"#utility.yul\":16223:16232   */\n      iszero\n        /* \"#utility.yul\":16216:16233   */\n      iszero\n        /* \"#utility.yul\":16212:16317   */\n      and\n        /* \"#utility.yul\":16209:16211   */\n      iszero\n      tag_434\n      jumpi\n        /* \"#utility.yul\":16320:16338   */\n      tag_435\n      tag_430\n      jump\t// in\n    tag_435:\n        /* \"#utility.yul\":16209:16211   */\n    tag_434:\n        /* \"#utility.yul\":16368:16369   */\n      dup3\n        /* \"#utility.yul\":16365:16366   */\n      dup3\n        /* \"#utility.yul\":16361:16370   */\n      mul\n        /* \"#utility.yul\":16350:16370   */\n      swap1\n      pop\n        /* \"#utility.yul\":16076:16376   */\n      swap3\n      swap2\n      pop\n      pop\n      jump\t// out\n        /* \"#utility.yul\":16382:16573   */\n    tag_166:\n      0x00\n        /* \"#utility.yul\":16442:16462   */\n      tag_437\n        /* \"#utility.yul\":16460:16461   */\n      dup3\n        /* \"#utility.yul\":16442:16462   */\n      tag_380\n      jump\t// in\n    tag_437:\n        /* \"#utility.yul\":16437:16462   */\n      swap2\n      pop\n        /* \"#utility.yul\":16476:16496   */\n      tag_438\n        /* \"#utility.yul\":16494:16495   */\n      dup4\n        /* \"#utility.yul\":16476:16496   */\n      tag_380\n      jump\t// in\n    tag_438:\n        /* \"#utility.yul\":16471:16496   */\n      swap3\n      pop\n        /* \"#utility.yul\":16515:16516   */\n      dup3\n        /* \"#utility.yul\":16512:16513   */\n      dup3\n        /* \"#utility.yul\":16509:16517   */\n      lt\n        /* \"#utility.yul\":16506:16508   */\n      iszero\n      tag_439\n      jumpi\n        /* \"#utility.yul\":16520:16538   */\n      tag_440\n      tag_430\n      jump\t// in\n    tag_440:\n        /* \"#utility.yul\":16506:16508   */\n    tag_439:\n        /* \"#utility.yul\":16565:16566   */\n      dup3\n        /* \"#utility.yul\":16562:16563   */\n      dup3\n        /* \"#utility.yul\":16558:16567   */\n      sub\n        /* \"#utility.yul\":16550:16567   */\n      swap1\n      pop\n        /* \"#utility.yul\":16427:16573   */\n      swap3\n      swap2\n      pop\n      pop\n      jump\t// out\n        /* \"#utility.yul\":16579:16675   */\n    tag_292:\n      0x00\n        /* \"#utility.yul\":16645:16669   */\n      tag_442\n        /* \"#utility.yul\":16663:16668   */\n      dup3\n        /* \"#utility.yul\":16645:16669   */\n      tag_443\n      jump\t// in\n    tag_442:\n        /* \"#utility.yul\":16634:16669   */\n      swap1\n      pop\n        /* \"#utility.yul\":16624:16675   */\n      swap2\n      swap1\n      pop\n      jump\t// out\n        /* \"#utility.yul\":16681:16771   */\n    tag_296:\n      0x00\n        /* \"#utility.yul\":16758:16763   */\n      dup2\n        /* \"#utility.yul\":16751:16764   */\n      iszero\n        /* \"#utility.yul\":16744:16765   */\n      iszero\n        /* \"#utility.yul\":16733:16765   */\n      swap1\n      pop\n        /* \"#utility.yul\":16723:16771   */\n      swap2\n      swap1\n      pop\n      jump\t// out\n        /* \"#utility.yul\":16777:16903   */\n    tag_443:\n      0x00\n        /* \"#utility.yul\":16854:16896   */\n      0xffffffffffffffffffffffffffffffffffffffff\n        /* \"#utility.yul\":16847:16852   */\n      dup3\n        /* \"#utility.yul\":16843:16897   */\n      and\n        /* \"#utility.yul\":16832:16897   */\n      swap1\n      pop\n        /* \"#utility.yul\":16822:16903   */\n      swap2\n      swap1\n      pop\n      jump\t// out\n        /* \"#utility.yul\":16909:16986   */\n    tag_380:\n      0x00\n        /* \"#utility.yul\":16975:16980   */\n      dup2\n        /* \"#utility.yul\":16964:16980   */\n      swap1\n      pop\n        /* \"#utility.yul\":16954:16986   */\n      swap2\n      swap1\n      pop\n      jump\t// out\n        /* \"#utility.yul\":16992:17078   */\n    tag_384:\n      0x00\n        /* \"#utility.yul\":17067:17071   */\n      0xff\n        /* \"#utility.yul\":17060:17065   */\n      dup3\n        /* \"#utility.yul\":17056:17072   */\n      and\n        /* \"#utility.yul\":17045:17072   */\n      swap1\n      pop\n        /* \"#utility.yul\":17035:17078   */\n      swap2\n      swap1\n      pop\n      jump\t// out\n        /* \"#utility.yul\":17084:17391   */\n    tag_304:\n        /* \"#utility.yul\":17152:17153   */\n      0x00\n        /* \"#utility.yul\":17162:17275   */\n    tag_449:\n        /* \"#utility.yul\":17176:17182   */\n      dup4\n        /* \"#utility.yul\":17173:17174   */\n      dup2\n        /* \"#utility.yul\":17170:17183   */\n      lt\n        /* \"#utility.yul\":17162:17275   */\n      iszero\n      tag_451\n      jumpi\n        /* \"#utility.yul\":17261:17262   */\n      dup1\n        /* \"#utility.yul\":17256:17259   */\n      dup3\n        /* \"#utility.yul\":17252:17263   */\n      add\n        /* \"#utility.yul\":17246:17264   */\n      mload\n        /* \"#utility.yul\":17242:17243   */\n      dup2\n        /* \"#utility.yul\":17237:17240   */\n      dup5\n        /* \"#utility.yul\":17233:17244   */\n      add\n        /* \"#utility.yul\":17226:17265   */\n      mstore\n        /* \"#utility.yul\":17198:17200   */\n      0x20\n        /* \"#utility.yul\":17195:17196   */\n      dup2\n        /* \"#utility.yul\":17191:17201   */\n      add\n        /* \"#utility.yul\":17186:17201   */\n      swap1\n      pop\n        /* \"#utility.yul\":17162:17275   */\n      jump(tag_449)\n    tag_451:\n        /* \"#utility.yul\":17293:17299   */\n      dup4\n        /* \"#utility.yul\":17290:17291   */\n      dup2\n        /* \"#utility.yul\":17287:17300   */\n      gt\n        /* \"#utility.yul\":17284:17286   */\n      iszero\n      tag_452\n      jumpi\n        /* \"#utility.yul\":17373:17374   */\n      0x00\n        /* \"#utility.yul\":17364:17370   */\n      dup5\n        /* \"#utility.yul\":17359:17362   */\n      dup5\n        /* \"#utility.yul\":17355:17371   */\n      add\n        /* \"#utility.yul\":17348:17375   */\n      mstore\n        /* \"#utility.yul\":17284:17286   */\n    tag_452:\n        /* \"#utility.yul\":17133:17391   */\n      pop\n      pop\n      pop\n      pop\n      jump\t// out\n        /* \"#utility.yul\":17397:17717   */\n    tag_118:\n      0x00\n        /* \"#utility.yul\":17478:17479   */\n      0x02\n        /* \"#utility.yul\":17472:17476   */\n      dup3\n        /* \"#utility.yul\":17468:17480   */\n      div\n        /* \"#utility.yul\":17458:17480   */\n      swap1\n      pop\n        /* \"#utility.yul\":17525:17526   */\n      0x01\n        /* \"#utility.yul\":17519:17523   */\n      dup3\n        /* \"#utility.yul\":17515:17527   */\n      and\n        /* \"#utility.yul\":17546:17564   */\n      dup1\n        /* \"#utility.yul\":17536:17538   */\n      tag_454\n      jumpi\n        /* \"#utility.yul\":17602:17606   */\n      0x7f\n        /* \"#utility.yul\":17594:17600   */\n      dup3\n        /* \"#utility.yul\":17590:17607   */\n      and\n        /* \"#utility.yul\":17580:17607   */\n      swap2\n      pop\n        /* \"#utility.yul\":17536:17538   */\n    tag_454:\n        /* \"#utility.yul\":17664:17666   */\n      0x20\n        /* \"#utility.yul\":17656:17662   */\n      dup3\n        /* \"#utility.yul\":17653:17667   */\n      lt\n        /* \"#utility.yul\":17633:17651   */\n      dup2\n        /* \"#utility.yul\":17630:17668   */\n      eq\n        /* \"#utility.yul\":17627:17629   */\n      iszero\n      tag_455\n      jumpi\n        /* \"#utility.yul\":17683:17701   */\n      tag_456\n      tag_457\n      jump\t// in\n    tag_456:\n        /* \"#utility.yul\":17627:17629   */\n    tag_455:\n        /* \"#utility.yul\":17448:17717   */\n      pop\n      swap2\n      swap1\n      pop\n      jump\t// out\n        /* \"#utility.yul\":17723:17903   */\n    tag_430:\n        /* \"#utility.yul\":17771:17848   */\n      0x4e487b7100000000000000000000000000000000000000000000000000000000\n        /* \"#utility.yul\":17768:17769   */\n      0x00\n        /* \"#utility.yul\":17761:17849   */\n      mstore\n        /* \"#utility.yul\":17868:17872   */\n      0x11\n        /* \"#utility.yul\":17865:17866   */\n      0x04\n        /* \"#utility.yul\":17858:17873   */\n      mstore\n        /* \"#utility.yul\":17892:17896   */\n      0x24\n        /* \"#utility.yul\":17889:17890   */\n      0x00\n        /* \"#utility.yul\":17882:17897   */\n      revert\n        /* \"#utility.yul\":17909:18089   */\n    tag_457:\n        /* \"#utility.yul\":17957:18034   */\n      0x4e487b7100000000000000000000000000000000000000000000000000000000\n        /* \"#utility.yul\":17954:17955   */\n      0x00\n        /* \"#utility.yul\":17947:18035   */\n      mstore\n        /* \"#utility.yul\":18054:18058   */\n      0x22\n        /* \"#utility.yul\":18051:18052   */\n      0x04\n        /* \"#utility.yul\":18044:18059   */\n      mstore\n        /* \"#utility.yul\":18078:18082   */\n      0x24\n        /* \"#utility.yul\":18075:18076   */\n      0x00\n        /* \"#utility.yul\":18068:18083   */\n      revert\n        /* \"#utility.yul\":18095:18197   */\n    tag_306:\n      0x00\n        /* \"#utility.yul\":18187:18189   */\n      0x1f\n        /* \"#utility.yul\":18183:18190   */\n      not\n        /* \"#utility.yul\":18178:18180   */\n      0x1f\n        /* \"#utility.yul\":18171:18176   */\n      dup4\n        /* \"#utility.yul\":18167:18181   */\n      add\n        /* \"#utility.yul\":18163:18191   */\n      and\n        /* \"#utility.yul\":18153:18191   */\n      swap1\n      pop\n        /* \"#utility.yul\":18143:18197   */\n      swap2\n      swap1\n      pop\n      jump\t// out\n        /* \"#utility.yul\":18203:18425   */\n    tag_311:\n        /* \"#utility.yul\":18343:18377   */\n      0x45524332303a207472616e7366657220746f20746865207a65726f2061646472\n        /* \"#utility.yul\":18339:18340   */\n      0x00\n        /* \"#utility.yul\":18331:18337   */\n      dup3\n        /* \"#utility.yul\":18327:18341   */\n      add\n        /* \"#utility.yul\":18320:18378   */\n      mstore\n        /* \"#utility.yul\":18412:18417   */\n      0x6573730000000000000000000000000000000000000000000000000000000000\n        /* \"#utility.yul\":18407:18409   */\n      0x20\n        /* \"#utility.yul\":18399:18405   */\n      dup3\n        /* \"#utility.yul\":18395:18410   */\n      add\n        /* \"#utility.yul\":18388:18418   */\n      mstore\n        /* \"#utility.yul\":18309:18425   */\n      pop\n      jump\t// out\n        /* \"#utility.yul\":18431:18656   */\n    tag_316:\n        /* \"#utility.yul\":18571:18605   */\n      0x4f776e61626c653a206e6577206f776e657220697320746865207a65726f2061\n        /* \"#utility.yul\":18567:18568   */\n      0x00\n        /* \"#utility.yul\":18559:18565   */\n      dup3\n        /* \"#utility.yul\":18555:18569   */\n      add\n        /* \"#utility.yul\":18548:18606   */\n      mstore\n        /* \"#utility.yul\":18640:18648   */\n      0x6464726573730000000000000000000000000000000000000000000000000000\n        /* \"#utility.yul\":18635:18637   */\n      0x20\n        /* \"#utility.yul\":18627:18633   */\n      dup3\n        /* \"#utility.yul\":18623:18638   */\n      add\n        /* \"#utility.yul\":18616:18649   */\n      mstore\n        /* \"#utility.yul\":18537:18656   */\n      pop\n      jump\t// out\n        /* \"#utility.yul\":18662:18883   */\n    tag_321:\n        /* \"#utility.yul\":18802:18836   */\n      0x45524332303a20617070726f766520746f20746865207a65726f206164647265\n        /* \"#utility.yul\":18798:18799   */\n      0x00\n        /* \"#utility.yul\":18790:18796   */\n      dup3\n        /* \"#utility.yul\":18786:18800   */\n      add\n        /* \"#utility.yul\":18779:18837   */\n      mstore\n        /* \"#utility.yul\":18871:18875   */\n      0x7373000000000000000000000000000000000000000000000000000000000000\n        /* \"#utility.yul\":18866:18868   */\n      0x20\n        /* \"#utility.yul\":18858:18864   */\n      dup3\n        /* \"#utility.yul\":18854:18869   */\n      add\n        /* \"#utility.yul\":18847:18876   */\n      mstore\n        /* \"#utility.yul\":18768:18883   */\n      pop\n      jump\t// out\n        /* \"#utility.yul\":18889:19114   */\n    tag_326:\n        /* \"#utility.yul\":19029:19063   */\n      0x45524332303a207472616e7366657220616d6f756e7420657863656564732062\n        /* \"#utility.yul\":19025:19026   */\n      0x00\n        /* \"#utility.yul\":19017:19023   */\n      dup3\n        /* \"#utility.yul\":19013:19027   */\n      add\n        /* \"#utility.yul\":19006:19064   */\n      mstore\n        /* \"#utility.yul\":19098:19106   */\n      0x616c616e63650000000000000000000000000000000000000000000000000000\n        /* \"#utility.yul\":19093:19095   */\n      0x20\n        /* \"#utility.yul\":19085:19091   */\n      dup3\n        /* \"#utility.yul\":19081:19096   */\n      add\n        /* \"#utility.yul\":19074:19107   */\n      mstore\n        /* \"#utility.yul\":18995:19114   */\n      pop\n      jump\t// out\n        /* \"#utility.yul\":19120:19347   */\n    tag_331:\n        /* \"#utility.yul\":19260:19294   */\n      0x426f79206c65737320746f6b656e73206f66207061792077686974206d6f7265\n        /* \"#utility.yul\":19256:19257   */\n      0x00\n        /* \"#utility.yul\":19248:19254   */\n      dup3\n        /* \"#utility.yul\":19244:19258   */\n      add\n        /* \"#utility.yul\":19237:19295   */\n      mstore\n        /* \"#utility.yul\":19329:19339   */\n      0x206574686572732e000000000000000000000000000000000000000000000000\n        /* \"#utility.yul\":19324:19326   */\n      0x20\n        /* \"#utility.yul\":19316:19322   */\n      dup3\n        /* \"#utility.yul\":19312:19327   */\n      add\n        /* \"#utility.yul\":19305:19340   */\n      mstore\n        /* \"#utility.yul\":19226:19347   */\n      pop\n      jump\t// out\n        /* \"#utility.yul\":19353:19587   */\n    tag_336:\n        /* \"#utility.yul\":19493:19527   */\n      0x596f75206e65656420746f2072657475726e206120706f73697469766520616d\n        /* \"#utility.yul\":19489:19490   */\n      0x00\n        /* \"#utility.yul\":19481:19487   */\n      dup3\n        /* \"#utility.yul\":19477:19491   */\n      add\n        /* \"#utility.yul\":19470:19528   */\n      mstore\n        /* \"#utility.yul\":19562:19579   */\n      0x6f756e74206f6620746f6b656e732e0000000000000000000000000000000000\n        /* \"#utility.yul\":19557:19559   */\n      0x20\n        /* \"#utility.yul\":19549:19555   */\n      dup3\n        /* \"#utility.yul\":19545:19560   */\n      add\n        /* \"#utility.yul\":19538:19580   */\n      mstore\n        /* \"#utility.yul\":19459:19587   */\n      pop\n      jump\t// out\n        /* \"#utility.yul\":19593:19820   */\n    tag_341:\n        /* \"#utility.yul\":19733:19767   */\n      0x45524332303a207472616e7366657220616d6f756e7420657863656564732061\n        /* \"#utility.yul\":19729:19730   */\n      0x00\n        /* \"#utility.yul\":19721:19727   */\n      dup3\n        /* \"#utility.yul\":19717:19731   */\n      add\n        /* \"#utility.yul\":19710:19768   */\n      mstore\n        /* \"#utility.yul\":19802:19812   */\n      0x6c6c6f77616e6365000000000000000000000000000000000000000000000000\n        /* \"#utility.yul\":19797:19799   */\n      0x20\n        /* \"#utility.yul\":19789:19795   */\n      dup3\n        /* \"#utility.yul\":19785:19800   */\n      add\n        /* \"#utility.yul\":19778:19813   */\n      mstore\n        /* \"#utility.yul\":19699:19820   */\n      pop\n      jump\t// out\n        /* \"#utility.yul\":19826:20008   */\n    tag_346:\n        /* \"#utility.yul\":19966:20000   */\n      0x4f776e61626c653a2063616c6c6572206973206e6f7420746865206f776e6572\n        /* \"#utility.yul\":19962:19963   */\n      0x00\n        /* \"#utility.yul\":19954:19960   */\n      dup3\n        /* \"#utility.yul\":19950:19964   */\n      add\n        /* \"#utility.yul\":19943:20001   */\n      mstore\n        /* \"#utility.yul\":19932:20008   */\n      pop\n      jump\t// out\n        /* \"#utility.yul\":20014:20238   */\n    tag_351:\n        /* \"#utility.yul\":20154:20188   */\n      0x45524332303a207472616e736665722066726f6d20746865207a65726f206164\n        /* \"#utility.yul\":20150:20151   */\n      0x00\n        /* \"#utility.yul\":20142:20148   */\n      dup3\n        /* \"#utility.yul\":20138:20152   */\n      add\n        /* \"#utility.yul\":20131:20189   */\n      mstore\n        /* \"#utility.yul\":20223:20230   */\n      0x6472657373000000000000000000000000000000000000000000000000000000\n        /* \"#utility.yul\":20218:20220   */\n      0x20\n        /* \"#utility.yul\":20210:20216   */\n      dup3\n        /* \"#utility.yul\":20206:20221   */\n      add\n        /* \"#utility.yul\":20199:20231   */\n      mstore\n        /* \"#utility.yul\":20120:20238   */\n      pop\n      jump\t// out\n        /* \"#utility.yul\":20244:20425   */\n    tag_356:\n        /* \"#utility.yul\":20384:20417   */\n      0x427579206120736d616c6c6572206e756d626572206f6620746f6b656e732e00\n        /* \"#utility.yul\":20380:20381   */\n      0x00\n        /* \"#utility.yul\":20372:20378   */\n      dup3\n        /* \"#utility.yul\":20368:20382   */\n      add\n        /* \"#utility.yul\":20361:20418   */\n      mstore\n        /* \"#utility.yul\":20350:20425   */\n      pop\n      jump\t// out\n        /* \"#utility.yul\":20431:20654   */\n    tag_361:\n        /* \"#utility.yul\":20571:20605   */\n      0x45524332303a20617070726f76652066726f6d20746865207a65726f20616464\n        /* \"#utility.yul\":20567:20568   */\n      0x00\n        /* \"#utility.yul\":20559:20565   */\n      dup3\n        /* \"#utility.yul\":20555:20569   */\n      add\n        /* \"#utility.yul\":20548:20606   */\n      mstore\n        /* \"#utility.yul\":20640:20646   */\n      0x7265737300000000000000000000000000000000000000000000000000000000\n        /* \"#utility.yul\":20635:20637   */\n      0x20\n        /* \"#utility.yul\":20627:20633   */\n      dup3\n        /* \"#utility.yul\":20623:20638   */\n      add\n        /* \"#utility.yul\":20616:20647   */\n      mstore\n        /* \"#utility.yul\":20537:20654   */\n      pop\n      jump\t// out\n        /* \"#utility.yul\":20660:20893   */\n    tag_366:\n        /* \"#utility.yul\":20800:20834   */\n      0x596f7520646f206e6f7420686176652074686520746f6b656e7320796f752077\n        /* \"#utility.yul\":20796:20797   */\n      0x00\n        /* \"#utility.yul\":20788:20794   */\n      dup3\n        /* \"#utility.yul\":20784:20798   */\n      add\n        /* \"#utility.yul\":20777:20835   */\n      mstore\n        /* \"#utility.yul\":20869:20885   */\n      0x69736820746f2072657475726e2e000000000000000000000000000000000000\n        /* \"#utility.yul\":20864:20866   */\n      0x20\n        /* \"#utility.yul\":20856:20862   */\n      dup3\n        /* \"#utility.yul\":20852:20867   */\n      add\n        /* \"#utility.yul\":20845:20886   */\n      mstore\n        /* \"#utility.yul\":20766:20893   */\n      pop\n      jump\t// out\n        /* \"#utility.yul\":20899:21123   */\n    tag_371:\n        /* \"#utility.yul\":21039:21073   */\n      0x45524332303a2064656372656173656420616c6c6f77616e63652062656c6f77\n        /* \"#utility.yul\":21035:21036   */\n      0x00\n        /* \"#utility.yul\":21027:21033   */\n      dup3\n        /* \"#utility.yul\":21023:21037   */\n      add\n        /* \"#utility.yul\":21016:21074   */\n      mstore\n        /* \"#utility.yul\":21108:21115   */\n      0x207a65726f000000000000000000000000000000000000000000000000000000\n        /* \"#utility.yul\":21103:21105   */\n      0x20\n        /* \"#utility.yul\":21095:21101   */\n      dup3\n        /* \"#utility.yul\":21091:21106   */\n      add\n        /* \"#utility.yul\":21084:21116   */\n      mstore\n        /* \"#utility.yul\":21005:21123   */\n      pop\n      jump\t// out\n        /* \"#utility.yul\":21129:21310   */\n    tag_376:\n        /* \"#utility.yul\":21269:21302   */\n      0x45524332303a206d696e7420746f20746865207a65726f206164647265737300\n        /* \"#utility.yul\":21265:21266   */\n      0x00\n        /* \"#utility.yul\":21257:21263   */\n      dup3\n        /* \"#utility.yul\":21253:21267   */\n      add\n        /* \"#utility.yul\":21246:21303   */\n      mstore\n        /* \"#utility.yul\":21235:21310   */\n      pop\n      jump\t// out\n        /* \"#utility.yul\":21316:21438   */\n    tag_265:\n        /* \"#utility.yul\":21389:21413   */\n      tag_476\n        /* \"#utility.yul\":21407:21412   */\n      dup2\n        /* \"#utility.yul\":21389:21413   */\n      tag_292\n      jump\t// in\n    tag_476:\n        /* \"#utility.yul\":21382:21387   */\n      dup2\n        /* \"#utility.yul\":21379:21414   */\n      eq\n        /* \"#utility.yul\":21369:21371   */\n      tag_477\n      jumpi\n        /* \"#utility.yul\":21428:21429   */\n      0x00\n        /* \"#utility.yul\":21425:21426   */\n      dup1\n        /* \"#utility.yul\":21418:21430   */\n      revert\n        /* \"#utility.yul\":21369:21371   */\n    tag_477:\n        /* \"#utility.yul\":21359:21438   */\n      pop\n      jump\t// out\n        /* \"#utility.yul\":21444:21566   */\n    tag_269:\n        /* \"#utility.yul\":21517:21541   */\n      tag_479\n        /* \"#utility.yul\":21535:21540   */\n      dup2\n        /* \"#utility.yul\":21517:21541   */\n      tag_380\n      jump\t// in\n    tag_479:\n        /* \"#utility.yul\":21510:21515   */\n      dup2\n        /* \"#utility.yul\":21507:21542   */\n      eq\n        /* \"#utility.yul\":21497:21499   */\n      tag_480\n      jumpi\n        /* \"#utility.yul\":21556:21557   */\n      0x00\n        /* \"#utility.yul\":21553:21554   */\n      dup1\n        /* \"#utility.yul\":21546:21558   */\n      revert\n        /* \"#utility.yul\":21497:21499   */\n    tag_480:\n        /* \"#utility.yul\":21487:21566   */\n      pop\n      jump\t// out\n\n    auxdata: 0xa2646970667358221220d984c2737a6b03c86c2602d077e2cb6a60a454b44cf69904167c4ee1ccbae58064736f6c63430008010033\n}\n",
				"bytecode": {
					"linkReferences": {},
					"object": "60806040523480156200001157600080fd5b506040518060400160405280600681526020017f4d6f7669657300000000000000000000000000000000000000000000000000008152506040518060400160405280600281526020017f4d430000000000000000000000000000000000000000000000000000000000008152508160039080519060200190620000969291906200033d565b508060049080519060200190620000af9291906200033d565b505050620000d2620000c6620000ec60201b60201c565b620000f460201b60201c565b620000e6306103e8620001ba60201b60201c565b62000599565b600033905090565b6000600560009054906101000a900473ffffffffffffffffffffffffffffffffffffffff16905081600560006101000a81548173ffffffffffffffffffffffffffffffffffffffff021916908373ffffffffffffffffffffffffffffffffffffffff1602179055508173ffffffffffffffffffffffffffffffffffffffff168173ffffffffffffffffffffffffffffffffffffffff167f8be0079c531659141344cd1fd0a4f28419497f9722a3daafe3b4186f6b6457e060405160405180910390a35050565b600073ffffffffffffffffffffffffffffffffffffffff168273ffffffffffffffffffffffffffffffffffffffff1614156200022d576040517f08c379a0000000000000000000000000000000000000000000000000000000008152600401620002249062000425565b60405180910390fd5b62000241600083836200033360201b60201c565b806002600082825462000255919062000475565b92505081905550806000808473ffffffffffffffffffffffffffffffffffffffff1673ffffffffffffffffffffffffffffffffffffffff1681526020019081526020016000206000828254620002ac919062000475565b925050819055508173ffffffffffffffffffffffffffffffffffffffff16600073ffffffffffffffffffffffffffffffffffffffff167fddf252ad1be2c89b69c2b068fc378daa952ba7f163c4a11628f55a4df523b3ef8360405162000313919062000447565b60405180910390a36200032f600083836200033860201b60201c565b5050565b505050565b505050565b8280546200034b90620004dc565b90600052602060002090601f0160209004810192826200036f5760008555620003bb565b82601f106200038a57805160ff1916838001178555620003bb565b82800160010185558215620003bb579182015b82811115620003ba5782518255916020019190600101906200039d565b5b509050620003ca9190620003ce565b5090565b5b80821115620003e9576000816000905550600101620003cf565b5090565b6000620003fc601f8362000464565b9150620004098262000570565b602082019050919050565b6200041f81620004d2565b82525050565b600060208201905081810360008301526200044081620003ed565b9050919050565b60006020820190506200045e600083018462000414565b92915050565b600082825260208201905092915050565b60006200048282620004d2565b91506200048f83620004d2565b9250827fffffffffffffffffffffffffffffffffffffffffffffffffffffffffffffffff03821115620004c757620004c662000512565b5b828201905092915050565b6000819050919050565b60006002820490506001821680620004f557607f821691505b602082108114156200050c576200050b62000541565b5b50919050565b7f4e487b7100000000000000000000000000000000000000000000000000000000600052601160045260246000fd5b7f4e487b7100000000000000000000000000000000000000000000000000000000600052602260045260246000fd5b7f45524332303a206d696e7420746f20746865207a65726f206164647265737300600082015250565b61213480620005a96000396000f3fe6080604052600436106101145760003560e01c80637b97008d116100a0578063a457c2d711610064578063a457c2d714610399578063a9059cbb146103d6578063dd62ed3e14610413578063f2fde38b14610450578063f9b4527a1461047957610114565b80637b97008d146102e25780637dc04f01146102fe5780638da5cb5b1461031a57806395d89b4114610345578063a0712d681461037057610114565b8063313ce567116100e7578063313ce567146101e957806339509351146102145780636ac55e6a1461025157806370a082311461028e578063715018a6146102cb57610114565b806306fdde0314610119578063095ea7b31461014457806318160ddd1461018157806323b872dd146101ac575b600080fd5b34801561012557600080fd5b5061012e6104b6565b60405161013b91906118af565b60405180910390f35b34801561015057600080fd5b5061016b600480360381019061016691906115b5565b610548565b6040516101789190611894565b60405180910390f35b34801561018d57600080fd5b50610196610566565b6040516101a39190611a91565b60405180910390f35b3480156101b857600080fd5b506101d360048036038101906101ce9190611566565b610570565b6040516101e09190611894565b60405180910390f35b3480156101f557600080fd5b506101fe610668565b60405161020b9190611aac565b60405180910390f35b34801561022057600080fd5b5061023b600480360381019061023691906115b5565b610671565b6040516102489190611894565b60405180910390f35b34801561025d57600080fd5b5061027860048036038101906102739190611501565b61071d565b6040516102859190611a91565b60405180910390f35b34801561029a57600080fd5b506102b560048036038101906102b09190611501565b61073b565b6040516102c29190611a91565b60405180910390f35b3480156102d757600080fd5b506102e0610783565b005b6102fc60048036038101906102f791906115f1565b61080b565b005b610318600480360381019061031391906115f1565b61096c565b005b34801561032657600080fd5b5061032f610a57565b60405161033c9190611879565b60405180910390f35b34801561035157600080fd5b5061035a610a81565b60405161036791906118af565b60405180910390f35b34801561037c57600080fd5b50610397600480360381019061039291906115f1565b610b13565b005b3480156103a557600080fd5b506103c060048036038101906103bb91906115b5565b610b9c565b6040516103cd9190611894565b60405180910390f35b3480156103e257600080fd5b506103fd60048036038101906103f891906115b5565b610c87565b60405161040a9190611894565b60405180910390f35b34801561041f57600080fd5b5061043a6004803603810190610435919061152a565b610ca5565b6040516104479190611a91565b60405180910390f35b34801561045c57600080fd5b5061047760048036038101906104729190611501565b610d2c565b005b34801561048557600080fd5b506104a0600480360381019061049b9190611501565b610e24565b6040516104ad9190611a91565b60405180910390f35b6060600380546104c590611c4f565b80601f01602080910402602001604051908101604052809291908181526020018280546104f190611c4f565b801561053e5780601f106105135761010080835404028352916020019161053e565b820191906000526020600020905b81548152906001019060200180831161052157829003601f168201915b5050505050905090565b600061055c610555610e36565b8484610e3e565b6001905092915050565b6000600254905090565b600061057d848484611009565b6000600160008673ffffffffffffffffffffffffffffffffffffffff1673ffffffffffffffffffffffffffffffffffffffff16815260200190815260200160002060006105c8610e36565b73ffffffffffffffffffffffffffffffffffffffff1673ffffffffffffffffffffffffffffffffffffffff16815260200190815260200160002054905082811015610648576040517f08c379a000000000000000000000000000000000000000000000000000000000815260040161063f90611991565b60405180910390fd5b61065c85610654610e36565b858403610e3e565b60019150509392505050565b60006012905090565b600061071361067e610e36565b84846001600061068c610e36565b73ffffffffffffffffffffffffffffffffffffffff1673ffffffffffffffffffffffffffffffffffffffff16815260200190815260200160002060008873ffffffffffffffffffffffffffffffffffffffff1673ffffffffffffffffffffffffffffffffffffffff1681526020019081526020016000205461070e9190611ae3565b610e3e565b6001905092915050565b60066020528060005260406000206000915090508060000154905081565b60008060008373ffffffffffffffffffffffffffffffffffffffff1673ffffffffffffffffffffffffffffffffffffffff168152602001908152602001600020549050919050565b61078b610e36565b73ffffffffffffffffffffffffffffffffffffffff166107a9610a57565b73ffffffffffffffffffffffffffffffffffffffff16146107ff576040517f08c379a00000000000000000000000000000000000000000000000000000000081526004016107f6906119b1565b60405180910390fd5b610809600061128a565b565b600061081682611350565b90508034101561085b576040517f08c379a000000000000000000000000000000000000000000000000000000000815260040161085290611951565b60405180910390fd5b600061086630610e24565b9050808311156108ab576040517f08c379a00000000000000000000000000000000000000000000000000000000081526004016108a2906119f1565b60405180910390fd5b600082346108b99190611b93565b90503373ffffffffffffffffffffffffffffffffffffffff166108fc829081150290604051600060405180830381858888f19350505050158015610901573d6000803e3d6000fd5b5061090d303386611009565b83600660003373ffffffffffffffffffffffffffffffffffffffff1673ffffffffffffffffffffffffffffffffffffffff168152602001908152602001600020600001600082825461095f9190611ae3565b9250508190555050505050565b600081116109af576040517f08c379a00000000000000000000000000000000000000000000000000000000081526004016109a690611971565b60405180910390fd5b6109b833610e24565b8111156109fa576040517f08c379a00000000000000000000000000000000000000000000000000000000081526004016109f190611a31565b60405180910390fd5b610a05333083611009565b3373ffffffffffffffffffffffffffffffffffffffff166108fc610a2883611350565b9081150290604051600060405180830381858888f19350505050158015610a53573d6000803e3d6000fd5b5050565b6000600560009054906101000a900473ffffffffffffffffffffffffffffffffffffffff16905090565b606060048054610a9090611c4f565b80601f0160208091040260200160405190810160405280929190818152602001828054610abc90611c4f565b8015610b095780601f10610ade57610100808354040283529160200191610b09565b820191906000526020600020905b815481529060010190602001808311610aec57829003601f168201915b5050505050905090565b610b1b610e36565b73ffffffffffffffffffffffffffffffffffffffff16610b39610a57565b73ffffffffffffffffffffffffffffffffffffffff1614610b8f576040517f08c379a0000000000000000000000000000000000000000000000000000000008152600401610b86906119b1565b60405180910390fd5b610b99308261136d565b50565b60008060016000610bab610e36565b73ffffffffffffffffffffffffffffffffffffffff1673ffffffffffffffffffffffffffffffffffffffff16815260200190815260200160002060008573ffffffffffffffffffffffffffffffffffffffff1673ffffffffffffffffffffffffffffffffffffffff16815260200190815260200160002054905082811015610c68576040517f08c379a0000000000000000000000000000000000000000000000000000000008152600401610c5f90611a51565b60405180910390fd5b610c7c610c73610e36565b85858403610e3e565b600191505092915050565b6000610c9b610c94610e36565b8484611009565b6001905092915050565b6000600160008473ffffffffffffffffffffffffffffffffffffffff1673ffffffffffffffffffffffffffffffffffffffff16815260200190815260200160002060008373ffffffffffffffffffffffffffffffffffffffff1673ffffffffffffffffffffffffffffffffffffffff16815260200190815260200160002054905092915050565b610d34610e36565b73ffffffffffffffffffffffffffffffffffffffff16610d52610a57565b73ffffffffffffffffffffffffffffffffffffffff1614610da8576040517f08c379a0000000000000000000000000000000000000000000000000000000008152600401610d9f906119b1565b60405180910390fd5b600073ffffffffffffffffffffffffffffffffffffffff168173ffffffffffffffffffffffffffffffffffffffff161415610e18576040517f08c379a0000000000000000000000000000000000000000000000000000000008152600401610e0f906118f1565b60405180910390fd5b610e218161128a565b50565b6000610e2f8261073b565b9050919050565b600033905090565b600073ffffffffffffffffffffffffffffffffffffffff168373ffffffffffffffffffffffffffffffffffffffff161415610eae576040517f08c379a0000000000000000000000000000000000000000000000000000000008152600401610ea590611a11565b60405180910390fd5b600073ffffffffffffffffffffffffffffffffffffffff168273ffffffffffffffffffffffffffffffffffffffff161415610f1e576040517f08c379a0000000000000000000000000000000000000000000000000000000008152600401610f1590611911565b60405180910390fd5b80600160008573ffffffffffffffffffffffffffffffffffffffff1673ffffffffffffffffffffffffffffffffffffffff16815260200190815260200160002060008473ffffffffffffffffffffffffffffffffffffffff1673ffffffffffffffffffffffffffffffffffffffff168152602001908152602001600020819055508173ffffffffffffffffffffffffffffffffffffffff168373ffffffffffffffffffffffffffffffffffffffff167f8c5be1e5ebec7d5bd14f71427d1e84f3dd0314c0f7b2291e5b200ac8c7c3b92583604051610ffc9190611a91565b60405180910390a3505050565b600073ffffffffffffffffffffffffffffffffffffffff168373ffffffffffffffffffffffffffffffffffffffff161415611079576040517f08c379a0000000000000000000000000000000000000000000000000000000008152600401611070906119d1565b60405180910390fd5b600073ffffffffffffffffffffffffffffffffffffffff168273ffffffffffffffffffffffffffffffffffffffff1614156110e9576040517f08c379a00000000000000000000000000000000000000000000000000000000081526004016110e0906118d1565b60405180910390fd5b6110f48383836114cd565b60008060008573ffffffffffffffffffffffffffffffffffffffff1673ffffffffffffffffffffffffffffffffffffffff1681526020019081526020016000205490508181101561117a576040517f08c379a000000000000000000000000000000000000000000000000000000000815260040161117190611931565b60405180910390fd5b8181036000808673ffffffffffffffffffffffffffffffffffffffff1673ffffffffffffffffffffffffffffffffffffffff16815260200190815260200160002081905550816000808573ffffffffffffffffffffffffffffffffffffffff1673ffffffffffffffffffffffffffffffffffffffff168152602001908152602001600020600082825461120d9190611ae3565b925050819055508273ffffffffffffffffffffffffffffffffffffffff168473ffffffffffffffffffffffffffffffffffffffff167fddf252ad1be2c89b69c2b068fc378daa952ba7f163c4a11628f55a4df523b3ef846040516112719190611a91565b60405180910390a36112848484846114d2565b50505050565b6000600560009054906101000a900473ffffffffffffffffffffffffffffffffffffffff16905081600560006101000a81548173ffffffffffffffffffffffffffffffffffffffff021916908373ffffffffffffffffffffffffffffffffffffffff1602179055508173ffffffffffffffffffffffffffffffffffffffff168173ffffffffffffffffffffffffffffffffffffffff167f8be0079c531659141344cd1fd0a4f28419497f9722a3daafe3b4186f6b6457e060405160405180910390a35050565b6000670de0b6b3a7640000826113669190611b39565b9050919050565b600073ffffffffffffffffffffffffffffffffffffffff168273ffffffffffffffffffffffffffffffffffffffff1614156113dd576040517f08c379a00000000000000000000000000000000000000000000000000000000081526004016113d490611a71565b60405180910390fd5b6113e9600083836114cd565b80600260008282546113fb9190611ae3565b92505081905550806000808473ffffffffffffffffffffffffffffffffffffffff1673ffffffffffffffffffffffffffffffffffffffff16815260200190815260200160002060008282546114509190611ae3565b925050819055508173ffffffffffffffffffffffffffffffffffffffff16600073ffffffffffffffffffffffffffffffffffffffff167fddf252ad1be2c89b69c2b068fc378daa952ba7f163c4a11628f55a4df523b3ef836040516114b59190611a91565b60405180910390a36114c9600083836114d2565b5050565b505050565b505050565b6000813590506114e6816120d0565b92915050565b6000813590506114fb816120e7565b92915050565b60006020828403121561151357600080fd5b6000611521848285016114d7565b91505092915050565b6000806040838503121561153d57600080fd5b600061154b858286016114d7565b925050602061155c858286016114d7565b9150509250929050565b60008060006060848603121561157b57600080fd5b6000611589868287016114d7565b935050602061159a868287016114d7565b92505060406115ab868287016114ec565b9150509250925092565b600080604083850312156115c857600080fd5b60006115d6858286016114d7565b92505060206115e7858286016114ec565b9150509250929050565b60006020828403121561160357600080fd5b6000611611848285016114ec565b91505092915050565b61162381611bc7565b82525050565b61163281611bd9565b82525050565b600061164382611ac7565b61164d8185611ad2565b935061165d818560208601611c1c565b61166681611cdf565b840191505092915050565b600061167e602383611ad2565b915061168982611cf0565b604082019050919050565b60006116a1602683611ad2565b91506116ac82611d3f565b604082019050919050565b60006116c4602283611ad2565b91506116cf82611d8e565b604082019050919050565b60006116e7602683611ad2565b91506116f282611ddd565b604082019050919050565b600061170a602883611ad2565b915061171582611e2c565b604082019050919050565b600061172d602f83611ad2565b915061173882611e7b565b604082019050919050565b6000611750602883611ad2565b915061175b82611eca565b604082019050919050565b6000611773602083611ad2565b915061177e82611f19565b602082019050919050565b6000611796602583611ad2565b91506117a182611f42565b604082019050919050565b60006117b9601f83611ad2565b91506117c482611f91565b602082019050919050565b60006117dc602483611ad2565b91506117e782611fba565b604082019050919050565b60006117ff602e83611ad2565b915061180a82612009565b604082019050919050565b6000611822602583611ad2565b915061182d82612058565b604082019050919050565b6000611845601f83611ad2565b9150611850826120a7565b602082019050919050565b61186481611c05565b82525050565b61187381611c0f565b82525050565b600060208201905061188e600083018461161a565b92915050565b60006020820190506118a96000830184611629565b92915050565b600060208201905081810360008301526118c98184611638565b905092915050565b600060208201905081810360008301526118ea81611671565b9050919050565b6000602082019050818103600083015261190a81611694565b9050919050565b6000602082019050818103600083015261192a816116b7565b9050919050565b6000602082019050818103600083015261194a816116da565b9050919050565b6000602082019050818103600083015261196a816116fd565b9050919050565b6000602082019050818103600083015261198a81611720565b9050919050565b600060208201905081810360008301526119aa81611743565b9050919050565b600060208201905081810360008301526119ca81611766565b9050919050565b600060208201905081810360008301526119ea81611789565b9050919050565b60006020820190508181036000830152611a0a816117ac565b9050919050565b60006020820190508181036000830152611a2a816117cf565b9050919050565b60006020820190508181036000830152611a4a816117f2565b9050919050565b60006020820190508181036000830152611a6a81611815565b9050919050565b60006020820190508181036000830152611a8a81611838565b9050919050565b6000602082019050611aa6600083018461185b565b92915050565b6000602082019050611ac1600083018461186a565b92915050565b600081519050919050565b600082825260208201905092915050565b6000611aee82611c05565b9150611af983611c05565b9250827fffffffffffffffffffffffffffffffffffffffffffffffffffffffffffffffff03821115611b2e57611b2d611c81565b5b828201905092915050565b6000611b4482611c05565b9150611b4f83611c05565b9250817fffffffffffffffffffffffffffffffffffffffffffffffffffffffffffffffff0483118215151615611b8857611b87611c81565b5b828202905092915050565b6000611b9e82611c05565b9150611ba983611c05565b925082821015611bbc57611bbb611c81565b5b828203905092915050565b6000611bd282611be5565b9050919050565b60008115159050919050565b600073ffffffffffffffffffffffffffffffffffffffff82169050919050565b6000819050919050565b600060ff82169050919050565b60005b83811015611c3a578082015181840152602081019050611c1f565b83811115611c49576000848401525b50505050565b60006002820490506001821680611c6757607f821691505b60208210811415611c7b57611c7a611cb0565b5b50919050565b7f4e487b7100000000000000000000000000000000000000000000000000000000600052601160045260246000fd5b7f4e487b7100000000000000000000000000000000000000000000000000000000600052602260045260246000fd5b6000601f19601f8301169050919050565b7f45524332303a207472616e7366657220746f20746865207a65726f206164647260008201527f6573730000000000000000000000000000000000000000000000000000000000602082015250565b7f4f776e61626c653a206e6577206f776e657220697320746865207a65726f206160008201527f6464726573730000000000000000000000000000000000000000000000000000602082015250565b7f45524332303a20617070726f766520746f20746865207a65726f20616464726560008201527f7373000000000000000000000000000000000000000000000000000000000000602082015250565b7f45524332303a207472616e7366657220616d6f756e742065786365656473206260008201527f616c616e63650000000000000000000000000000000000000000000000000000602082015250565b7f426f79206c65737320746f6b656e73206f66207061792077686974206d6f726560008201527f206574686572732e000000000000000000000000000000000000000000000000602082015250565b7f596f75206e65656420746f2072657475726e206120706f73697469766520616d60008201527f6f756e74206f6620746f6b656e732e0000000000000000000000000000000000602082015250565b7f45524332303a207472616e7366657220616d6f756e742065786365656473206160008201527f6c6c6f77616e6365000000000000000000000000000000000000000000000000602082015250565b7f4f776e61626c653a2063616c6c6572206973206e6f7420746865206f776e6572600082015250565b7f45524332303a207472616e736665722066726f6d20746865207a65726f20616460008201527f6472657373000000000000000000000000000000000000000000000000000000602082015250565b7f427579206120736d616c6c6572206e756d626572206f6620746f6b656e732e00600082015250565b7f45524332303a20617070726f76652066726f6d20746865207a65726f2061646460008201527f7265737300000000000000000000000000000000000000000000000000000000602082015250565b7f596f7520646f206e6f7420686176652074686520746f6b656e7320796f75207760008201527f69736820746f2072657475726e2e000000000000000000000000000000000000602082015250565b7f45524332303a2064656372656173656420616c6c6f77616e63652062656c6f7760008201527f207a65726f000000000000000000000000000000000000000000000000000000602082015250565b7f45524332303a206d696e7420746f20746865207a65726f206164647265737300600082015250565b6120d981611bc7565b81146120e457600080fd5b50565b6120f081611c05565b81146120fb57600080fd5b5056fea2646970667358221220d984c2737a6b03c86c2602d077e2cb6a60a454b44cf69904167c4ee1ccbae58064736f6c63430008010033",
					"opcodes": "PUSH1 0x80 PUSH1 0x40 MSTORE CALLVALUE DUP1 ISZERO PUSH3 0x11 JUMPI PUSH1 0x0 DUP1 REVERT JUMPDEST POP PUSH1 0x40 MLOAD DUP1 PUSH1 0x40 ADD PUSH1 0x40 MSTORE DUP1 PUSH1 0x6 DUP2 MSTORE PUSH1 0x20 ADD PUSH32 0x4D6F766965730000000000000000000000000000000000000000000000000000 DUP2 MSTORE POP PUSH1 0x40 MLOAD DUP1 PUSH1 0x40 ADD PUSH1 0x40 MSTORE DUP1 PUSH1 0x2 DUP2 MSTORE PUSH1 0x20 ADD PUSH32 0x4D43000000000000000000000000000000000000000000000000000000000000 DUP2 MSTORE POP DUP2 PUSH1 0x3 SWAP1 DUP1 MLOAD SWAP1 PUSH1 0x20 ADD SWAP1 PUSH3 0x96 SWAP3 SWAP2 SWAP1 PUSH3 0x33D JUMP JUMPDEST POP DUP1 PUSH1 0x4 SWAP1 DUP1 MLOAD SWAP1 PUSH1 0x20 ADD SWAP1 PUSH3 0xAF SWAP3 SWAP2 SWAP1 PUSH3 0x33D JUMP JUMPDEST POP POP POP PUSH3 0xD2 PUSH3 0xC6 PUSH3 0xEC PUSH1 0x20 SHL PUSH1 0x20 SHR JUMP JUMPDEST PUSH3 0xF4 PUSH1 0x20 SHL PUSH1 0x20 SHR JUMP JUMPDEST PUSH3 0xE6 ADDRESS PUSH2 0x3E8 PUSH3 0x1BA PUSH1 0x20 SHL PUSH1 0x20 SHR JUMP JUMPDEST PUSH3 0x599 JUMP JUMPDEST PUSH1 0x0 CALLER SWAP1 POP SWAP1 JUMP JUMPDEST PUSH1 0x0 PUSH1 0x5 PUSH1 0x0 SWAP1 SLOAD SWAP1 PUSH2 0x100 EXP SWAP1 DIV PUSH20 0xFFFFFFFFFFFFFFFFFFFFFFFFFFFFFFFFFFFFFFFF AND SWAP1 POP DUP2 PUSH1 0x5 PUSH1 0x0 PUSH2 0x100 EXP DUP2 SLOAD DUP2 PUSH20 0xFFFFFFFFFFFFFFFFFFFFFFFFFFFFFFFFFFFFFFFF MUL NOT AND SWAP1 DUP4 PUSH20 0xFFFFFFFFFFFFFFFFFFFFFFFFFFFFFFFFFFFFFFFF AND MUL OR SWAP1 SSTORE POP DUP2 PUSH20 0xFFFFFFFFFFFFFFFFFFFFFFFFFFFFFFFFFFFFFFFF AND DUP2 PUSH20 0xFFFFFFFFFFFFFFFFFFFFFFFFFFFFFFFFFFFFFFFF AND PUSH32 0x8BE0079C531659141344CD1FD0A4F28419497F9722A3DAAFE3B4186F6B6457E0 PUSH1 0x40 MLOAD PUSH1 0x40 MLOAD DUP1 SWAP2 SUB SWAP1 LOG3 POP POP JUMP JUMPDEST PUSH1 0x0 PUSH20 0xFFFFFFFFFFFFFFFFFFFFFFFFFFFFFFFFFFFFFFFF AND DUP3 PUSH20 0xFFFFFFFFFFFFFFFFFFFFFFFFFFFFFFFFFFFFFFFF AND EQ ISZERO PUSH3 0x22D JUMPI PUSH1 0x40 MLOAD PUSH32 0x8C379A000000000000000000000000000000000000000000000000000000000 DUP2 MSTORE PUSH1 0x4 ADD PUSH3 0x224 SWAP1 PUSH3 0x425 JUMP JUMPDEST PUSH1 0x40 MLOAD DUP1 SWAP2 SUB SWAP1 REVERT JUMPDEST PUSH3 0x241 PUSH1 0x0 DUP4 DUP4 PUSH3 0x333 PUSH1 0x20 SHL PUSH1 0x20 SHR JUMP JUMPDEST DUP1 PUSH1 0x2 PUSH1 0x0 DUP3 DUP3 SLOAD PUSH3 0x255 SWAP2 SWAP1 PUSH3 0x475 JUMP JUMPDEST SWAP3 POP POP DUP2 SWAP1 SSTORE POP DUP1 PUSH1 0x0 DUP1 DUP5 PUSH20 0xFFFFFFFFFFFFFFFFFFFFFFFFFFFFFFFFFFFFFFFF AND PUSH20 0xFFFFFFFFFFFFFFFFFFFFFFFFFFFFFFFFFFFFFFFF AND DUP2 MSTORE PUSH1 0x20 ADD SWAP1 DUP2 MSTORE PUSH1 0x20 ADD PUSH1 0x0 KECCAK256 PUSH1 0x0 DUP3 DUP3 SLOAD PUSH3 0x2AC SWAP2 SWAP1 PUSH3 0x475 JUMP JUMPDEST SWAP3 POP POP DUP2 SWAP1 SSTORE POP DUP2 PUSH20 0xFFFFFFFFFFFFFFFFFFFFFFFFFFFFFFFFFFFFFFFF AND PUSH1 0x0 PUSH20 0xFFFFFFFFFFFFFFFFFFFFFFFFFFFFFFFFFFFFFFFF AND PUSH32 0xDDF252AD1BE2C89B69C2B068FC378DAA952BA7F163C4A11628F55A4DF523B3EF DUP4 PUSH1 0x40 MLOAD PUSH3 0x313 SWAP2 SWAP1 PUSH3 0x447 JUMP JUMPDEST PUSH1 0x40 MLOAD DUP1 SWAP2 SUB SWAP1 LOG3 PUSH3 0x32F PUSH1 0x0 DUP4 DUP4 PUSH3 0x338 PUSH1 0x20 SHL PUSH1 0x20 SHR JUMP JUMPDEST POP POP JUMP JUMPDEST POP POP POP JUMP JUMPDEST POP POP POP JUMP JUMPDEST DUP3 DUP1 SLOAD PUSH3 0x34B SWAP1 PUSH3 0x4DC JUMP JUMPDEST SWAP1 PUSH1 0x0 MSTORE PUSH1 0x20 PUSH1 0x0 KECCAK256 SWAP1 PUSH1 0x1F ADD PUSH1 0x20 SWAP1 DIV DUP2 ADD SWAP3 DUP3 PUSH3 0x36F JUMPI PUSH1 0x0 DUP6 SSTORE PUSH3 0x3BB JUMP JUMPDEST DUP3 PUSH1 0x1F LT PUSH3 0x38A JUMPI DUP1 MLOAD PUSH1 0xFF NOT AND DUP4 DUP1 ADD OR DUP6 SSTORE PUSH3 0x3BB JUMP JUMPDEST DUP3 DUP1 ADD PUSH1 0x1 ADD DUP6 SSTORE DUP3 ISZERO PUSH3 0x3BB JUMPI SWAP2 DUP3 ADD JUMPDEST DUP3 DUP2 GT ISZERO PUSH3 0x3BA JUMPI DUP3 MLOAD DUP3 SSTORE SWAP2 PUSH1 0x20 ADD SWAP2 SWAP1 PUSH1 0x1 ADD SWAP1 PUSH3 0x39D JUMP JUMPDEST JUMPDEST POP SWAP1 POP PUSH3 0x3CA SWAP2 SWAP1 PUSH3 0x3CE JUMP JUMPDEST POP SWAP1 JUMP JUMPDEST JUMPDEST DUP1 DUP3 GT ISZERO PUSH3 0x3E9 JUMPI PUSH1 0x0 DUP2 PUSH1 0x0 SWAP1 SSTORE POP PUSH1 0x1 ADD PUSH3 0x3CF JUMP JUMPDEST POP SWAP1 JUMP JUMPDEST PUSH1 0x0 PUSH3 0x3FC PUSH1 0x1F DUP4 PUSH3 0x464 JUMP JUMPDEST SWAP2 POP PUSH3 0x409 DUP3 PUSH3 0x570 JUMP JUMPDEST PUSH1 0x20 DUP3 ADD SWAP1 POP SWAP2 SWAP1 POP JUMP JUMPDEST PUSH3 0x41F DUP2 PUSH3 0x4D2 JUMP JUMPDEST DUP3 MSTORE POP POP JUMP JUMPDEST PUSH1 0x0 PUSH1 0x20 DUP3 ADD SWAP1 POP DUP2 DUP2 SUB PUSH1 0x0 DUP4 ADD MSTORE PUSH3 0x440 DUP2 PUSH3 0x3ED JUMP JUMPDEST SWAP1 POP SWAP2 SWAP1 POP JUMP JUMPDEST PUSH1 0x0 PUSH1 0x20 DUP3 ADD SWAP1 POP PUSH3 0x45E PUSH1 0x0 DUP4 ADD DUP5 PUSH3 0x414 JUMP JUMPDEST SWAP3 SWAP2 POP POP JUMP JUMPDEST PUSH1 0x0 DUP3 DUP3 MSTORE PUSH1 0x20 DUP3 ADD SWAP1 POP SWAP3 SWAP2 POP POP JUMP JUMPDEST PUSH1 0x0 PUSH3 0x482 DUP3 PUSH3 0x4D2 JUMP JUMPDEST SWAP2 POP PUSH3 0x48F DUP4 PUSH3 0x4D2 JUMP JUMPDEST SWAP3 POP DUP3 PUSH32 0xFFFFFFFFFFFFFFFFFFFFFFFFFFFFFFFFFFFFFFFFFFFFFFFFFFFFFFFFFFFFFFFF SUB DUP3 GT ISZERO PUSH3 0x4C7 JUMPI PUSH3 0x4C6 PUSH3 0x512 JUMP JUMPDEST JUMPDEST DUP3 DUP3 ADD SWAP1 POP SWAP3 SWAP2 POP POP JUMP JUMPDEST PUSH1 0x0 DUP2 SWAP1 POP SWAP2 SWAP1 POP JUMP JUMPDEST PUSH1 0x0 PUSH1 0x2 DUP3 DIV SWAP1 POP PUSH1 0x1 DUP3 AND DUP1 PUSH3 0x4F5 JUMPI PUSH1 0x7F DUP3 AND SWAP2 POP JUMPDEST PUSH1 0x20 DUP3 LT DUP2 EQ ISZERO PUSH3 0x50C JUMPI PUSH3 0x50B PUSH3 0x541 JUMP JUMPDEST JUMPDEST POP SWAP2 SWAP1 POP JUMP JUMPDEST PUSH32 0x4E487B7100000000000000000000000000000000000000000000000000000000 PUSH1 0x0 MSTORE PUSH1 0x11 PUSH1 0x4 MSTORE PUSH1 0x24 PUSH1 0x0 REVERT JUMPDEST PUSH32 0x4E487B7100000000000000000000000000000000000000000000000000000000 PUSH1 0x0 MSTORE PUSH1 0x22 PUSH1 0x4 MSTORE PUSH1 0x24 PUSH1 0x0 REVERT JUMPDEST PUSH32 0x45524332303A206D696E7420746F20746865207A65726F206164647265737300 PUSH1 0x0 DUP3 ADD MSTORE POP JUMP JUMPDEST PUSH2 0x2134 DUP1 PUSH3 0x5A9 PUSH1 0x0 CODECOPY PUSH1 0x0 RETURN INVALID PUSH1 0x80 PUSH1 0x40 MSTORE PUSH1 0x4 CALLDATASIZE LT PUSH2 0x114 JUMPI PUSH1 0x0 CALLDATALOAD PUSH1 0xE0 SHR DUP1 PUSH4 0x7B97008D GT PUSH2 0xA0 JUMPI DUP1 PUSH4 0xA457C2D7 GT PUSH2 0x64 JUMPI DUP1 PUSH4 0xA457C2D7 EQ PUSH2 0x399 JUMPI DUP1 PUSH4 0xA9059CBB EQ PUSH2 0x3D6 JUMPI DUP1 PUSH4 0xDD62ED3E EQ PUSH2 0x413 JUMPI DUP1 PUSH4 0xF2FDE38B EQ PUSH2 0x450 JUMPI DUP1 PUSH4 0xF9B4527A EQ PUSH2 0x479 JUMPI PUSH2 0x114 JUMP JUMPDEST DUP1 PUSH4 0x7B97008D EQ PUSH2 0x2E2 JUMPI DUP1 PUSH4 0x7DC04F01 EQ PUSH2 0x2FE JUMPI DUP1 PUSH4 0x8DA5CB5B EQ PUSH2 0x31A JUMPI DUP1 PUSH4 0x95D89B41 EQ PUSH2 0x345 JUMPI DUP1 PUSH4 0xA0712D68 EQ PUSH2 0x370 JUMPI PUSH2 0x114 JUMP JUMPDEST DUP1 PUSH4 0x313CE567 GT PUSH2 0xE7 JUMPI DUP1 PUSH4 0x313CE567 EQ PUSH2 0x1E9 JUMPI DUP1 PUSH4 0x39509351 EQ PUSH2 0x214 JUMPI DUP1 PUSH4 0x6AC55E6A EQ PUSH2 0x251 JUMPI DUP1 PUSH4 0x70A08231 EQ PUSH2 0x28E JUMPI DUP1 PUSH4 0x715018A6 EQ PUSH2 0x2CB JUMPI PUSH2 0x114 JUMP JUMPDEST DUP1 PUSH4 0x6FDDE03 EQ PUSH2 0x119 JUMPI DUP1 PUSH4 0x95EA7B3 EQ PUSH2 0x144 JUMPI DUP1 PUSH4 0x18160DDD EQ PUSH2 0x181 JUMPI DUP1 PUSH4 0x23B872DD EQ PUSH2 0x1AC JUMPI JUMPDEST PUSH1 0x0 DUP1 REVERT JUMPDEST CALLVALUE DUP1 ISZERO PUSH2 0x125 JUMPI PUSH1 0x0 DUP1 REVERT JUMPDEST POP PUSH2 0x12E PUSH2 0x4B6 JUMP JUMPDEST PUSH1 0x40 MLOAD PUSH2 0x13B SWAP2 SWAP1 PUSH2 0x18AF JUMP JUMPDEST PUSH1 0x40 MLOAD DUP1 SWAP2 SUB SWAP1 RETURN JUMPDEST CALLVALUE DUP1 ISZERO PUSH2 0x150 JUMPI PUSH1 0x0 DUP1 REVERT JUMPDEST POP PUSH2 0x16B PUSH1 0x4 DUP1 CALLDATASIZE SUB DUP2 ADD SWAP1 PUSH2 0x166 SWAP2 SWAP1 PUSH2 0x15B5 JUMP JUMPDEST PUSH2 0x548 JUMP JUMPDEST PUSH1 0x40 MLOAD PUSH2 0x178 SWAP2 SWAP1 PUSH2 0x1894 JUMP JUMPDEST PUSH1 0x40 MLOAD DUP1 SWAP2 SUB SWAP1 RETURN JUMPDEST CALLVALUE DUP1 ISZERO PUSH2 0x18D JUMPI PUSH1 0x0 DUP1 REVERT JUMPDEST POP PUSH2 0x196 PUSH2 0x566 JUMP JUMPDEST PUSH1 0x40 MLOAD PUSH2 0x1A3 SWAP2 SWAP1 PUSH2 0x1A91 JUMP JUMPDEST PUSH1 0x40 MLOAD DUP1 SWAP2 SUB SWAP1 RETURN JUMPDEST CALLVALUE DUP1 ISZERO PUSH2 0x1B8 JUMPI PUSH1 0x0 DUP1 REVERT JUMPDEST POP PUSH2 0x1D3 PUSH1 0x4 DUP1 CALLDATASIZE SUB DUP2 ADD SWAP1 PUSH2 0x1CE SWAP2 SWAP1 PUSH2 0x1566 JUMP JUMPDEST PUSH2 0x570 JUMP JUMPDEST PUSH1 0x40 MLOAD PUSH2 0x1E0 SWAP2 SWAP1 PUSH2 0x1894 JUMP JUMPDEST PUSH1 0x40 MLOAD DUP1 SWAP2 SUB SWAP1 RETURN JUMPDEST CALLVALUE DUP1 ISZERO PUSH2 0x1F5 JUMPI PUSH1 0x0 DUP1 REVERT JUMPDEST POP PUSH2 0x1FE PUSH2 0x668 JUMP JUMPDEST PUSH1 0x40 MLOAD PUSH2 0x20B SWAP2 SWAP1 PUSH2 0x1AAC JUMP JUMPDEST PUSH1 0x40 MLOAD DUP1 SWAP2 SUB SWAP1 RETURN JUMPDEST CALLVALUE DUP1 ISZERO PUSH2 0x220 JUMPI PUSH1 0x0 DUP1 REVERT JUMPDEST POP PUSH2 0x23B PUSH1 0x4 DUP1 CALLDATASIZE SUB DUP2 ADD SWAP1 PUSH2 0x236 SWAP2 SWAP1 PUSH2 0x15B5 JUMP JUMPDEST PUSH2 0x671 JUMP JUMPDEST PUSH1 0x40 MLOAD PUSH2 0x248 SWAP2 SWAP1 PUSH2 0x1894 JUMP JUMPDEST PUSH1 0x40 MLOAD DUP1 SWAP2 SUB SWAP1 RETURN JUMPDEST CALLVALUE DUP1 ISZERO PUSH2 0x25D JUMPI PUSH1 0x0 DUP1 REVERT JUMPDEST POP PUSH2 0x278 PUSH1 0x4 DUP1 CALLDATASIZE SUB DUP2 ADD SWAP1 PUSH2 0x273 SWAP2 SWAP1 PUSH2 0x1501 JUMP JUMPDEST PUSH2 0x71D JUMP JUMPDEST PUSH1 0x40 MLOAD PUSH2 0x285 SWAP2 SWAP1 PUSH2 0x1A91 JUMP JUMPDEST PUSH1 0x40 MLOAD DUP1 SWAP2 SUB SWAP1 RETURN JUMPDEST CALLVALUE DUP1 ISZERO PUSH2 0x29A JUMPI PUSH1 0x0 DUP1 REVERT JUMPDEST POP PUSH2 0x2B5 PUSH1 0x4 DUP1 CALLDATASIZE SUB DUP2 ADD SWAP1 PUSH2 0x2B0 SWAP2 SWAP1 PUSH2 0x1501 JUMP JUMPDEST PUSH2 0x73B JUMP JUMPDEST PUSH1 0x40 MLOAD PUSH2 0x2C2 SWAP2 SWAP1 PUSH2 0x1A91 JUMP JUMPDEST PUSH1 0x40 MLOAD DUP1 SWAP2 SUB SWAP1 RETURN JUMPDEST CALLVALUE DUP1 ISZERO PUSH2 0x2D7 JUMPI PUSH1 0x0 DUP1 REVERT JUMPDEST POP PUSH2 0x2E0 PUSH2 0x783 JUMP JUMPDEST STOP JUMPDEST PUSH2 0x2FC PUSH1 0x4 DUP1 CALLDATASIZE SUB DUP2 ADD SWAP1 PUSH2 0x2F7 SWAP2 SWAP1 PUSH2 0x15F1 JUMP JUMPDEST PUSH2 0x80B JUMP JUMPDEST STOP JUMPDEST PUSH2 0x318 PUSH1 0x4 DUP1 CALLDATASIZE SUB DUP2 ADD SWAP1 PUSH2 0x313 SWAP2 SWAP1 PUSH2 0x15F1 JUMP JUMPDEST PUSH2 0x96C JUMP JUMPDEST STOP JUMPDEST CALLVALUE DUP1 ISZERO PUSH2 0x326 JUMPI PUSH1 0x0 DUP1 REVERT JUMPDEST POP PUSH2 0x32F PUSH2 0xA57 JUMP JUMPDEST PUSH1 0x40 MLOAD PUSH2 0x33C SWAP2 SWAP1 PUSH2 0x1879 JUMP JUMPDEST PUSH1 0x40 MLOAD DUP1 SWAP2 SUB SWAP1 RETURN JUMPDEST CALLVALUE DUP1 ISZERO PUSH2 0x351 JUMPI PUSH1 0x0 DUP1 REVERT JUMPDEST POP PUSH2 0x35A PUSH2 0xA81 JUMP JUMPDEST PUSH1 0x40 MLOAD PUSH2 0x367 SWAP2 SWAP1 PUSH2 0x18AF JUMP JUMPDEST PUSH1 0x40 MLOAD DUP1 SWAP2 SUB SWAP1 RETURN JUMPDEST CALLVALUE DUP1 ISZERO PUSH2 0x37C JUMPI PUSH1 0x0 DUP1 REVERT JUMPDEST POP PUSH2 0x397 PUSH1 0x4 DUP1 CALLDATASIZE SUB DUP2 ADD SWAP1 PUSH2 0x392 SWAP2 SWAP1 PUSH2 0x15F1 JUMP JUMPDEST PUSH2 0xB13 JUMP JUMPDEST STOP JUMPDEST CALLVALUE DUP1 ISZERO PUSH2 0x3A5 JUMPI PUSH1 0x0 DUP1 REVERT JUMPDEST POP PUSH2 0x3C0 PUSH1 0x4 DUP1 CALLDATASIZE SUB DUP2 ADD SWAP1 PUSH2 0x3BB SWAP2 SWAP1 PUSH2 0x15B5 JUMP JUMPDEST PUSH2 0xB9C JUMP JUMPDEST PUSH1 0x40 MLOAD PUSH2 0x3CD SWAP2 SWAP1 PUSH2 0x1894 JUMP JUMPDEST PUSH1 0x40 MLOAD DUP1 SWAP2 SUB SWAP1 RETURN JUMPDEST CALLVALUE DUP1 ISZERO PUSH2 0x3E2 JUMPI PUSH1 0x0 DUP1 REVERT JUMPDEST POP PUSH2 0x3FD PUSH1 0x4 DUP1 CALLDATASIZE SUB DUP2 ADD SWAP1 PUSH2 0x3F8 SWAP2 SWAP1 PUSH2 0x15B5 JUMP JUMPDEST PUSH2 0xC87 JUMP JUMPDEST PUSH1 0x40 MLOAD PUSH2 0x40A SWAP2 SWAP1 PUSH2 0x1894 JUMP JUMPDEST PUSH1 0x40 MLOAD DUP1 SWAP2 SUB SWAP1 RETURN JUMPDEST CALLVALUE DUP1 ISZERO PUSH2 0x41F JUMPI PUSH1 0x0 DUP1 REVERT JUMPDEST POP PUSH2 0x43A PUSH1 0x4 DUP1 CALLDATASIZE SUB DUP2 ADD SWAP1 PUSH2 0x435 SWAP2 SWAP1 PUSH2 0x152A JUMP JUMPDEST PUSH2 0xCA5 JUMP JUMPDEST PUSH1 0x40 MLOAD PUSH2 0x447 SWAP2 SWAP1 PUSH2 0x1A91 JUMP JUMPDEST PUSH1 0x40 MLOAD DUP1 SWAP2 SUB SWAP1 RETURN JUMPDEST CALLVALUE DUP1 ISZERO PUSH2 0x45C JUMPI PUSH1 0x0 DUP1 REVERT JUMPDEST POP PUSH2 0x477 PUSH1 0x4 DUP1 CALLDATASIZE SUB DUP2 ADD SWAP1 PUSH2 0x472 SWAP2 SWAP1 PUSH2 0x1501 JUMP JUMPDEST PUSH2 0xD2C JUMP JUMPDEST STOP JUMPDEST CALLVALUE DUP1 ISZERO PUSH2 0x485 JUMPI PUSH1 0x0 DUP1 REVERT JUMPDEST POP PUSH2 0x4A0 PUSH1 0x4 DUP1 CALLDATASIZE SUB DUP2 ADD SWAP1 PUSH2 0x49B SWAP2 SWAP1 PUSH2 0x1501 JUMP JUMPDEST PUSH2 0xE24 JUMP JUMPDEST PUSH1 0x40 MLOAD PUSH2 0x4AD SWAP2 SWAP1 PUSH2 0x1A91 JUMP JUMPDEST PUSH1 0x40 MLOAD DUP1 SWAP2 SUB SWAP1 RETURN JUMPDEST PUSH1 0x60 PUSH1 0x3 DUP1 SLOAD PUSH2 0x4C5 SWAP1 PUSH2 0x1C4F JUMP JUMPDEST DUP1 PUSH1 0x1F ADD PUSH1 0x20 DUP1 SWAP2 DIV MUL PUSH1 0x20 ADD PUSH1 0x40 MLOAD SWAP1 DUP2 ADD PUSH1 0x40 MSTORE DUP1 SWAP3 SWAP2 SWAP1 DUP2 DUP2 MSTORE PUSH1 0x20 ADD DUP3 DUP1 SLOAD PUSH2 0x4F1 SWAP1 PUSH2 0x1C4F JUMP JUMPDEST DUP1 ISZERO PUSH2 0x53E JUMPI DUP1 PUSH1 0x1F LT PUSH2 0x513 JUMPI PUSH2 0x100 DUP1 DUP4 SLOAD DIV MUL DUP4 MSTORE SWAP2 PUSH1 0x20 ADD SWAP2 PUSH2 0x53E JUMP JUMPDEST DUP3 ADD SWAP2 SWAP1 PUSH1 0x0 MSTORE PUSH1 0x20 PUSH1 0x0 KECCAK256 SWAP1 JUMPDEST DUP2 SLOAD DUP2 MSTORE SWAP1 PUSH1 0x1 ADD SWAP1 PUSH1 0x20 ADD DUP1 DUP4 GT PUSH2 0x521 JUMPI DUP3 SWAP1 SUB PUSH1 0x1F AND DUP3 ADD SWAP2 JUMPDEST POP POP POP POP POP SWAP1 POP SWAP1 JUMP JUMPDEST PUSH1 0x0 PUSH2 0x55C PUSH2 0x555 PUSH2 0xE36 JUMP JUMPDEST DUP5 DUP5 PUSH2 0xE3E JUMP JUMPDEST PUSH1 0x1 SWAP1 POP SWAP3 SWAP2 POP POP JUMP JUMPDEST PUSH1 0x0 PUSH1 0x2 SLOAD SWAP1 POP SWAP1 JUMP JUMPDEST PUSH1 0x0 PUSH2 0x57D DUP5 DUP5 DUP5 PUSH2 0x1009 JUMP JUMPDEST PUSH1 0x0 PUSH1 0x1 PUSH1 0x0 DUP7 PUSH20 0xFFFFFFFFFFFFFFFFFFFFFFFFFFFFFFFFFFFFFFFF AND PUSH20 0xFFFFFFFFFFFFFFFFFFFFFFFFFFFFFFFFFFFFFFFF AND DUP2 MSTORE PUSH1 0x20 ADD SWAP1 DUP2 MSTORE PUSH1 0x20 ADD PUSH1 0x0 KECCAK256 PUSH1 0x0 PUSH2 0x5C8 PUSH2 0xE36 JUMP JUMPDEST PUSH20 0xFFFFFFFFFFFFFFFFFFFFFFFFFFFFFFFFFFFFFFFF AND PUSH20 0xFFFFFFFFFFFFFFFFFFFFFFFFFFFFFFFFFFFFFFFF AND DUP2 MSTORE PUSH1 0x20 ADD SWAP1 DUP2 MSTORE PUSH1 0x20 ADD PUSH1 0x0 KECCAK256 SLOAD SWAP1 POP DUP3 DUP2 LT ISZERO PUSH2 0x648 JUMPI PUSH1 0x40 MLOAD PUSH32 0x8C379A000000000000000000000000000000000000000000000000000000000 DUP2 MSTORE PUSH1 0x4 ADD PUSH2 0x63F SWAP1 PUSH2 0x1991 JUMP JUMPDEST PUSH1 0x40 MLOAD DUP1 SWAP2 SUB SWAP1 REVERT JUMPDEST PUSH2 0x65C DUP6 PUSH2 0x654 PUSH2 0xE36 JUMP JUMPDEST DUP6 DUP5 SUB PUSH2 0xE3E JUMP JUMPDEST PUSH1 0x1 SWAP2 POP POP SWAP4 SWAP3 POP POP POP JUMP JUMPDEST PUSH1 0x0 PUSH1 0x12 SWAP1 POP SWAP1 JUMP JUMPDEST PUSH1 0x0 PUSH2 0x713 PUSH2 0x67E PUSH2 0xE36 JUMP JUMPDEST DUP5 DUP5 PUSH1 0x1 PUSH1 0x0 PUSH2 0x68C PUSH2 0xE36 JUMP JUMPDEST PUSH20 0xFFFFFFFFFFFFFFFFFFFFFFFFFFFFFFFFFFFFFFFF AND PUSH20 0xFFFFFFFFFFFFFFFFFFFFFFFFFFFFFFFFFFFFFFFF AND DUP2 MSTORE PUSH1 0x20 ADD SWAP1 DUP2 MSTORE PUSH1 0x20 ADD PUSH1 0x0 KECCAK256 PUSH1 0x0 DUP9 PUSH20 0xFFFFFFFFFFFFFFFFFFFFFFFFFFFFFFFFFFFFFFFF AND PUSH20 0xFFFFFFFFFFFFFFFFFFFFFFFFFFFFFFFFFFFFFFFF AND DUP2 MSTORE PUSH1 0x20 ADD SWAP1 DUP2 MSTORE PUSH1 0x20 ADD PUSH1 0x0 KECCAK256 SLOAD PUSH2 0x70E SWAP2 SWAP1 PUSH2 0x1AE3 JUMP JUMPDEST PUSH2 0xE3E JUMP JUMPDEST PUSH1 0x1 SWAP1 POP SWAP3 SWAP2 POP POP JUMP JUMPDEST PUSH1 0x6 PUSH1 0x20 MSTORE DUP1 PUSH1 0x0 MSTORE PUSH1 0x40 PUSH1 0x0 KECCAK256 PUSH1 0x0 SWAP2 POP SWAP1 POP DUP1 PUSH1 0x0 ADD SLOAD SWAP1 POP DUP2 JUMP JUMPDEST PUSH1 0x0 DUP1 PUSH1 0x0 DUP4 PUSH20 0xFFFFFFFFFFFFFFFFFFFFFFFFFFFFFFFFFFFFFFFF AND PUSH20 0xFFFFFFFFFFFFFFFFFFFFFFFFFFFFFFFFFFFFFFFF AND DUP2 MSTORE PUSH1 0x20 ADD SWAP1 DUP2 MSTORE PUSH1 0x20 ADD PUSH1 0x0 KECCAK256 SLOAD SWAP1 POP SWAP2 SWAP1 POP JUMP JUMPDEST PUSH2 0x78B PUSH2 0xE36 JUMP JUMPDEST PUSH20 0xFFFFFFFFFFFFFFFFFFFFFFFFFFFFFFFFFFFFFFFF AND PUSH2 0x7A9 PUSH2 0xA57 JUMP JUMPDEST PUSH20 0xFFFFFFFFFFFFFFFFFFFFFFFFFFFFFFFFFFFFFFFF AND EQ PUSH2 0x7FF JUMPI PUSH1 0x40 MLOAD PUSH32 0x8C379A000000000000000000000000000000000000000000000000000000000 DUP2 MSTORE PUSH1 0x4 ADD PUSH2 0x7F6 SWAP1 PUSH2 0x19B1 JUMP JUMPDEST PUSH1 0x40 MLOAD DUP1 SWAP2 SUB SWAP1 REVERT JUMPDEST PUSH2 0x809 PUSH1 0x0 PUSH2 0x128A JUMP JUMPDEST JUMP JUMPDEST PUSH1 0x0 PUSH2 0x816 DUP3 PUSH2 0x1350 JUMP JUMPDEST SWAP1 POP DUP1 CALLVALUE LT ISZERO PUSH2 0x85B JUMPI PUSH1 0x40 MLOAD PUSH32 0x8C379A000000000000000000000000000000000000000000000000000000000 DUP2 MSTORE PUSH1 0x4 ADD PUSH2 0x852 SWAP1 PUSH2 0x1951 JUMP JUMPDEST PUSH1 0x40 MLOAD DUP1 SWAP2 SUB SWAP1 REVERT JUMPDEST PUSH1 0x0 PUSH2 0x866 ADDRESS PUSH2 0xE24 JUMP JUMPDEST SWAP1 POP DUP1 DUP4 GT ISZERO PUSH2 0x8AB JUMPI PUSH1 0x40 MLOAD PUSH32 0x8C379A000000000000000000000000000000000000000000000000000000000 DUP2 MSTORE PUSH1 0x4 ADD PUSH2 0x8A2 SWAP1 PUSH2 0x19F1 JUMP JUMPDEST PUSH1 0x40 MLOAD DUP1 SWAP2 SUB SWAP1 REVERT JUMPDEST PUSH1 0x0 DUP3 CALLVALUE PUSH2 0x8B9 SWAP2 SWAP1 PUSH2 0x1B93 JUMP JUMPDEST SWAP1 POP CALLER PUSH20 0xFFFFFFFFFFFFFFFFFFFFFFFFFFFFFFFFFFFFFFFF AND PUSH2 0x8FC DUP3 SWAP1 DUP2 ISZERO MUL SWAP1 PUSH1 0x40 MLOAD PUSH1 0x0 PUSH1 0x40 MLOAD DUP1 DUP4 SUB DUP2 DUP6 DUP9 DUP9 CALL SWAP4 POP POP POP POP ISZERO DUP1 ISZERO PUSH2 0x901 JUMPI RETURNDATASIZE PUSH1 0x0 DUP1 RETURNDATACOPY RETURNDATASIZE PUSH1 0x0 REVERT JUMPDEST POP PUSH2 0x90D ADDRESS CALLER DUP7 PUSH2 0x1009 JUMP JUMPDEST DUP4 PUSH1 0x6 PUSH1 0x0 CALLER PUSH20 0xFFFFFFFFFFFFFFFFFFFFFFFFFFFFFFFFFFFFFFFF AND PUSH20 0xFFFFFFFFFFFFFFFFFFFFFFFFFFFFFFFFFFFFFFFF AND DUP2 MSTORE PUSH1 0x20 ADD SWAP1 DUP2 MSTORE PUSH1 0x20 ADD PUSH1 0x0 KECCAK256 PUSH1 0x0 ADD PUSH1 0x0 DUP3 DUP3 SLOAD PUSH2 0x95F SWAP2 SWAP1 PUSH2 0x1AE3 JUMP JUMPDEST SWAP3 POP POP DUP2 SWAP1 SSTORE POP POP POP POP POP JUMP JUMPDEST PUSH1 0x0 DUP2 GT PUSH2 0x9AF JUMPI PUSH1 0x40 MLOAD PUSH32 0x8C379A000000000000000000000000000000000000000000000000000000000 DUP2 MSTORE PUSH1 0x4 ADD PUSH2 0x9A6 SWAP1 PUSH2 0x1971 JUMP JUMPDEST PUSH1 0x40 MLOAD DUP1 SWAP2 SUB SWAP1 REVERT JUMPDEST PUSH2 0x9B8 CALLER PUSH2 0xE24 JUMP JUMPDEST DUP2 GT ISZERO PUSH2 0x9FA JUMPI PUSH1 0x40 MLOAD PUSH32 0x8C379A000000000000000000000000000000000000000000000000000000000 DUP2 MSTORE PUSH1 0x4 ADD PUSH2 0x9F1 SWAP1 PUSH2 0x1A31 JUMP JUMPDEST PUSH1 0x40 MLOAD DUP1 SWAP2 SUB SWAP1 REVERT JUMPDEST PUSH2 0xA05 CALLER ADDRESS DUP4 PUSH2 0x1009 JUMP JUMPDEST CALLER PUSH20 0xFFFFFFFFFFFFFFFFFFFFFFFFFFFFFFFFFFFFFFFF AND PUSH2 0x8FC PUSH2 0xA28 DUP4 PUSH2 0x1350 JUMP JUMPDEST SWAP1 DUP2 ISZERO MUL SWAP1 PUSH1 0x40 MLOAD PUSH1 0x0 PUSH1 0x40 MLOAD DUP1 DUP4 SUB DUP2 DUP6 DUP9 DUP9 CALL SWAP4 POP POP POP POP ISZERO DUP1 ISZERO PUSH2 0xA53 JUMPI RETURNDATASIZE PUSH1 0x0 DUP1 RETURNDATACOPY RETURNDATASIZE PUSH1 0x0 REVERT JUMPDEST POP POP JUMP JUMPDEST PUSH1 0x0 PUSH1 0x5 PUSH1 0x0 SWAP1 SLOAD SWAP1 PUSH2 0x100 EXP SWAP1 DIV PUSH20 0xFFFFFFFFFFFFFFFFFFFFFFFFFFFFFFFFFFFFFFFF AND SWAP1 POP SWAP1 JUMP JUMPDEST PUSH1 0x60 PUSH1 0x4 DUP1 SLOAD PUSH2 0xA90 SWAP1 PUSH2 0x1C4F JUMP JUMPDEST DUP1 PUSH1 0x1F ADD PUSH1 0x20 DUP1 SWAP2 DIV MUL PUSH1 0x20 ADD PUSH1 0x40 MLOAD SWAP1 DUP2 ADD PUSH1 0x40 MSTORE DUP1 SWAP3 SWAP2 SWAP1 DUP2 DUP2 MSTORE PUSH1 0x20 ADD DUP3 DUP1 SLOAD PUSH2 0xABC SWAP1 PUSH2 0x1C4F JUMP JUMPDEST DUP1 ISZERO PUSH2 0xB09 JUMPI DUP1 PUSH1 0x1F LT PUSH2 0xADE JUMPI PUSH2 0x100 DUP1 DUP4 SLOAD DIV MUL DUP4 MSTORE SWAP2 PUSH1 0x20 ADD SWAP2 PUSH2 0xB09 JUMP JUMPDEST DUP3 ADD SWAP2 SWAP1 PUSH1 0x0 MSTORE PUSH1 0x20 PUSH1 0x0 KECCAK256 SWAP1 JUMPDEST DUP2 SLOAD DUP2 MSTORE SWAP1 PUSH1 0x1 ADD SWAP1 PUSH1 0x20 ADD DUP1 DUP4 GT PUSH2 0xAEC JUMPI DUP3 SWAP1 SUB PUSH1 0x1F AND DUP3 ADD SWAP2 JUMPDEST POP POP POP POP POP SWAP1 POP SWAP1 JUMP JUMPDEST PUSH2 0xB1B PUSH2 0xE36 JUMP JUMPDEST PUSH20 0xFFFFFFFFFFFFFFFFFFFFFFFFFFFFFFFFFFFFFFFF AND PUSH2 0xB39 PUSH2 0xA57 JUMP JUMPDEST PUSH20 0xFFFFFFFFFFFFFFFFFFFFFFFFFFFFFFFFFFFFFFFF AND EQ PUSH2 0xB8F JUMPI PUSH1 0x40 MLOAD PUSH32 0x8C379A000000000000000000000000000000000000000000000000000000000 DUP2 MSTORE PUSH1 0x4 ADD PUSH2 0xB86 SWAP1 PUSH2 0x19B1 JUMP JUMPDEST PUSH1 0x40 MLOAD DUP1 SWAP2 SUB SWAP1 REVERT JUMPDEST PUSH2 0xB99 ADDRESS DUP3 PUSH2 0x136D JUMP JUMPDEST POP JUMP JUMPDEST PUSH1 0x0 DUP1 PUSH1 0x1 PUSH1 0x0 PUSH2 0xBAB PUSH2 0xE36 JUMP JUMPDEST PUSH20 0xFFFFFFFFFFFFFFFFFFFFFFFFFFFFFFFFFFFFFFFF AND PUSH20 0xFFFFFFFFFFFFFFFFFFFFFFFFFFFFFFFFFFFFFFFF AND DUP2 MSTORE PUSH1 0x20 ADD SWAP1 DUP2 MSTORE PUSH1 0x20 ADD PUSH1 0x0 KECCAK256 PUSH1 0x0 DUP6 PUSH20 0xFFFFFFFFFFFFFFFFFFFFFFFFFFFFFFFFFFFFFFFF AND PUSH20 0xFFFFFFFFFFFFFFFFFFFFFFFFFFFFFFFFFFFFFFFF AND DUP2 MSTORE PUSH1 0x20 ADD SWAP1 DUP2 MSTORE PUSH1 0x20 ADD PUSH1 0x0 KECCAK256 SLOAD SWAP1 POP DUP3 DUP2 LT ISZERO PUSH2 0xC68 JUMPI PUSH1 0x40 MLOAD PUSH32 0x8C379A000000000000000000000000000000000000000000000000000000000 DUP2 MSTORE PUSH1 0x4 ADD PUSH2 0xC5F SWAP1 PUSH2 0x1A51 JUMP JUMPDEST PUSH1 0x40 MLOAD DUP1 SWAP2 SUB SWAP1 REVERT JUMPDEST PUSH2 0xC7C PUSH2 0xC73 PUSH2 0xE36 JUMP JUMPDEST DUP6 DUP6 DUP5 SUB PUSH2 0xE3E JUMP JUMPDEST PUSH1 0x1 SWAP2 POP POP SWAP3 SWAP2 POP POP JUMP JUMPDEST PUSH1 0x0 PUSH2 0xC9B PUSH2 0xC94 PUSH2 0xE36 JUMP JUMPDEST DUP5 DUP5 PUSH2 0x1009 JUMP JUMPDEST PUSH1 0x1 SWAP1 POP SWAP3 SWAP2 POP POP JUMP JUMPDEST PUSH1 0x0 PUSH1 0x1 PUSH1 0x0 DUP5 PUSH20 0xFFFFFFFFFFFFFFFFFFFFFFFFFFFFFFFFFFFFFFFF AND PUSH20 0xFFFFFFFFFFFFFFFFFFFFFFFFFFFFFFFFFFFFFFFF AND DUP2 MSTORE PUSH1 0x20 ADD SWAP1 DUP2 MSTORE PUSH1 0x20 ADD PUSH1 0x0 KECCAK256 PUSH1 0x0 DUP4 PUSH20 0xFFFFFFFFFFFFFFFFFFFFFFFFFFFFFFFFFFFFFFFF AND PUSH20 0xFFFFFFFFFFFFFFFFFFFFFFFFFFFFFFFFFFFFFFFF AND DUP2 MSTORE PUSH1 0x20 ADD SWAP1 DUP2 MSTORE PUSH1 0x20 ADD PUSH1 0x0 KECCAK256 SLOAD SWAP1 POP SWAP3 SWAP2 POP POP JUMP JUMPDEST PUSH2 0xD34 PUSH2 0xE36 JUMP JUMPDEST PUSH20 0xFFFFFFFFFFFFFFFFFFFFFFFFFFFFFFFFFFFFFFFF AND PUSH2 0xD52 PUSH2 0xA57 JUMP JUMPDEST PUSH20 0xFFFFFFFFFFFFFFFFFFFFFFFFFFFFFFFFFFFFFFFF AND EQ PUSH2 0xDA8 JUMPI PUSH1 0x40 MLOAD PUSH32 0x8C379A000000000000000000000000000000000000000000000000000000000 DUP2 MSTORE PUSH1 0x4 ADD PUSH2 0xD9F SWAP1 PUSH2 0x19B1 JUMP JUMPDEST PUSH1 0x40 MLOAD DUP1 SWAP2 SUB SWAP1 REVERT JUMPDEST PUSH1 0x0 PUSH20 0xFFFFFFFFFFFFFFFFFFFFFFFFFFFFFFFFFFFFFFFF AND DUP2 PUSH20 0xFFFFFFFFFFFFFFFFFFFFFFFFFFFFFFFFFFFFFFFF AND EQ ISZERO PUSH2 0xE18 JUMPI PUSH1 0x40 MLOAD PUSH32 0x8C379A000000000000000000000000000000000000000000000000000000000 DUP2 MSTORE PUSH1 0x4 ADD PUSH2 0xE0F SWAP1 PUSH2 0x18F1 JUMP JUMPDEST PUSH1 0x40 MLOAD DUP1 SWAP2 SUB SWAP1 REVERT JUMPDEST PUSH2 0xE21 DUP2 PUSH2 0x128A JUMP JUMPDEST POP JUMP JUMPDEST PUSH1 0x0 PUSH2 0xE2F DUP3 PUSH2 0x73B JUMP JUMPDEST SWAP1 POP SWAP2 SWAP1 POP JUMP JUMPDEST PUSH1 0x0 CALLER SWAP1 POP SWAP1 JUMP JUMPDEST PUSH1 0x0 PUSH20 0xFFFFFFFFFFFFFFFFFFFFFFFFFFFFFFFFFFFFFFFF AND DUP4 PUSH20 0xFFFFFFFFFFFFFFFFFFFFFFFFFFFFFFFFFFFFFFFF AND EQ ISZERO PUSH2 0xEAE JUMPI PUSH1 0x40 MLOAD PUSH32 0x8C379A000000000000000000000000000000000000000000000000000000000 DUP2 MSTORE PUSH1 0x4 ADD PUSH2 0xEA5 SWAP1 PUSH2 0x1A11 JUMP JUMPDEST PUSH1 0x40 MLOAD DUP1 SWAP2 SUB SWAP1 REVERT JUMPDEST PUSH1 0x0 PUSH20 0xFFFFFFFFFFFFFFFFFFFFFFFFFFFFFFFFFFFFFFFF AND DUP3 PUSH20 0xFFFFFFFFFFFFFFFFFFFFFFFFFFFFFFFFFFFFFFFF AND EQ ISZERO PUSH2 0xF1E JUMPI PUSH1 0x40 MLOAD PUSH32 0x8C379A000000000000000000000000000000000000000000000000000000000 DUP2 MSTORE PUSH1 0x4 ADD PUSH2 0xF15 SWAP1 PUSH2 0x1911 JUMP JUMPDEST PUSH1 0x40 MLOAD DUP1 SWAP2 SUB SWAP1 REVERT JUMPDEST DUP1 PUSH1 0x1 PUSH1 0x0 DUP6 PUSH20 0xFFFFFFFFFFFFFFFFFFFFFFFFFFFFFFFFFFFFFFFF AND PUSH20 0xFFFFFFFFFFFFFFFFFFFFFFFFFFFFFFFFFFFFFFFF AND DUP2 MSTORE PUSH1 0x20 ADD SWAP1 DUP2 MSTORE PUSH1 0x20 ADD PUSH1 0x0 KECCAK256 PUSH1 0x0 DUP5 PUSH20 0xFFFFFFFFFFFFFFFFFFFFFFFFFFFFFFFFFFFFFFFF AND PUSH20 0xFFFFFFFFFFFFFFFFFFFFFFFFFFFFFFFFFFFFFFFF AND DUP2 MSTORE PUSH1 0x20 ADD SWAP1 DUP2 MSTORE PUSH1 0x20 ADD PUSH1 0x0 KECCAK256 DUP2 SWAP1 SSTORE POP DUP2 PUSH20 0xFFFFFFFFFFFFFFFFFFFFFFFFFFFFFFFFFFFFFFFF AND DUP4 PUSH20 0xFFFFFFFFFFFFFFFFFFFFFFFFFFFFFFFFFFFFFFFF AND PUSH32 0x8C5BE1E5EBEC7D5BD14F71427D1E84F3DD0314C0F7B2291E5B200AC8C7C3B925 DUP4 PUSH1 0x40 MLOAD PUSH2 0xFFC SWAP2 SWAP1 PUSH2 0x1A91 JUMP JUMPDEST PUSH1 0x40 MLOAD DUP1 SWAP2 SUB SWAP1 LOG3 POP POP POP JUMP JUMPDEST PUSH1 0x0 PUSH20 0xFFFFFFFFFFFFFFFFFFFFFFFFFFFFFFFFFFFFFFFF AND DUP4 PUSH20 0xFFFFFFFFFFFFFFFFFFFFFFFFFFFFFFFFFFFFFFFF AND EQ ISZERO PUSH2 0x1079 JUMPI PUSH1 0x40 MLOAD PUSH32 0x8C379A000000000000000000000000000000000000000000000000000000000 DUP2 MSTORE PUSH1 0x4 ADD PUSH2 0x1070 SWAP1 PUSH2 0x19D1 JUMP JUMPDEST PUSH1 0x40 MLOAD DUP1 SWAP2 SUB SWAP1 REVERT JUMPDEST PUSH1 0x0 PUSH20 0xFFFFFFFFFFFFFFFFFFFFFFFFFFFFFFFFFFFFFFFF AND DUP3 PUSH20 0xFFFFFFFFFFFFFFFFFFFFFFFFFFFFFFFFFFFFFFFF AND EQ ISZERO PUSH2 0x10E9 JUMPI PUSH1 0x40 MLOAD PUSH32 0x8C379A000000000000000000000000000000000000000000000000000000000 DUP2 MSTORE PUSH1 0x4 ADD PUSH2 0x10E0 SWAP1 PUSH2 0x18D1 JUMP JUMPDEST PUSH1 0x40 MLOAD DUP1 SWAP2 SUB SWAP1 REVERT JUMPDEST PUSH2 0x10F4 DUP4 DUP4 DUP4 PUSH2 0x14CD JUMP JUMPDEST PUSH1 0x0 DUP1 PUSH1 0x0 DUP6 PUSH20 0xFFFFFFFFFFFFFFFFFFFFFFFFFFFFFFFFFFFFFFFF AND PUSH20 0xFFFFFFFFFFFFFFFFFFFFFFFFFFFFFFFFFFFFFFFF AND DUP2 MSTORE PUSH1 0x20 ADD SWAP1 DUP2 MSTORE PUSH1 0x20 ADD PUSH1 0x0 KECCAK256 SLOAD SWAP1 POP DUP2 DUP2 LT ISZERO PUSH2 0x117A JUMPI PUSH1 0x40 MLOAD PUSH32 0x8C379A000000000000000000000000000000000000000000000000000000000 DUP2 MSTORE PUSH1 0x4 ADD PUSH2 0x1171 SWAP1 PUSH2 0x1931 JUMP JUMPDEST PUSH1 0x40 MLOAD DUP1 SWAP2 SUB SWAP1 REVERT JUMPDEST DUP2 DUP2 SUB PUSH1 0x0 DUP1 DUP7 PUSH20 0xFFFFFFFFFFFFFFFFFFFFFFFFFFFFFFFFFFFFFFFF AND PUSH20 0xFFFFFFFFFFFFFFFFFFFFFFFFFFFFFFFFFFFFFFFF AND DUP2 MSTORE PUSH1 0x20 ADD SWAP1 DUP2 MSTORE PUSH1 0x20 ADD PUSH1 0x0 KECCAK256 DUP2 SWAP1 SSTORE POP DUP2 PUSH1 0x0 DUP1 DUP6 PUSH20 0xFFFFFFFFFFFFFFFFFFFFFFFFFFFFFFFFFFFFFFFF AND PUSH20 0xFFFFFFFFFFFFFFFFFFFFFFFFFFFFFFFFFFFFFFFF AND DUP2 MSTORE PUSH1 0x20 ADD SWAP1 DUP2 MSTORE PUSH1 0x20 ADD PUSH1 0x0 KECCAK256 PUSH1 0x0 DUP3 DUP3 SLOAD PUSH2 0x120D SWAP2 SWAP1 PUSH2 0x1AE3 JUMP JUMPDEST SWAP3 POP POP DUP2 SWAP1 SSTORE POP DUP3 PUSH20 0xFFFFFFFFFFFFFFFFFFFFFFFFFFFFFFFFFFFFFFFF AND DUP5 PUSH20 0xFFFFFFFFFFFFFFFFFFFFFFFFFFFFFFFFFFFFFFFF AND PUSH32 0xDDF252AD1BE2C89B69C2B068FC378DAA952BA7F163C4A11628F55A4DF523B3EF DUP5 PUSH1 0x40 MLOAD PUSH2 0x1271 SWAP2 SWAP1 PUSH2 0x1A91 JUMP JUMPDEST PUSH1 0x40 MLOAD DUP1 SWAP2 SUB SWAP1 LOG3 PUSH2 0x1284 DUP5 DUP5 DUP5 PUSH2 0x14D2 JUMP JUMPDEST POP POP POP POP JUMP JUMPDEST PUSH1 0x0 PUSH1 0x5 PUSH1 0x0 SWAP1 SLOAD SWAP1 PUSH2 0x100 EXP SWAP1 DIV PUSH20 0xFFFFFFFFFFFFFFFFFFFFFFFFFFFFFFFFFFFFFFFF AND SWAP1 POP DUP2 PUSH1 0x5 PUSH1 0x0 PUSH2 0x100 EXP DUP2 SLOAD DUP2 PUSH20 0xFFFFFFFFFFFFFFFFFFFFFFFFFFFFFFFFFFFFFFFF MUL NOT AND SWAP1 DUP4 PUSH20 0xFFFFFFFFFFFFFFFFFFFFFFFFFFFFFFFFFFFFFFFF AND MUL OR SWAP1 SSTORE POP DUP2 PUSH20 0xFFFFFFFFFFFFFFFFFFFFFFFFFFFFFFFFFFFFFFFF AND DUP2 PUSH20 0xFFFFFFFFFFFFFFFFFFFFFFFFFFFFFFFFFFFFFFFF AND PUSH32 0x8BE0079C531659141344CD1FD0A4F28419497F9722A3DAAFE3B4186F6B6457E0 PUSH1 0x40 MLOAD PUSH1 0x40 MLOAD DUP1 SWAP2 SUB SWAP1 LOG3 POP POP JUMP JUMPDEST PUSH1 0x0 PUSH8 0xDE0B6B3A7640000 DUP3 PUSH2 0x1366 SWAP2 SWAP1 PUSH2 0x1B39 JUMP JUMPDEST SWAP1 POP SWAP2 SWAP1 POP JUMP JUMPDEST PUSH1 0x0 PUSH20 0xFFFFFFFFFFFFFFFFFFFFFFFFFFFFFFFFFFFFFFFF AND DUP3 PUSH20 0xFFFFFFFFFFFFFFFFFFFFFFFFFFFFFFFFFFFFFFFF AND EQ ISZERO PUSH2 0x13DD JUMPI PUSH1 0x40 MLOAD PUSH32 0x8C379A000000000000000000000000000000000000000000000000000000000 DUP2 MSTORE PUSH1 0x4 ADD PUSH2 0x13D4 SWAP1 PUSH2 0x1A71 JUMP JUMPDEST PUSH1 0x40 MLOAD DUP1 SWAP2 SUB SWAP1 REVERT JUMPDEST PUSH2 0x13E9 PUSH1 0x0 DUP4 DUP4 PUSH2 0x14CD JUMP JUMPDEST DUP1 PUSH1 0x2 PUSH1 0x0 DUP3 DUP3 SLOAD PUSH2 0x13FB SWAP2 SWAP1 PUSH2 0x1AE3 JUMP JUMPDEST SWAP3 POP POP DUP2 SWAP1 SSTORE POP DUP1 PUSH1 0x0 DUP1 DUP5 PUSH20 0xFFFFFFFFFFFFFFFFFFFFFFFFFFFFFFFFFFFFFFFF AND PUSH20 0xFFFFFFFFFFFFFFFFFFFFFFFFFFFFFFFFFFFFFFFF AND DUP2 MSTORE PUSH1 0x20 ADD SWAP1 DUP2 MSTORE PUSH1 0x20 ADD PUSH1 0x0 KECCAK256 PUSH1 0x0 DUP3 DUP3 SLOAD PUSH2 0x1450 SWAP2 SWAP1 PUSH2 0x1AE3 JUMP JUMPDEST SWAP3 POP POP DUP2 SWAP1 SSTORE POP DUP2 PUSH20 0xFFFFFFFFFFFFFFFFFFFFFFFFFFFFFFFFFFFFFFFF AND PUSH1 0x0 PUSH20 0xFFFFFFFFFFFFFFFFFFFFFFFFFFFFFFFFFFFFFFFF AND PUSH32 0xDDF252AD1BE2C89B69C2B068FC378DAA952BA7F163C4A11628F55A4DF523B3EF DUP4 PUSH1 0x40 MLOAD PUSH2 0x14B5 SWAP2 SWAP1 PUSH2 0x1A91 JUMP JUMPDEST PUSH1 0x40 MLOAD DUP1 SWAP2 SUB SWAP1 LOG3 PUSH2 0x14C9 PUSH1 0x0 DUP4 DUP4 PUSH2 0x14D2 JUMP JUMPDEST POP POP JUMP JUMPDEST POP POP POP JUMP JUMPDEST POP POP POP JUMP JUMPDEST PUSH1 0x0 DUP2 CALLDATALOAD SWAP1 POP PUSH2 0x14E6 DUP2 PUSH2 0x20D0 JUMP JUMPDEST SWAP3 SWAP2 POP POP JUMP JUMPDEST PUSH1 0x0 DUP2 CALLDATALOAD SWAP1 POP PUSH2 0x14FB DUP2 PUSH2 0x20E7 JUMP JUMPDEST SWAP3 SWAP2 POP POP JUMP JUMPDEST PUSH1 0x0 PUSH1 0x20 DUP3 DUP5 SUB SLT ISZERO PUSH2 0x1513 JUMPI PUSH1 0x0 DUP1 REVERT JUMPDEST PUSH1 0x0 PUSH2 0x1521 DUP5 DUP3 DUP6 ADD PUSH2 0x14D7 JUMP JUMPDEST SWAP2 POP POP SWAP3 SWAP2 POP POP JUMP JUMPDEST PUSH1 0x0 DUP1 PUSH1 0x40 DUP4 DUP6 SUB SLT ISZERO PUSH2 0x153D JUMPI PUSH1 0x0 DUP1 REVERT JUMPDEST PUSH1 0x0 PUSH2 0x154B DUP6 DUP3 DUP7 ADD PUSH2 0x14D7 JUMP JUMPDEST SWAP3 POP POP PUSH1 0x20 PUSH2 0x155C DUP6 DUP3 DUP7 ADD PUSH2 0x14D7 JUMP JUMPDEST SWAP2 POP POP SWAP3 POP SWAP3 SWAP1 POP JUMP JUMPDEST PUSH1 0x0 DUP1 PUSH1 0x0 PUSH1 0x60 DUP5 DUP7 SUB SLT ISZERO PUSH2 0x157B JUMPI PUSH1 0x0 DUP1 REVERT JUMPDEST PUSH1 0x0 PUSH2 0x1589 DUP7 DUP3 DUP8 ADD PUSH2 0x14D7 JUMP JUMPDEST SWAP4 POP POP PUSH1 0x20 PUSH2 0x159A DUP7 DUP3 DUP8 ADD PUSH2 0x14D7 JUMP JUMPDEST SWAP3 POP POP PUSH1 0x40 PUSH2 0x15AB DUP7 DUP3 DUP8 ADD PUSH2 0x14EC JUMP JUMPDEST SWAP2 POP POP SWAP3 POP SWAP3 POP SWAP3 JUMP JUMPDEST PUSH1 0x0 DUP1 PUSH1 0x40 DUP4 DUP6 SUB SLT ISZERO PUSH2 0x15C8 JUMPI PUSH1 0x0 DUP1 REVERT JUMPDEST PUSH1 0x0 PUSH2 0x15D6 DUP6 DUP3 DUP7 ADD PUSH2 0x14D7 JUMP JUMPDEST SWAP3 POP POP PUSH1 0x20 PUSH2 0x15E7 DUP6 DUP3 DUP7 ADD PUSH2 0x14EC JUMP JUMPDEST SWAP2 POP POP SWAP3 POP SWAP3 SWAP1 POP JUMP JUMPDEST PUSH1 0x0 PUSH1 0x20 DUP3 DUP5 SUB SLT ISZERO PUSH2 0x1603 JUMPI PUSH1 0x0 DUP1 REVERT JUMPDEST PUSH1 0x0 PUSH2 0x1611 DUP5 DUP3 DUP6 ADD PUSH2 0x14EC JUMP JUMPDEST SWAP2 POP POP SWAP3 SWAP2 POP POP JUMP JUMPDEST PUSH2 0x1623 DUP2 PUSH2 0x1BC7 JUMP JUMPDEST DUP3 MSTORE POP POP JUMP JUMPDEST PUSH2 0x1632 DUP2 PUSH2 0x1BD9 JUMP JUMPDEST DUP3 MSTORE POP POP JUMP JUMPDEST PUSH1 0x0 PUSH2 0x1643 DUP3 PUSH2 0x1AC7 JUMP JUMPDEST PUSH2 0x164D DUP2 DUP6 PUSH2 0x1AD2 JUMP JUMPDEST SWAP4 POP PUSH2 0x165D DUP2 DUP6 PUSH1 0x20 DUP7 ADD PUSH2 0x1C1C JUMP JUMPDEST PUSH2 0x1666 DUP2 PUSH2 0x1CDF JUMP JUMPDEST DUP5 ADD SWAP2 POP POP SWAP3 SWAP2 POP POP JUMP JUMPDEST PUSH1 0x0 PUSH2 0x167E PUSH1 0x23 DUP4 PUSH2 0x1AD2 JUMP JUMPDEST SWAP2 POP PUSH2 0x1689 DUP3 PUSH2 0x1CF0 JUMP JUMPDEST PUSH1 0x40 DUP3 ADD SWAP1 POP SWAP2 SWAP1 POP JUMP JUMPDEST PUSH1 0x0 PUSH2 0x16A1 PUSH1 0x26 DUP4 PUSH2 0x1AD2 JUMP JUMPDEST SWAP2 POP PUSH2 0x16AC DUP3 PUSH2 0x1D3F JUMP JUMPDEST PUSH1 0x40 DUP3 ADD SWAP1 POP SWAP2 SWAP1 POP JUMP JUMPDEST PUSH1 0x0 PUSH2 0x16C4 PUSH1 0x22 DUP4 PUSH2 0x1AD2 JUMP JUMPDEST SWAP2 POP PUSH2 0x16CF DUP3 PUSH2 0x1D8E JUMP JUMPDEST PUSH1 0x40 DUP3 ADD SWAP1 POP SWAP2 SWAP1 POP JUMP JUMPDEST PUSH1 0x0 PUSH2 0x16E7 PUSH1 0x26 DUP4 PUSH2 0x1AD2 JUMP JUMPDEST SWAP2 POP PUSH2 0x16F2 DUP3 PUSH2 0x1DDD JUMP JUMPDEST PUSH1 0x40 DUP3 ADD SWAP1 POP SWAP2 SWAP1 POP JUMP JUMPDEST PUSH1 0x0 PUSH2 0x170A PUSH1 0x28 DUP4 PUSH2 0x1AD2 JUMP JUMPDEST SWAP2 POP PUSH2 0x1715 DUP3 PUSH2 0x1E2C JUMP JUMPDEST PUSH1 0x40 DUP3 ADD SWAP1 POP SWAP2 SWAP1 POP JUMP JUMPDEST PUSH1 0x0 PUSH2 0x172D PUSH1 0x2F DUP4 PUSH2 0x1AD2 JUMP JUMPDEST SWAP2 POP PUSH2 0x1738 DUP3 PUSH2 0x1E7B JUMP JUMPDEST PUSH1 0x40 DUP3 ADD SWAP1 POP SWAP2 SWAP1 POP JUMP JUMPDEST PUSH1 0x0 PUSH2 0x1750 PUSH1 0x28 DUP4 PUSH2 0x1AD2 JUMP JUMPDEST SWAP2 POP PUSH2 0x175B DUP3 PUSH2 0x1ECA JUMP JUMPDEST PUSH1 0x40 DUP3 ADD SWAP1 POP SWAP2 SWAP1 POP JUMP JUMPDEST PUSH1 0x0 PUSH2 0x1773 PUSH1 0x20 DUP4 PUSH2 0x1AD2 JUMP JUMPDEST SWAP2 POP PUSH2 0x177E DUP3 PUSH2 0x1F19 JUMP JUMPDEST PUSH1 0x20 DUP3 ADD SWAP1 POP SWAP2 SWAP1 POP JUMP JUMPDEST PUSH1 0x0 PUSH2 0x1796 PUSH1 0x25 DUP4 PUSH2 0x1AD2 JUMP JUMPDEST SWAP2 POP PUSH2 0x17A1 DUP3 PUSH2 0x1F42 JUMP JUMPDEST PUSH1 0x40 DUP3 ADD SWAP1 POP SWAP2 SWAP1 POP JUMP JUMPDEST PUSH1 0x0 PUSH2 0x17B9 PUSH1 0x1F DUP4 PUSH2 0x1AD2 JUMP JUMPDEST SWAP2 POP PUSH2 0x17C4 DUP3 PUSH2 0x1F91 JUMP JUMPDEST PUSH1 0x20 DUP3 ADD SWAP1 POP SWAP2 SWAP1 POP JUMP JUMPDEST PUSH1 0x0 PUSH2 0x17DC PUSH1 0x24 DUP4 PUSH2 0x1AD2 JUMP JUMPDEST SWAP2 POP PUSH2 0x17E7 DUP3 PUSH2 0x1FBA JUMP JUMPDEST PUSH1 0x40 DUP3 ADD SWAP1 POP SWAP2 SWAP1 POP JUMP JUMPDEST PUSH1 0x0 PUSH2 0x17FF PUSH1 0x2E DUP4 PUSH2 0x1AD2 JUMP JUMPDEST SWAP2 POP PUSH2 0x180A DUP3 PUSH2 0x2009 JUMP JUMPDEST PUSH1 0x40 DUP3 ADD SWAP1 POP SWAP2 SWAP1 POP JUMP JUMPDEST PUSH1 0x0 PUSH2 0x1822 PUSH1 0x25 DUP4 PUSH2 0x1AD2 JUMP JUMPDEST SWAP2 POP PUSH2 0x182D DUP3 PUSH2 0x2058 JUMP JUMPDEST PUSH1 0x40 DUP3 ADD SWAP1 POP SWAP2 SWAP1 POP JUMP JUMPDEST PUSH1 0x0 PUSH2 0x1845 PUSH1 0x1F DUP4 PUSH2 0x1AD2 JUMP JUMPDEST SWAP2 POP PUSH2 0x1850 DUP3 PUSH2 0x20A7 JUMP JUMPDEST PUSH1 0x20 DUP3 ADD SWAP1 POP SWAP2 SWAP1 POP JUMP JUMPDEST PUSH2 0x1864 DUP2 PUSH2 0x1C05 JUMP JUMPDEST DUP3 MSTORE POP POP JUMP JUMPDEST PUSH2 0x1873 DUP2 PUSH2 0x1C0F JUMP JUMPDEST DUP3 MSTORE POP POP JUMP JUMPDEST PUSH1 0x0 PUSH1 0x20 DUP3 ADD SWAP1 POP PUSH2 0x188E PUSH1 0x0 DUP4 ADD DUP5 PUSH2 0x161A JUMP JUMPDEST SWAP3 SWAP2 POP POP JUMP JUMPDEST PUSH1 0x0 PUSH1 0x20 DUP3 ADD SWAP1 POP PUSH2 0x18A9 PUSH1 0x0 DUP4 ADD DUP5 PUSH2 0x1629 JUMP JUMPDEST SWAP3 SWAP2 POP POP JUMP JUMPDEST PUSH1 0x0 PUSH1 0x20 DUP3 ADD SWAP1 POP DUP2 DUP2 SUB PUSH1 0x0 DUP4 ADD MSTORE PUSH2 0x18C9 DUP2 DUP5 PUSH2 0x1638 JUMP JUMPDEST SWAP1 POP SWAP3 SWAP2 POP POP JUMP JUMPDEST PUSH1 0x0 PUSH1 0x20 DUP3 ADD SWAP1 POP DUP2 DUP2 SUB PUSH1 0x0 DUP4 ADD MSTORE PUSH2 0x18EA DUP2 PUSH2 0x1671 JUMP JUMPDEST SWAP1 POP SWAP2 SWAP1 POP JUMP JUMPDEST PUSH1 0x0 PUSH1 0x20 DUP3 ADD SWAP1 POP DUP2 DUP2 SUB PUSH1 0x0 DUP4 ADD MSTORE PUSH2 0x190A DUP2 PUSH2 0x1694 JUMP JUMPDEST SWAP1 POP SWAP2 SWAP1 POP JUMP JUMPDEST PUSH1 0x0 PUSH1 0x20 DUP3 ADD SWAP1 POP DUP2 DUP2 SUB PUSH1 0x0 DUP4 ADD MSTORE PUSH2 0x192A DUP2 PUSH2 0x16B7 JUMP JUMPDEST SWAP1 POP SWAP2 SWAP1 POP JUMP JUMPDEST PUSH1 0x0 PUSH1 0x20 DUP3 ADD SWAP1 POP DUP2 DUP2 SUB PUSH1 0x0 DUP4 ADD MSTORE PUSH2 0x194A DUP2 PUSH2 0x16DA JUMP JUMPDEST SWAP1 POP SWAP2 SWAP1 POP JUMP JUMPDEST PUSH1 0x0 PUSH1 0x20 DUP3 ADD SWAP1 POP DUP2 DUP2 SUB PUSH1 0x0 DUP4 ADD MSTORE PUSH2 0x196A DUP2 PUSH2 0x16FD JUMP JUMPDEST SWAP1 POP SWAP2 SWAP1 POP JUMP JUMPDEST PUSH1 0x0 PUSH1 0x20 DUP3 ADD SWAP1 POP DUP2 DUP2 SUB PUSH1 0x0 DUP4 ADD MSTORE PUSH2 0x198A DUP2 PUSH2 0x1720 JUMP JUMPDEST SWAP1 POP SWAP2 SWAP1 POP JUMP JUMPDEST PUSH1 0x0 PUSH1 0x20 DUP3 ADD SWAP1 POP DUP2 DUP2 SUB PUSH1 0x0 DUP4 ADD MSTORE PUSH2 0x19AA DUP2 PUSH2 0x1743 JUMP JUMPDEST SWAP1 POP SWAP2 SWAP1 POP JUMP JUMPDEST PUSH1 0x0 PUSH1 0x20 DUP3 ADD SWAP1 POP DUP2 DUP2 SUB PUSH1 0x0 DUP4 ADD MSTORE PUSH2 0x19CA DUP2 PUSH2 0x1766 JUMP JUMPDEST SWAP1 POP SWAP2 SWAP1 POP JUMP JUMPDEST PUSH1 0x0 PUSH1 0x20 DUP3 ADD SWAP1 POP DUP2 DUP2 SUB PUSH1 0x0 DUP4 ADD MSTORE PUSH2 0x19EA DUP2 PUSH2 0x1789 JUMP JUMPDEST SWAP1 POP SWAP2 SWAP1 POP JUMP JUMPDEST PUSH1 0x0 PUSH1 0x20 DUP3 ADD SWAP1 POP DUP2 DUP2 SUB PUSH1 0x0 DUP4 ADD MSTORE PUSH2 0x1A0A DUP2 PUSH2 0x17AC JUMP JUMPDEST SWAP1 POP SWAP2 SWAP1 POP JUMP JUMPDEST PUSH1 0x0 PUSH1 0x20 DUP3 ADD SWAP1 POP DUP2 DUP2 SUB PUSH1 0x0 DUP4 ADD MSTORE PUSH2 0x1A2A DUP2 PUSH2 0x17CF JUMP JUMPDEST SWAP1 POP SWAP2 SWAP1 POP JUMP JUMPDEST PUSH1 0x0 PUSH1 0x20 DUP3 ADD SWAP1 POP DUP2 DUP2 SUB PUSH1 0x0 DUP4 ADD MSTORE PUSH2 0x1A4A DUP2 PUSH2 0x17F2 JUMP JUMPDEST SWAP1 POP SWAP2 SWAP1 POP JUMP JUMPDEST PUSH1 0x0 PUSH1 0x20 DUP3 ADD SWAP1 POP DUP2 DUP2 SUB PUSH1 0x0 DUP4 ADD MSTORE PUSH2 0x1A6A DUP2 PUSH2 0x1815 JUMP JUMPDEST SWAP1 POP SWAP2 SWAP1 POP JUMP JUMPDEST PUSH1 0x0 PUSH1 0x20 DUP3 ADD SWAP1 POP DUP2 DUP2 SUB PUSH1 0x0 DUP4 ADD MSTORE PUSH2 0x1A8A DUP2 PUSH2 0x1838 JUMP JUMPDEST SWAP1 POP SWAP2 SWAP1 POP JUMP JUMPDEST PUSH1 0x0 PUSH1 0x20 DUP3 ADD SWAP1 POP PUSH2 0x1AA6 PUSH1 0x0 DUP4 ADD DUP5 PUSH2 0x185B JUMP JUMPDEST SWAP3 SWAP2 POP POP JUMP JUMPDEST PUSH1 0x0 PUSH1 0x20 DUP3 ADD SWAP1 POP PUSH2 0x1AC1 PUSH1 0x0 DUP4 ADD DUP5 PUSH2 0x186A JUMP JUMPDEST SWAP3 SWAP2 POP POP JUMP JUMPDEST PUSH1 0x0 DUP2 MLOAD SWAP1 POP SWAP2 SWAP1 POP JUMP JUMPDEST PUSH1 0x0 DUP3 DUP3 MSTORE PUSH1 0x20 DUP3 ADD SWAP1 POP SWAP3 SWAP2 POP POP JUMP JUMPDEST PUSH1 0x0 PUSH2 0x1AEE DUP3 PUSH2 0x1C05 JUMP JUMPDEST SWAP2 POP PUSH2 0x1AF9 DUP4 PUSH2 0x1C05 JUMP JUMPDEST SWAP3 POP DUP3 PUSH32 0xFFFFFFFFFFFFFFFFFFFFFFFFFFFFFFFFFFFFFFFFFFFFFFFFFFFFFFFFFFFFFFFF SUB DUP3 GT ISZERO PUSH2 0x1B2E JUMPI PUSH2 0x1B2D PUSH2 0x1C81 JUMP JUMPDEST JUMPDEST DUP3 DUP3 ADD SWAP1 POP SWAP3 SWAP2 POP POP JUMP JUMPDEST PUSH1 0x0 PUSH2 0x1B44 DUP3 PUSH2 0x1C05 JUMP JUMPDEST SWAP2 POP PUSH2 0x1B4F DUP4 PUSH2 0x1C05 JUMP JUMPDEST SWAP3 POP DUP2 PUSH32 0xFFFFFFFFFFFFFFFFFFFFFFFFFFFFFFFFFFFFFFFFFFFFFFFFFFFFFFFFFFFFFFFF DIV DUP4 GT DUP3 ISZERO ISZERO AND ISZERO PUSH2 0x1B88 JUMPI PUSH2 0x1B87 PUSH2 0x1C81 JUMP JUMPDEST JUMPDEST DUP3 DUP3 MUL SWAP1 POP SWAP3 SWAP2 POP POP JUMP JUMPDEST PUSH1 0x0 PUSH2 0x1B9E DUP3 PUSH2 0x1C05 JUMP JUMPDEST SWAP2 POP PUSH2 0x1BA9 DUP4 PUSH2 0x1C05 JUMP JUMPDEST SWAP3 POP DUP3 DUP3 LT ISZERO PUSH2 0x1BBC JUMPI PUSH2 0x1BBB PUSH2 0x1C81 JUMP JUMPDEST JUMPDEST DUP3 DUP3 SUB SWAP1 POP SWAP3 SWAP2 POP POP JUMP JUMPDEST PUSH1 0x0 PUSH2 0x1BD2 DUP3 PUSH2 0x1BE5 JUMP JUMPDEST SWAP1 POP SWAP2 SWAP1 POP JUMP JUMPDEST PUSH1 0x0 DUP2 ISZERO ISZERO SWAP1 POP SWAP2 SWAP1 POP JUMP JUMPDEST PUSH1 0x0 PUSH20 0xFFFFFFFFFFFFFFFFFFFFFFFFFFFFFFFFFFFFFFFF DUP3 AND SWAP1 POP SWAP2 SWAP1 POP JUMP JUMPDEST PUSH1 0x0 DUP2 SWAP1 POP SWAP2 SWAP1 POP JUMP JUMPDEST PUSH1 0x0 PUSH1 0xFF DUP3 AND SWAP1 POP SWAP2 SWAP1 POP JUMP JUMPDEST PUSH1 0x0 JUMPDEST DUP4 DUP2 LT ISZERO PUSH2 0x1C3A JUMPI DUP1 DUP3 ADD MLOAD DUP2 DUP5 ADD MSTORE PUSH1 0x20 DUP2 ADD SWAP1 POP PUSH2 0x1C1F JUMP JUMPDEST DUP4 DUP2 GT ISZERO PUSH2 0x1C49 JUMPI PUSH1 0x0 DUP5 DUP5 ADD MSTORE JUMPDEST POP POP POP POP JUMP JUMPDEST PUSH1 0x0 PUSH1 0x2 DUP3 DIV SWAP1 POP PUSH1 0x1 DUP3 AND DUP1 PUSH2 0x1C67 JUMPI PUSH1 0x7F DUP3 AND SWAP2 POP JUMPDEST PUSH1 0x20 DUP3 LT DUP2 EQ ISZERO PUSH2 0x1C7B JUMPI PUSH2 0x1C7A PUSH2 0x1CB0 JUMP JUMPDEST JUMPDEST POP SWAP2 SWAP1 POP JUMP JUMPDEST PUSH32 0x4E487B7100000000000000000000000000000000000000000000000000000000 PUSH1 0x0 MSTORE PUSH1 0x11 PUSH1 0x4 MSTORE PUSH1 0x24 PUSH1 0x0 REVERT JUMPDEST PUSH32 0x4E487B7100000000000000000000000000000000000000000000000000000000 PUSH1 0x0 MSTORE PUSH1 0x22 PUSH1 0x4 MSTORE PUSH1 0x24 PUSH1 0x0 REVERT JUMPDEST PUSH1 0x0 PUSH1 0x1F NOT PUSH1 0x1F DUP4 ADD AND SWAP1 POP SWAP2 SWAP1 POP JUMP JUMPDEST PUSH32 0x45524332303A207472616E7366657220746F20746865207A65726F2061646472 PUSH1 0x0 DUP3 ADD MSTORE PUSH32 0x6573730000000000000000000000000000000000000000000000000000000000 PUSH1 0x20 DUP3 ADD MSTORE POP JUMP JUMPDEST PUSH32 0x4F776E61626C653A206E6577206F776E657220697320746865207A65726F2061 PUSH1 0x0 DUP3 ADD MSTORE PUSH32 0x6464726573730000000000000000000000000000000000000000000000000000 PUSH1 0x20 DUP3 ADD MSTORE POP JUMP JUMPDEST PUSH32 0x45524332303A20617070726F766520746F20746865207A65726F206164647265 PUSH1 0x0 DUP3 ADD MSTORE PUSH32 0x7373000000000000000000000000000000000000000000000000000000000000 PUSH1 0x20 DUP3 ADD MSTORE POP JUMP JUMPDEST PUSH32 0x45524332303A207472616E7366657220616D6F756E7420657863656564732062 PUSH1 0x0 DUP3 ADD MSTORE PUSH32 0x616C616E63650000000000000000000000000000000000000000000000000000 PUSH1 0x20 DUP3 ADD MSTORE POP JUMP JUMPDEST PUSH32 0x426F79206C65737320746F6B656E73206F66207061792077686974206D6F7265 PUSH1 0x0 DUP3 ADD MSTORE PUSH32 0x206574686572732E000000000000000000000000000000000000000000000000 PUSH1 0x20 DUP3 ADD MSTORE POP JUMP JUMPDEST PUSH32 0x596F75206E65656420746F2072657475726E206120706F73697469766520616D PUSH1 0x0 DUP3 ADD MSTORE PUSH32 0x6F756E74206F6620746F6B656E732E0000000000000000000000000000000000 PUSH1 0x20 DUP3 ADD MSTORE POP JUMP JUMPDEST PUSH32 0x45524332303A207472616E7366657220616D6F756E7420657863656564732061 PUSH1 0x0 DUP3 ADD MSTORE PUSH32 0x6C6C6F77616E6365000000000000000000000000000000000000000000000000 PUSH1 0x20 DUP3 ADD MSTORE POP JUMP JUMPDEST PUSH32 0x4F776E61626C653A2063616C6C6572206973206E6F7420746865206F776E6572 PUSH1 0x0 DUP3 ADD MSTORE POP JUMP JUMPDEST PUSH32 0x45524332303A207472616E736665722066726F6D20746865207A65726F206164 PUSH1 0x0 DUP3 ADD MSTORE PUSH32 0x6472657373000000000000000000000000000000000000000000000000000000 PUSH1 0x20 DUP3 ADD MSTORE POP JUMP JUMPDEST PUSH32 0x427579206120736D616C6C6572206E756D626572206F6620746F6B656E732E00 PUSH1 0x0 DUP3 ADD MSTORE POP JUMP JUMPDEST PUSH32 0x45524332303A20617070726F76652066726F6D20746865207A65726F20616464 PUSH1 0x0 DUP3 ADD MSTORE PUSH32 0x7265737300000000000000000000000000000000000000000000000000000000 PUSH1 0x20 DUP3 ADD MSTORE POP JUMP JUMPDEST PUSH32 0x596F7520646F206E6F7420686176652074686520746F6B656E7320796F752077 PUSH1 0x0 DUP3 ADD MSTORE PUSH32 0x69736820746F2072657475726E2E000000000000000000000000000000000000 PUSH1 0x20 DUP3 ADD MSTORE POP JUMP JUMPDEST PUSH32 0x45524332303A2064656372656173656420616C6C6F77616E63652062656C6F77 PUSH1 0x0 DUP3 ADD MSTORE PUSH32 0x207A65726F000000000000000000000000000000000000000000000000000000 PUSH1 0x20 DUP3 ADD MSTORE POP JUMP JUMPDEST PUSH32 0x45524332303A206D696E7420746F20746865207A65726F206164647265737300 PUSH1 0x0 DUP3 ADD MSTORE POP JUMP JUMPDEST PUSH2 0x20D9 DUP2 PUSH2 0x1BC7 JUMP JUMPDEST DUP2 EQ PUSH2 0x20E4 JUMPI PUSH1 0x0 DUP1 REVERT JUMPDEST POP JUMP JUMPDEST PUSH2 0x20F0 DUP2 PUSH2 0x1C05 JUMP JUMPDEST DUP2 EQ PUSH2 0x20FB JUMPI PUSH1 0x0 DUP1 REVERT JUMPDEST POP JUMP INVALID LOG2 PUSH5 0x6970667358 0x22 SLT KECCAK256 0xD9 DUP5 0xC2 PUSH20 0x7A6B03C86C2602D077E2CB6A60A454B44CF69904 AND PUSH29 0x4EE1CCBAE58064736F6C63430008010033000000000000000000000000 "
				},
				"gasEstimates": {
					"creation": {
						"codeDepositCost": "1700000",
						"executionCost": "infinite",
						"totalCost": "infinite"
					},
					"external": {
						"Customers(address)": "1595",
						"allowance(address,address)": "infinite",
						"approve(address,uint256)": "infinite",
						"balanceOf(address)": "1630",
						"balanceTokens(address)": "1694",
						"decimals()": "366",
						"decreaseAllowance(address,uint256)": "infinite",
						"increaseAllowance(address,uint256)": "infinite",
						"mint(uint256)": "infinite",
						"name()": "infinite",
						"owner()": "1289",
						"purchaseTokens(uint256)": "infinite",
						"renounceOwnership()": "24485",
						"symbol()": "infinite",
						"tokensEthers(uint256)": "infinite",
						"totalSupply()": "1205",
						"transfer(address,uint256)": "infinite",
						"transferFrom(address,address,uint256)": "infinite",
						"transferOwnership(address)": "24811"
					},
					"internal": {
						"priceTokens(uint256)": "infinite"
					}
				},
				"methodIdentifiers": {
					"Customers(address)": "6ac55e6a",
					"allowance(address,address)": "dd62ed3e",
					"approve(address,uint256)": "095ea7b3",
					"balanceOf(address)": "70a08231",
					"balanceTokens(address)": "f9b4527a",
					"decimals()": "313ce567",
					"decreaseAllowance(address,uint256)": "a457c2d7",
					"increaseAllowance(address,uint256)": "39509351",
					"mint(uint256)": "a0712d68",
					"name()": "06fdde03",
					"owner()": "8da5cb5b",
					"purchaseTokens(uint256)": "7b97008d",
					"renounceOwnership()": "715018a6",
					"symbol()": "95d89b41",
					"tokensEthers(uint256)": "7dc04f01",
					"totalSupply()": "18160ddd",
					"transfer(address,uint256)": "a9059cbb",
					"transferFrom(address,address,uint256)": "23b872dd",
					"transferOwnership(address)": "f2fde38b"
				}
			},
			"storageLayout": {
				"storage": [
					{
						"astId": 120,
						"contract": "contracts/cinema.sol:Cinema",
						"label": "_balances",
						"offset": 0,
						"slot": "0",
						"type": "t_mapping(t_address,t_uint256)"
					},
					{
						"astId": 126,
						"contract": "contracts/cinema.sol:Cinema",
						"label": "_allowances",
						"offset": 0,
						"slot": "1",
						"type": "t_mapping(t_address,t_mapping(t_address,t_uint256))"
					},
					{
						"astId": 128,
						"contract": "contracts/cinema.sol:Cinema",
						"label": "_totalSupply",
						"offset": 0,
						"slot": "2",
						"type": "t_uint256"
					},
					{
						"astId": 130,
						"contract": "contracts/cinema.sol:Cinema",
						"label": "_name",
						"offset": 0,
						"slot": "3",
						"type": "t_string_storage"
					},
					{
						"astId": 132,
						"contract": "contracts/cinema.sol:Cinema",
						"label": "_symbol",
						"offset": 0,
						"slot": "4",
						"type": "t_string_storage"
					},
					{
						"astId": 7,
						"contract": "contracts/cinema.sol:Cinema",
						"label": "_owner",
						"offset": 0,
						"slot": "5",
						"type": "t_address"
					},
					{
						"astId": 810,
						"contract": "contracts/cinema.sol:Cinema",
						"label": "Customers",
						"offset": 0,
						"slot": "6",
						"type": "t_mapping(t_address,t_struct(customer)805_storage)"
					}
				],
				"types": {
					"t_address": {
						"encoding": "inplace",
						"label": "address",
						"numberOfBytes": "20"
					},
					"t_array(t_string_storage)dyn_storage": {
						"base": "t_string_storage",
						"encoding": "dynamic_array",
						"label": "string[]",
						"numberOfBytes": "32"
					},
					"t_mapping(t_address,t_mapping(t_address,t_uint256))": {
						"encoding": "mapping",
						"key": "t_address",
						"label": "mapping(address => mapping(address => uint256))",
						"numberOfBytes": "32",
						"value": "t_mapping(t_address,t_uint256)"
					},
					"t_mapping(t_address,t_struct(customer)805_storage)": {
						"encoding": "mapping",
						"key": "t_address",
						"label": "mapping(address => struct Cinema.customer)",
						"numberOfBytes": "32",
						"value": "t_struct(customer)805_storage"
					},
					"t_mapping(t_address,t_uint256)": {
						"encoding": "mapping",
						"key": "t_address",
						"label": "mapping(address => uint256)",
						"numberOfBytes": "32",
						"value": "t_uint256"
					},
					"t_string_storage": {
						"encoding": "bytes",
						"label": "string",
						"numberOfBytes": "32"
					},
					"t_struct(customer)805_storage": {
						"encoding": "inplace",
						"label": "struct Cinema.customer",
						"members": [
							{
								"astId": 801,
								"contract": "contracts/cinema.sol:Cinema",
								"label": "tokens_purchased",
								"offset": 0,
								"slot": "0",
								"type": "t_uint256"
							},
							{
								"astId": 804,
								"contract": "contracts/cinema.sol:Cinema",
								"label": "enjoyed_movies",
								"offset": 0,
								"slot": "1",
								"type": "t_array(t_string_storage)dyn_storage"
							}
						],
						"numberOfBytes": "64"
					},
					"t_uint256": {
						"encoding": "inplace",
						"label": "uint256",
						"numberOfBytes": "32"
					}
				}
			},
			"userdoc": {
				"kind": "user",
				"methods": {},
				"version": 1
			}
		}
	}
}