{
	"contracts/2_variables_modifiers.sol": {
		"varibles_modifier": {
			"abi": [
				{
					"inputs": [],
					"name": "address1",
					"outputs": [
						{
							"internalType": "address",
							"name": "",
							"type": "address"
						}
					],
					"stateMutability": "view",
					"type": "function"
				},
				{
					"inputs": [],
					"name": "address2",
					"outputs": [
						{
							"internalType": "address",
							"name": "",
							"type": "address"
						}
					],
					"stateMutability": "view",
					"type": "function"
				},
				{
					"inputs": [],
					"name": "boolean_false",
					"outputs": [
						{
							"internalType": "bool",
							"name": "",
							"type": "bool"
						}
					],
					"stateMutability": "view",
					"type": "function"
				},
				{
					"inputs": [],
					"name": "boolean_true",
					"outputs": [
						{
							"internalType": "bool",
							"name": "",
							"type": "bool"
						}
					],
					"stateMutability": "view",
					"type": "function"
				},
				{
					"inputs": [],
					"name": "displayState",
					"outputs": [
						{
							"internalType": "enum varibles_modifier.options",
							"name": "",
							"type": "uint8"
						}
					],
					"stateMutability": "view",
					"type": "function"
				},
				{
					"inputs": [],
					"name": "hashing",
					"outputs": [
						{
							"internalType": "bytes32",
							"name": "",
							"type": "bytes32"
						}
					],
					"stateMutability": "view",
					"type": "function"
				},
				{
					"inputs": [],
					"name": "srt_public",
					"outputs": [
						{
							"internalType": "string",
							"name": "",
							"type": "string"
						}
					],
					"stateMutability": "view",
					"type": "function"
				},
				{
					"inputs": [],
					"name": "turnOff",
					"outputs": [],
					"stateMutability": "nonpayable",
					"type": "function"
				},
				{
					"inputs": [],
					"name": "turnOn",
					"outputs": [],
					"stateMutability": "nonpayable",
					"type": "function"
				}
			],
			"devdoc": {
				"kind": "dev",
				"methods": {},
				"version": 1
			},
			"evm": {
				"assembly": "    /* \"contracts/2_variables_modifiers.sol\":74:1149  contract varibles_modifier {\r... */\n  mstore(0x40, 0x80)\n    /* \"contracts/2_variables_modifiers.sol\":136:137  3 */\n  0x03\n    /* \"contracts/2_variables_modifiers.sol\":124:137  uint256 b = 3 */\n  0x01\n  sstore\n    /* \"contracts/2_variables_modifiers.sol\":211:214  -32 */\n  0xffffffffffffffffffffffffffffffffffffffffffffffffffffffffffffffe0\n    /* \"contracts/2_variables_modifiers.sol\":200:214  int256 d = -32 */\n  0x03\n  sstore\n    /* \"contracts/2_variables_modifiers.sol\":232:234  65 */\n  0x41\n    /* \"contracts/2_variables_modifiers.sol\":221:234  int256 e = 65 */\n  0x04\n  sstore\n    /* \"contracts/2_variables_modifiers.sol\":422:426  true */\n  0x01\n    /* \"contracts/2_variables_modifiers.sol\":395:426  bool public boolean_true = true */\n  0x08\n  exp(0x0100, 0x01)\n  dup2\n  sload\n  dup2\n  0xff\n  mul\n  not\n  and\n  swap1\n  dup4\n  iszero\n  iszero\n  mul\n  or\n  swap1\n  sstore\n  pop\n    /* \"contracts/2_variables_modifiers.sol\":461:466  false */\n  0x00\n    /* \"contracts/2_variables_modifiers.sol\":433:466  bool public boolean_false = false */\n  0x08\n  exp(0x0100, 0x02)\n  dup2\n  sload\n  dup2\n  0xff\n  mul\n  not\n  and\n  swap1\n  dup4\n  iszero\n  iszero\n  mul\n  or\n  swap1\n  sstore\n  pop\n    /* \"contracts/2_variables_modifiers.sol\":584:606  abi.encodePacked(\"Hi\") */\n  add(0x20, mload(0x40))\n  tag_1\n  swap1\n  tag_2\n  jump\t// in\ntag_1:\n  mload(0x40)\n  0x20\n  dup2\n  dup4\n  sub\n  sub\n  dup2\n  mstore\n  swap1\n  0x40\n  mstore\n    /* \"contracts/2_variables_modifiers.sol\":574:607  keccak256(abi.encodePacked(\"Hi\")) */\n  dup1\n  mload\n  swap1\n  0x20\n  add\n  keccak256\n    /* \"contracts/2_variables_modifiers.sol\":549:607  bytes32 public hashing = keccak256(abi.encodePacked(\"Hi\")) */\n  0x0b\n  sstore\n    /* \"contracts/2_variables_modifiers.sol\":693:735  0xAb8483F64d9C6d1EcF9b849Ae677dD3315835cb2 */\n  0xab8483f64d9c6d1ecf9b849ae677dd3315835cb2\n    /* \"contracts/2_variables_modifiers.sol\":667:735  address public address1 = 0xAb8483F64d9C6d1EcF9b849Ae677dD3315835cb2 */\n  0x0d\n  exp(0x0100, 0x00)\n  dup2\n  sload\n  dup2\n  0xffffffffffffffffffffffffffffffffffffffff\n  mul\n  not\n  and\n  swap1\n  dup4\n  0xffffffffffffffffffffffffffffffffffffffff\n  and\n  mul\n  or\n  swap1\n  sstore\n  pop\n    /* \"contracts/2_variables_modifiers.sol\":768:778  msg.sender */\n  caller\n    /* \"contracts/2_variables_modifiers.sol\":742:778  address public address2 = msg.sender */\n  0x0e\n  exp(0x0100, 0x00)\n  dup2\n  sload\n  dup2\n  0xffffffffffffffffffffffffffffffffffffffff\n  mul\n  not\n  and\n  swap1\n  dup4\n  0xffffffffffffffffffffffffffffffffffffffff\n  and\n  mul\n  or\n  swap1\n  sstore\n  pop\n    /* \"contracts/2_variables_modifiers.sol\":74:1149  contract varibles_modifier {\r... */\n  callvalue\n  dup1\n  iszero\n  tag_3\n  jumpi\n  0x00\n  dup1\n  revert\ntag_3:\n  pop\n  jump(tag_4)\n    /* \"#utility.yul\":7:407   */\ntag_6:\n  0x00\n    /* \"#utility.yul\":188:272   */\n  tag_8\n    /* \"#utility.yul\":270:271   */\n  0x02\n    /* \"#utility.yul\":265:268   */\n  dup4\n    /* \"#utility.yul\":188:272   */\n  tag_9\n  jump\t// in\ntag_8:\n    /* \"#utility.yul\":181:272   */\n  swap2\n  pop\n    /* \"#utility.yul\":281:374   */\n  tag_10\n    /* \"#utility.yul\":370:373   */\n  dup3\n    /* \"#utility.yul\":281:374   */\n  tag_11\n  jump\t// in\ntag_10:\n    /* \"#utility.yul\":399:400   */\n  0x02\n    /* \"#utility.yul\":394:397   */\n  dup3\n    /* \"#utility.yul\":390:401   */\n  add\n    /* \"#utility.yul\":383:401   */\n  swap1\n  pop\n    /* \"#utility.yul\":171:407   */\n  swap2\n  swap1\n  pop\n  jump\t// out\n    /* \"#utility.yul\":413:794   */\ntag_2:\n  0x00\n    /* \"#utility.yul\":620:768   */\n  tag_13\n    /* \"#utility.yul\":764:767   */\n  dup3\n    /* \"#utility.yul\":620:768   */\n  tag_6\n  jump\t// in\ntag_13:\n    /* \"#utility.yul\":613:768   */\n  swap2\n  pop\n    /* \"#utility.yul\":785:788   */\n  dup2\n    /* \"#utility.yul\":778:788   */\n  swap1\n  pop\n    /* \"#utility.yul\":602:794   */\n  swap2\n  swap1\n  pop\n  jump\t// out\n    /* \"#utility.yul\":800:948   */\ntag_9:\n  0x00\n    /* \"#utility.yul\":939:942   */\n  dup2\n    /* \"#utility.yul\":924:942   */\n  swap1\n  pop\n    /* \"#utility.yul\":914:948   */\n  swap3\n  swap2\n  pop\n  pop\n  jump\t// out\n    /* \"#utility.yul\":954:1106   */\ntag_11:\n    /* \"#utility.yul\":1094:1098   */\n  0x4869000000000000000000000000000000000000000000000000000000000000\n    /* \"#utility.yul\":1090:1091   */\n  0x00\n    /* \"#utility.yul\":1082:1088   */\n  dup3\n    /* \"#utility.yul\":1078:1092   */\n  add\n    /* \"#utility.yul\":1071:1099   */\n  mstore\n    /* \"#utility.yul\":1060:1106   */\n  pop\n  jump\t// out\n    /* \"contracts/2_variables_modifiers.sol\":74:1149  contract varibles_modifier {\r... */\ntag_4:\n  dataSize(sub_0)\n  dup1\n  dataOffset(sub_0)\n  0x00\n  codecopy\n  0x00\n  return\nstop\n\nsub_0: assembly {\n        /* \"contracts/2_variables_modifiers.sol\":74:1149  contract varibles_modifier {\r... */\n      mstore(0x40, 0x80)\n      callvalue\n      dup1\n      iszero\n      tag_1\n      jumpi\n      0x00\n      dup1\n      revert\n    tag_1:\n      pop\n      jumpi(tag_2, lt(calldatasize, 0x04))\n      shr(0xe0, calldataload(0x00))\n      dup1\n      0x9eea4a3a\n      gt\n      tag_12\n      jumpi\n      dup1\n      0x9eea4a3a\n      eq\n      tag_7\n      jumpi\n      dup1\n      0xaf10c810\n      eq\n      tag_8\n      jumpi\n      dup1\n      0xba33ed7d\n      eq\n      tag_9\n      jumpi\n      dup1\n      0xc2923711\n      eq\n      tag_10\n      jumpi\n      dup1\n      0xcd97d84e\n      eq\n      tag_11\n      jumpi\n      jump(tag_2)\n    tag_12:\n      dup1\n      0x8e8b8d\n      eq\n      tag_3\n      jumpi\n      dup1\n      0x312eef29\n      eq\n      tag_4\n      jumpi\n      dup1\n      0x3a36399e\n      eq\n      tag_5\n      jumpi\n      dup1\n      0x7272eea1\n      eq\n      tag_6\n      jumpi\n    tag_2:\n      0x00\n      dup1\n      revert\n        /* \"contracts/2_variables_modifiers.sol\":433:466  bool public boolean_false = false */\n    tag_3:\n      tag_13\n      tag_14\n      jump\t// in\n    tag_13:\n      mload(0x40)\n      tag_15\n      swap2\n      swap1\n      tag_16\n      jump\t// in\n    tag_15:\n      mload(0x40)\n      dup1\n      swap2\n      sub\n      swap1\n      return\n        /* \"contracts/2_variables_modifiers.sol\":395:426  bool public boolean_true = true */\n    tag_4:\n      tag_17\n      tag_18\n      jump\t// in\n    tag_17:\n      mload(0x40)\n      tag_19\n      swap2\n      swap1\n      tag_16\n      jump\t// in\n    tag_19:\n      mload(0x40)\n      dup1\n      swap2\n      sub\n      swap1\n      return\n        /* \"contracts/2_variables_modifiers.sol\":667:735  address public address1 = 0xAb8483F64d9C6d1EcF9b849Ae677dD3315835cb2 */\n    tag_5:\n      tag_20\n      tag_21\n      jump\t// in\n    tag_20:\n      mload(0x40)\n      tag_22\n      swap2\n      swap1\n      tag_23\n      jump\t// in\n    tag_22:\n      mload(0x40)\n      dup1\n      swap2\n      sub\n      swap1\n      return\n        /* \"contracts/2_variables_modifiers.sol\":1059:1146  function displayState() public view returns (options) {\r... */\n    tag_6:\n      tag_24\n      tag_25\n      jump\t// in\n    tag_24:\n      mload(0x40)\n      tag_26\n      swap2\n      swap1\n      tag_27\n      jump\t// in\n    tag_26:\n      mload(0x40)\n      dup1\n      swap2\n      sub\n      swap1\n      return\n        /* \"contracts/2_variables_modifiers.sol\":742:778  address public address2 = msg.sender */\n    tag_7:\n      tag_28\n      tag_29\n      jump\t// in\n    tag_28:\n      mload(0x40)\n      tag_30\n      swap2\n      swap1\n      tag_23\n      jump\t// in\n    tag_30:\n      mload(0x40)\n      dup1\n      swap2\n      sub\n      swap1\n      return\n        /* \"contracts/2_variables_modifiers.sol\":987:1051  function turnOff() public {\r... */\n    tag_8:\n      tag_31\n      tag_32\n      jump\t// in\n    tag_31:\n      stop\n        /* \"contracts/2_variables_modifiers.sol\":917:979  function turnOn() public {\r... */\n    tag_9:\n      tag_33\n      tag_34\n      jump\t// in\n    tag_33:\n      stop\n        /* \"contracts/2_variables_modifiers.sol\":284:308  string public srt_public */\n    tag_10:\n      tag_35\n      tag_36\n      jump\t// in\n    tag_35:\n      mload(0x40)\n      tag_37\n      swap2\n      swap1\n      tag_38\n      jump\t// in\n    tag_37:\n      mload(0x40)\n      dup1\n      swap2\n      sub\n      swap1\n      return\n        /* \"contracts/2_variables_modifiers.sol\":549:607  bytes32 public hashing = keccak256(abi.encodePacked(\"Hi\")) */\n    tag_11:\n      tag_39\n      tag_40\n      jump\t// in\n    tag_39:\n      mload(0x40)\n      tag_41\n      swap2\n      swap1\n      tag_42\n      jump\t// in\n    tag_41:\n      mload(0x40)\n      dup1\n      swap2\n      sub\n      swap1\n      return\n        /* \"contracts/2_variables_modifiers.sol\":433:466  bool public boolean_false = false */\n    tag_14:\n      0x08\n      0x02\n      swap1\n      sload\n      swap1\n      0x0100\n      exp\n      swap1\n      div\n      0xff\n      and\n      dup2\n      jump\t// out\n        /* \"contracts/2_variables_modifiers.sol\":395:426  bool public boolean_true = true */\n    tag_18:\n      0x08\n      0x01\n      swap1\n      sload\n      swap1\n      0x0100\n      exp\n      swap1\n      div\n      0xff\n      and\n      dup2\n      jump\t// out\n        /* \"contracts/2_variables_modifiers.sol\":667:735  address public address1 = 0xAb8483F64d9C6d1EcF9b849Ae677dD3315835cb2 */\n    tag_21:\n      0x0d\n      0x00\n      swap1\n      sload\n      swap1\n      0x0100\n      exp\n      swap1\n      div\n      0xffffffffffffffffffffffffffffffffffffffff\n      and\n      dup2\n      jump\t// out\n        /* \"contracts/2_variables_modifiers.sol\":1059:1146  function displayState() public view returns (options) {\r... */\n    tag_25:\n        /* \"contracts/2_variables_modifiers.sol\":1104:1111  options */\n      0x00\n        /* \"contracts/2_variables_modifiers.sol\":1133:1138  state */\n      0x0e\n      0x14\n      swap1\n      sload\n      swap1\n      0x0100\n      exp\n      swap1\n      div\n      0xff\n      and\n        /* \"contracts/2_variables_modifiers.sol\":1126:1138  return state */\n      swap1\n      pop\n        /* \"contracts/2_variables_modifiers.sol\":1059:1146  function displayState() public view returns (options) {\r... */\n      swap1\n      jump\t// out\n        /* \"contracts/2_variables_modifiers.sol\":742:778  address public address2 = msg.sender */\n    tag_29:\n      0x0e\n      0x00\n      swap1\n      sload\n      swap1\n      0x0100\n      exp\n      swap1\n      div\n      0xffffffffffffffffffffffffffffffffffffffff\n      and\n      dup2\n      jump\t// out\n        /* \"contracts/2_variables_modifiers.sol\":987:1051  function turnOff() public {\r... */\n    tag_32:\n        /* \"contracts/2_variables_modifiers.sol\":1032:1043  options.OFF */\n      0x01\n        /* \"contracts/2_variables_modifiers.sol\":1024:1029  state */\n      0x0e\n      0x14\n        /* \"contracts/2_variables_modifiers.sol\":1024:1043  state = options.OFF */\n      0x0100\n      exp\n      dup2\n      sload\n      dup2\n      0xff\n      mul\n      not\n      and\n      swap1\n      dup4\n      0x01\n      dup2\n      gt\n      iszero\n      tag_45\n      jumpi\n      mstore(0x00, 0x4e487b7100000000000000000000000000000000000000000000000000000000)\n      mstore(0x04, 0x21)\n      revert(0x00, 0x24)\n    tag_45:\n      mul\n      or\n      swap1\n      sstore\n      pop\n        /* \"contracts/2_variables_modifiers.sol\":987:1051  function turnOff() public {\r... */\n      jump\t// out\n        /* \"contracts/2_variables_modifiers.sol\":917:979  function turnOn() public {\r... */\n    tag_34:\n        /* \"contracts/2_variables_modifiers.sol\":961:971  options.ON */\n      0x00\n        /* \"contracts/2_variables_modifiers.sol\":953:958  state */\n      0x0e\n      0x14\n        /* \"contracts/2_variables_modifiers.sol\":953:971  state = options.ON */\n      0x0100\n      exp\n      dup2\n      sload\n      dup2\n      0xff\n      mul\n      not\n      and\n      swap1\n      dup4\n      0x01\n      dup2\n      gt\n      iszero\n      tag_47\n      jumpi\n      mstore(0x00, 0x4e487b7100000000000000000000000000000000000000000000000000000000)\n      mstore(0x04, 0x21)\n      revert(0x00, 0x24)\n    tag_47:\n      mul\n      or\n      swap1\n      sstore\n      pop\n        /* \"contracts/2_variables_modifiers.sol\":917:979  function turnOn() public {\r... */\n      jump\t// out\n        /* \"contracts/2_variables_modifiers.sol\":284:308  string public srt_public */\n    tag_36:\n      0x06\n      dup1\n      sload\n      tag_48\n      swap1\n      tag_49\n      jump\t// in\n    tag_48:\n      dup1\n      0x1f\n      add\n      0x20\n      dup1\n      swap2\n      div\n      mul\n      0x20\n      add\n      mload(0x40)\n      swap1\n      dup2\n      add\n      0x40\n      mstore\n      dup1\n      swap3\n      swap2\n      swap1\n      dup2\n      dup2\n      mstore\n      0x20\n      add\n      dup3\n      dup1\n      sload\n      tag_50\n      swap1\n      tag_49\n      jump\t// in\n    tag_50:\n      dup1\n      iszero\n      tag_51\n      jumpi\n      dup1\n      0x1f\n      lt\n      tag_52\n      jumpi\n      0x0100\n      dup1\n      dup4\n      sload\n      div\n      mul\n      dup4\n      mstore\n      swap2\n      0x20\n      add\n      swap2\n      jump(tag_51)\n    tag_52:\n      dup3\n      add\n      swap2\n      swap1\n      0x00\n      mstore\n      keccak256(0x00, 0x20)\n      swap1\n    tag_53:\n      dup2\n      sload\n      dup2\n      mstore\n      swap1\n      0x01\n      add\n      swap1\n      0x20\n      add\n      dup1\n      dup4\n      gt\n      tag_53\n      jumpi\n      dup3\n      swap1\n      sub\n      0x1f\n      and\n      dup3\n      add\n      swap2\n    tag_51:\n      pop\n      pop\n      pop\n      pop\n      pop\n      dup2\n      jump\t// out\n        /* \"contracts/2_variables_modifiers.sol\":549:607  bytes32 public hashing = keccak256(abi.encodePacked(\"Hi\")) */\n    tag_40:\n      sload(0x0b)\n      dup2\n      jump\t// out\n        /* \"#utility.yul\":7:125   */\n    tag_55:\n        /* \"#utility.yul\":94:118   */\n      tag_57\n        /* \"#utility.yul\":112:117   */\n      dup2\n        /* \"#utility.yul\":94:118   */\n      tag_58\n      jump\t// in\n    tag_57:\n        /* \"#utility.yul\":89:92   */\n      dup3\n        /* \"#utility.yul\":82:119   */\n      mstore\n        /* \"#utility.yul\":72:125   */\n      pop\n      pop\n      jump\t// out\n        /* \"#utility.yul\":131:240   */\n    tag_59:\n        /* \"#utility.yul\":212:233   */\n      tag_61\n        /* \"#utility.yul\":227:232   */\n      dup2\n        /* \"#utility.yul\":212:233   */\n      tag_62\n      jump\t// in\n    tag_61:\n        /* \"#utility.yul\":207:210   */\n      dup3\n        /* \"#utility.yul\":200:234   */\n      mstore\n        /* \"#utility.yul\":190:240   */\n      pop\n      pop\n      jump\t// out\n        /* \"#utility.yul\":246:364   */\n    tag_63:\n        /* \"#utility.yul\":333:357   */\n      tag_65\n        /* \"#utility.yul\":351:356   */\n      dup2\n        /* \"#utility.yul\":333:357   */\n      tag_66\n      jump\t// in\n    tag_65:\n        /* \"#utility.yul\":328:331   */\n      dup3\n        /* \"#utility.yul\":321:358   */\n      mstore\n        /* \"#utility.yul\":311:364   */\n      pop\n      pop\n      jump\t// out\n        /* \"#utility.yul\":370:517   */\n    tag_67:\n        /* \"#utility.yul\":465:510   */\n      tag_69\n        /* \"#utility.yul\":504:509   */\n      dup2\n        /* \"#utility.yul\":465:510   */\n      tag_70\n      jump\t// in\n    tag_69:\n        /* \"#utility.yul\":460:463   */\n      dup3\n        /* \"#utility.yul\":453:511   */\n      mstore\n        /* \"#utility.yul\":443:517   */\n      pop\n      pop\n      jump\t// out\n        /* \"#utility.yul\":523:887   */\n    tag_71:\n      0x00\n        /* \"#utility.yul\":639:678   */\n      tag_73\n        /* \"#utility.yul\":672:677   */\n      dup3\n        /* \"#utility.yul\":639:678   */\n      tag_74\n      jump\t// in\n    tag_73:\n        /* \"#utility.yul\":694:765   */\n      tag_75\n        /* \"#utility.yul\":758:764   */\n      dup2\n        /* \"#utility.yul\":753:756   */\n      dup6\n        /* \"#utility.yul\":694:765   */\n      tag_76\n      jump\t// in\n    tag_75:\n        /* \"#utility.yul\":687:765   */\n      swap4\n      pop\n        /* \"#utility.yul\":774:826   */\n      tag_77\n        /* \"#utility.yul\":819:825   */\n      dup2\n        /* \"#utility.yul\":814:817   */\n      dup6\n        /* \"#utility.yul\":807:811   */\n      0x20\n        /* \"#utility.yul\":800:805   */\n      dup7\n        /* \"#utility.yul\":796:812   */\n      add\n        /* \"#utility.yul\":774:826   */\n      tag_78\n      jump\t// in\n    tag_77:\n        /* \"#utility.yul\":851:880   */\n      tag_79\n        /* \"#utility.yul\":873:879   */\n      dup2\n        /* \"#utility.yul\":851:880   */\n      tag_80\n      jump\t// in\n    tag_79:\n        /* \"#utility.yul\":846:849   */\n      dup5\n        /* \"#utility.yul\":842:881   */\n      add\n        /* \"#utility.yul\":835:881   */\n      swap2\n      pop\n        /* \"#utility.yul\":615:887   */\n      pop\n      swap3\n      swap2\n      pop\n      pop\n      jump\t// out\n        /* \"#utility.yul\":893:1115   */\n    tag_23:\n      0x00\n        /* \"#utility.yul\":1024:1026   */\n      0x20\n        /* \"#utility.yul\":1013:1022   */\n      dup3\n        /* \"#utility.yul\":1009:1027   */\n      add\n        /* \"#utility.yul\":1001:1027   */\n      swap1\n      pop\n        /* \"#utility.yul\":1037:1108   */\n      tag_82\n        /* \"#utility.yul\":1105:1106   */\n      0x00\n        /* \"#utility.yul\":1094:1103   */\n      dup4\n        /* \"#utility.yul\":1090:1107   */\n      add\n        /* \"#utility.yul\":1081:1087   */\n      dup5\n        /* \"#utility.yul\":1037:1108   */\n      tag_55\n      jump\t// in\n    tag_82:\n        /* \"#utility.yul\":991:1115   */\n      swap3\n      swap2\n      pop\n      pop\n      jump\t// out\n        /* \"#utility.yul\":1121:1331   */\n    tag_16:\n      0x00\n        /* \"#utility.yul\":1246:1248   */\n      0x20\n        /* \"#utility.yul\":1235:1244   */\n      dup3\n        /* \"#utility.yul\":1231:1249   */\n      add\n        /* \"#utility.yul\":1223:1249   */\n      swap1\n      pop\n        /* \"#utility.yul\":1259:1324   */\n      tag_84\n        /* \"#utility.yul\":1321:1322   */\n      0x00\n        /* \"#utility.yul\":1310:1319   */\n      dup4\n        /* \"#utility.yul\":1306:1323   */\n      add\n        /* \"#utility.yul\":1297:1303   */\n      dup5\n        /* \"#utility.yul\":1259:1324   */\n      tag_59\n      jump\t// in\n    tag_84:\n        /* \"#utility.yul\":1213:1331   */\n      swap3\n      swap2\n      pop\n      pop\n      jump\t// out\n        /* \"#utility.yul\":1337:1559   */\n    tag_42:\n      0x00\n        /* \"#utility.yul\":1468:1470   */\n      0x20\n        /* \"#utility.yul\":1457:1466   */\n      dup3\n        /* \"#utility.yul\":1453:1471   */\n      add\n        /* \"#utility.yul\":1445:1471   */\n      swap1\n      pop\n        /* \"#utility.yul\":1481:1552   */\n      tag_86\n        /* \"#utility.yul\":1549:1550   */\n      0x00\n        /* \"#utility.yul\":1538:1547   */\n      dup4\n        /* \"#utility.yul\":1534:1551   */\n      add\n        /* \"#utility.yul\":1525:1531   */\n      dup5\n        /* \"#utility.yul\":1481:1552   */\n      tag_63\n      jump\t// in\n    tag_86:\n        /* \"#utility.yul\":1435:1559   */\n      swap3\n      swap2\n      pop\n      pop\n      jump\t// out\n        /* \"#utility.yul\":1565:1803   */\n    tag_27:\n      0x00\n        /* \"#utility.yul\":1704:1706   */\n      0x20\n        /* \"#utility.yul\":1693:1702   */\n      dup3\n        /* \"#utility.yul\":1689:1707   */\n      add\n        /* \"#utility.yul\":1681:1707   */\n      swap1\n      pop\n        /* \"#utility.yul\":1717:1796   */\n      tag_88\n        /* \"#utility.yul\":1793:1794   */\n      0x00\n        /* \"#utility.yul\":1782:1791   */\n      dup4\n        /* \"#utility.yul\":1778:1795   */\n      add\n        /* \"#utility.yul\":1769:1775   */\n      dup5\n        /* \"#utility.yul\":1717:1796   */\n      tag_67\n      jump\t// in\n    tag_88:\n        /* \"#utility.yul\":1671:1803   */\n      swap3\n      swap2\n      pop\n      pop\n      jump\t// out\n        /* \"#utility.yul\":1809:2122   */\n    tag_38:\n      0x00\n        /* \"#utility.yul\":1960:1962   */\n      0x20\n        /* \"#utility.yul\":1949:1958   */\n      dup3\n        /* \"#utility.yul\":1945:1963   */\n      add\n        /* \"#utility.yul\":1937:1963   */\n      swap1\n      pop\n        /* \"#utility.yul\":2009:2018   */\n      dup2\n        /* \"#utility.yul\":2003:2007   */\n      dup2\n        /* \"#utility.yul\":1999:2019   */\n      sub\n        /* \"#utility.yul\":1995:1996   */\n      0x00\n        /* \"#utility.yul\":1984:1993   */\n      dup4\n        /* \"#utility.yul\":1980:1997   */\n      add\n        /* \"#utility.yul\":1973:2020   */\n      mstore\n        /* \"#utility.yul\":2037:2115   */\n      tag_90\n        /* \"#utility.yul\":2110:2114   */\n      dup2\n        /* \"#utility.yul\":2101:2107   */\n      dup5\n        /* \"#utility.yul\":2037:2115   */\n      tag_71\n      jump\t// in\n    tag_90:\n        /* \"#utility.yul\":2029:2115   */\n      swap1\n      pop\n        /* \"#utility.yul\":1927:2122   */\n      swap3\n      swap2\n      pop\n      pop\n      jump\t// out\n        /* \"#utility.yul\":2128:2227   */\n    tag_74:\n      0x00\n        /* \"#utility.yul\":2214:2219   */\n      dup2\n        /* \"#utility.yul\":2208:2220   */\n      mload\n        /* \"#utility.yul\":2198:2220   */\n      swap1\n      pop\n        /* \"#utility.yul\":2187:2227   */\n      swap2\n      swap1\n      pop\n      jump\t// out\n        /* \"#utility.yul\":2233:2402   */\n    tag_76:\n      0x00\n        /* \"#utility.yul\":2351:2357   */\n      dup3\n        /* \"#utility.yul\":2346:2349   */\n      dup3\n        /* \"#utility.yul\":2339:2358   */\n      mstore\n        /* \"#utility.yul\":2391:2395   */\n      0x20\n        /* \"#utility.yul\":2386:2389   */\n      dup3\n        /* \"#utility.yul\":2382:2396   */\n      add\n        /* \"#utility.yul\":2367:2396   */\n      swap1\n      pop\n        /* \"#utility.yul\":2329:2402   */\n      swap3\n      swap2\n      pop\n      pop\n      jump\t// out\n        /* \"#utility.yul\":2408:2504   */\n    tag_58:\n      0x00\n        /* \"#utility.yul\":2474:2498   */\n      tag_94\n        /* \"#utility.yul\":2492:2497   */\n      dup3\n        /* \"#utility.yul\":2474:2498   */\n      tag_95\n      jump\t// in\n    tag_94:\n        /* \"#utility.yul\":2463:2498   */\n      swap1\n      pop\n        /* \"#utility.yul\":2453:2504   */\n      swap2\n      swap1\n      pop\n      jump\t// out\n        /* \"#utility.yul\":2510:2600   */\n    tag_62:\n      0x00\n        /* \"#utility.yul\":2587:2592   */\n      dup2\n        /* \"#utility.yul\":2580:2593   */\n      iszero\n        /* \"#utility.yul\":2573:2594   */\n      iszero\n        /* \"#utility.yul\":2562:2594   */\n      swap1\n      pop\n        /* \"#utility.yul\":2552:2600   */\n      swap2\n      swap1\n      pop\n      jump\t// out\n        /* \"#utility.yul\":2606:2683   */\n    tag_66:\n      0x00\n        /* \"#utility.yul\":2672:2677   */\n      dup2\n        /* \"#utility.yul\":2661:2677   */\n      swap1\n      pop\n        /* \"#utility.yul\":2651:2683   */\n      swap2\n      swap1\n      pop\n      jump\t// out\n        /* \"#utility.yul\":2689:2820   */\n    tag_98:\n      0x00\n        /* \"#utility.yul\":2765:2770   */\n      dup2\n        /* \"#utility.yul\":2754:2770   */\n      swap1\n      pop\n        /* \"#utility.yul\":2771:2814   */\n      tag_100\n        /* \"#utility.yul\":2808:2813   */\n      dup3\n        /* \"#utility.yul\":2771:2814   */\n      tag_101\n      jump\t// in\n    tag_100:\n        /* \"#utility.yul\":2744:2820   */\n      swap2\n      swap1\n      pop\n      jump\t// out\n        /* \"#utility.yul\":2826:2952   */\n    tag_95:\n      0x00\n        /* \"#utility.yul\":2903:2945   */\n      0xffffffffffffffffffffffffffffffffffffffff\n        /* \"#utility.yul\":2896:2901   */\n      dup3\n        /* \"#utility.yul\":2892:2946   */\n      and\n        /* \"#utility.yul\":2881:2946   */\n      swap1\n      pop\n        /* \"#utility.yul\":2871:2952   */\n      swap2\n      swap1\n      pop\n      jump\t// out\n        /* \"#utility.yul\":2958:3089   */\n    tag_70:\n      0x00\n        /* \"#utility.yul\":3049:3083   */\n      tag_104\n        /* \"#utility.yul\":3077:3082   */\n      dup3\n        /* \"#utility.yul\":3049:3083   */\n      tag_98\n      jump\t// in\n    tag_104:\n        /* \"#utility.yul\":3036:3083   */\n      swap1\n      pop\n        /* \"#utility.yul\":3026:3089   */\n      swap2\n      swap1\n      pop\n      jump\t// out\n        /* \"#utility.yul\":3095:3402   */\n    tag_78:\n        /* \"#utility.yul\":3163:3164   */\n      0x00\n        /* \"#utility.yul\":3173:3286   */\n    tag_106:\n        /* \"#utility.yul\":3187:3193   */\n      dup4\n        /* \"#utility.yul\":3184:3185   */\n      dup2\n        /* \"#utility.yul\":3181:3194   */\n      lt\n        /* \"#utility.yul\":3173:3286   */\n      iszero\n      tag_108\n      jumpi\n        /* \"#utility.yul\":3272:3273   */\n      dup1\n        /* \"#utility.yul\":3267:3270   */\n      dup3\n        /* \"#utility.yul\":3263:3274   */\n      add\n        /* \"#utility.yul\":3257:3275   */\n      mload\n        /* \"#utility.yul\":3253:3254   */\n      dup2\n        /* \"#utility.yul\":3248:3251   */\n      dup5\n        /* \"#utility.yul\":3244:3255   */\n      add\n        /* \"#utility.yul\":3237:3276   */\n      mstore\n        /* \"#utility.yul\":3209:3211   */\n      0x20\n        /* \"#utility.yul\":3206:3207   */\n      dup2\n        /* \"#utility.yul\":3202:3212   */\n      add\n        /* \"#utility.yul\":3197:3212   */\n      swap1\n      pop\n        /* \"#utility.yul\":3173:3286   */\n      jump(tag_106)\n    tag_108:\n        /* \"#utility.yul\":3304:3310   */\n      dup4\n        /* \"#utility.yul\":3301:3302   */\n      dup2\n        /* \"#utility.yul\":3298:3311   */\n      gt\n        /* \"#utility.yul\":3295:3297   */\n      iszero\n      tag_109\n      jumpi\n        /* \"#utility.yul\":3384:3385   */\n      0x00\n        /* \"#utility.yul\":3375:3381   */\n      dup5\n        /* \"#utility.yul\":3370:3373   */\n      dup5\n        /* \"#utility.yul\":3366:3382   */\n      add\n        /* \"#utility.yul\":3359:3386   */\n      mstore\n        /* \"#utility.yul\":3295:3297   */\n    tag_109:\n        /* \"#utility.yul\":3144:3402   */\n      pop\n      pop\n      pop\n      pop\n      jump\t// out\n        /* \"#utility.yul\":3408:3728   */\n    tag_49:\n      0x00\n        /* \"#utility.yul\":3489:3490   */\n      0x02\n        /* \"#utility.yul\":3483:3487   */\n      dup3\n        /* \"#utility.yul\":3479:3491   */\n      div\n        /* \"#utility.yul\":3469:3491   */\n      swap1\n      pop\n        /* \"#utility.yul\":3536:3537   */\n      0x01\n        /* \"#utility.yul\":3530:3534   */\n      dup3\n        /* \"#utility.yul\":3526:3538   */\n      and\n        /* \"#utility.yul\":3557:3575   */\n      dup1\n        /* \"#utility.yul\":3547:3549   */\n      tag_111\n      jumpi\n        /* \"#utility.yul\":3613:3617   */\n      0x7f\n        /* \"#utility.yul\":3605:3611   */\n      dup3\n        /* \"#utility.yul\":3601:3618   */\n      and\n        /* \"#utility.yul\":3591:3618   */\n      swap2\n      pop\n        /* \"#utility.yul\":3547:3549   */\n    tag_111:\n        /* \"#utility.yul\":3675:3677   */\n      0x20\n        /* \"#utility.yul\":3667:3673   */\n      dup3\n        /* \"#utility.yul\":3664:3678   */\n      lt\n        /* \"#utility.yul\":3644:3662   */\n      dup2\n        /* \"#utility.yul\":3641:3679   */\n      eq\n        /* \"#utility.yul\":3638:3640   */\n      iszero\n      tag_112\n      jumpi\n        /* \"#utility.yul\":3694:3712   */\n      tag_113\n      tag_114\n      jump\t// in\n    tag_113:\n        /* \"#utility.yul\":3638:3640   */\n    tag_112:\n        /* \"#utility.yul\":3459:3728   */\n      pop\n      swap2\n      swap1\n      pop\n      jump\t// out\n        /* \"#utility.yul\":3734:3914   */\n    tag_115:\n        /* \"#utility.yul\":3782:3859   */\n      0x4e487b7100000000000000000000000000000000000000000000000000000000\n        /* \"#utility.yul\":3779:3780   */\n      0x00\n        /* \"#utility.yul\":3772:3860   */\n      mstore\n        /* \"#utility.yul\":3879:3883   */\n      0x21\n        /* \"#utility.yul\":3876:3877   */\n      0x04\n        /* \"#utility.yul\":3869:3884   */\n      mstore\n        /* \"#utility.yul\":3903:3907   */\n      0x24\n        /* \"#utility.yul\":3900:3901   */\n      0x00\n        /* \"#utility.yul\":3893:3908   */\n      revert\n        /* \"#utility.yul\":3920:4100   */\n    tag_114:\n        /* \"#utility.yul\":3968:4045   */\n      0x4e487b7100000000000000000000000000000000000000000000000000000000\n        /* \"#utility.yul\":3965:3966   */\n      0x00\n        /* \"#utility.yul\":3958:4046   */\n      mstore\n        /* \"#utility.yul\":4065:4069   */\n      0x22\n        /* \"#utility.yul\":4062:4063   */\n      0x04\n        /* \"#utility.yul\":4055:4070   */\n      mstore\n        /* \"#utility.yul\":4089:4093   */\n      0x24\n        /* \"#utility.yul\":4086:4087   */\n      0x00\n        /* \"#utility.yul\":4079:4094   */\n      revert\n        /* \"#utility.yul\":4106:4208   */\n    tag_80:\n      0x00\n        /* \"#utility.yul\":4198:4200   */\n      0x1f\n        /* \"#utility.yul\":4194:4201   */\n      not\n        /* \"#utility.yul\":4189:4191   */\n      0x1f\n        /* \"#utility.yul\":4182:4187   */\n      dup4\n        /* \"#utility.yul\":4178:4192   */\n      add\n        /* \"#utility.yul\":4174:4202   */\n      and\n        /* \"#utility.yul\":4164:4202   */\n      swap1\n      pop\n        /* \"#utility.yul\":4154:4208   */\n      swap2\n      swap1\n      pop\n      jump\t// out\n        /* \"#utility.yul\":4214:4329   */\n    tag_101:\n        /* \"#utility.yul\":4297:4298   */\n      0x02\n        /* \"#utility.yul\":4290:4295   */\n      dup2\n        /* \"#utility.yul\":4287:4299   */\n      lt\n        /* \"#utility.yul\":4277:4279   */\n      tag_120\n      jumpi\n        /* \"#utility.yul\":4303:4321   */\n      tag_121\n      tag_115\n      jump\t// in\n    tag_121:\n        /* \"#utility.yul\":4277:4279   */\n    tag_120:\n        /* \"#utility.yul\":4267:4329   */\n      pop\n      jump\t// out\n\n    auxdata: 0xa2646970667358221220fd8dbbc64275bdb60771666c5b115635cfed5614706d5c2306e6ca9dbb8f115764736f6c63430008010033\n}\n",
				"bytecode": {
					"linkReferences": {},
					"object": "608060405260036001557fffffffffffffffffffffffffffffffffffffffffffffffffffffffffffffffe060035560416004556001600860016101000a81548160ff0219169083151502179055506000600860026101000a81548160ff0219169083151502179055506040516020016100779061015b565b60405160208183030381529060405280519060200120600b5573ab8483f64d9c6d1ecf9b849ae677dd3315835cb2600d60006101000a81548173ffffffffffffffffffffffffffffffffffffffff021916908373ffffffffffffffffffffffffffffffffffffffff16021790555033600e60006101000a81548173ffffffffffffffffffffffffffffffffffffffff021916908373ffffffffffffffffffffffffffffffffffffffff16021790555034801561013257600080fd5b506101a4565b6000610145600283610170565b91506101508261017b565b600282019050919050565b600061016682610138565b9150819050919050565b600081905092915050565b7f4869000000000000000000000000000000000000000000000000000000000000600082015250565b6105ea806101b36000396000f3fe608060405234801561001057600080fd5b50600436106100925760003560e01c80639eea4a3a116100665780639eea4a3a1461010f578063af10c8101461012d578063ba33ed7d14610137578063c292371114610141578063cd97d84e1461015f57610092565b80628e8b8d14610097578063312eef29146100b55780633a36399e146100d35780637272eea1146100f1575b600080fd5b61009f61017d565b6040516100ac91906103d0565b60405180910390f35b6100bd610190565b6040516100ca91906103d0565b60405180910390f35b6100db6101a3565b6040516100e891906103b5565b60405180910390f35b6100f96101c9565b6040516101069190610406565b60405180910390f35b6101176101e0565b60405161012491906103b5565b60405180910390f35b610135610206565b005b61013f610259565b005b6101496102ac565b6040516101569190610421565b60405180910390f35b61016761033a565b60405161017491906103eb565b60405180910390f35b600860029054906101000a900460ff1681565b600860019054906101000a900460ff1681565b600d60009054906101000a900473ffffffffffffffffffffffffffffffffffffffff1681565b6000600e60149054906101000a900460ff16905090565b600e60009054906101000a900473ffffffffffffffffffffffffffffffffffffffff1681565b6001600e60146101000a81548160ff02191690836001811115610252577f4e487b7100000000000000000000000000000000000000000000000000000000600052602160045260246000fd5b0217905550565b6000600e60146101000a81548160ff021916908360018111156102a5577f4e487b7100000000000000000000000000000000000000000000000000000000600052602160045260246000fd5b0217905550565b600680546102b9906104ff565b80601f01602080910402602001604051908101604052809291908181526020018280546102e5906104ff565b80156103325780601f1061030757610100808354040283529160200191610332565b820191906000526020600020905b81548152906001019060200180831161031557829003601f168201915b505050505081565b600b5481565b6103498161045f565b82525050565b61035881610471565b82525050565b6103678161047d565b82525050565b610376816104ba565b82525050565b600061038782610443565b610391818561044e565b93506103a18185602086016104cc565b6103aa8161058f565b840191505092915050565b60006020820190506103ca6000830184610340565b92915050565b60006020820190506103e5600083018461034f565b92915050565b6000602082019050610400600083018461035e565b92915050565b600060208201905061041b600083018461036d565b92915050565b6000602082019050818103600083015261043b818461037c565b905092915050565b600081519050919050565b600082825260208201905092915050565b600061046a8261049a565b9050919050565b60008115159050919050565b6000819050919050565b6000819050610495826105a0565b919050565b600073ffffffffffffffffffffffffffffffffffffffff82169050919050565b60006104c582610487565b9050919050565b60005b838110156104ea5780820151818401526020810190506104cf565b838111156104f9576000848401525b50505050565b6000600282049050600182168061051757607f821691505b6020821081141561052b5761052a610560565b5b50919050565b7f4e487b7100000000000000000000000000000000000000000000000000000000600052602160045260246000fd5b7f4e487b7100000000000000000000000000000000000000000000000000000000600052602260045260246000fd5b6000601f19601f8301169050919050565b600281106105b1576105b0610531565b5b5056fea2646970667358221220fd8dbbc64275bdb60771666c5b115635cfed5614706d5c2306e6ca9dbb8f115764736f6c63430008010033",
					"opcodes": "PUSH1 0x80 PUSH1 0x40 MSTORE PUSH1 0x3 PUSH1 0x1 SSTORE PUSH32 0xFFFFFFFFFFFFFFFFFFFFFFFFFFFFFFFFFFFFFFFFFFFFFFFFFFFFFFFFFFFFFFE0 PUSH1 0x3 SSTORE PUSH1 0x41 PUSH1 0x4 SSTORE PUSH1 0x1 PUSH1 0x8 PUSH1 0x1 PUSH2 0x100 EXP DUP2 SLOAD DUP2 PUSH1 0xFF MUL NOT AND SWAP1 DUP4 ISZERO ISZERO MUL OR SWAP1 SSTORE POP PUSH1 0x0 PUSH1 0x8 PUSH1 0x2 PUSH2 0x100 EXP DUP2 SLOAD DUP2 PUSH1 0xFF MUL NOT AND SWAP1 DUP4 ISZERO ISZERO MUL OR SWAP1 SSTORE POP PUSH1 0x40 MLOAD PUSH1 0x20 ADD PUSH2 0x77 SWAP1 PUSH2 0x15B JUMP JUMPDEST PUSH1 0x40 MLOAD PUSH1 0x20 DUP2 DUP4 SUB SUB DUP2 MSTORE SWAP1 PUSH1 0x40 MSTORE DUP1 MLOAD SWAP1 PUSH1 0x20 ADD KECCAK256 PUSH1 0xB SSTORE PUSH20 0xAB8483F64D9C6D1ECF9B849AE677DD3315835CB2 PUSH1 0xD PUSH1 0x0 PUSH2 0x100 EXP DUP2 SLOAD DUP2 PUSH20 0xFFFFFFFFFFFFFFFFFFFFFFFFFFFFFFFFFFFFFFFF MUL NOT AND SWAP1 DUP4 PUSH20 0xFFFFFFFFFFFFFFFFFFFFFFFFFFFFFFFFFFFFFFFF AND MUL OR SWAP1 SSTORE POP CALLER PUSH1 0xE PUSH1 0x0 PUSH2 0x100 EXP DUP2 SLOAD DUP2 PUSH20 0xFFFFFFFFFFFFFFFFFFFFFFFFFFFFFFFFFFFFFFFF MUL NOT AND SWAP1 DUP4 PUSH20 0xFFFFFFFFFFFFFFFFFFFFFFFFFFFFFFFFFFFFFFFF AND MUL OR SWAP1 SSTORE POP CALLVALUE DUP1 ISZERO PUSH2 0x132 JUMPI PUSH1 0x0 DUP1 REVERT JUMPDEST POP PUSH2 0x1A4 JUMP JUMPDEST PUSH1 0x0 PUSH2 0x145 PUSH1 0x2 DUP4 PUSH2 0x170 JUMP JUMPDEST SWAP2 POP PUSH2 0x150 DUP3 PUSH2 0x17B JUMP JUMPDEST PUSH1 0x2 DUP3 ADD SWAP1 POP SWAP2 SWAP1 POP JUMP JUMPDEST PUSH1 0x0 PUSH2 0x166 DUP3 PUSH2 0x138 JUMP JUMPDEST SWAP2 POP DUP2 SWAP1 POP SWAP2 SWAP1 POP JUMP JUMPDEST PUSH1 0x0 DUP2 SWAP1 POP SWAP3 SWAP2 POP POP JUMP JUMPDEST PUSH32 0x4869000000000000000000000000000000000000000000000000000000000000 PUSH1 0x0 DUP3 ADD MSTORE POP JUMP JUMPDEST PUSH2 0x5EA DUP1 PUSH2 0x1B3 PUSH1 0x0 CODECOPY PUSH1 0x0 RETURN INVALID PUSH1 0x80 PUSH1 0x40 MSTORE CALLVALUE DUP1 ISZERO PUSH2 0x10 JUMPI PUSH1 0x0 DUP1 REVERT JUMPDEST POP PUSH1 0x4 CALLDATASIZE LT PUSH2 0x92 JUMPI PUSH1 0x0 CALLDATALOAD PUSH1 0xE0 SHR DUP1 PUSH4 0x9EEA4A3A GT PUSH2 0x66 JUMPI DUP1 PUSH4 0x9EEA4A3A EQ PUSH2 0x10F JUMPI DUP1 PUSH4 0xAF10C810 EQ PUSH2 0x12D JUMPI DUP1 PUSH4 0xBA33ED7D EQ PUSH2 0x137 JUMPI DUP1 PUSH4 0xC2923711 EQ PUSH2 0x141 JUMPI DUP1 PUSH4 0xCD97D84E EQ PUSH2 0x15F JUMPI PUSH2 0x92 JUMP JUMPDEST DUP1 PUSH3 0x8E8B8D EQ PUSH2 0x97 JUMPI DUP1 PUSH4 0x312EEF29 EQ PUSH2 0xB5 JUMPI DUP1 PUSH4 0x3A36399E EQ PUSH2 0xD3 JUMPI DUP1 PUSH4 0x7272EEA1 EQ PUSH2 0xF1 JUMPI JUMPDEST PUSH1 0x0 DUP1 REVERT JUMPDEST PUSH2 0x9F PUSH2 0x17D JUMP JUMPDEST PUSH1 0x40 MLOAD PUSH2 0xAC SWAP2 SWAP1 PUSH2 0x3D0 JUMP JUMPDEST PUSH1 0x40 MLOAD DUP1 SWAP2 SUB SWAP1 RETURN JUMPDEST PUSH2 0xBD PUSH2 0x190 JUMP JUMPDEST PUSH1 0x40 MLOAD PUSH2 0xCA SWAP2 SWAP1 PUSH2 0x3D0 JUMP JUMPDEST PUSH1 0x40 MLOAD DUP1 SWAP2 SUB SWAP1 RETURN JUMPDEST PUSH2 0xDB PUSH2 0x1A3 JUMP JUMPDEST PUSH1 0x40 MLOAD PUSH2 0xE8 SWAP2 SWAP1 PUSH2 0x3B5 JUMP JUMPDEST PUSH1 0x40 MLOAD DUP1 SWAP2 SUB SWAP1 RETURN JUMPDEST PUSH2 0xF9 PUSH2 0x1C9 JUMP JUMPDEST PUSH1 0x40 MLOAD PUSH2 0x106 SWAP2 SWAP1 PUSH2 0x406 JUMP JUMPDEST PUSH1 0x40 MLOAD DUP1 SWAP2 SUB SWAP1 RETURN JUMPDEST PUSH2 0x117 PUSH2 0x1E0 JUMP JUMPDEST PUSH1 0x40 MLOAD PUSH2 0x124 SWAP2 SWAP1 PUSH2 0x3B5 JUMP JUMPDEST PUSH1 0x40 MLOAD DUP1 SWAP2 SUB SWAP1 RETURN JUMPDEST PUSH2 0x135 PUSH2 0x206 JUMP JUMPDEST STOP JUMPDEST PUSH2 0x13F PUSH2 0x259 JUMP JUMPDEST STOP JUMPDEST PUSH2 0x149 PUSH2 0x2AC JUMP JUMPDEST PUSH1 0x40 MLOAD PUSH2 0x156 SWAP2 SWAP1 PUSH2 0x421 JUMP JUMPDEST PUSH1 0x40 MLOAD DUP1 SWAP2 SUB SWAP1 RETURN JUMPDEST PUSH2 0x167 PUSH2 0x33A JUMP JUMPDEST PUSH1 0x40 MLOAD PUSH2 0x174 SWAP2 SWAP1 PUSH2 0x3EB JUMP JUMPDEST PUSH1 0x40 MLOAD DUP1 SWAP2 SUB SWAP1 RETURN JUMPDEST PUSH1 0x8 PUSH1 0x2 SWAP1 SLOAD SWAP1 PUSH2 0x100 EXP SWAP1 DIV PUSH1 0xFF AND DUP2 JUMP JUMPDEST PUSH1 0x8 PUSH1 0x1 SWAP1 SLOAD SWAP1 PUSH2 0x100 EXP SWAP1 DIV PUSH1 0xFF AND DUP2 JUMP JUMPDEST PUSH1 0xD PUSH1 0x0 SWAP1 SLOAD SWAP1 PUSH2 0x100 EXP SWAP1 DIV PUSH20 0xFFFFFFFFFFFFFFFFFFFFFFFFFFFFFFFFFFFFFFFF AND DUP2 JUMP JUMPDEST PUSH1 0x0 PUSH1 0xE PUSH1 0x14 SWAP1 SLOAD SWAP1 PUSH2 0x100 EXP SWAP1 DIV PUSH1 0xFF AND SWAP1 POP SWAP1 JUMP JUMPDEST PUSH1 0xE PUSH1 0x0 SWAP1 SLOAD SWAP1 PUSH2 0x100 EXP SWAP1 DIV PUSH20 0xFFFFFFFFFFFFFFFFFFFFFFFFFFFFFFFFFFFFFFFF AND DUP2 JUMP JUMPDEST PUSH1 0x1 PUSH1 0xE PUSH1 0x14 PUSH2 0x100 EXP DUP2 SLOAD DUP2 PUSH1 0xFF MUL NOT AND SWAP1 DUP4 PUSH1 0x1 DUP2 GT ISZERO PUSH2 0x252 JUMPI PUSH32 0x4E487B7100000000000000000000000000000000000000000000000000000000 PUSH1 0x0 MSTORE PUSH1 0x21 PUSH1 0x4 MSTORE PUSH1 0x24 PUSH1 0x0 REVERT JUMPDEST MUL OR SWAP1 SSTORE POP JUMP JUMPDEST PUSH1 0x0 PUSH1 0xE PUSH1 0x14 PUSH2 0x100 EXP DUP2 SLOAD DUP2 PUSH1 0xFF MUL NOT AND SWAP1 DUP4 PUSH1 0x1 DUP2 GT ISZERO PUSH2 0x2A5 JUMPI PUSH32 0x4E487B7100000000000000000000000000000000000000000000000000000000 PUSH1 0x0 MSTORE PUSH1 0x21 PUSH1 0x4 MSTORE PUSH1 0x24 PUSH1 0x0 REVERT JUMPDEST MUL OR SWAP1 SSTORE POP JUMP JUMPDEST PUSH1 0x6 DUP1 SLOAD PUSH2 0x2B9 SWAP1 PUSH2 0x4FF JUMP JUMPDEST DUP1 PUSH1 0x1F ADD PUSH1 0x20 DUP1 SWAP2 DIV MUL PUSH1 0x20 ADD PUSH1 0x40 MLOAD SWAP1 DUP2 ADD PUSH1 0x40 MSTORE DUP1 SWAP3 SWAP2 SWAP1 DUP2 DUP2 MSTORE PUSH1 0x20 ADD DUP3 DUP1 SLOAD PUSH2 0x2E5 SWAP1 PUSH2 0x4FF JUMP JUMPDEST DUP1 ISZERO PUSH2 0x332 JUMPI DUP1 PUSH1 0x1F LT PUSH2 0x307 JUMPI PUSH2 0x100 DUP1 DUP4 SLOAD DIV MUL DUP4 MSTORE SWAP2 PUSH1 0x20 ADD SWAP2 PUSH2 0x332 JUMP JUMPDEST DUP3 ADD SWAP2 SWAP1 PUSH1 0x0 MSTORE PUSH1 0x20 PUSH1 0x0 KECCAK256 SWAP1 JUMPDEST DUP2 SLOAD DUP2 MSTORE SWAP1 PUSH1 0x1 ADD SWAP1 PUSH1 0x20 ADD DUP1 DUP4 GT PUSH2 0x315 JUMPI DUP3 SWAP1 SUB PUSH1 0x1F AND DUP3 ADD SWAP2 JUMPDEST POP POP POP POP POP DUP2 JUMP JUMPDEST PUSH1 0xB SLOAD DUP2 JUMP JUMPDEST PUSH2 0x349 DUP2 PUSH2 0x45F JUMP JUMPDEST DUP3 MSTORE POP POP JUMP JUMPDEST PUSH2 0x358 DUP2 PUSH2 0x471 JUMP JUMPDEST DUP3 MSTORE POP POP JUMP JUMPDEST PUSH2 0x367 DUP2 PUSH2 0x47D JUMP JUMPDEST DUP3 MSTORE POP POP JUMP JUMPDEST PUSH2 0x376 DUP2 PUSH2 0x4BA JUMP JUMPDEST DUP3 MSTORE POP POP JUMP JUMPDEST PUSH1 0x0 PUSH2 0x387 DUP3 PUSH2 0x443 JUMP JUMPDEST PUSH2 0x391 DUP2 DUP6 PUSH2 0x44E JUMP JUMPDEST SWAP4 POP PUSH2 0x3A1 DUP2 DUP6 PUSH1 0x20 DUP7 ADD PUSH2 0x4CC JUMP JUMPDEST PUSH2 0x3AA DUP2 PUSH2 0x58F JUMP JUMPDEST DUP5 ADD SWAP2 POP POP SWAP3 SWAP2 POP POP JUMP JUMPDEST PUSH1 0x0 PUSH1 0x20 DUP3 ADD SWAP1 POP PUSH2 0x3CA PUSH1 0x0 DUP4 ADD DUP5 PUSH2 0x340 JUMP JUMPDEST SWAP3 SWAP2 POP POP JUMP JUMPDEST PUSH1 0x0 PUSH1 0x20 DUP3 ADD SWAP1 POP PUSH2 0x3E5 PUSH1 0x0 DUP4 ADD DUP5 PUSH2 0x34F JUMP JUMPDEST SWAP3 SWAP2 POP POP JUMP JUMPDEST PUSH1 0x0 PUSH1 0x20 DUP3 ADD SWAP1 POP PUSH2 0x400 PUSH1 0x0 DUP4 ADD DUP5 PUSH2 0x35E JUMP JUMPDEST SWAP3 SWAP2 POP POP JUMP JUMPDEST PUSH1 0x0 PUSH1 0x20 DUP3 ADD SWAP1 POP PUSH2 0x41B PUSH1 0x0 DUP4 ADD DUP5 PUSH2 0x36D JUMP JUMPDEST SWAP3 SWAP2 POP POP JUMP JUMPDEST PUSH1 0x0 PUSH1 0x20 DUP3 ADD SWAP1 POP DUP2 DUP2 SUB PUSH1 0x0 DUP4 ADD MSTORE PUSH2 0x43B DUP2 DUP5 PUSH2 0x37C JUMP JUMPDEST SWAP1 POP SWAP3 SWAP2 POP POP JUMP JUMPDEST PUSH1 0x0 DUP2 MLOAD SWAP1 POP SWAP2 SWAP1 POP JUMP JUMPDEST PUSH1 0x0 DUP3 DUP3 MSTORE PUSH1 0x20 DUP3 ADD SWAP1 POP SWAP3 SWAP2 POP POP JUMP JUMPDEST PUSH1 0x0 PUSH2 0x46A DUP3 PUSH2 0x49A JUMP JUMPDEST SWAP1 POP SWAP2 SWAP1 POP JUMP JUMPDEST PUSH1 0x0 DUP2 ISZERO ISZERO SWAP1 POP SWAP2 SWAP1 POP JUMP JUMPDEST PUSH1 0x0 DUP2 SWAP1 POP SWAP2 SWAP1 POP JUMP JUMPDEST PUSH1 0x0 DUP2 SWAP1 POP PUSH2 0x495 DUP3 PUSH2 0x5A0 JUMP JUMPDEST SWAP2 SWAP1 POP JUMP JUMPDEST PUSH1 0x0 PUSH20 0xFFFFFFFFFFFFFFFFFFFFFFFFFFFFFFFFFFFFFFFF DUP3 AND SWAP1 POP SWAP2 SWAP1 POP JUMP JUMPDEST PUSH1 0x0 PUSH2 0x4C5 DUP3 PUSH2 0x487 JUMP JUMPDEST SWAP1 POP SWAP2 SWAP1 POP JUMP JUMPDEST PUSH1 0x0 JUMPDEST DUP4 DUP2 LT ISZERO PUSH2 0x4EA JUMPI DUP1 DUP3 ADD MLOAD DUP2 DUP5 ADD MSTORE PUSH1 0x20 DUP2 ADD SWAP1 POP PUSH2 0x4CF JUMP JUMPDEST DUP4 DUP2 GT ISZERO PUSH2 0x4F9 JUMPI PUSH1 0x0 DUP5 DUP5 ADD MSTORE JUMPDEST POP POP POP POP JUMP JUMPDEST PUSH1 0x0 PUSH1 0x2 DUP3 DIV SWAP1 POP PUSH1 0x1 DUP3 AND DUP1 PUSH2 0x517 JUMPI PUSH1 0x7F DUP3 AND SWAP2 POP JUMPDEST PUSH1 0x20 DUP3 LT DUP2 EQ ISZERO PUSH2 0x52B JUMPI PUSH2 0x52A PUSH2 0x560 JUMP JUMPDEST JUMPDEST POP SWAP2 SWAP1 POP JUMP JUMPDEST PUSH32 0x4E487B7100000000000000000000000000000000000000000000000000000000 PUSH1 0x0 MSTORE PUSH1 0x21 PUSH1 0x4 MSTORE PUSH1 0x24 PUSH1 0x0 REVERT JUMPDEST PUSH32 0x4E487B7100000000000000000000000000000000000000000000000000000000 PUSH1 0x0 MSTORE PUSH1 0x22 PUSH1 0x4 MSTORE PUSH1 0x24 PUSH1 0x0 REVERT JUMPDEST PUSH1 0x0 PUSH1 0x1F NOT PUSH1 0x1F DUP4 ADD AND SWAP1 POP SWAP2 SWAP1 POP JUMP JUMPDEST PUSH1 0x2 DUP2 LT PUSH2 0x5B1 JUMPI PUSH2 0x5B0 PUSH2 0x531 JUMP JUMPDEST JUMPDEST POP JUMP INVALID LOG2 PUSH5 0x6970667358 0x22 SLT KECCAK256 REVERT DUP14 0xBB 0xC6 TIMESTAMP PUSH22 0xBDB60771666C5B115635CFED5614706D5C2306E6CA9D 0xBB DUP16 GT JUMPI PUSH5 0x736F6C6343 STOP ADDMOD ADD STOP CALLER "
				},
				"gasEstimates": {
					"creation": {
						"codeDepositCost": "302800",
						"executionCost": "164245",
						"totalCost": "467045"
					},
					"external": {
						"address1()": "1259",
						"address2()": "1214",
						"boolean_false()": "1222",
						"boolean_true()": "1244",
						"displayState()": "1385",
						"hashing()": "1217",
						"srt_public()": "infinite",
						"turnOff()": "21103",
						"turnOn()": "21125"
					}
				},
				"methodIdentifiers": {
					"address1()": "3a36399e",
					"address2()": "9eea4a3a",
					"boolean_false()": "008e8b8d",
					"boolean_true()": "312eef29",
					"displayState()": "7272eea1",
					"hashing()": "cd97d84e",
					"srt_public()": "c2923711",
					"turnOff()": "af10c810",
					"turnOn()": "ba33ed7d"
				}
			},
			"storageLayout": {
				"storage": [
					{
						"astId": 3,
						"contract": "contracts/2_variables_modifiers.sol:varibles_modifier",
						"label": "a",
						"offset": 0,
						"slot": "0",
						"type": "t_uint256"
					},
					{
						"astId": 6,
						"contract": "contracts/2_variables_modifiers.sol:varibles_modifier",
						"label": "b",
						"offset": 0,
						"slot": "1",
						"type": "t_uint256"
					},
					{
						"astId": 8,
						"contract": "contracts/2_variables_modifiers.sol:varibles_modifier",
						"label": "c",
						"offset": 0,
						"slot": "2",
						"type": "t_int256"
					},
					{
						"astId": 12,
						"contract": "contracts/2_variables_modifiers.sol:varibles_modifier",
						"label": "d",
						"offset": 0,
						"slot": "3",
						"type": "t_int256"
					},
					{
						"astId": 15,
						"contract": "contracts/2_variables_modifiers.sol:varibles_modifier",
						"label": "e",
						"offset": 0,
						"slot": "4",
						"type": "t_int256"
					},
					{
						"astId": 17,
						"contract": "contracts/2_variables_modifiers.sol:varibles_modifier",
						"label": "str",
						"offset": 0,
						"slot": "5",
						"type": "t_string_storage"
					},
					{
						"astId": 19,
						"contract": "contracts/2_variables_modifiers.sol:varibles_modifier",
						"label": "srt_public",
						"offset": 0,
						"slot": "6",
						"type": "t_string_storage"
					},
					{
						"astId": 21,
						"contract": "contracts/2_variables_modifiers.sol:varibles_modifier",
						"label": "str_private",
						"offset": 0,
						"slot": "7",
						"type": "t_string_storage"
					},
					{
						"astId": 23,
						"contract": "contracts/2_variables_modifiers.sol:varibles_modifier",
						"label": "boolean",
						"offset": 0,
						"slot": "8",
						"type": "t_bool"
					},
					{
						"astId": 26,
						"contract": "contracts/2_variables_modifiers.sol:varibles_modifier",
						"label": "boolean_true",
						"offset": 1,
						"slot": "8",
						"type": "t_bool"
					},
					{
						"astId": 29,
						"contract": "contracts/2_variables_modifiers.sol:varibles_modifier",
						"label": "boolean_false",
						"offset": 2,
						"slot": "8",
						"type": "t_bool"
					},
					{
						"astId": 31,
						"contract": "contracts/2_variables_modifiers.sol:varibles_modifier",
						"label": "firt_bytes",
						"offset": 0,
						"slot": "9",
						"type": "t_bytes32"
					},
					{
						"astId": 33,
						"contract": "contracts/2_variables_modifiers.sol:varibles_modifier",
						"label": "second_bytes",
						"offset": 0,
						"slot": "10",
						"type": "t_bytes4"
					},
					{
						"astId": 41,
						"contract": "contracts/2_variables_modifiers.sol:varibles_modifier",
						"label": "hashing",
						"offset": 0,
						"slot": "11",
						"type": "t_bytes32"
					},
					{
						"astId": 43,
						"contract": "contracts/2_variables_modifiers.sol:varibles_modifier",
						"label": "my_address",
						"offset": 0,
						"slot": "12",
						"type": "t_address"
					},
					{
						"astId": 46,
						"contract": "contracts/2_variables_modifiers.sol:varibles_modifier",
						"label": "address1",
						"offset": 0,
						"slot": "13",
						"type": "t_address"
					},
					{
						"astId": 50,
						"contract": "contracts/2_variables_modifiers.sol:varibles_modifier",
						"label": "address2",
						"offset": 0,
						"slot": "14",
						"type": "t_address"
					},
					{
						"astId": 56,
						"contract": "contracts/2_variables_modifiers.sol:varibles_modifier",
						"label": "state",
						"offset": 20,
						"slot": "14",
						"type": "t_enum(options)53"
					}
				],
				"types": {
					"t_address": {
						"encoding": "inplace",
						"label": "address",
						"numberOfBytes": "20"
					},
					"t_bool": {
						"encoding": "inplace",
						"label": "bool",
						"numberOfBytes": "1"
					},
					"t_bytes32": {
						"encoding": "inplace",
						"label": "bytes32",
						"numberOfBytes": "32"
					},
					"t_bytes4": {
						"encoding": "inplace",
						"label": "bytes4",
						"numberOfBytes": "4"
					},
					"t_enum(options)53": {
						"encoding": "inplace",
						"label": "enum varibles_modifier.options",
						"numberOfBytes": "1"
					},
					"t_int256": {
						"encoding": "inplace",
						"label": "int256",
						"numberOfBytes": "32"
					},
					"t_string_storage": {
						"encoding": "bytes",
						"label": "string",
						"numberOfBytes": "32"
					},
					"t_uint256": {
						"encoding": "inplace",
						"label": "uint256",
						"numberOfBytes": "32"
					}
				}
			},
			"userdoc": {
				"kind": "user",
				"methods": {},
				"version": 1
			}
		}
	}
}