{
	"contracts/5_loops_conditionals.sol": {
		"lopps_conditionals": {
			"abi": [
				{
					"inputs": [],
					"name": "odd",
					"outputs": [
						{
							"internalType": "uint256",
							"name": "",
							"type": "uint256"
						}
					],
					"stateMutability": "pure",
					"type": "function"
				},
				{
					"inputs": [
						{
							"internalType": "uint256",
							"name": "_number",
							"type": "uint256"
						}
					],
					"name": "sum",
					"outputs": [
						{
							"internalType": "uint256",
							"name": "",
							"type": "uint256"
						}
					],
					"stateMutability": "pure",
					"type": "function"
				}
			],
			"devdoc": {
				"kind": "dev",
				"methods": {},
				"version": 1
			},
			"evm": {
				"assembly": "    /* \"contracts/5_loops_conditionals.sol\":74:754  contract lopps_conditionals {\r... */\n  mstore(0x40, 0x80)\n  callvalue\n  dup1\n  iszero\n  tag_1\n  jumpi\n  0x00\n  dup1\n  revert\ntag_1:\n  pop\n  dataSize(sub_0)\n  dup1\n  dataOffset(sub_0)\n  0x00\n  codecopy\n  0x00\n  return\nstop\n\nsub_0: assembly {\n        /* \"contracts/5_loops_conditionals.sol\":74:754  contract lopps_conditionals {\r... */\n      mstore(0x40, 0x80)\n      callvalue\n      dup1\n      iszero\n      tag_1\n      jumpi\n      0x00\n      dup1\n      revert\n    tag_1:\n      pop\n      jumpi(tag_2, lt(calldatasize, 0x04))\n      shr(0xe0, calldataload(0x00))\n      dup1\n      0x188b85b4\n      eq\n      tag_3\n      jumpi\n      dup1\n      0xc12363a2\n      eq\n      tag_4\n      jumpi\n    tag_2:\n      0x00\n      dup1\n      revert\n        /* \"contracts/5_loops_conditionals.sol\":168:400  function sum (uint256 _number) public pure returns (uint256) {\r... */\n    tag_3:\n      tag_5\n      0x04\n      dup1\n      calldatasize\n      sub\n      dup2\n      add\n      swap1\n      tag_6\n      swap2\n      swap1\n      tag_7\n      jump\t// in\n    tag_6:\n      tag_8\n      jump\t// in\n    tag_5:\n      mload(0x40)\n      tag_9\n      swap2\n      swap1\n      tag_10\n      jump\t// in\n    tag_9:\n      mload(0x40)\n      dup1\n      swap2\n      sub\n      swap1\n      return\n        /* \"contracts/5_loops_conditionals.sol\":446:749  function odd() public pure returns (uint256) {\r... */\n    tag_4:\n      tag_11\n      tag_12\n      jump\t// in\n    tag_11:\n      mload(0x40)\n      tag_13\n      swap2\n      swap1\n      tag_10\n      jump\t// in\n    tag_13:\n      mload(0x40)\n      dup1\n      swap2\n      sub\n      swap1\n      return\n        /* \"contracts/5_loops_conditionals.sol\":168:400  function sum (uint256 _number) public pure returns (uint256) {\r... */\n    tag_8:\n        /* \"contracts/5_loops_conditionals.sol\":220:227  uint256 */\n      0x00\n        /* \"contracts/5_loops_conditionals.sol\":240:255  uint256 aux_sum */\n      dup1\n        /* \"contracts/5_loops_conditionals.sol\":258:259  0 */\n      0x00\n        /* \"contracts/5_loops_conditionals.sol\":240:259  uint256 aux_sum = 0 */\n      swap1\n      pop\n        /* \"contracts/5_loops_conditionals.sol\":275:284  uint256 i */\n      0x00\n        /* \"contracts/5_loops_conditionals.sol\":287:294  _number */\n      dup4\n        /* \"contracts/5_loops_conditionals.sol\":275:294  uint256 i = _number */\n      swap1\n      pop\n        /* \"contracts/5_loops_conditionals.sol\":270:368  for (uint256 i = _number; i < (10+_number); i ++) {\r... */\n    tag_15:\n        /* \"contracts/5_loops_conditionals.sol\":304:311  _number */\n      dup4\n        /* \"contracts/5_loops_conditionals.sol\":301:303  10 */\n      0x0a\n        /* \"contracts/5_loops_conditionals.sol\":301:311  10+_number */\n      tag_18\n      swap2\n      swap1\n      tag_19\n      jump\t// in\n    tag_18:\n        /* \"contracts/5_loops_conditionals.sol\":296:297  i */\n      dup2\n        /* \"contracts/5_loops_conditionals.sol\":296:312  i < (10+_number) */\n      lt\n        /* \"contracts/5_loops_conditionals.sol\":270:368  for (uint256 i = _number; i < (10+_number); i ++) {\r... */\n      iszero\n      tag_16\n      jumpi\n        /* \"contracts/5_loops_conditionals.sol\":355:356  i */\n      dup1\n        /* \"contracts/5_loops_conditionals.sol\":345:352  aux_sum */\n      dup3\n        /* \"contracts/5_loops_conditionals.sol\":345:356  aux_sum + i */\n      tag_20\n      swap2\n      swap1\n      tag_19\n      jump\t// in\n    tag_20:\n        /* \"contracts/5_loops_conditionals.sol\":335:356  aux_sum = aux_sum + i */\n      swap2\n      pop\n        /* \"contracts/5_loops_conditionals.sol\":314:318  i ++ */\n      dup1\n      dup1\n      tag_21\n      swap1\n      tag_22\n      jump\t// in\n    tag_21:\n      swap2\n      pop\n      pop\n        /* \"contracts/5_loops_conditionals.sol\":270:368  for (uint256 i = _number; i < (10+_number); i ++) {\r... */\n      jump(tag_15)\n    tag_16:\n      pop\n        /* \"contracts/5_loops_conditionals.sol\":385:392  aux_sum */\n      dup1\n        /* \"contracts/5_loops_conditionals.sol\":378:392  return aux_sum */\n      swap2\n      pop\n      pop\n        /* \"contracts/5_loops_conditionals.sol\":168:400  function sum (uint256 _number) public pure returns (uint256) {\r... */\n      swap2\n      swap1\n      pop\n      jump\t// out\n        /* \"contracts/5_loops_conditionals.sol\":446:749  function odd() public pure returns (uint256) {\r... */\n    tag_12:\n        /* \"contracts/5_loops_conditionals.sol\":482:489  uint256 */\n      0x00\n        /* \"contracts/5_loops_conditionals.sol\":502:517  uint256 aux_sum */\n      dup1\n        /* \"contracts/5_loops_conditionals.sol\":520:521  0 */\n      0x00\n        /* \"contracts/5_loops_conditionals.sol\":502:521  uint256 aux_sum = 0 */\n      swap1\n      pop\n        /* \"contracts/5_loops_conditionals.sol\":532:547  uint256 counter */\n      0x00\n        /* \"contracts/5_loops_conditionals.sol\":550:551  1 */\n      0x01\n        /* \"contracts/5_loops_conditionals.sol\":532:551  uint256 counter = 1 */\n      swap1\n      pop\n        /* \"contracts/5_loops_conditionals.sol\":562:717  while (counter < 10) {\r... */\n    tag_24:\n        /* \"contracts/5_loops_conditionals.sol\":579:581  10 */\n      0x0a\n        /* \"contracts/5_loops_conditionals.sol\":569:576  counter */\n      dup2\n        /* \"contracts/5_loops_conditionals.sol\":569:581  counter < 10 */\n      lt\n        /* \"contracts/5_loops_conditionals.sol\":562:717  while (counter < 10) {\r... */\n      iszero\n      tag_25\n      jumpi\n        /* \"contracts/5_loops_conditionals.sol\":616:617  0 */\n      0x00\n        /* \"contracts/5_loops_conditionals.sol\":611:612  2 */\n      0x02\n        /* \"contracts/5_loops_conditionals.sol\":601:608  counter */\n      dup3\n        /* \"contracts/5_loops_conditionals.sol\":601:612  counter % 2 */\n      tag_26\n      swap2\n      swap1\n      tag_27\n      jump\t// in\n    tag_26:\n        /* \"contracts/5_loops_conditionals.sol\":601:617  counter % 2 != 0 */\n      eq\n        /* \"contracts/5_loops_conditionals.sol\":598:681  if(counter % 2 != 0) {\r... */\n      tag_28\n      jumpi\n        /* \"contracts/5_loops_conditionals.sol\":658:665  counter */\n      dup1\n        /* \"contracts/5_loops_conditionals.sol\":648:655  aux_sum */\n      dup3\n        /* \"contracts/5_loops_conditionals.sol\":648:665  aux_sum + counter */\n      tag_29\n      swap2\n      swap1\n      tag_19\n      jump\t// in\n    tag_29:\n        /* \"contracts/5_loops_conditionals.sol\":638:665  aux_sum = aux_sum + counter */\n      swap2\n      pop\n        /* \"contracts/5_loops_conditionals.sol\":598:681  if(counter % 2 != 0) {\r... */\n    tag_28:\n        /* \"contracts/5_loops_conditionals.sol\":695:705  counter ++ */\n      dup1\n      dup1\n      tag_30\n      swap1\n      tag_22\n      jump\t// in\n    tag_30:\n      swap2\n      pop\n      pop\n        /* \"contracts/5_loops_conditionals.sol\":562:717  while (counter < 10) {\r... */\n      jump(tag_24)\n    tag_25:\n        /* \"contracts/5_loops_conditionals.sol\":734:741  aux_sum */\n      dup2\n        /* \"contracts/5_loops_conditionals.sol\":727:741  return aux_sum */\n      swap3\n      pop\n      pop\n      pop\n        /* \"contracts/5_loops_conditionals.sol\":446:749  function odd() public pure returns (uint256) {\r... */\n      swap1\n      jump\t// out\n        /* \"#utility.yul\":7:146   */\n    tag_32:\n      0x00\n        /* \"#utility.yul\":91:97   */\n      dup2\n        /* \"#utility.yul\":78:98   */\n      calldataload\n        /* \"#utility.yul\":69:98   */\n      swap1\n      pop\n        /* \"#utility.yul\":107:140   */\n      tag_34\n        /* \"#utility.yul\":134:139   */\n      dup2\n        /* \"#utility.yul\":107:140   */\n      tag_35\n      jump\t// in\n    tag_34:\n        /* \"#utility.yul\":59:146   */\n      swap3\n      swap2\n      pop\n      pop\n      jump\t// out\n        /* \"#utility.yul\":152:414   */\n    tag_7:\n      0x00\n        /* \"#utility.yul\":260:262   */\n      0x20\n        /* \"#utility.yul\":248:257   */\n      dup3\n        /* \"#utility.yul\":239:246   */\n      dup5\n        /* \"#utility.yul\":235:258   */\n      sub\n        /* \"#utility.yul\":231:263   */\n      slt\n        /* \"#utility.yul\":228:230   */\n      iszero\n      tag_37\n      jumpi\n        /* \"#utility.yul\":276:277   */\n      0x00\n        /* \"#utility.yul\":273:274   */\n      dup1\n        /* \"#utility.yul\":266:278   */\n      revert\n        /* \"#utility.yul\":228:230   */\n    tag_37:\n        /* \"#utility.yul\":319:320   */\n      0x00\n        /* \"#utility.yul\":344:397   */\n      tag_38\n        /* \"#utility.yul\":389:396   */\n      dup5\n        /* \"#utility.yul\":380:386   */\n      dup3\n        /* \"#utility.yul\":369:378   */\n      dup6\n        /* \"#utility.yul\":365:387   */\n      add\n        /* \"#utility.yul\":344:397   */\n      tag_32\n      jump\t// in\n    tag_38:\n        /* \"#utility.yul\":334:397   */\n      swap2\n      pop\n        /* \"#utility.yul\":290:407   */\n      pop\n        /* \"#utility.yul\":218:414   */\n      swap3\n      swap2\n      pop\n      pop\n      jump\t// out\n        /* \"#utility.yul\":420:538   */\n    tag_39:\n        /* \"#utility.yul\":507:531   */\n      tag_41\n        /* \"#utility.yul\":525:530   */\n      dup2\n        /* \"#utility.yul\":507:531   */\n      tag_42\n      jump\t// in\n    tag_41:\n        /* \"#utility.yul\":502:505   */\n      dup3\n        /* \"#utility.yul\":495:532   */\n      mstore\n        /* \"#utility.yul\":485:538   */\n      pop\n      pop\n      jump\t// out\n        /* \"#utility.yul\":544:766   */\n    tag_10:\n      0x00\n        /* \"#utility.yul\":675:677   */\n      0x20\n        /* \"#utility.yul\":664:673   */\n      dup3\n        /* \"#utility.yul\":660:678   */\n      add\n        /* \"#utility.yul\":652:678   */\n      swap1\n      pop\n        /* \"#utility.yul\":688:759   */\n      tag_44\n        /* \"#utility.yul\":756:757   */\n      0x00\n        /* \"#utility.yul\":745:754   */\n      dup4\n        /* \"#utility.yul\":741:758   */\n      add\n        /* \"#utility.yul\":732:738   */\n      dup5\n        /* \"#utility.yul\":688:759   */\n      tag_39\n      jump\t// in\n    tag_44:\n        /* \"#utility.yul\":642:766   */\n      swap3\n      swap2\n      pop\n      pop\n      jump\t// out\n        /* \"#utility.yul\":772:1077   */\n    tag_19:\n      0x00\n        /* \"#utility.yul\":831:851   */\n      tag_46\n        /* \"#utility.yul\":849:850   */\n      dup3\n        /* \"#utility.yul\":831:851   */\n      tag_42\n      jump\t// in\n    tag_46:\n        /* \"#utility.yul\":826:851   */\n      swap2\n      pop\n        /* \"#utility.yul\":865:885   */\n      tag_47\n        /* \"#utility.yul\":883:884   */\n      dup4\n        /* \"#utility.yul\":865:885   */\n      tag_42\n      jump\t// in\n    tag_47:\n        /* \"#utility.yul\":860:885   */\n      swap3\n      pop\n        /* \"#utility.yul\":1019:1020   */\n      dup3\n        /* \"#utility.yul\":951:1017   */\n      0xffffffffffffffffffffffffffffffffffffffffffffffffffffffffffffffff\n        /* \"#utility.yul\":947:1021   */\n      sub\n        /* \"#utility.yul\":944:945   */\n      dup3\n        /* \"#utility.yul\":941:1022   */\n      gt\n        /* \"#utility.yul\":938:940   */\n      iszero\n      tag_48\n      jumpi\n        /* \"#utility.yul\":1025:1043   */\n      tag_49\n      tag_50\n      jump\t// in\n    tag_49:\n        /* \"#utility.yul\":938:940   */\n    tag_48:\n        /* \"#utility.yul\":1069:1070   */\n      dup3\n        /* \"#utility.yul\":1066:1067   */\n      dup3\n        /* \"#utility.yul\":1062:1071   */\n      add\n        /* \"#utility.yul\":1055:1071   */\n      swap1\n      pop\n        /* \"#utility.yul\":816:1077   */\n      swap3\n      swap2\n      pop\n      pop\n      jump\t// out\n        /* \"#utility.yul\":1083:1160   */\n    tag_42:\n      0x00\n        /* \"#utility.yul\":1149:1154   */\n      dup2\n        /* \"#utility.yul\":1138:1154   */\n      swap1\n      pop\n        /* \"#utility.yul\":1128:1160   */\n      swap2\n      swap1\n      pop\n      jump\t// out\n        /* \"#utility.yul\":1166:1399   */\n    tag_22:\n      0x00\n        /* \"#utility.yul\":1228:1252   */\n      tag_53\n        /* \"#utility.yul\":1246:1251   */\n      dup3\n        /* \"#utility.yul\":1228:1252   */\n      tag_42\n      jump\t// in\n    tag_53:\n        /* \"#utility.yul\":1219:1252   */\n      swap2\n      pop\n        /* \"#utility.yul\":1274:1340   */\n      0xffffffffffffffffffffffffffffffffffffffffffffffffffffffffffffffff\n        /* \"#utility.yul\":1267:1272   */\n      dup3\n        /* \"#utility.yul\":1264:1341   */\n      eq\n        /* \"#utility.yul\":1261:1263   */\n      iszero\n      tag_54\n      jumpi\n        /* \"#utility.yul\":1344:1362   */\n      tag_55\n      tag_50\n      jump\t// in\n    tag_55:\n        /* \"#utility.yul\":1261:1263   */\n    tag_54:\n        /* \"#utility.yul\":1391:1392   */\n      0x01\n        /* \"#utility.yul\":1384:1389   */\n      dup3\n        /* \"#utility.yul\":1380:1393   */\n      add\n        /* \"#utility.yul\":1373:1393   */\n      swap1\n      pop\n        /* \"#utility.yul\":1209:1399   */\n      swap2\n      swap1\n      pop\n      jump\t// out\n        /* \"#utility.yul\":1405:1581   */\n    tag_27:\n      0x00\n        /* \"#utility.yul\":1454:1474   */\n      tag_57\n        /* \"#utility.yul\":1472:1473   */\n      dup3\n        /* \"#utility.yul\":1454:1474   */\n      tag_42\n      jump\t// in\n    tag_57:\n        /* \"#utility.yul\":1449:1474   */\n      swap2\n      pop\n        /* \"#utility.yul\":1488:1508   */\n      tag_58\n        /* \"#utility.yul\":1506:1507   */\n      dup4\n        /* \"#utility.yul\":1488:1508   */\n      tag_42\n      jump\t// in\n    tag_58:\n        /* \"#utility.yul\":1483:1508   */\n      swap3\n      pop\n        /* \"#utility.yul\":1527:1528   */\n      dup3\n        /* \"#utility.yul\":1517:1519   */\n      tag_59\n      jumpi\n        /* \"#utility.yul\":1532:1550   */\n      tag_60\n      tag_61\n      jump\t// in\n    tag_60:\n        /* \"#utility.yul\":1517:1519   */\n    tag_59:\n        /* \"#utility.yul\":1573:1574   */\n      dup3\n        /* \"#utility.yul\":1570:1571   */\n      dup3\n        /* \"#utility.yul\":1566:1575   */\n      mod\n        /* \"#utility.yul\":1561:1575   */\n      swap1\n      pop\n        /* \"#utility.yul\":1439:1581   */\n      swap3\n      swap2\n      pop\n      pop\n      jump\t// out\n        /* \"#utility.yul\":1587:1767   */\n    tag_50:\n        /* \"#utility.yul\":1635:1712   */\n      0x4e487b7100000000000000000000000000000000000000000000000000000000\n        /* \"#utility.yul\":1632:1633   */\n      0x00\n        /* \"#utility.yul\":1625:1713   */\n      mstore\n        /* \"#utility.yul\":1732:1736   */\n      0x11\n        /* \"#utility.yul\":1729:1730   */\n      0x04\n        /* \"#utility.yul\":1722:1737   */\n      mstore\n        /* \"#utility.yul\":1756:1760   */\n      0x24\n        /* \"#utility.yul\":1753:1754   */\n      0x00\n        /* \"#utility.yul\":1746:1761   */\n      revert\n        /* \"#utility.yul\":1773:1953   */\n    tag_61:\n        /* \"#utility.yul\":1821:1898   */\n      0x4e487b7100000000000000000000000000000000000000000000000000000000\n        /* \"#utility.yul\":1818:1819   */\n      0x00\n        /* \"#utility.yul\":1811:1899   */\n      mstore\n        /* \"#utility.yul\":1918:1922   */\n      0x12\n        /* \"#utility.yul\":1915:1916   */\n      0x04\n        /* \"#utility.yul\":1908:1923   */\n      mstore\n        /* \"#utility.yul\":1942:1946   */\n      0x24\n        /* \"#utility.yul\":1939:1940   */\n      0x00\n        /* \"#utility.yul\":1932:1947   */\n      revert\n        /* \"#utility.yul\":1959:2081   */\n    tag_35:\n        /* \"#utility.yul\":2032:2056   */\n      tag_65\n        /* \"#utility.yul\":2050:2055   */\n      dup2\n        /* \"#utility.yul\":2032:2056   */\n      tag_42\n      jump\t// in\n    tag_65:\n        /* \"#utility.yul\":2025:2030   */\n      dup2\n        /* \"#utility.yul\":2022:2057   */\n      eq\n        /* \"#utility.yul\":2012:2014   */\n      tag_66\n      jumpi\n        /* \"#utility.yul\":2071:2072   */\n      0x00\n        /* \"#utility.yul\":2068:2069   */\n      dup1\n        /* \"#utility.yul\":2061:2073   */\n      revert\n        /* \"#utility.yul\":2012:2014   */\n    tag_66:\n        /* \"#utility.yul\":2002:2081   */\n      pop\n      jump\t// out\n\n    auxdata: 0xa26469706673582212205af1d4bb5c753e3a7d06d41b892f5b2c7ee21abe981c56e1bb1aba47902e35ba64736f6c63430008010033\n}\n",
				"bytecode": {
					"linkReferences": {},
					"object": "608060405234801561001057600080fd5b50610317806100206000396000f3fe608060405234801561001057600080fd5b50600436106100365760003560e01c8063188b85b41461003b578063c12363a21461006b575b600080fd5b6100556004803603810190610050919061013f565b610089565b6040516100629190610177565b60405180910390f35b6100736100d5565b6040516100809190610177565b60405180910390f35b6000806000905060008390505b83600a6100a39190610192565b8110156100cb5780826100b69190610192565b915080806100c3906101f2565b915050610096565b5080915050919050565b600080600090506000600190505b600a8110156101225760006002826100fb919061023b565b1461010f57808261010c9190610192565b91505b808061011a906101f2565b9150506100e3565b819250505090565b600081359050610139816102ca565b92915050565b60006020828403121561015157600080fd5b600061015f8482850161012a565b91505092915050565b610171816101e8565b82525050565b600060208201905061018c6000830184610168565b92915050565b600061019d826101e8565b91506101a8836101e8565b9250827fffffffffffffffffffffffffffffffffffffffffffffffffffffffffffffffff038211156101dd576101dc61026c565b5b828201905092915050565b6000819050919050565b60006101fd826101e8565b91507fffffffffffffffffffffffffffffffffffffffffffffffffffffffffffffffff8214156102305761022f61026c565b5b600182019050919050565b6000610246826101e8565b9150610251836101e8565b9250826102615761026061029b565b5b828206905092915050565b7f4e487b7100000000000000000000000000000000000000000000000000000000600052601160045260246000fd5b7f4e487b7100000000000000000000000000000000000000000000000000000000600052601260045260246000fd5b6102d3816101e8565b81146102de57600080fd5b5056fea26469706673582212205af1d4bb5c753e3a7d06d41b892f5b2c7ee21abe981c56e1bb1aba47902e35ba64736f6c63430008010033",
					"opcodes": "PUSH1 0x80 PUSH1 0x40 MSTORE CALLVALUE DUP1 ISZERO PUSH2 0x10 JUMPI PUSH1 0x0 DUP1 REVERT JUMPDEST POP PUSH2 0x317 DUP1 PUSH2 0x20 PUSH1 0x0 CODECOPY PUSH1 0x0 RETURN INVALID PUSH1 0x80 PUSH1 0x40 MSTORE CALLVALUE DUP1 ISZERO PUSH2 0x10 JUMPI PUSH1 0x0 DUP1 REVERT JUMPDEST POP PUSH1 0x4 CALLDATASIZE LT PUSH2 0x36 JUMPI PUSH1 0x0 CALLDATALOAD PUSH1 0xE0 SHR DUP1 PUSH4 0x188B85B4 EQ PUSH2 0x3B JUMPI DUP1 PUSH4 0xC12363A2 EQ PUSH2 0x6B JUMPI JUMPDEST PUSH1 0x0 DUP1 REVERT JUMPDEST PUSH2 0x55 PUSH1 0x4 DUP1 CALLDATASIZE SUB DUP2 ADD SWAP1 PUSH2 0x50 SWAP2 SWAP1 PUSH2 0x13F JUMP JUMPDEST PUSH2 0x89 JUMP JUMPDEST PUSH1 0x40 MLOAD PUSH2 0x62 SWAP2 SWAP1 PUSH2 0x177 JUMP JUMPDEST PUSH1 0x40 MLOAD DUP1 SWAP2 SUB SWAP1 RETURN JUMPDEST PUSH2 0x73 PUSH2 0xD5 JUMP JUMPDEST PUSH1 0x40 MLOAD PUSH2 0x80 SWAP2 SWAP1 PUSH2 0x177 JUMP JUMPDEST PUSH1 0x40 MLOAD DUP1 SWAP2 SUB SWAP1 RETURN JUMPDEST PUSH1 0x0 DUP1 PUSH1 0x0 SWAP1 POP PUSH1 0x0 DUP4 SWAP1 POP JUMPDEST DUP4 PUSH1 0xA PUSH2 0xA3 SWAP2 SWAP1 PUSH2 0x192 JUMP JUMPDEST DUP2 LT ISZERO PUSH2 0xCB JUMPI DUP1 DUP3 PUSH2 0xB6 SWAP2 SWAP1 PUSH2 0x192 JUMP JUMPDEST SWAP2 POP DUP1 DUP1 PUSH2 0xC3 SWAP1 PUSH2 0x1F2 JUMP JUMPDEST SWAP2 POP POP PUSH2 0x96 JUMP JUMPDEST POP DUP1 SWAP2 POP POP SWAP2 SWAP1 POP JUMP JUMPDEST PUSH1 0x0 DUP1 PUSH1 0x0 SWAP1 POP PUSH1 0x0 PUSH1 0x1 SWAP1 POP JUMPDEST PUSH1 0xA DUP2 LT ISZERO PUSH2 0x122 JUMPI PUSH1 0x0 PUSH1 0x2 DUP3 PUSH2 0xFB SWAP2 SWAP1 PUSH2 0x23B JUMP JUMPDEST EQ PUSH2 0x10F JUMPI DUP1 DUP3 PUSH2 0x10C SWAP2 SWAP1 PUSH2 0x192 JUMP JUMPDEST SWAP2 POP JUMPDEST DUP1 DUP1 PUSH2 0x11A SWAP1 PUSH2 0x1F2 JUMP JUMPDEST SWAP2 POP POP PUSH2 0xE3 JUMP JUMPDEST DUP2 SWAP3 POP POP POP SWAP1 JUMP JUMPDEST PUSH1 0x0 DUP2 CALLDATALOAD SWAP1 POP PUSH2 0x139 DUP2 PUSH2 0x2CA JUMP JUMPDEST SWAP3 SWAP2 POP POP JUMP JUMPDEST PUSH1 0x0 PUSH1 0x20 DUP3 DUP5 SUB SLT ISZERO PUSH2 0x151 JUMPI PUSH1 0x0 DUP1 REVERT JUMPDEST PUSH1 0x0 PUSH2 0x15F DUP5 DUP3 DUP6 ADD PUSH2 0x12A JUMP JUMPDEST SWAP2 POP POP SWAP3 SWAP2 POP POP JUMP JUMPDEST PUSH2 0x171 DUP2 PUSH2 0x1E8 JUMP JUMPDEST DUP3 MSTORE POP POP JUMP JUMPDEST PUSH1 0x0 PUSH1 0x20 DUP3 ADD SWAP1 POP PUSH2 0x18C PUSH1 0x0 DUP4 ADD DUP5 PUSH2 0x168 JUMP JUMPDEST SWAP3 SWAP2 POP POP JUMP JUMPDEST PUSH1 0x0 PUSH2 0x19D DUP3 PUSH2 0x1E8 JUMP JUMPDEST SWAP2 POP PUSH2 0x1A8 DUP4 PUSH2 0x1E8 JUMP JUMPDEST SWAP3 POP DUP3 PUSH32 0xFFFFFFFFFFFFFFFFFFFFFFFFFFFFFFFFFFFFFFFFFFFFFFFFFFFFFFFFFFFFFFFF SUB DUP3 GT ISZERO PUSH2 0x1DD JUMPI PUSH2 0x1DC PUSH2 0x26C JUMP JUMPDEST JUMPDEST DUP3 DUP3 ADD SWAP1 POP SWAP3 SWAP2 POP POP JUMP JUMPDEST PUSH1 0x0 DUP2 SWAP1 POP SWAP2 SWAP1 POP JUMP JUMPDEST PUSH1 0x0 PUSH2 0x1FD DUP3 PUSH2 0x1E8 JUMP JUMPDEST SWAP2 POP PUSH32 0xFFFFFFFFFFFFFFFFFFFFFFFFFFFFFFFFFFFFFFFFFFFFFFFFFFFFFFFFFFFFFFFF DUP3 EQ ISZERO PUSH2 0x230 JUMPI PUSH2 0x22F PUSH2 0x26C JUMP JUMPDEST JUMPDEST PUSH1 0x1 DUP3 ADD SWAP1 POP SWAP2 SWAP1 POP JUMP JUMPDEST PUSH1 0x0 PUSH2 0x246 DUP3 PUSH2 0x1E8 JUMP JUMPDEST SWAP2 POP PUSH2 0x251 DUP4 PUSH2 0x1E8 JUMP JUMPDEST SWAP3 POP DUP3 PUSH2 0x261 JUMPI PUSH2 0x260 PUSH2 0x29B JUMP JUMPDEST JUMPDEST DUP3 DUP3 MOD SWAP1 POP SWAP3 SWAP2 POP POP JUMP JUMPDEST PUSH32 0x4E487B7100000000000000000000000000000000000000000000000000000000 PUSH1 0x0 MSTORE PUSH1 0x11 PUSH1 0x4 MSTORE PUSH1 0x24 PUSH1 0x0 REVERT JUMPDEST PUSH32 0x4E487B7100000000000000000000000000000000000000000000000000000000 PUSH1 0x0 MSTORE PUSH1 0x12 PUSH1 0x4 MSTORE PUSH1 0x24 PUSH1 0x0 REVERT JUMPDEST PUSH2 0x2D3 DUP2 PUSH2 0x1E8 JUMP JUMPDEST DUP2 EQ PUSH2 0x2DE JUMPI PUSH1 0x0 DUP1 REVERT JUMPDEST POP JUMP INVALID LOG2 PUSH5 0x6970667358 0x22 SLT KECCAK256 GAS CALL 0xD4 0xBB 0x5C PUSH22 0x3E3A7D06D41B892F5B2C7EE21ABE981C56E1BB1ABA47 SWAP1 0x2E CALLDATALOAD 0xBA PUSH5 0x736F6C6343 STOP ADDMOD ADD STOP CALLER "
				},
				"gasEstimates": {
					"creation": {
						"codeDepositCost": "158200",
						"executionCost": "202",
						"totalCost": "158402"
					},
					"external": {
						"odd()": "infinite",
						"sum(uint256)": "infinite"
					}
				},
				"methodIdentifiers": {
					"odd()": "c12363a2",
					"sum(uint256)": "188b85b4"
				}
			},
			"storageLayout": {
				"storage": [],
				"types": null
			},
			"userdoc": {
				"kind": "user",
				"methods": {},
				"version": 1
			}
		}
	}
}