{
	"contracts/4_functions.sol": {
		"functions": {
			"abi": [
				{
					"anonymous": false,
					"inputs": [
						{
							"indexed": false,
							"internalType": "string",
							"name": "",
							"type": "string"
						},
						{
							"indexed": false,
							"internalType": "address",
							"name": "",
							"type": "address"
						},
						{
							"indexed": false,
							"internalType": "uint256",
							"name": "",
							"type": "uint256"
						}
					],
					"name": "payment",
					"type": "event"
				},
				{
					"inputs": [
						{
							"internalType": "string",
							"name": "_name",
							"type": "string"
						},
						{
							"internalType": "address",
							"name": "",
							"type": "address"
						},
						{
							"internalType": "uint256",
							"name": "_amount",
							"type": "uint256"
						}
					],
					"name": "doPayment",
					"outputs": [],
					"stateMutability": "payable",
					"type": "function"
				},
				{
					"inputs": [],
					"name": "getBalance",
					"outputs": [
						{
							"components": [
								{
									"internalType": "string",
									"name": "_name",
									"type": "string"
								},
								{
									"internalType": "address",
									"name": "_address",
									"type": "address"
								},
								{
									"internalType": "uint256",
									"name": "_amount",
									"type": "uint256"
								}
							],
							"internalType": "struct functions.wallet",
							"name": "",
							"type": "tuple"
						}
					],
					"stateMutability": "view",
					"type": "function"
				},
				{
					"inputs": [],
					"name": "getName",
					"outputs": [
						{
							"internalType": "string",
							"name": "",
							"type": "string"
						}
					],
					"stateMutability": "pure",
					"type": "function"
				},
				{
					"inputs": [],
					"name": "getNumber",
					"outputs": [
						{
							"internalType": "uint256",
							"name": "",
							"type": "uint256"
						}
					],
					"stateMutability": "view",
					"type": "function"
				}
			],
			"devdoc": {
				"kind": "dev",
				"methods": {},
				"version": 1
			},
			"evm": {
				"assembly": "    /* \"contracts/4_functions.sol\":74:1050  contract functions {\r... */\n  mstore(0x40, 0x80)\n    /* \"contracts/4_functions.sol\":259:262  100 */\n  0x64\n    /* \"contracts/4_functions.sol\":247:262  uint256 x = 100 */\n  0x00\n  sstore\n    /* \"contracts/4_functions.sol\":74:1050  contract functions {\r... */\n  callvalue\n  dup1\n  iszero\n  tag_1\n  jumpi\n  0x00\n  dup1\n  revert\ntag_1:\n  pop\n  dataSize(sub_0)\n  dup1\n  dataOffset(sub_0)\n  0x00\n  codecopy\n  0x00\n  return\nstop\n\nsub_0: assembly {\n        /* \"contracts/4_functions.sol\":74:1050  contract functions {\r... */\n      mstore(0x40, 0x80)\n      jumpi(tag_1, lt(calldatasize, 0x04))\n      shr(0xe0, calldataload(0x00))\n      dup1\n      0x12065fe0\n      eq\n      tag_2\n      jumpi\n      dup1\n      0x17d7de7c\n      eq\n      tag_3\n      jumpi\n      dup1\n      0xc95a2bc1\n      eq\n      tag_4\n      jumpi\n      dup1\n      0xf2c9ecd8\n      eq\n      tag_5\n      jumpi\n    tag_1:\n      0x00\n      dup1\n      revert\n        /* \"contracts/4_functions.sol\":934:1041  function getBalance() public view returns (wallet memory) {\r... */\n    tag_2:\n      callvalue\n      dup1\n      iszero\n      tag_6\n      jumpi\n      0x00\n      dup1\n      revert\n    tag_6:\n      pop\n      tag_7\n      tag_8\n      jump\t// in\n    tag_7:\n      mload(0x40)\n      tag_9\n      swap2\n      swap1\n      tag_10\n      jump\t// in\n    tag_9:\n      mload(0x40)\n      dup1\n      swap2\n      sub\n      swap1\n      return\n        /* \"contracts/4_functions.sol\":122:216  function getName() public pure returns (string memory){\r... */\n    tag_3:\n      callvalue\n      dup1\n      iszero\n      tag_11\n      jumpi\n      0x00\n      dup1\n      revert\n    tag_11:\n      pop\n      tag_12\n      tag_13\n      jump\t// in\n    tag_12:\n      mload(0x40)\n      tag_14\n      swap2\n      swap1\n      tag_15\n      jump\t// in\n    tag_14:\n      mload(0x40)\n      dup1\n      swap2\n      sub\n      swap1\n      return\n        /* \"contracts/4_functions.sol\":577:926  function doPayment(string memory _name, address, uint256 _amount) public payable {\r... */\n    tag_4:\n      tag_16\n      0x04\n      dup1\n      calldatasize\n      sub\n      dup2\n      add\n      swap1\n      tag_17\n      swap2\n      swap1\n      tag_18\n      jump\t// in\n    tag_17:\n      tag_19\n      jump\t// in\n    tag_16:\n      stop\n        /* \"contracts/4_functions.sol\":269:348  function getNumber() public view returns (uint256){\r... */\n    tag_5:\n      callvalue\n      dup1\n      iszero\n      tag_20\n      jumpi\n      0x00\n      dup1\n      revert\n    tag_20:\n      pop\n      tag_21\n      tag_22\n      jump\t// in\n    tag_21:\n      mload(0x40)\n      tag_23\n      swap2\n      swap1\n      tag_24\n      jump\t// in\n    tag_23:\n      mload(0x40)\n      dup1\n      swap2\n      sub\n      swap1\n      return\n        /* \"contracts/4_functions.sol\":934:1041  function getBalance() public view returns (wallet memory) {\r... */\n    tag_8:\n        /* \"contracts/4_functions.sol\":977:990  wallet memory */\n      tag_25\n      tag_26\n      jump\t// in\n    tag_25:\n        /* \"contracts/4_functions.sol\":1010:1021  moneyWallet */\n      0x01\n        /* \"contracts/4_functions.sol\":1010:1033  moneyWallet[msg.sender] */\n      0x00\n        /* \"contracts/4_functions.sol\":1022:1032  msg.sender */\n      caller\n        /* \"contracts/4_functions.sol\":1010:1033  moneyWallet[msg.sender] */\n      0xffffffffffffffffffffffffffffffffffffffff\n      and\n      0xffffffffffffffffffffffffffffffffffffffff\n      and\n      dup2\n      mstore\n      0x20\n      add\n      swap1\n      dup2\n      mstore\n      0x20\n      add\n      0x00\n      keccak256\n        /* \"contracts/4_functions.sol\":1003:1033  return moneyWallet[msg.sender] */\n      mload(0x40)\n      dup1\n      0x60\n      add\n      0x40\n      mstore\n      swap1\n      dup2\n      0x00\n      dup3\n      add\n      dup1\n      sload\n      tag_28\n      swap1\n      tag_29\n      jump\t// in\n    tag_28:\n      dup1\n      0x1f\n      add\n      0x20\n      dup1\n      swap2\n      div\n      mul\n      0x20\n      add\n      mload(0x40)\n      swap1\n      dup2\n      add\n      0x40\n      mstore\n      dup1\n      swap3\n      swap2\n      swap1\n      dup2\n      dup2\n      mstore\n      0x20\n      add\n      dup3\n      dup1\n      sload\n      tag_30\n      swap1\n      tag_29\n      jump\t// in\n    tag_30:\n      dup1\n      iszero\n      tag_31\n      jumpi\n      dup1\n      0x1f\n      lt\n      tag_32\n      jumpi\n      0x0100\n      dup1\n      dup4\n      sload\n      div\n      mul\n      dup4\n      mstore\n      swap2\n      0x20\n      add\n      swap2\n      jump(tag_31)\n    tag_32:\n      dup3\n      add\n      swap2\n      swap1\n      0x00\n      mstore\n      keccak256(0x00, 0x20)\n      swap1\n    tag_33:\n      dup2\n      sload\n      dup2\n      mstore\n      swap1\n      0x01\n      add\n      swap1\n      0x20\n      add\n      dup1\n      dup4\n      gt\n      tag_33\n      jumpi\n      dup3\n      swap1\n      sub\n      0x1f\n      and\n      dup3\n      add\n      swap2\n    tag_31:\n      pop\n      pop\n      pop\n      pop\n      pop\n      dup2\n      mstore\n      0x20\n      add\n      0x01\n      dup3\n      add\n      0x00\n      swap1\n      sload\n      swap1\n      0x0100\n      exp\n      swap1\n      div\n      0xffffffffffffffffffffffffffffffffffffffff\n      and\n      0xffffffffffffffffffffffffffffffffffffffff\n      and\n      0xffffffffffffffffffffffffffffffffffffffff\n      and\n      dup2\n      mstore\n      0x20\n      add\n      0x02\n      dup3\n      add\n      sload\n      dup2\n      mstore\n      pop\n      pop\n      swap1\n      pop\n        /* \"contracts/4_functions.sol\":934:1041  function getBalance() public view returns (wallet memory) {\r... */\n      swap1\n      jump\t// out\n        /* \"contracts/4_functions.sol\":122:216  function getName() public pure returns (string memory){\r... */\n    tag_13:\n        /* \"contracts/4_functions.sol\":162:175  string memory */\n      0x60\n        /* \"contracts/4_functions.sol\":187:206  return \"Mariza/Luz\" */\n      mload(0x40)\n      dup1\n      0x40\n      add\n      0x40\n      mstore\n      dup1\n      0x0a\n      dup2\n      mstore\n      0x20\n      add\n      0x4d6172697a612f4c757a00000000000000000000000000000000000000000000\n      dup2\n      mstore\n      pop\n      swap1\n      pop\n        /* \"contracts/4_functions.sol\":122:216  function getName() public pure returns (string memory){\r... */\n      swap1\n      jump\t// out\n        /* \"contracts/4_functions.sol\":577:926  function doPayment(string memory _name, address, uint256 _amount) public payable {\r... */\n    tag_19:\n        /* \"contracts/4_functions.sol\":669:690  wallet memory wallet1 */\n      tag_36\n      tag_26\n      jump\t// in\n    tag_36:\n        /* \"contracts/4_functions.sol\":711:745  wallet(_name, msg.sender, _amount) */\n      mload(0x40)\n      dup1\n      0x60\n      add\n      0x40\n      mstore\n      dup1\n        /* \"contracts/4_functions.sol\":718:723  _name */\n      dup6\n        /* \"contracts/4_functions.sol\":711:745  wallet(_name, msg.sender, _amount) */\n      dup2\n      mstore\n      0x20\n      add\n        /* \"contracts/4_functions.sol\":725:735  msg.sender */\n      caller\n        /* \"contracts/4_functions.sol\":711:745  wallet(_name, msg.sender, _amount) */\n      0xffffffffffffffffffffffffffffffffffffffff\n      and\n      dup2\n      mstore\n      0x20\n      add\n        /* \"contracts/4_functions.sol\":737:744  _amount */\n      dup4\n        /* \"contracts/4_functions.sol\":711:745  wallet(_name, msg.sender, _amount) */\n      dup2\n      mstore\n      pop\n        /* \"contracts/4_functions.sol\":701:745  wallet1 = wallet(_name, msg.sender, _amount) */\n      swap1\n      pop\n        /* \"contracts/4_functions.sol\":782:789  wallet1 */\n      dup1\n        /* \"contracts/4_functions.sol\":756:767  moneyWallet */\n      0x01\n        /* \"contracts/4_functions.sol\":756:779  moneyWallet[msg.sender] */\n      0x00\n        /* \"contracts/4_functions.sol\":768:778  msg.sender */\n      caller\n        /* \"contracts/4_functions.sol\":756:779  moneyWallet[msg.sender] */\n      0xffffffffffffffffffffffffffffffffffffffff\n      and\n      0xffffffffffffffffffffffffffffffffffffffff\n      and\n      dup2\n      mstore\n      0x20\n      add\n      swap1\n      dup2\n      mstore\n      0x20\n      add\n      0x00\n      keccak256\n        /* \"contracts/4_functions.sol\":756:789  moneyWallet[msg.sender] = wallet1 */\n      0x00\n      dup3\n      add\n      mload\n      dup2\n      0x00\n      add\n      swap1\n      dup1\n      mload\n      swap1\n      0x20\n      add\n      swap1\n      tag_37\n      swap3\n      swap2\n      swap1\n      tag_38\n      jump\t// in\n    tag_37:\n      pop\n      0x20\n      dup3\n      add\n      mload\n      dup2\n      0x01\n      add\n      exp(0x0100, 0x00)\n      dup2\n      sload\n      dup2\n      0xffffffffffffffffffffffffffffffffffffffff\n      mul\n      not\n      and\n      swap1\n      dup4\n      0xffffffffffffffffffffffffffffffffffffffff\n      and\n      mul\n      or\n      swap1\n      sstore\n      pop\n      0x40\n      dup3\n      add\n      mload\n      dup2\n      0x02\n      add\n      sstore\n      swap1\n      pop\n      pop\n        /* \"contracts/4_functions.sol\":840:850  msg.sender */\n      caller\n        /* \"contracts/4_functions.sol\":832:860  payable(msg.sender).transfer */\n      0xffffffffffffffffffffffffffffffffffffffff\n      and\n        /* \"contracts/4_functions.sol\":832:869  payable(msg.sender).transfer(_amount) */\n      0x08fc\n        /* \"contracts/4_functions.sol\":861:868  _amount */\n      dup4\n        /* \"contracts/4_functions.sol\":832:869  payable(msg.sender).transfer(_amount) */\n      swap1\n      dup2\n      iszero\n      mul\n      swap1\n      mload(0x40)\n      0x00\n      mload(0x40)\n      dup1\n      dup4\n      sub\n      dup2\n      dup6\n      dup9\n      dup9\n      call\n      swap4\n      pop\n      pop\n      pop\n      pop\n      iszero\n      dup1\n      iszero\n      tag_40\n      jumpi\n      returndatasize\n      0x00\n      dup1\n      returndatacopy\n      revert(0x00, returndatasize)\n    tag_40:\n      pop\n        /* \"contracts/4_functions.sol\":882:918  payment (_name, msg.sender, _amount) */\n      0xc264679cde2b2f253d4bb45d2ad3bb0fdc690247bcf832a60693f3253e726771\n        /* \"contracts/4_functions.sol\":891:896  _name */\n      dup5\n        /* \"contracts/4_functions.sol\":898:908  msg.sender */\n      caller\n        /* \"contracts/4_functions.sol\":910:917  _amount */\n      dup5\n        /* \"contracts/4_functions.sol\":882:918  payment (_name, msg.sender, _amount) */\n      mload(0x40)\n      tag_41\n      swap4\n      swap3\n      swap2\n      swap1\n      tag_42\n      jump\t// in\n    tag_41:\n      mload(0x40)\n      dup1\n      swap2\n      sub\n      swap1\n      log1\n        /* \"contracts/4_functions.sol\":577:926  function doPayment(string memory _name, address, uint256 _amount) public payable {\r... */\n      pop\n      pop\n      pop\n      pop\n      jump\t// out\n        /* \"contracts/4_functions.sol\":269:348  function getNumber() public view returns (uint256){\r... */\n    tag_22:\n        /* \"contracts/4_functions.sol\":311:318  uint256 */\n      0x00\n        /* \"contracts/4_functions.sol\":339:340  2 */\n      0x02\n        /* \"contracts/4_functions.sol\":337:338  x */\n      sload(0x00)\n        /* \"contracts/4_functions.sol\":337:340  x*2 */\n      tag_44\n      swap2\n      swap1\n      tag_45\n      jump\t// in\n    tag_44:\n        /* \"contracts/4_functions.sol\":330:340  return x*2 */\n      swap1\n      pop\n        /* \"contracts/4_functions.sol\":269:348  function getNumber() public view returns (uint256){\r... */\n      swap1\n      jump\t// out\n    tag_26:\n      mload(0x40)\n      dup1\n      0x60\n      add\n      0x40\n      mstore\n      dup1\n      0x60\n      dup2\n      mstore\n      0x20\n      add\n      and(0xffffffffffffffffffffffffffffffffffffffff, 0x00)\n      dup2\n      mstore\n      0x20\n      add\n      0x00\n      dup2\n      mstore\n      pop\n      swap1\n      jump\t// out\n    tag_38:\n      dup3\n      dup1\n      sload\n      tag_46\n      swap1\n      tag_29\n      jump\t// in\n    tag_46:\n      swap1\n      0x00\n      mstore\n      keccak256(0x00, 0x20)\n      swap1\n      0x1f\n      add\n      0x20\n      swap1\n      div\n      dup2\n      add\n      swap3\n      dup3\n      tag_48\n      jumpi\n      0x00\n      dup6\n      sstore\n      jump(tag_47)\n    tag_48:\n      dup3\n      0x1f\n      lt\n      tag_49\n      jumpi\n      dup1\n      mload\n      not(0xff)\n      and\n      dup4\n      dup1\n      add\n      or\n      dup6\n      sstore\n      jump(tag_47)\n    tag_49:\n      dup3\n      dup1\n      add\n      0x01\n      add\n      dup6\n      sstore\n      dup3\n      iszero\n      tag_47\n      jumpi\n      swap2\n      dup3\n      add\n    tag_50:\n      dup3\n      dup2\n      gt\n      iszero\n      tag_51\n      jumpi\n      dup3\n      mload\n      dup3\n      sstore\n      swap2\n      0x20\n      add\n      swap2\n      swap1\n      0x01\n      add\n      swap1\n      jump(tag_50)\n    tag_51:\n    tag_47:\n      pop\n      swap1\n      pop\n      tag_52\n      swap2\n      swap1\n      tag_53\n      jump\t// in\n    tag_52:\n      pop\n      swap1\n      jump\t// out\n    tag_53:\n    tag_54:\n      dup1\n      dup3\n      gt\n      iszero\n      tag_55\n      jumpi\n      0x00\n      dup2\n      0x00\n      swap1\n      sstore\n      pop\n      0x01\n      add\n      jump(tag_54)\n    tag_55:\n      pop\n      swap1\n      jump\t// out\n        /* \"#utility.yul\":7:352   */\n    tag_57:\n      0x00\n        /* \"#utility.yul\":110:176   */\n      tag_59\n        /* \"#utility.yul\":126:175   */\n      tag_60\n        /* \"#utility.yul\":168:174   */\n      dup5\n        /* \"#utility.yul\":126:175   */\n      tag_61\n      jump\t// in\n    tag_60:\n        /* \"#utility.yul\":110:176   */\n      tag_62\n      jump\t// in\n    tag_59:\n        /* \"#utility.yul\":101:176   */\n      swap1\n      pop\n        /* \"#utility.yul\":199:205   */\n      dup3\n        /* \"#utility.yul\":192:197   */\n      dup2\n        /* \"#utility.yul\":185:206   */\n      mstore\n        /* \"#utility.yul\":237:241   */\n      0x20\n        /* \"#utility.yul\":230:235   */\n      dup2\n        /* \"#utility.yul\":226:242   */\n      add\n        /* \"#utility.yul\":275:278   */\n      dup5\n        /* \"#utility.yul\":266:272   */\n      dup5\n        /* \"#utility.yul\":261:264   */\n      dup5\n        /* \"#utility.yul\":257:273   */\n      add\n        /* \"#utility.yul\":254:279   */\n      gt\n        /* \"#utility.yul\":251:253   */\n      iszero\n      tag_63\n      jumpi\n        /* \"#utility.yul\":292:293   */\n      0x00\n        /* \"#utility.yul\":289:290   */\n      dup1\n        /* \"#utility.yul\":282:294   */\n      revert\n        /* \"#utility.yul\":251:253   */\n    tag_63:\n        /* \"#utility.yul\":305:346   */\n      tag_64\n        /* \"#utility.yul\":339:345   */\n      dup5\n        /* \"#utility.yul\":334:337   */\n      dup3\n        /* \"#utility.yul\":329:332   */\n      dup6\n        /* \"#utility.yul\":305:346   */\n      tag_65\n      jump\t// in\n    tag_64:\n        /* \"#utility.yul\":91:352   */\n      pop\n      swap4\n      swap3\n      pop\n      pop\n      pop\n      jump\t// out\n        /* \"#utility.yul\":358:497   */\n    tag_66:\n      0x00\n        /* \"#utility.yul\":442:448   */\n      dup2\n        /* \"#utility.yul\":429:449   */\n      calldataload\n        /* \"#utility.yul\":420:449   */\n      swap1\n      pop\n        /* \"#utility.yul\":458:491   */\n      tag_68\n        /* \"#utility.yul\":485:490   */\n      dup2\n        /* \"#utility.yul\":458:491   */\n      tag_69\n      jump\t// in\n    tag_68:\n        /* \"#utility.yul\":410:497   */\n      swap3\n      swap2\n      pop\n      pop\n      jump\t// out\n        /* \"#utility.yul\":517:790   */\n    tag_70:\n      0x00\n        /* \"#utility.yul\":622:625   */\n      dup3\n        /* \"#utility.yul\":615:619   */\n      0x1f\n        /* \"#utility.yul\":607:613   */\n      dup4\n        /* \"#utility.yul\":603:620   */\n      add\n        /* \"#utility.yul\":599:626   */\n      slt\n        /* \"#utility.yul\":589:591   */\n      tag_72\n      jumpi\n        /* \"#utility.yul\":640:641   */\n      0x00\n        /* \"#utility.yul\":637:638   */\n      dup1\n        /* \"#utility.yul\":630:642   */\n      revert\n        /* \"#utility.yul\":589:591   */\n    tag_72:\n        /* \"#utility.yul\":680:686   */\n      dup2\n        /* \"#utility.yul\":667:687   */\n      calldataload\n        /* \"#utility.yul\":705:784   */\n      tag_73\n        /* \"#utility.yul\":780:783   */\n      dup5\n        /* \"#utility.yul\":772:778   */\n      dup3\n        /* \"#utility.yul\":765:769   */\n      0x20\n        /* \"#utility.yul\":757:763   */\n      dup7\n        /* \"#utility.yul\":753:770   */\n      add\n        /* \"#utility.yul\":705:784   */\n      tag_57\n      jump\t// in\n    tag_73:\n        /* \"#utility.yul\":696:784   */\n      swap2\n      pop\n        /* \"#utility.yul\":579:790   */\n      pop\n      swap3\n      swap2\n      pop\n      pop\n      jump\t// out\n        /* \"#utility.yul\":796:935   */\n    tag_74:\n      0x00\n        /* \"#utility.yul\":880:886   */\n      dup2\n        /* \"#utility.yul\":867:887   */\n      calldataload\n        /* \"#utility.yul\":858:887   */\n      swap1\n      pop\n        /* \"#utility.yul\":896:929   */\n      tag_76\n        /* \"#utility.yul\":923:928   */\n      dup2\n        /* \"#utility.yul\":896:929   */\n      tag_77\n      jump\t// in\n    tag_76:\n        /* \"#utility.yul\":848:935   */\n      swap3\n      swap2\n      pop\n      pop\n      jump\t// out\n        /* \"#utility.yul\":941:1606   */\n    tag_18:\n      0x00\n      dup1\n      0x00\n        /* \"#utility.yul\":1093:1095   */\n      0x60\n        /* \"#utility.yul\":1081:1090   */\n      dup5\n        /* \"#utility.yul\":1072:1079   */\n      dup7\n        /* \"#utility.yul\":1068:1091   */\n      sub\n        /* \"#utility.yul\":1064:1096   */\n      slt\n        /* \"#utility.yul\":1061:1063   */\n      iszero\n      tag_79\n      jumpi\n        /* \"#utility.yul\":1109:1110   */\n      0x00\n        /* \"#utility.yul\":1106:1107   */\n      dup1\n        /* \"#utility.yul\":1099:1111   */\n      revert\n        /* \"#utility.yul\":1061:1063   */\n    tag_79:\n        /* \"#utility.yul\":1180:1181   */\n      0x00\n        /* \"#utility.yul\":1169:1178   */\n      dup5\n        /* \"#utility.yul\":1165:1182   */\n      add\n        /* \"#utility.yul\":1152:1183   */\n      calldataload\n        /* \"#utility.yul\":1210:1228   */\n      0xffffffffffffffff\n        /* \"#utility.yul\":1202:1208   */\n      dup2\n        /* \"#utility.yul\":1199:1229   */\n      gt\n        /* \"#utility.yul\":1196:1198   */\n      iszero\n      tag_80\n      jumpi\n        /* \"#utility.yul\":1242:1243   */\n      0x00\n        /* \"#utility.yul\":1239:1240   */\n      dup1\n        /* \"#utility.yul\":1232:1244   */\n      revert\n        /* \"#utility.yul\":1196:1198   */\n    tag_80:\n        /* \"#utility.yul\":1270:1333   */\n      tag_81\n        /* \"#utility.yul\":1325:1332   */\n      dup7\n        /* \"#utility.yul\":1316:1322   */\n      dup3\n        /* \"#utility.yul\":1305:1314   */\n      dup8\n        /* \"#utility.yul\":1301:1323   */\n      add\n        /* \"#utility.yul\":1270:1333   */\n      tag_70\n      jump\t// in\n    tag_81:\n        /* \"#utility.yul\":1260:1333   */\n      swap4\n      pop\n        /* \"#utility.yul\":1123:1343   */\n      pop\n        /* \"#utility.yul\":1382:1384   */\n      0x20\n        /* \"#utility.yul\":1408:1461   */\n      tag_82\n        /* \"#utility.yul\":1453:1460   */\n      dup7\n        /* \"#utility.yul\":1444:1450   */\n      dup3\n        /* \"#utility.yul\":1433:1442   */\n      dup8\n        /* \"#utility.yul\":1429:1451   */\n      add\n        /* \"#utility.yul\":1408:1461   */\n      tag_66\n      jump\t// in\n    tag_82:\n        /* \"#utility.yul\":1398:1461   */\n      swap3\n      pop\n        /* \"#utility.yul\":1353:1471   */\n      pop\n        /* \"#utility.yul\":1510:1512   */\n      0x40\n        /* \"#utility.yul\":1536:1589   */\n      tag_83\n        /* \"#utility.yul\":1581:1588   */\n      dup7\n        /* \"#utility.yul\":1572:1578   */\n      dup3\n        /* \"#utility.yul\":1561:1570   */\n      dup8\n        /* \"#utility.yul\":1557:1579   */\n      add\n        /* \"#utility.yul\":1536:1589   */\n      tag_74\n      jump\t// in\n    tag_83:\n        /* \"#utility.yul\":1526:1589   */\n      swap2\n      pop\n        /* \"#utility.yul\":1481:1599   */\n      pop\n        /* \"#utility.yul\":1051:1606   */\n      swap3\n      pop\n      swap3\n      pop\n      swap3\n      jump\t// out\n        /* \"#utility.yul\":1612:1720   */\n    tag_84:\n        /* \"#utility.yul\":1689:1713   */\n      tag_86\n        /* \"#utility.yul\":1707:1712   */\n      dup2\n        /* \"#utility.yul\":1689:1713   */\n      tag_87\n      jump\t// in\n    tag_86:\n        /* \"#utility.yul\":1684:1687   */\n      dup3\n        /* \"#utility.yul\":1677:1714   */\n      mstore\n        /* \"#utility.yul\":1667:1720   */\n      pop\n      pop\n      jump\t// out\n        /* \"#utility.yul\":1726:1844   */\n    tag_88:\n        /* \"#utility.yul\":1813:1837   */\n      tag_90\n        /* \"#utility.yul\":1831:1836   */\n      dup2\n        /* \"#utility.yul\":1813:1837   */\n      tag_87\n      jump\t// in\n    tag_90:\n        /* \"#utility.yul\":1808:1811   */\n      dup3\n        /* \"#utility.yul\":1801:1838   */\n      mstore\n        /* \"#utility.yul\":1791:1844   */\n      pop\n      pop\n      jump\t// out\n        /* \"#utility.yul\":1850:2194   */\n    tag_91:\n      0x00\n        /* \"#utility.yul\":1956:1995   */\n      tag_93\n        /* \"#utility.yul\":1989:1994   */\n      dup3\n        /* \"#utility.yul\":1956:1995   */\n      tag_94\n      jump\t// in\n    tag_93:\n        /* \"#utility.yul\":2011:2072   */\n      tag_95\n        /* \"#utility.yul\":2065:2071   */\n      dup2\n        /* \"#utility.yul\":2060:2063   */\n      dup6\n        /* \"#utility.yul\":2011:2072   */\n      tag_96\n      jump\t// in\n    tag_95:\n        /* \"#utility.yul\":2004:2072   */\n      swap4\n      pop\n        /* \"#utility.yul\":2081:2133   */\n      tag_97\n        /* \"#utility.yul\":2126:2132   */\n      dup2\n        /* \"#utility.yul\":2121:2124   */\n      dup6\n        /* \"#utility.yul\":2114:2118   */\n      0x20\n        /* \"#utility.yul\":2107:2112   */\n      dup7\n        /* \"#utility.yul\":2103:2119   */\n      add\n        /* \"#utility.yul\":2081:2133   */\n      tag_98\n      jump\t// in\n    tag_97:\n        /* \"#utility.yul\":2158:2187   */\n      tag_99\n        /* \"#utility.yul\":2180:2186   */\n      dup2\n        /* \"#utility.yul\":2158:2187   */\n      tag_100\n      jump\t// in\n    tag_99:\n        /* \"#utility.yul\":2153:2156   */\n      dup5\n        /* \"#utility.yul\":2149:2188   */\n      add\n        /* \"#utility.yul\":2142:2188   */\n      swap2\n      pop\n        /* \"#utility.yul\":1932:2194   */\n      pop\n      swap3\n      swap2\n      pop\n      pop\n      jump\t// out\n        /* \"#utility.yul\":2200:2564   */\n    tag_101:\n      0x00\n        /* \"#utility.yul\":2316:2355   */\n      tag_103\n        /* \"#utility.yul\":2349:2354   */\n      dup3\n        /* \"#utility.yul\":2316:2355   */\n      tag_94\n      jump\t// in\n    tag_103:\n        /* \"#utility.yul\":2371:2442   */\n      tag_104\n        /* \"#utility.yul\":2435:2441   */\n      dup2\n        /* \"#utility.yul\":2430:2433   */\n      dup6\n        /* \"#utility.yul\":2371:2442   */\n      tag_105\n      jump\t// in\n    tag_104:\n        /* \"#utility.yul\":2364:2442   */\n      swap4\n      pop\n        /* \"#utility.yul\":2451:2503   */\n      tag_106\n        /* \"#utility.yul\":2496:2502   */\n      dup2\n        /* \"#utility.yul\":2491:2494   */\n      dup6\n        /* \"#utility.yul\":2484:2488   */\n      0x20\n        /* \"#utility.yul\":2477:2482   */\n      dup7\n        /* \"#utility.yul\":2473:2489   */\n      add\n        /* \"#utility.yul\":2451:2503   */\n      tag_98\n      jump\t// in\n    tag_106:\n        /* \"#utility.yul\":2528:2557   */\n      tag_107\n        /* \"#utility.yul\":2550:2556   */\n      dup2\n        /* \"#utility.yul\":2528:2557   */\n      tag_100\n      jump\t// in\n    tag_107:\n        /* \"#utility.yul\":2523:2526   */\n      dup5\n        /* \"#utility.yul\":2519:2558   */\n      add\n        /* \"#utility.yul\":2512:2558   */\n      swap2\n      pop\n        /* \"#utility.yul\":2292:2564   */\n      pop\n      swap3\n      swap2\n      pop\n      pop\n      jump\t// out\n        /* \"#utility.yul\":2628:3410   */\n    tag_108:\n      0x00\n        /* \"#utility.yul\":2777:2781   */\n      0x60\n        /* \"#utility.yul\":2772:2775   */\n      dup4\n        /* \"#utility.yul\":2768:2782   */\n      add\n        /* \"#utility.yul\":2865:2869   */\n      0x00\n        /* \"#utility.yul\":2858:2863   */\n      dup4\n        /* \"#utility.yul\":2854:2870   */\n      add\n        /* \"#utility.yul\":2848:2871   */\n      mload\n        /* \"#utility.yul\":2918:2921   */\n      dup5\n        /* \"#utility.yul\":2912:2916   */\n      dup3\n        /* \"#utility.yul\":2908:2922   */\n      sub\n        /* \"#utility.yul\":2901:2905   */\n      0x00\n        /* \"#utility.yul\":2896:2899   */\n      dup7\n        /* \"#utility.yul\":2892:2906   */\n      add\n        /* \"#utility.yul\":2885:2923   */\n      mstore\n        /* \"#utility.yul\":2944:3017   */\n      tag_110\n        /* \"#utility.yul\":3012:3016   */\n      dup3\n        /* \"#utility.yul\":2998:3010   */\n      dup3\n        /* \"#utility.yul\":2944:3017   */\n      tag_91\n      jump\t// in\n    tag_110:\n        /* \"#utility.yul\":2936:3017   */\n      swap2\n      pop\n        /* \"#utility.yul\":2792:3028   */\n      pop\n        /* \"#utility.yul\":3114:3118   */\n      0x20\n        /* \"#utility.yul\":3107:3112   */\n      dup4\n        /* \"#utility.yul\":3103:3119   */\n      add\n        /* \"#utility.yul\":3097:3120   */\n      mload\n        /* \"#utility.yul\":3133:3196   */\n      tag_111\n        /* \"#utility.yul\":3190:3194   */\n      0x20\n        /* \"#utility.yul\":3185:3188   */\n      dup7\n        /* \"#utility.yul\":3181:3195   */\n      add\n        /* \"#utility.yul\":3167:3179   */\n      dup3\n        /* \"#utility.yul\":3133:3196   */\n      tag_84\n      jump\t// in\n    tag_111:\n        /* \"#utility.yul\":3038:3206   */\n      pop\n        /* \"#utility.yul\":3291:3295   */\n      0x40\n        /* \"#utility.yul\":3284:3289   */\n      dup4\n        /* \"#utility.yul\":3280:3296   */\n      add\n        /* \"#utility.yul\":3274:3297   */\n      mload\n        /* \"#utility.yul\":3310:3373   */\n      tag_112\n        /* \"#utility.yul\":3367:3371   */\n      0x40\n        /* \"#utility.yul\":3362:3365   */\n      dup7\n        /* \"#utility.yul\":3358:3372   */\n      add\n        /* \"#utility.yul\":3344:3356   */\n      dup3\n        /* \"#utility.yul\":3310:3373   */\n      tag_113\n      jump\t// in\n    tag_112:\n        /* \"#utility.yul\":3216:3383   */\n      pop\n        /* \"#utility.yul\":3400:3404   */\n      dup1\n        /* \"#utility.yul\":3393:3404   */\n      swap2\n      pop\n        /* \"#utility.yul\":2746:3410   */\n      pop\n      swap3\n      swap2\n      pop\n      pop\n      jump\t// out\n        /* \"#utility.yul\":3416:3524   */\n    tag_113:\n        /* \"#utility.yul\":3493:3517   */\n      tag_115\n        /* \"#utility.yul\":3511:3516   */\n      dup2\n        /* \"#utility.yul\":3493:3517   */\n      tag_116\n      jump\t// in\n    tag_115:\n        /* \"#utility.yul\":3488:3491   */\n      dup3\n        /* \"#utility.yul\":3481:3518   */\n      mstore\n        /* \"#utility.yul\":3471:3524   */\n      pop\n      pop\n      jump\t// out\n        /* \"#utility.yul\":3530:3648   */\n    tag_117:\n        /* \"#utility.yul\":3617:3641   */\n      tag_119\n        /* \"#utility.yul\":3635:3640   */\n      dup2\n        /* \"#utility.yul\":3617:3641   */\n      tag_116\n      jump\t// in\n    tag_119:\n        /* \"#utility.yul\":3612:3615   */\n      dup3\n        /* \"#utility.yul\":3605:3642   */\n      mstore\n        /* \"#utility.yul\":3595:3648   */\n      pop\n      pop\n      jump\t// out\n        /* \"#utility.yul\":3654:3967   */\n    tag_15:\n      0x00\n        /* \"#utility.yul\":3805:3807   */\n      0x20\n        /* \"#utility.yul\":3794:3803   */\n      dup3\n        /* \"#utility.yul\":3790:3808   */\n      add\n        /* \"#utility.yul\":3782:3808   */\n      swap1\n      pop\n        /* \"#utility.yul\":3854:3863   */\n      dup2\n        /* \"#utility.yul\":3848:3852   */\n      dup2\n        /* \"#utility.yul\":3844:3864   */\n      sub\n        /* \"#utility.yul\":3840:3841   */\n      0x00\n        /* \"#utility.yul\":3829:3838   */\n      dup4\n        /* \"#utility.yul\":3825:3842   */\n      add\n        /* \"#utility.yul\":3818:3865   */\n      mstore\n        /* \"#utility.yul\":3882:3960   */\n      tag_121\n        /* \"#utility.yul\":3955:3959   */\n      dup2\n        /* \"#utility.yul\":3946:3952   */\n      dup5\n        /* \"#utility.yul\":3882:3960   */\n      tag_101\n      jump\t// in\n    tag_121:\n        /* \"#utility.yul\":3874:3960   */\n      swap1\n      pop\n        /* \"#utility.yul\":3772:3967   */\n      swap3\n      swap2\n      pop\n      pop\n      jump\t// out\n        /* \"#utility.yul\":3973:4506   */\n    tag_42:\n      0x00\n        /* \"#utility.yul\":4180:4182   */\n      0x60\n        /* \"#utility.yul\":4169:4178   */\n      dup3\n        /* \"#utility.yul\":4165:4183   */\n      add\n        /* \"#utility.yul\":4157:4183   */\n      swap1\n      pop\n        /* \"#utility.yul\":4229:4238   */\n      dup2\n        /* \"#utility.yul\":4223:4227   */\n      dup2\n        /* \"#utility.yul\":4219:4239   */\n      sub\n        /* \"#utility.yul\":4215:4216   */\n      0x00\n        /* \"#utility.yul\":4204:4213   */\n      dup4\n        /* \"#utility.yul\":4200:4217   */\n      add\n        /* \"#utility.yul\":4193:4240   */\n      mstore\n        /* \"#utility.yul\":4257:4335   */\n      tag_123\n        /* \"#utility.yul\":4330:4334   */\n      dup2\n        /* \"#utility.yul\":4321:4327   */\n      dup7\n        /* \"#utility.yul\":4257:4335   */\n      tag_101\n      jump\t// in\n    tag_123:\n        /* \"#utility.yul\":4249:4335   */\n      swap1\n      pop\n        /* \"#utility.yul\":4345:4417   */\n      tag_124\n        /* \"#utility.yul\":4413:4415   */\n      0x20\n        /* \"#utility.yul\":4402:4411   */\n      dup4\n        /* \"#utility.yul\":4398:4416   */\n      add\n        /* \"#utility.yul\":4389:4395   */\n      dup6\n        /* \"#utility.yul\":4345:4417   */\n      tag_88\n      jump\t// in\n    tag_124:\n        /* \"#utility.yul\":4427:4499   */\n      tag_125\n        /* \"#utility.yul\":4495:4497   */\n      0x40\n        /* \"#utility.yul\":4484:4493   */\n      dup4\n        /* \"#utility.yul\":4480:4498   */\n      add\n        /* \"#utility.yul\":4471:4477   */\n      dup5\n        /* \"#utility.yul\":4427:4499   */\n      tag_117\n      jump\t// in\n    tag_125:\n        /* \"#utility.yul\":4147:4506   */\n      swap5\n      swap4\n      pop\n      pop\n      pop\n      pop\n      jump\t// out\n        /* \"#utility.yul\":4512:4873   */\n    tag_10:\n      0x00\n        /* \"#utility.yul\":4687:4689   */\n      0x20\n        /* \"#utility.yul\":4676:4685   */\n      dup3\n        /* \"#utility.yul\":4672:4690   */\n      add\n        /* \"#utility.yul\":4664:4690   */\n      swap1\n      pop\n        /* \"#utility.yul\":4736:4745   */\n      dup2\n        /* \"#utility.yul\":4730:4734   */\n      dup2\n        /* \"#utility.yul\":4726:4746   */\n      sub\n        /* \"#utility.yul\":4722:4723   */\n      0x00\n        /* \"#utility.yul\":4711:4720   */\n      dup4\n        /* \"#utility.yul\":4707:4724   */\n      add\n        /* \"#utility.yul\":4700:4747   */\n      mstore\n        /* \"#utility.yul\":4764:4866   */\n      tag_127\n        /* \"#utility.yul\":4861:4865   */\n      dup2\n        /* \"#utility.yul\":4852:4858   */\n      dup5\n        /* \"#utility.yul\":4764:4866   */\n      tag_108\n      jump\t// in\n    tag_127:\n        /* \"#utility.yul\":4756:4866   */\n      swap1\n      pop\n        /* \"#utility.yul\":4654:4873   */\n      swap3\n      swap2\n      pop\n      pop\n      jump\t// out\n        /* \"#utility.yul\":4879:5101   */\n    tag_24:\n      0x00\n        /* \"#utility.yul\":5010:5012   */\n      0x20\n        /* \"#utility.yul\":4999:5008   */\n      dup3\n        /* \"#utility.yul\":4995:5013   */\n      add\n        /* \"#utility.yul\":4987:5013   */\n      swap1\n      pop\n        /* \"#utility.yul\":5023:5094   */\n      tag_129\n        /* \"#utility.yul\":5091:5092   */\n      0x00\n        /* \"#utility.yul\":5080:5089   */\n      dup4\n        /* \"#utility.yul\":5076:5093   */\n      add\n        /* \"#utility.yul\":5067:5073   */\n      dup5\n        /* \"#utility.yul\":5023:5094   */\n      tag_117\n      jump\t// in\n    tag_129:\n        /* \"#utility.yul\":4977:5101   */\n      swap3\n      swap2\n      pop\n      pop\n      jump\t// out\n        /* \"#utility.yul\":5107:5236   */\n    tag_62:\n      0x00\n        /* \"#utility.yul\":5168:5188   */\n      tag_131\n      tag_132\n      jump\t// in\n    tag_131:\n        /* \"#utility.yul\":5158:5188   */\n      swap1\n      pop\n        /* \"#utility.yul\":5197:5230   */\n      tag_133\n        /* \"#utility.yul\":5225:5229   */\n      dup3\n        /* \"#utility.yul\":5217:5223   */\n      dup3\n        /* \"#utility.yul\":5197:5230   */\n      tag_134\n      jump\t// in\n    tag_133:\n        /* \"#utility.yul\":5148:5236   */\n      swap2\n      swap1\n      pop\n      jump\t// out\n        /* \"#utility.yul\":5242:5317   */\n    tag_132:\n      0x00\n        /* \"#utility.yul\":5308:5310   */\n      0x40\n        /* \"#utility.yul\":5302:5311   */\n      mload\n        /* \"#utility.yul\":5292:5311   */\n      swap1\n      pop\n        /* \"#utility.yul\":5282:5317   */\n      swap1\n      jump\t// out\n        /* \"#utility.yul\":5323:5631   */\n    tag_61:\n      0x00\n        /* \"#utility.yul\":5475:5493   */\n      0xffffffffffffffff\n        /* \"#utility.yul\":5467:5473   */\n      dup3\n        /* \"#utility.yul\":5464:5494   */\n      gt\n        /* \"#utility.yul\":5461:5463   */\n      iszero\n      tag_137\n      jumpi\n        /* \"#utility.yul\":5497:5515   */\n      tag_138\n      tag_139\n      jump\t// in\n    tag_138:\n        /* \"#utility.yul\":5461:5463   */\n    tag_137:\n        /* \"#utility.yul\":5535:5564   */\n      tag_140\n        /* \"#utility.yul\":5557:5563   */\n      dup3\n        /* \"#utility.yul\":5535:5564   */\n      tag_100\n      jump\t// in\n    tag_140:\n        /* \"#utility.yul\":5527:5564   */\n      swap1\n      pop\n        /* \"#utility.yul\":5619:5623   */\n      0x20\n        /* \"#utility.yul\":5613:5617   */\n      dup2\n        /* \"#utility.yul\":5609:5624   */\n      add\n        /* \"#utility.yul\":5601:5624   */\n      swap1\n      pop\n        /* \"#utility.yul\":5390:5631   */\n      swap2\n      swap1\n      pop\n      jump\t// out\n        /* \"#utility.yul\":5637:5736   */\n    tag_94:\n      0x00\n        /* \"#utility.yul\":5723:5728   */\n      dup2\n        /* \"#utility.yul\":5717:5729   */\n      mload\n        /* \"#utility.yul\":5707:5729   */\n      swap1\n      pop\n        /* \"#utility.yul\":5696:5736   */\n      swap2\n      swap1\n      pop\n      jump\t// out\n        /* \"#utility.yul\":5742:5901   */\n    tag_96:\n      0x00\n        /* \"#utility.yul\":5850:5856   */\n      dup3\n        /* \"#utility.yul\":5845:5848   */\n      dup3\n        /* \"#utility.yul\":5838:5857   */\n      mstore\n        /* \"#utility.yul\":5890:5894   */\n      0x20\n        /* \"#utility.yul\":5885:5888   */\n      dup3\n        /* \"#utility.yul\":5881:5895   */\n      add\n        /* \"#utility.yul\":5866:5895   */\n      swap1\n      pop\n        /* \"#utility.yul\":5828:5901   */\n      swap3\n      swap2\n      pop\n      pop\n      jump\t// out\n        /* \"#utility.yul\":5907:6076   */\n    tag_105:\n      0x00\n        /* \"#utility.yul\":6025:6031   */\n      dup3\n        /* \"#utility.yul\":6020:6023   */\n      dup3\n        /* \"#utility.yul\":6013:6032   */\n      mstore\n        /* \"#utility.yul\":6065:6069   */\n      0x20\n        /* \"#utility.yul\":6060:6063   */\n      dup3\n        /* \"#utility.yul\":6056:6070   */\n      add\n        /* \"#utility.yul\":6041:6070   */\n      swap1\n      pop\n        /* \"#utility.yul\":6003:6076   */\n      swap3\n      swap2\n      pop\n      pop\n      jump\t// out\n        /* \"#utility.yul\":6082:6430   */\n    tag_45:\n      0x00\n        /* \"#utility.yul\":6145:6165   */\n      tag_145\n        /* \"#utility.yul\":6163:6164   */\n      dup3\n        /* \"#utility.yul\":6145:6165   */\n      tag_116\n      jump\t// in\n    tag_145:\n        /* \"#utility.yul\":6140:6165   */\n      swap2\n      pop\n        /* \"#utility.yul\":6179:6199   */\n      tag_146\n        /* \"#utility.yul\":6197:6198   */\n      dup4\n        /* \"#utility.yul\":6179:6199   */\n      tag_116\n      jump\t// in\n    tag_146:\n        /* \"#utility.yul\":6174:6199   */\n      swap3\n      pop\n        /* \"#utility.yul\":6367:6368   */\n      dup2\n        /* \"#utility.yul\":6299:6365   */\n      0xffffffffffffffffffffffffffffffffffffffffffffffffffffffffffffffff\n        /* \"#utility.yul\":6295:6369   */\n      div\n        /* \"#utility.yul\":6292:6293   */\n      dup4\n        /* \"#utility.yul\":6289:6370   */\n      gt\n        /* \"#utility.yul\":6284:6285   */\n      dup3\n        /* \"#utility.yul\":6277:6286   */\n      iszero\n        /* \"#utility.yul\":6270:6287   */\n      iszero\n        /* \"#utility.yul\":6266:6371   */\n      and\n        /* \"#utility.yul\":6263:6265   */\n      iszero\n      tag_147\n      jumpi\n        /* \"#utility.yul\":6374:6392   */\n      tag_148\n      tag_149\n      jump\t// in\n    tag_148:\n        /* \"#utility.yul\":6263:6265   */\n    tag_147:\n        /* \"#utility.yul\":6422:6423   */\n      dup3\n        /* \"#utility.yul\":6419:6420   */\n      dup3\n        /* \"#utility.yul\":6415:6424   */\n      mul\n        /* \"#utility.yul\":6404:6424   */\n      swap1\n      pop\n        /* \"#utility.yul\":6130:6430   */\n      swap3\n      swap2\n      pop\n      pop\n      jump\t// out\n        /* \"#utility.yul\":6436:6532   */\n    tag_87:\n      0x00\n        /* \"#utility.yul\":6502:6526   */\n      tag_151\n        /* \"#utility.yul\":6520:6525   */\n      dup3\n        /* \"#utility.yul\":6502:6526   */\n      tag_152\n      jump\t// in\n    tag_151:\n        /* \"#utility.yul\":6491:6526   */\n      swap1\n      pop\n        /* \"#utility.yul\":6481:6532   */\n      swap2\n      swap1\n      pop\n      jump\t// out\n        /* \"#utility.yul\":6538:6664   */\n    tag_152:\n      0x00\n        /* \"#utility.yul\":6615:6657   */\n      0xffffffffffffffffffffffffffffffffffffffff\n        /* \"#utility.yul\":6608:6613   */\n      dup3\n        /* \"#utility.yul\":6604:6658   */\n      and\n        /* \"#utility.yul\":6593:6658   */\n      swap1\n      pop\n        /* \"#utility.yul\":6583:6664   */\n      swap2\n      swap1\n      pop\n      jump\t// out\n        /* \"#utility.yul\":6670:6747   */\n    tag_116:\n      0x00\n        /* \"#utility.yul\":6736:6741   */\n      dup2\n        /* \"#utility.yul\":6725:6741   */\n      swap1\n      pop\n        /* \"#utility.yul\":6715:6747   */\n      swap2\n      swap1\n      pop\n      jump\t// out\n        /* \"#utility.yul\":6753:6907   */\n    tag_65:\n        /* \"#utility.yul\":6837:6843   */\n      dup3\n        /* \"#utility.yul\":6832:6835   */\n      dup2\n        /* \"#utility.yul\":6827:6830   */\n      dup4\n        /* \"#utility.yul\":6814:6844   */\n      calldatacopy\n        /* \"#utility.yul\":6899:6900   */\n      0x00\n        /* \"#utility.yul\":6890:6896   */\n      dup4\n        /* \"#utility.yul\":6885:6888   */\n      dup4\n        /* \"#utility.yul\":6881:6897   */\n      add\n        /* \"#utility.yul\":6874:6901   */\n      mstore\n        /* \"#utility.yul\":6804:6907   */\n      pop\n      pop\n      pop\n      jump\t// out\n        /* \"#utility.yul\":6913:7220   */\n    tag_98:\n        /* \"#utility.yul\":6981:6982   */\n      0x00\n        /* \"#utility.yul\":6991:7104   */\n    tag_157:\n        /* \"#utility.yul\":7005:7011   */\n      dup4\n        /* \"#utility.yul\":7002:7003   */\n      dup2\n        /* \"#utility.yul\":6999:7012   */\n      lt\n        /* \"#utility.yul\":6991:7104   */\n      iszero\n      tag_159\n      jumpi\n        /* \"#utility.yul\":7090:7091   */\n      dup1\n        /* \"#utility.yul\":7085:7088   */\n      dup3\n        /* \"#utility.yul\":7081:7092   */\n      add\n        /* \"#utility.yul\":7075:7093   */\n      mload\n        /* \"#utility.yul\":7071:7072   */\n      dup2\n        /* \"#utility.yul\":7066:7069   */\n      dup5\n        /* \"#utility.yul\":7062:7073   */\n      add\n        /* \"#utility.yul\":7055:7094   */\n      mstore\n        /* \"#utility.yul\":7027:7029   */\n      0x20\n        /* \"#utility.yul\":7024:7025   */\n      dup2\n        /* \"#utility.yul\":7020:7030   */\n      add\n        /* \"#utility.yul\":7015:7030   */\n      swap1\n      pop\n        /* \"#utility.yul\":6991:7104   */\n      jump(tag_157)\n    tag_159:\n        /* \"#utility.yul\":7122:7128   */\n      dup4\n        /* \"#utility.yul\":7119:7120   */\n      dup2\n        /* \"#utility.yul\":7116:7129   */\n      gt\n        /* \"#utility.yul\":7113:7115   */\n      iszero\n      tag_160\n      jumpi\n        /* \"#utility.yul\":7202:7203   */\n      0x00\n        /* \"#utility.yul\":7193:7199   */\n      dup5\n        /* \"#utility.yul\":7188:7191   */\n      dup5\n        /* \"#utility.yul\":7184:7200   */\n      add\n        /* \"#utility.yul\":7177:7204   */\n      mstore\n        /* \"#utility.yul\":7113:7115   */\n    tag_160:\n        /* \"#utility.yul\":6962:7220   */\n      pop\n      pop\n      pop\n      pop\n      jump\t// out\n        /* \"#utility.yul\":7226:7546   */\n    tag_29:\n      0x00\n        /* \"#utility.yul\":7307:7308   */\n      0x02\n        /* \"#utility.yul\":7301:7305   */\n      dup3\n        /* \"#utility.yul\":7297:7309   */\n      div\n        /* \"#utility.yul\":7287:7309   */\n      swap1\n      pop\n        /* \"#utility.yul\":7354:7355   */\n      0x01\n        /* \"#utility.yul\":7348:7352   */\n      dup3\n        /* \"#utility.yul\":7344:7356   */\n      and\n        /* \"#utility.yul\":7375:7393   */\n      dup1\n        /* \"#utility.yul\":7365:7367   */\n      tag_162\n      jumpi\n        /* \"#utility.yul\":7431:7435   */\n      0x7f\n        /* \"#utility.yul\":7423:7429   */\n      dup3\n        /* \"#utility.yul\":7419:7436   */\n      and\n        /* \"#utility.yul\":7409:7436   */\n      swap2\n      pop\n        /* \"#utility.yul\":7365:7367   */\n    tag_162:\n        /* \"#utility.yul\":7493:7495   */\n      0x20\n        /* \"#utility.yul\":7485:7491   */\n      dup3\n        /* \"#utility.yul\":7482:7496   */\n      lt\n        /* \"#utility.yul\":7462:7480   */\n      dup2\n        /* \"#utility.yul\":7459:7497   */\n      eq\n        /* \"#utility.yul\":7456:7458   */\n      iszero\n      tag_163\n      jumpi\n        /* \"#utility.yul\":7512:7530   */\n      tag_164\n      tag_165\n      jump\t// in\n    tag_164:\n        /* \"#utility.yul\":7456:7458   */\n    tag_163:\n        /* \"#utility.yul\":7277:7546   */\n      pop\n      swap2\n      swap1\n      pop\n      jump\t// out\n        /* \"#utility.yul\":7552:7833   */\n    tag_134:\n        /* \"#utility.yul\":7635:7662   */\n      tag_167\n        /* \"#utility.yul\":7657:7661   */\n      dup3\n        /* \"#utility.yul\":7635:7662   */\n      tag_100\n      jump\t// in\n    tag_167:\n        /* \"#utility.yul\":7627:7633   */\n      dup2\n        /* \"#utility.yul\":7623:7663   */\n      add\n        /* \"#utility.yul\":7765:7771   */\n      dup2\n        /* \"#utility.yul\":7753:7763   */\n      dup2\n        /* \"#utility.yul\":7750:7772   */\n      lt\n        /* \"#utility.yul\":7729:7747   */\n      0xffffffffffffffff\n        /* \"#utility.yul\":7717:7727   */\n      dup3\n        /* \"#utility.yul\":7714:7748   */\n      gt\n        /* \"#utility.yul\":7711:7773   */\n      or\n        /* \"#utility.yul\":7708:7710   */\n      iszero\n      tag_168\n      jumpi\n        /* \"#utility.yul\":7776:7794   */\n      tag_169\n      tag_139\n      jump\t// in\n    tag_169:\n        /* \"#utility.yul\":7708:7710   */\n    tag_168:\n        /* \"#utility.yul\":7816:7826   */\n      dup1\n        /* \"#utility.yul\":7812:7814   */\n      0x40\n        /* \"#utility.yul\":7805:7827   */\n      mstore\n        /* \"#utility.yul\":7595:7833   */\n      pop\n      pop\n      pop\n      jump\t// out\n        /* \"#utility.yul\":7839:8019   */\n    tag_149:\n        /* \"#utility.yul\":7887:7964   */\n      0x4e487b7100000000000000000000000000000000000000000000000000000000\n        /* \"#utility.yul\":7884:7885   */\n      0x00\n        /* \"#utility.yul\":7877:7965   */\n      mstore\n        /* \"#utility.yul\":7984:7988   */\n      0x11\n        /* \"#utility.yul\":7981:7982   */\n      0x04\n        /* \"#utility.yul\":7974:7989   */\n      mstore\n        /* \"#utility.yul\":8008:8012   */\n      0x24\n        /* \"#utility.yul\":8005:8006   */\n      0x00\n        /* \"#utility.yul\":7998:8013   */\n      revert\n        /* \"#utility.yul\":8025:8205   */\n    tag_165:\n        /* \"#utility.yul\":8073:8150   */\n      0x4e487b7100000000000000000000000000000000000000000000000000000000\n        /* \"#utility.yul\":8070:8071   */\n      0x00\n        /* \"#utility.yul\":8063:8151   */\n      mstore\n        /* \"#utility.yul\":8170:8174   */\n      0x22\n        /* \"#utility.yul\":8167:8168   */\n      0x04\n        /* \"#utility.yul\":8160:8175   */\n      mstore\n        /* \"#utility.yul\":8194:8198   */\n      0x24\n        /* \"#utility.yul\":8191:8192   */\n      0x00\n        /* \"#utility.yul\":8184:8199   */\n      revert\n        /* \"#utility.yul\":8211:8391   */\n    tag_139:\n        /* \"#utility.yul\":8259:8336   */\n      0x4e487b7100000000000000000000000000000000000000000000000000000000\n        /* \"#utility.yul\":8256:8257   */\n      0x00\n        /* \"#utility.yul\":8249:8337   */\n      mstore\n        /* \"#utility.yul\":8356:8360   */\n      0x41\n        /* \"#utility.yul\":8353:8354   */\n      0x04\n        /* \"#utility.yul\":8346:8361   */\n      mstore\n        /* \"#utility.yul\":8380:8384   */\n      0x24\n        /* \"#utility.yul\":8377:8378   */\n      0x00\n        /* \"#utility.yul\":8370:8385   */\n      revert\n        /* \"#utility.yul\":8397:8499   */\n    tag_100:\n      0x00\n        /* \"#utility.yul\":8489:8491   */\n      0x1f\n        /* \"#utility.yul\":8485:8492   */\n      not\n        /* \"#utility.yul\":8480:8482   */\n      0x1f\n        /* \"#utility.yul\":8473:8478   */\n      dup4\n        /* \"#utility.yul\":8469:8483   */\n      add\n        /* \"#utility.yul\":8465:8493   */\n      and\n        /* \"#utility.yul\":8455:8493   */\n      swap1\n      pop\n        /* \"#utility.yul\":8445:8499   */\n      swap2\n      swap1\n      pop\n      jump\t// out\n        /* \"#utility.yul\":8505:8627   */\n    tag_69:\n        /* \"#utility.yul\":8578:8602   */\n      tag_175\n        /* \"#utility.yul\":8596:8601   */\n      dup2\n        /* \"#utility.yul\":8578:8602   */\n      tag_87\n      jump\t// in\n    tag_175:\n        /* \"#utility.yul\":8571:8576   */\n      dup2\n        /* \"#utility.yul\":8568:8603   */\n      eq\n        /* \"#utility.yul\":8558:8560   */\n      tag_176\n      jumpi\n        /* \"#utility.yul\":8617:8618   */\n      0x00\n        /* \"#utility.yul\":8614:8615   */\n      dup1\n        /* \"#utility.yul\":8607:8619   */\n      revert\n        /* \"#utility.yul\":8558:8560   */\n    tag_176:\n        /* \"#utility.yul\":8548:8627   */\n      pop\n      jump\t// out\n        /* \"#utility.yul\":8633:8755   */\n    tag_77:\n        /* \"#utility.yul\":8706:8730   */\n      tag_178\n        /* \"#utility.yul\":8724:8729   */\n      dup2\n        /* \"#utility.yul\":8706:8730   */\n      tag_116\n      jump\t// in\n    tag_178:\n        /* \"#utility.yul\":8699:8704   */\n      dup2\n        /* \"#utility.yul\":8696:8731   */\n      eq\n        /* \"#utility.yul\":8686:8688   */\n      tag_179\n      jumpi\n        /* \"#utility.yul\":8745:8746   */\n      0x00\n        /* \"#utility.yul\":8742:8743   */\n      dup1\n        /* \"#utility.yul\":8735:8747   */\n      revert\n        /* \"#utility.yul\":8686:8688   */\n    tag_179:\n        /* \"#utility.yul\":8676:8755   */\n      pop\n      jump\t// out\n\n    auxdata: 0xa26469706673582212205dd912cb129b82baf66bca10daf6174425bcaaa91de5132628a8dea2c6145c1c64736f6c63430008010033\n}\n",
				"bytecode": {
					"linkReferences": {},
					"object": "6080604052606460005534801561001557600080fd5b50610a1f806100256000396000f3fe60806040526004361061003f5760003560e01c806312065fe01461004457806317d7de7c1461006f578063c95a2bc11461009a578063f2c9ecd8146100b6575b600080fd5b34801561005057600080fd5b506100596100e1565b6040516100669190610722565b60405180910390f35b34801561007b57600080fd5b5061008461022a565b60405161009191906106c2565b60405180910390f35b6100b460048036038101906100af919061055d565b610267565b005b3480156100c257600080fd5b506100cb6103db565b6040516100d89190610744565b60405180910390f35b6100e96103f1565b600160003373ffffffffffffffffffffffffffffffffffffffff1673ffffffffffffffffffffffffffffffffffffffff168152602001908152602001600020604051806060016040529081600082018054610143906108ba565b80601f016020809104026020016040519081016040528092919081815260200182805461016f906108ba565b80156101bc5780601f10610191576101008083540402835291602001916101bc565b820191906000526020600020905b81548152906001019060200180831161019f57829003601f168201915b505050505081526020016001820160009054906101000a900473ffffffffffffffffffffffffffffffffffffffff1673ffffffffffffffffffffffffffffffffffffffff1673ffffffffffffffffffffffffffffffffffffffff168152602001600282015481525050905090565b60606040518060400160405280600a81526020017f4d6172697a612f4c757a00000000000000000000000000000000000000000000815250905090565b61026f6103f1565b60405180606001604052808581526020013373ffffffffffffffffffffffffffffffffffffffff16815260200183815250905080600160003373ffffffffffffffffffffffffffffffffffffffff1673ffffffffffffffffffffffffffffffffffffffff16815260200190815260200160002060008201518160000190805190602001906102fe929190610428565b5060208201518160010160006101000a81548173ffffffffffffffffffffffffffffffffffffffff021916908373ffffffffffffffffffffffffffffffffffffffff160217905550604082015181600201559050503373ffffffffffffffffffffffffffffffffffffffff166108fc839081150290604051600060405180830381858888f19350505050158015610399573d6000803e3d6000fd5b507fc264679cde2b2f253d4bb45d2ad3bb0fdc690247bcf832a60693f3253e7267718433846040516103cd939291906106e4565b60405180910390a150505050565b600060026000546103ec91906107e2565b905090565b604051806060016040528060608152602001600073ffffffffffffffffffffffffffffffffffffffff168152602001600081525090565b828054610434906108ba565b90600052602060002090601f016020900481019282610456576000855561049d565b82601f1061046f57805160ff191683800117855561049d565b8280016001018555821561049d579182015b8281111561049c578251825591602001919060010190610481565b5b5090506104aa91906104ae565b5090565b5b808211156104c75760008160009055506001016104af565b5090565b60006104de6104d984610784565b61075f565b9050828152602081018484840111156104f657600080fd5b610501848285610878565b509392505050565b600081359050610518816109bb565b92915050565b600082601f83011261052f57600080fd5b813561053f8482602086016104cb565b91505092915050565b600081359050610557816109d2565b92915050565b60008060006060848603121561057257600080fd5b600084013567ffffffffffffffff81111561058c57600080fd5b6105988682870161051e565b93505060206105a986828701610509565b92505060406105ba86828701610548565b9150509250925092565b6105cd8161083c565b82525050565b6105dc8161083c565b82525050565b60006105ed826107b5565b6105f781856107c0565b9350610607818560208601610887565b610610816109aa565b840191505092915050565b6000610626826107b5565b61063081856107d1565b9350610640818560208601610887565b610649816109aa565b840191505092915050565b6000606083016000830151848203600086015261067182826105e2565b915050602083015161068660208601826105c4565b50604083015161069960408601826106a4565b508091505092915050565b6106ad8161086e565b82525050565b6106bc8161086e565b82525050565b600060208201905081810360008301526106dc818461061b565b905092915050565b600060608201905081810360008301526106fe818661061b565b905061070d60208301856105d3565b61071a60408301846106b3565b949350505050565b6000602082019050818103600083015261073c8184610654565b905092915050565b600060208201905061075960008301846106b3565b92915050565b600061076961077a565b905061077582826108ec565b919050565b6000604051905090565b600067ffffffffffffffff82111561079f5761079e61097b565b5b6107a8826109aa565b9050602081019050919050565b600081519050919050565b600082825260208201905092915050565b600082825260208201905092915050565b60006107ed8261086e565b91506107f88361086e565b9250817fffffffffffffffffffffffffffffffffffffffffffffffffffffffffffffffff04831182151516156108315761083061091d565b5b828202905092915050565b60006108478261084e565b9050919050565b600073ffffffffffffffffffffffffffffffffffffffff82169050919050565b6000819050919050565b82818337600083830152505050565b60005b838110156108a557808201518184015260208101905061088a565b838111156108b4576000848401525b50505050565b600060028204905060018216806108d257607f821691505b602082108114156108e6576108e561094c565b5b50919050565b6108f5826109aa565b810181811067ffffffffffffffff821117156109145761091361097b565b5b80604052505050565b7f4e487b7100000000000000000000000000000000000000000000000000000000600052601160045260246000fd5b7f4e487b7100000000000000000000000000000000000000000000000000000000600052602260045260246000fd5b7f4e487b7100000000000000000000000000000000000000000000000000000000600052604160045260246000fd5b6000601f19601f8301169050919050565b6109c48161083c565b81146109cf57600080fd5b50565b6109db8161086e565b81146109e657600080fd5b5056fea26469706673582212205dd912cb129b82baf66bca10daf6174425bcaaa91de5132628a8dea2c6145c1c64736f6c63430008010033",
					"opcodes": "PUSH1 0x80 PUSH1 0x40 MSTORE PUSH1 0x64 PUSH1 0x0 SSTORE CALLVALUE DUP1 ISZERO PUSH2 0x15 JUMPI PUSH1 0x0 DUP1 REVERT JUMPDEST POP PUSH2 0xA1F DUP1 PUSH2 0x25 PUSH1 0x0 CODECOPY PUSH1 0x0 RETURN INVALID PUSH1 0x80 PUSH1 0x40 MSTORE PUSH1 0x4 CALLDATASIZE LT PUSH2 0x3F JUMPI PUSH1 0x0 CALLDATALOAD PUSH1 0xE0 SHR DUP1 PUSH4 0x12065FE0 EQ PUSH2 0x44 JUMPI DUP1 PUSH4 0x17D7DE7C EQ PUSH2 0x6F JUMPI DUP1 PUSH4 0xC95A2BC1 EQ PUSH2 0x9A JUMPI DUP1 PUSH4 0xF2C9ECD8 EQ PUSH2 0xB6 JUMPI JUMPDEST PUSH1 0x0 DUP1 REVERT JUMPDEST CALLVALUE DUP1 ISZERO PUSH2 0x50 JUMPI PUSH1 0x0 DUP1 REVERT JUMPDEST POP PUSH2 0x59 PUSH2 0xE1 JUMP JUMPDEST PUSH1 0x40 MLOAD PUSH2 0x66 SWAP2 SWAP1 PUSH2 0x722 JUMP JUMPDEST PUSH1 0x40 MLOAD DUP1 SWAP2 SUB SWAP1 RETURN JUMPDEST CALLVALUE DUP1 ISZERO PUSH2 0x7B JUMPI PUSH1 0x0 DUP1 REVERT JUMPDEST POP PUSH2 0x84 PUSH2 0x22A JUMP JUMPDEST PUSH1 0x40 MLOAD PUSH2 0x91 SWAP2 SWAP1 PUSH2 0x6C2 JUMP JUMPDEST PUSH1 0x40 MLOAD DUP1 SWAP2 SUB SWAP1 RETURN JUMPDEST PUSH2 0xB4 PUSH1 0x4 DUP1 CALLDATASIZE SUB DUP2 ADD SWAP1 PUSH2 0xAF SWAP2 SWAP1 PUSH2 0x55D JUMP JUMPDEST PUSH2 0x267 JUMP JUMPDEST STOP JUMPDEST CALLVALUE DUP1 ISZERO PUSH2 0xC2 JUMPI PUSH1 0x0 DUP1 REVERT JUMPDEST POP PUSH2 0xCB PUSH2 0x3DB JUMP JUMPDEST PUSH1 0x40 MLOAD PUSH2 0xD8 SWAP2 SWAP1 PUSH2 0x744 JUMP JUMPDEST PUSH1 0x40 MLOAD DUP1 SWAP2 SUB SWAP1 RETURN JUMPDEST PUSH2 0xE9 PUSH2 0x3F1 JUMP JUMPDEST PUSH1 0x1 PUSH1 0x0 CALLER PUSH20 0xFFFFFFFFFFFFFFFFFFFFFFFFFFFFFFFFFFFFFFFF AND PUSH20 0xFFFFFFFFFFFFFFFFFFFFFFFFFFFFFFFFFFFFFFFF AND DUP2 MSTORE PUSH1 0x20 ADD SWAP1 DUP2 MSTORE PUSH1 0x20 ADD PUSH1 0x0 KECCAK256 PUSH1 0x40 MLOAD DUP1 PUSH1 0x60 ADD PUSH1 0x40 MSTORE SWAP1 DUP2 PUSH1 0x0 DUP3 ADD DUP1 SLOAD PUSH2 0x143 SWAP1 PUSH2 0x8BA JUMP JUMPDEST DUP1 PUSH1 0x1F ADD PUSH1 0x20 DUP1 SWAP2 DIV MUL PUSH1 0x20 ADD PUSH1 0x40 MLOAD SWAP1 DUP2 ADD PUSH1 0x40 MSTORE DUP1 SWAP3 SWAP2 SWAP1 DUP2 DUP2 MSTORE PUSH1 0x20 ADD DUP3 DUP1 SLOAD PUSH2 0x16F SWAP1 PUSH2 0x8BA JUMP JUMPDEST DUP1 ISZERO PUSH2 0x1BC JUMPI DUP1 PUSH1 0x1F LT PUSH2 0x191 JUMPI PUSH2 0x100 DUP1 DUP4 SLOAD DIV MUL DUP4 MSTORE SWAP2 PUSH1 0x20 ADD SWAP2 PUSH2 0x1BC JUMP JUMPDEST DUP3 ADD SWAP2 SWAP1 PUSH1 0x0 MSTORE PUSH1 0x20 PUSH1 0x0 KECCAK256 SWAP1 JUMPDEST DUP2 SLOAD DUP2 MSTORE SWAP1 PUSH1 0x1 ADD SWAP1 PUSH1 0x20 ADD DUP1 DUP4 GT PUSH2 0x19F JUMPI DUP3 SWAP1 SUB PUSH1 0x1F AND DUP3 ADD SWAP2 JUMPDEST POP POP POP POP POP DUP2 MSTORE PUSH1 0x20 ADD PUSH1 0x1 DUP3 ADD PUSH1 0x0 SWAP1 SLOAD SWAP1 PUSH2 0x100 EXP SWAP1 DIV PUSH20 0xFFFFFFFFFFFFFFFFFFFFFFFFFFFFFFFFFFFFFFFF AND PUSH20 0xFFFFFFFFFFFFFFFFFFFFFFFFFFFFFFFFFFFFFFFF AND PUSH20 0xFFFFFFFFFFFFFFFFFFFFFFFFFFFFFFFFFFFFFFFF AND DUP2 MSTORE PUSH1 0x20 ADD PUSH1 0x2 DUP3 ADD SLOAD DUP2 MSTORE POP POP SWAP1 POP SWAP1 JUMP JUMPDEST PUSH1 0x60 PUSH1 0x40 MLOAD DUP1 PUSH1 0x40 ADD PUSH1 0x40 MSTORE DUP1 PUSH1 0xA DUP2 MSTORE PUSH1 0x20 ADD PUSH32 0x4D6172697A612F4C757A00000000000000000000000000000000000000000000 DUP2 MSTORE POP SWAP1 POP SWAP1 JUMP JUMPDEST PUSH2 0x26F PUSH2 0x3F1 JUMP JUMPDEST PUSH1 0x40 MLOAD DUP1 PUSH1 0x60 ADD PUSH1 0x40 MSTORE DUP1 DUP6 DUP2 MSTORE PUSH1 0x20 ADD CALLER PUSH20 0xFFFFFFFFFFFFFFFFFFFFFFFFFFFFFFFFFFFFFFFF AND DUP2 MSTORE PUSH1 0x20 ADD DUP4 DUP2 MSTORE POP SWAP1 POP DUP1 PUSH1 0x1 PUSH1 0x0 CALLER PUSH20 0xFFFFFFFFFFFFFFFFFFFFFFFFFFFFFFFFFFFFFFFF AND PUSH20 0xFFFFFFFFFFFFFFFFFFFFFFFFFFFFFFFFFFFFFFFF AND DUP2 MSTORE PUSH1 0x20 ADD SWAP1 DUP2 MSTORE PUSH1 0x20 ADD PUSH1 0x0 KECCAK256 PUSH1 0x0 DUP3 ADD MLOAD DUP2 PUSH1 0x0 ADD SWAP1 DUP1 MLOAD SWAP1 PUSH1 0x20 ADD SWAP1 PUSH2 0x2FE SWAP3 SWAP2 SWAP1 PUSH2 0x428 JUMP JUMPDEST POP PUSH1 0x20 DUP3 ADD MLOAD DUP2 PUSH1 0x1 ADD PUSH1 0x0 PUSH2 0x100 EXP DUP2 SLOAD DUP2 PUSH20 0xFFFFFFFFFFFFFFFFFFFFFFFFFFFFFFFFFFFFFFFF MUL NOT AND SWAP1 DUP4 PUSH20 0xFFFFFFFFFFFFFFFFFFFFFFFFFFFFFFFFFFFFFFFF AND MUL OR SWAP1 SSTORE POP PUSH1 0x40 DUP3 ADD MLOAD DUP2 PUSH1 0x2 ADD SSTORE SWAP1 POP POP CALLER PUSH20 0xFFFFFFFFFFFFFFFFFFFFFFFFFFFFFFFFFFFFFFFF AND PUSH2 0x8FC DUP4 SWAP1 DUP2 ISZERO MUL SWAP1 PUSH1 0x40 MLOAD PUSH1 0x0 PUSH1 0x40 MLOAD DUP1 DUP4 SUB DUP2 DUP6 DUP9 DUP9 CALL SWAP4 POP POP POP POP ISZERO DUP1 ISZERO PUSH2 0x399 JUMPI RETURNDATASIZE PUSH1 0x0 DUP1 RETURNDATACOPY RETURNDATASIZE PUSH1 0x0 REVERT JUMPDEST POP PUSH32 0xC264679CDE2B2F253D4BB45D2AD3BB0FDC690247BCF832A60693F3253E726771 DUP5 CALLER DUP5 PUSH1 0x40 MLOAD PUSH2 0x3CD SWAP4 SWAP3 SWAP2 SWAP1 PUSH2 0x6E4 JUMP JUMPDEST PUSH1 0x40 MLOAD DUP1 SWAP2 SUB SWAP1 LOG1 POP POP POP POP JUMP JUMPDEST PUSH1 0x0 PUSH1 0x2 PUSH1 0x0 SLOAD PUSH2 0x3EC SWAP2 SWAP1 PUSH2 0x7E2 JUMP JUMPDEST SWAP1 POP SWAP1 JUMP JUMPDEST PUSH1 0x40 MLOAD DUP1 PUSH1 0x60 ADD PUSH1 0x40 MSTORE DUP1 PUSH1 0x60 DUP2 MSTORE PUSH1 0x20 ADD PUSH1 0x0 PUSH20 0xFFFFFFFFFFFFFFFFFFFFFFFFFFFFFFFFFFFFFFFF AND DUP2 MSTORE PUSH1 0x20 ADD PUSH1 0x0 DUP2 MSTORE POP SWAP1 JUMP JUMPDEST DUP3 DUP1 SLOAD PUSH2 0x434 SWAP1 PUSH2 0x8BA JUMP JUMPDEST SWAP1 PUSH1 0x0 MSTORE PUSH1 0x20 PUSH1 0x0 KECCAK256 SWAP1 PUSH1 0x1F ADD PUSH1 0x20 SWAP1 DIV DUP2 ADD SWAP3 DUP3 PUSH2 0x456 JUMPI PUSH1 0x0 DUP6 SSTORE PUSH2 0x49D JUMP JUMPDEST DUP3 PUSH1 0x1F LT PUSH2 0x46F JUMPI DUP1 MLOAD PUSH1 0xFF NOT AND DUP4 DUP1 ADD OR DUP6 SSTORE PUSH2 0x49D JUMP JUMPDEST DUP3 DUP1 ADD PUSH1 0x1 ADD DUP6 SSTORE DUP3 ISZERO PUSH2 0x49D JUMPI SWAP2 DUP3 ADD JUMPDEST DUP3 DUP2 GT ISZERO PUSH2 0x49C JUMPI DUP3 MLOAD DUP3 SSTORE SWAP2 PUSH1 0x20 ADD SWAP2 SWAP1 PUSH1 0x1 ADD SWAP1 PUSH2 0x481 JUMP JUMPDEST JUMPDEST POP SWAP1 POP PUSH2 0x4AA SWAP2 SWAP1 PUSH2 0x4AE JUMP JUMPDEST POP SWAP1 JUMP JUMPDEST JUMPDEST DUP1 DUP3 GT ISZERO PUSH2 0x4C7 JUMPI PUSH1 0x0 DUP2 PUSH1 0x0 SWAP1 SSTORE POP PUSH1 0x1 ADD PUSH2 0x4AF JUMP JUMPDEST POP SWAP1 JUMP JUMPDEST PUSH1 0x0 PUSH2 0x4DE PUSH2 0x4D9 DUP5 PUSH2 0x784 JUMP JUMPDEST PUSH2 0x75F JUMP JUMPDEST SWAP1 POP DUP3 DUP2 MSTORE PUSH1 0x20 DUP2 ADD DUP5 DUP5 DUP5 ADD GT ISZERO PUSH2 0x4F6 JUMPI PUSH1 0x0 DUP1 REVERT JUMPDEST PUSH2 0x501 DUP5 DUP3 DUP6 PUSH2 0x878 JUMP JUMPDEST POP SWAP4 SWAP3 POP POP POP JUMP JUMPDEST PUSH1 0x0 DUP2 CALLDATALOAD SWAP1 POP PUSH2 0x518 DUP2 PUSH2 0x9BB JUMP JUMPDEST SWAP3 SWAP2 POP POP JUMP JUMPDEST PUSH1 0x0 DUP3 PUSH1 0x1F DUP4 ADD SLT PUSH2 0x52F JUMPI PUSH1 0x0 DUP1 REVERT JUMPDEST DUP2 CALLDATALOAD PUSH2 0x53F DUP5 DUP3 PUSH1 0x20 DUP7 ADD PUSH2 0x4CB JUMP JUMPDEST SWAP2 POP POP SWAP3 SWAP2 POP POP JUMP JUMPDEST PUSH1 0x0 DUP2 CALLDATALOAD SWAP1 POP PUSH2 0x557 DUP2 PUSH2 0x9D2 JUMP JUMPDEST SWAP3 SWAP2 POP POP JUMP JUMPDEST PUSH1 0x0 DUP1 PUSH1 0x0 PUSH1 0x60 DUP5 DUP7 SUB SLT ISZERO PUSH2 0x572 JUMPI PUSH1 0x0 DUP1 REVERT JUMPDEST PUSH1 0x0 DUP5 ADD CALLDATALOAD PUSH8 0xFFFFFFFFFFFFFFFF DUP2 GT ISZERO PUSH2 0x58C JUMPI PUSH1 0x0 DUP1 REVERT JUMPDEST PUSH2 0x598 DUP7 DUP3 DUP8 ADD PUSH2 0x51E JUMP JUMPDEST SWAP4 POP POP PUSH1 0x20 PUSH2 0x5A9 DUP7 DUP3 DUP8 ADD PUSH2 0x509 JUMP JUMPDEST SWAP3 POP POP PUSH1 0x40 PUSH2 0x5BA DUP7 DUP3 DUP8 ADD PUSH2 0x548 JUMP JUMPDEST SWAP2 POP POP SWAP3 POP SWAP3 POP SWAP3 JUMP JUMPDEST PUSH2 0x5CD DUP2 PUSH2 0x83C JUMP JUMPDEST DUP3 MSTORE POP POP JUMP JUMPDEST PUSH2 0x5DC DUP2 PUSH2 0x83C JUMP JUMPDEST DUP3 MSTORE POP POP JUMP JUMPDEST PUSH1 0x0 PUSH2 0x5ED DUP3 PUSH2 0x7B5 JUMP JUMPDEST PUSH2 0x5F7 DUP2 DUP6 PUSH2 0x7C0 JUMP JUMPDEST SWAP4 POP PUSH2 0x607 DUP2 DUP6 PUSH1 0x20 DUP7 ADD PUSH2 0x887 JUMP JUMPDEST PUSH2 0x610 DUP2 PUSH2 0x9AA JUMP JUMPDEST DUP5 ADD SWAP2 POP POP SWAP3 SWAP2 POP POP JUMP JUMPDEST PUSH1 0x0 PUSH2 0x626 DUP3 PUSH2 0x7B5 JUMP JUMPDEST PUSH2 0x630 DUP2 DUP6 PUSH2 0x7D1 JUMP JUMPDEST SWAP4 POP PUSH2 0x640 DUP2 DUP6 PUSH1 0x20 DUP7 ADD PUSH2 0x887 JUMP JUMPDEST PUSH2 0x649 DUP2 PUSH2 0x9AA JUMP JUMPDEST DUP5 ADD SWAP2 POP POP SWAP3 SWAP2 POP POP JUMP JUMPDEST PUSH1 0x0 PUSH1 0x60 DUP4 ADD PUSH1 0x0 DUP4 ADD MLOAD DUP5 DUP3 SUB PUSH1 0x0 DUP7 ADD MSTORE PUSH2 0x671 DUP3 DUP3 PUSH2 0x5E2 JUMP JUMPDEST SWAP2 POP POP PUSH1 0x20 DUP4 ADD MLOAD PUSH2 0x686 PUSH1 0x20 DUP7 ADD DUP3 PUSH2 0x5C4 JUMP JUMPDEST POP PUSH1 0x40 DUP4 ADD MLOAD PUSH2 0x699 PUSH1 0x40 DUP7 ADD DUP3 PUSH2 0x6A4 JUMP JUMPDEST POP DUP1 SWAP2 POP POP SWAP3 SWAP2 POP POP JUMP JUMPDEST PUSH2 0x6AD DUP2 PUSH2 0x86E JUMP JUMPDEST DUP3 MSTORE POP POP JUMP JUMPDEST PUSH2 0x6BC DUP2 PUSH2 0x86E JUMP JUMPDEST DUP3 MSTORE POP POP JUMP JUMPDEST PUSH1 0x0 PUSH1 0x20 DUP3 ADD SWAP1 POP DUP2 DUP2 SUB PUSH1 0x0 DUP4 ADD MSTORE PUSH2 0x6DC DUP2 DUP5 PUSH2 0x61B JUMP JUMPDEST SWAP1 POP SWAP3 SWAP2 POP POP JUMP JUMPDEST PUSH1 0x0 PUSH1 0x60 DUP3 ADD SWAP1 POP DUP2 DUP2 SUB PUSH1 0x0 DUP4 ADD MSTORE PUSH2 0x6FE DUP2 DUP7 PUSH2 0x61B JUMP JUMPDEST SWAP1 POP PUSH2 0x70D PUSH1 0x20 DUP4 ADD DUP6 PUSH2 0x5D3 JUMP JUMPDEST PUSH2 0x71A PUSH1 0x40 DUP4 ADD DUP5 PUSH2 0x6B3 JUMP JUMPDEST SWAP5 SWAP4 POP POP POP POP JUMP JUMPDEST PUSH1 0x0 PUSH1 0x20 DUP3 ADD SWAP1 POP DUP2 DUP2 SUB PUSH1 0x0 DUP4 ADD MSTORE PUSH2 0x73C DUP2 DUP5 PUSH2 0x654 JUMP JUMPDEST SWAP1 POP SWAP3 SWAP2 POP POP JUMP JUMPDEST PUSH1 0x0 PUSH1 0x20 DUP3 ADD SWAP1 POP PUSH2 0x759 PUSH1 0x0 DUP4 ADD DUP5 PUSH2 0x6B3 JUMP JUMPDEST SWAP3 SWAP2 POP POP JUMP JUMPDEST PUSH1 0x0 PUSH2 0x769 PUSH2 0x77A JUMP JUMPDEST SWAP1 POP PUSH2 0x775 DUP3 DUP3 PUSH2 0x8EC JUMP JUMPDEST SWAP2 SWAP1 POP JUMP JUMPDEST PUSH1 0x0 PUSH1 0x40 MLOAD SWAP1 POP SWAP1 JUMP JUMPDEST PUSH1 0x0 PUSH8 0xFFFFFFFFFFFFFFFF DUP3 GT ISZERO PUSH2 0x79F JUMPI PUSH2 0x79E PUSH2 0x97B JUMP JUMPDEST JUMPDEST PUSH2 0x7A8 DUP3 PUSH2 0x9AA JUMP JUMPDEST SWAP1 POP PUSH1 0x20 DUP2 ADD SWAP1 POP SWAP2 SWAP1 POP JUMP JUMPDEST PUSH1 0x0 DUP2 MLOAD SWAP1 POP SWAP2 SWAP1 POP JUMP JUMPDEST PUSH1 0x0 DUP3 DUP3 MSTORE PUSH1 0x20 DUP3 ADD SWAP1 POP SWAP3 SWAP2 POP POP JUMP JUMPDEST PUSH1 0x0 DUP3 DUP3 MSTORE PUSH1 0x20 DUP3 ADD SWAP1 POP SWAP3 SWAP2 POP POP JUMP JUMPDEST PUSH1 0x0 PUSH2 0x7ED DUP3 PUSH2 0x86E JUMP JUMPDEST SWAP2 POP PUSH2 0x7F8 DUP4 PUSH2 0x86E JUMP JUMPDEST SWAP3 POP DUP2 PUSH32 0xFFFFFFFFFFFFFFFFFFFFFFFFFFFFFFFFFFFFFFFFFFFFFFFFFFFFFFFFFFFFFFFF DIV DUP4 GT DUP3 ISZERO ISZERO AND ISZERO PUSH2 0x831 JUMPI PUSH2 0x830 PUSH2 0x91D JUMP JUMPDEST JUMPDEST DUP3 DUP3 MUL SWAP1 POP SWAP3 SWAP2 POP POP JUMP JUMPDEST PUSH1 0x0 PUSH2 0x847 DUP3 PUSH2 0x84E JUMP JUMPDEST SWAP1 POP SWAP2 SWAP1 POP JUMP JUMPDEST PUSH1 0x0 PUSH20 0xFFFFFFFFFFFFFFFFFFFFFFFFFFFFFFFFFFFFFFFF DUP3 AND SWAP1 POP SWAP2 SWAP1 POP JUMP JUMPDEST PUSH1 0x0 DUP2 SWAP1 POP SWAP2 SWAP1 POP JUMP JUMPDEST DUP3 DUP2 DUP4 CALLDATACOPY PUSH1 0x0 DUP4 DUP4 ADD MSTORE POP POP POP JUMP JUMPDEST PUSH1 0x0 JUMPDEST DUP4 DUP2 LT ISZERO PUSH2 0x8A5 JUMPI DUP1 DUP3 ADD MLOAD DUP2 DUP5 ADD MSTORE PUSH1 0x20 DUP2 ADD SWAP1 POP PUSH2 0x88A JUMP JUMPDEST DUP4 DUP2 GT ISZERO PUSH2 0x8B4 JUMPI PUSH1 0x0 DUP5 DUP5 ADD MSTORE JUMPDEST POP POP POP POP JUMP JUMPDEST PUSH1 0x0 PUSH1 0x2 DUP3 DIV SWAP1 POP PUSH1 0x1 DUP3 AND DUP1 PUSH2 0x8D2 JUMPI PUSH1 0x7F DUP3 AND SWAP2 POP JUMPDEST PUSH1 0x20 DUP3 LT DUP2 EQ ISZERO PUSH2 0x8E6 JUMPI PUSH2 0x8E5 PUSH2 0x94C JUMP JUMPDEST JUMPDEST POP SWAP2 SWAP1 POP JUMP JUMPDEST PUSH2 0x8F5 DUP3 PUSH2 0x9AA JUMP JUMPDEST DUP2 ADD DUP2 DUP2 LT PUSH8 0xFFFFFFFFFFFFFFFF DUP3 GT OR ISZERO PUSH2 0x914 JUMPI PUSH2 0x913 PUSH2 0x97B JUMP JUMPDEST JUMPDEST DUP1 PUSH1 0x40 MSTORE POP POP POP JUMP JUMPDEST PUSH32 0x4E487B7100000000000000000000000000000000000000000000000000000000 PUSH1 0x0 MSTORE PUSH1 0x11 PUSH1 0x4 MSTORE PUSH1 0x24 PUSH1 0x0 REVERT JUMPDEST PUSH32 0x4E487B7100000000000000000000000000000000000000000000000000000000 PUSH1 0x0 MSTORE PUSH1 0x22 PUSH1 0x4 MSTORE PUSH1 0x24 PUSH1 0x0 REVERT JUMPDEST PUSH32 0x4E487B7100000000000000000000000000000000000000000000000000000000 PUSH1 0x0 MSTORE PUSH1 0x41 PUSH1 0x4 MSTORE PUSH1 0x24 PUSH1 0x0 REVERT JUMPDEST PUSH1 0x0 PUSH1 0x1F NOT PUSH1 0x1F DUP4 ADD AND SWAP1 POP SWAP2 SWAP1 POP JUMP JUMPDEST PUSH2 0x9C4 DUP2 PUSH2 0x83C JUMP JUMPDEST DUP2 EQ PUSH2 0x9CF JUMPI PUSH1 0x0 DUP1 REVERT JUMPDEST POP JUMP JUMPDEST PUSH2 0x9DB DUP2 PUSH2 0x86E JUMP JUMPDEST DUP2 EQ PUSH2 0x9E6 JUMPI PUSH1 0x0 DUP1 REVERT JUMPDEST POP JUMP INVALID LOG2 PUSH5 0x6970667358 0x22 SLT KECCAK256 0x5D 0xD9 SLT 0xCB SLT SWAP12 DUP3 0xBA 0xF6 PUSH12 0xCA10DAF6174425BCAAA91DE5 SGT 0x26 0x28 0xA8 0xDE LOG2 0xC6 EQ 0x5C SHR PUSH5 0x736F6C6343 STOP ADDMOD ADD STOP CALLER "
				},
				"gasEstimates": {
					"creation": {
						"codeDepositCost": "518200",
						"executionCost": "20555",
						"totalCost": "538755"
					},
					"external": {
						"doPayment(string,address,uint256)": "infinite",
						"getBalance()": "infinite",
						"getName()": "infinite",
						"getNumber()": "infinite"
					}
				},
				"methodIdentifiers": {
					"doPayment(string,address,uint256)": "c95a2bc1",
					"getBalance()": "12065fe0",
					"getName()": "17d7de7c",
					"getNumber()": "f2c9ecd8"
				}
			},
			"storageLayout": {
				"storage": [
					{
						"astId": 12,
						"contract": "contracts/4_functions.sol:functions",
						"label": "x",
						"offset": 0,
						"slot": "0",
						"type": "t_uint256"
					},
					{
						"astId": 34,
						"contract": "contracts/4_functions.sol:functions",
						"label": "moneyWallet",
						"offset": 0,
						"slot": "1",
						"type": "t_mapping(t_address,t_struct(wallet)29_storage)"
					}
				],
				"types": {
					"t_address": {
						"encoding": "inplace",
						"label": "address",
						"numberOfBytes": "20"
					},
					"t_mapping(t_address,t_struct(wallet)29_storage)": {
						"encoding": "mapping",
						"key": "t_address",
						"label": "mapping(address => struct functions.wallet)",
						"numberOfBytes": "32",
						"value": "t_struct(wallet)29_storage"
					},
					"t_string_storage": {
						"encoding": "bytes",
						"label": "string",
						"numberOfBytes": "32"
					},
					"t_struct(wallet)29_storage": {
						"encoding": "inplace",
						"label": "struct functions.wallet",
						"members": [
							{
								"astId": 24,
								"contract": "contracts/4_functions.sol:functions",
								"label": "_name",
								"offset": 0,
								"slot": "0",
								"type": "t_string_storage"
							},
							{
								"astId": 26,
								"contract": "contracts/4_functions.sol:functions",
								"label": "_address",
								"offset": 0,
								"slot": "1",
								"type": "t_address"
							},
							{
								"astId": 28,
								"contract": "contracts/4_functions.sol:functions",
								"label": "_amount",
								"offset": 0,
								"slot": "2",
								"type": "t_uint256"
							}
						],
						"numberOfBytes": "96"
					},
					"t_uint256": {
						"encoding": "inplace",
						"label": "uint256",
						"numberOfBytes": "32"
					}
				}
			},
			"userdoc": {
				"kind": "user",
				"methods": {},
				"version": 1
			}
		}
	}
}